{
	"Om+.sol": {
		"OmPlus3": {
			"abi": [
				{
					"inputs": [],
					"name": "calculateFinalCommitment",
					"outputs": [
						{
							"internalType": "uint256[4]",
							"name": "",
							"type": "uint256[4]"
						}
					],
					"stateMutability": "nonpayable",
					"type": "function"
				},
				{
					"inputs": [],
					"name": "merkleRoot",
					"outputs": [
						{
							"internalType": "bytes32",
							"name": "",
							"type": "bytes32"
						}
					],
					"stateMutability": "view",
					"type": "function"
				},
				{
					"inputs": [],
					"name": "num1",
					"outputs": [
						{
							"internalType": "uint256",
							"name": "",
							"type": "uint256"
						}
					],
					"stateMutability": "view",
					"type": "function"
				},
				{
					"inputs": [],
					"name": "num2",
					"outputs": [
						{
							"internalType": "uint256",
							"name": "",
							"type": "uint256"
						}
					],
					"stateMutability": "view",
					"type": "function"
				},
				{
					"inputs": [],
					"name": "r",
					"outputs": [
						{
							"internalType": "uint256",
							"name": "",
							"type": "uint256"
						}
					],
					"stateMutability": "view",
					"type": "function"
				},
				{
					"inputs": [
						{
							"components": [
								{
									"internalType": "uint256[4]",
									"name": "numbers",
									"type": "uint256[4]"
								}
							],
							"internalType": "struct OmPlus3.Commitment[]",
							"name": "_commitments",
							"type": "tuple[]"
						}
					],
					"name": "storeCommitments",
					"outputs": [],
					"stateMutability": "nonpayable",
					"type": "function"
				},
				{
					"inputs": [
						{
							"internalType": "bytes32",
							"name": "_merkleRoot",
							"type": "bytes32"
						},
						{
							"internalType": "uint256",
							"name": "_num1",
							"type": "uint256"
						},
						{
							"internalType": "uint256",
							"name": "_num2",
							"type": "uint256"
						}
					],
					"name": "storeMerkleRootAndNumbers",
					"outputs": [],
					"stateMutability": "nonpayable",
					"type": "function"
				},
				{
					"inputs": [
						{
							"components": [
								{
									"internalType": "uint256[5]",
									"name": "outputWires",
									"type": "uint256[5]"
								},
								{
									"internalType": "uint256[5]",
									"name": "sigmas",
									"type": "uint256[5]"
								}
							],
							"internalType": "struct OmPlus3.VerifyInfo[]",
							"name": "_verifyInfos",
							"type": "tuple[]"
						},
						{
							"internalType": "uint256",
							"name": "_r",
							"type": "uint256"
						}
					],
					"name": "storeVerifyInfosAndR",
					"outputs": [],
					"stateMutability": "nonpayable",
					"type": "function"
				}
			],
			"devdoc": {
				"kind": "dev",
				"methods": {},
				"version": 1
			},
			"evm": {
				"assembly": "    /* \"Om+.sol\":169:1825  contract OmPlus3 {... */\n  mstore(0x40, 0x80)\n  callvalue\n  dup1\n  iszero\n  tag_1\n  jumpi\n  0x00\n  dup1\n  revert\ntag_1:\n  pop\n  dataSize(sub_0)\n  dup1\n  dataOffset(sub_0)\n  0x00\n  codecopy\n  0x00\n  return\nstop\n\nsub_0: assembly {\n        /* \"Om+.sol\":169:1825  contract OmPlus3 {... */\n      mstore(0x40, 0x80)\n      callvalue\n      dup1\n      iszero\n      tag_1\n      jumpi\n      0x00\n      dup1\n      revert\n    tag_1:\n      pop\n      jumpi(tag_2, lt(calldatasize, 0x04))\n      shr(0xe0, calldataload(0x00))\n      dup1\n      0x2eb4a7ab\n      gt\n      tag_11\n      jumpi\n      dup1\n      0x2eb4a7ab\n      eq\n      tag_7\n      jumpi\n      dup1\n      0x3b9eac4b\n      eq\n      tag_8\n      jumpi\n      dup1\n      0x6c8ae38c\n      eq\n      tag_9\n      jumpi\n      dup1\n      0x884ecded\n      eq\n      tag_10\n      jumpi\n      jump(tag_2)\n    tag_11:\n      dup1\n      0x03b98fdb\n      eq\n      tag_3\n      jumpi\n      dup1\n      0x105b6afc\n      eq\n      tag_4\n      jumpi\n      dup1\n      0x15d4266c\n      eq\n      tag_5\n      jumpi\n      dup1\n      0x22b34183\n      eq\n      tag_6\n      jumpi\n    tag_2:\n      0x00\n      dup1\n      revert\n        /* \"Om+.sol\":718:902  function storeMerkleRootAndNumbers(bytes32 _merkleRoot, uint256 _num1, uint256 _num2) external {... */\n    tag_3:\n      tag_12\n      0x04\n      dup1\n      calldatasize\n      sub\n      dup2\n      add\n      swap1\n      tag_13\n      swap2\n      swap1\n      tag_14\n      jump\t// in\n    tag_13:\n      tag_15\n      jump\t// in\n    tag_12:\n      stop\n        /* \"Om+.sol\":1111:1337  function storeVerifyInfosAndR(VerifyInfo[] memory _verifyInfos, uint256 _r) external {... */\n    tag_4:\n      tag_16\n      0x04\n      dup1\n      calldatasize\n      sub\n      dup2\n      add\n      swap1\n      tag_17\n      swap2\n      swap1\n      tag_18\n      jump\t// in\n    tag_17:\n      tag_19\n      jump\t// in\n    tag_16:\n      stop\n        /* \"Om+.sol\":294:313  uint256 public num2 */\n    tag_5:\n      tag_20\n      tag_21\n      jump\t// in\n    tag_20:\n      mload(0x40)\n      tag_22\n      swap2\n      swap1\n      tag_23\n      jump\t// in\n    tag_22:\n      mload(0x40)\n      dup1\n      swap2\n      sub\n      swap1\n      return\n        /* \"Om+.sol\":910:1103  function storeCommitments(Commitment[] memory _commitments) external {... */\n    tag_6:\n      tag_24\n      0x04\n      dup1\n      calldatasize\n      sub\n      dup2\n      add\n      swap1\n      tag_25\n      swap2\n      swap1\n      tag_26\n      jump\t// in\n    tag_25:\n      tag_27\n      jump\t// in\n    tag_24:\n      stop\n        /* \"Om+.sol\":236:261  bytes32 public merkleRoot */\n    tag_7:\n      tag_28\n      tag_29\n      jump\t// in\n    tag_28:\n      mload(0x40)\n      tag_30\n      swap2\n      swap1\n      tag_31\n      jump\t// in\n    tag_30:\n      mload(0x40)\n      dup1\n      swap2\n      sub\n      swap1\n      return\n        /* \"Om+.sol\":268:287  uint256 public num1 */\n    tag_8:\n      tag_32\n      tag_33\n      jump\t// in\n    tag_32:\n      mload(0x40)\n      tag_34\n      swap2\n      swap1\n      tag_23\n      jump\t// in\n    tag_34:\n      mload(0x40)\n      dup1\n      swap2\n      sub\n      swap1\n      return\n        /* \"Om+.sol\":691:707  uint256 public r */\n    tag_9:\n      tag_35\n      tag_36\n      jump\t// in\n    tag_35:\n      mload(0x40)\n      tag_37\n      swap2\n      swap1\n      tag_23\n      jump\t// in\n    tag_37:\n      mload(0x40)\n      dup1\n      swap2\n      sub\n      swap1\n      return\n        /* \"Om+.sol\":1345:1816  function calculateFinalCommitment() external returns (uint256[4] memory) {... */\n    tag_10:\n      tag_38\n      tag_39\n      jump\t// in\n    tag_38:\n      mload(0x40)\n      tag_40\n      swap2\n      swap1\n      tag_41\n      jump\t// in\n    tag_40:\n      mload(0x40)\n      dup1\n      swap2\n      sub\n      swap1\n      return\n        /* \"Om+.sol\":718:902  function storeMerkleRootAndNumbers(bytes32 _merkleRoot, uint256 _num1, uint256 _num2) external {... */\n    tag_15:\n        /* \"Om+.sol\":837:848  _merkleRoot */\n      dup3\n        /* \"Om+.sol\":824:834  merkleRoot */\n      0x00\n        /* \"Om+.sol\":824:848  merkleRoot = _merkleRoot */\n      dup2\n      swap1\n      sstore\n      pop\n        /* \"Om+.sol\":866:871  _num1 */\n      dup2\n        /* \"Om+.sol\":859:863  num1 */\n      0x01\n        /* \"Om+.sol\":859:871  num1 = _num1 */\n      dup2\n      swap1\n      sstore\n      pop\n        /* \"Om+.sol\":889:894  _num2 */\n      dup1\n        /* \"Om+.sol\":882:886  num2 */\n      0x02\n        /* \"Om+.sol\":882:894  num2 = _num2 */\n      dup2\n      swap1\n      sstore\n      pop\n        /* \"Om+.sol\":718:902  function storeMerkleRootAndNumbers(bytes32 _merkleRoot, uint256 _num1, uint256 _num2) external {... */\n      pop\n      pop\n      pop\n      jump\t// out\n        /* \"Om+.sol\":1111:1337  function storeVerifyInfosAndR(VerifyInfo[] memory _verifyInfos, uint256 _r) external {... */\n    tag_19:\n        /* \"Om+.sol\":1211:1217  uint i */\n      0x00\n        /* \"Om+.sol\":1207:1313  for(uint i = 0; i < _verifyInfos.length; i++) {... */\n    tag_44:\n        /* \"Om+.sol\":1227:1239  _verifyInfos */\n      dup3\n        /* \"Om+.sol\":1227:1246  _verifyInfos.length */\n      mload\n        /* \"Om+.sol\":1223:1224  i */\n      dup2\n        /* \"Om+.sol\":1223:1246  i < _verifyInfos.length */\n      lt\n        /* \"Om+.sol\":1207:1313  for(uint i = 0; i < _verifyInfos.length; i++) {... */\n      iszero\n      tag_45\n      jumpi\n        /* \"Om+.sol\":1268:1279  verifyInfos */\n      0x08\n        /* \"Om+.sol\":1285:1297  _verifyInfos */\n      dup4\n        /* \"Om+.sol\":1298:1299  i */\n      dup3\n        /* \"Om+.sol\":1285:1300  _verifyInfos[i] */\n      dup2\n      mload\n      dup2\n      lt\n      tag_47\n      jumpi\n      tag_48\n      tag_49\n      jump\t// in\n    tag_48:\n    tag_47:\n      0x20\n      mul\n      0x20\n      add\n      add\n      mload\n        /* \"Om+.sol\":1268:1301  verifyInfos.push(_verifyInfos[i]) */\n      swap1\n      dup1\n      0x01\n      dup2\n      sload\n      add\n      dup1\n      dup3\n      sstore\n      dup1\n      swap2\n      pop\n      pop\n      0x01\n      swap1\n      sub\n      swap1\n      0x00\n      mstore\n      keccak256(0x00, 0x20)\n      swap1\n      0x0a\n      mul\n      add\n      0x00\n      swap1\n      swap2\n      swap1\n      swap2\n      swap1\n      swap2\n      pop\n      0x00\n      dup3\n      add\n      mload\n      dup2\n      0x00\n      add\n      swap1\n      0x05\n      tag_51\n      swap3\n      swap2\n      swap1\n      tag_52\n      jump\t// in\n    tag_51:\n      pop\n      0x20\n      dup3\n      add\n      mload\n      dup2\n      0x05\n      add\n      swap1\n      0x05\n      tag_53\n      swap3\n      swap2\n      swap1\n      tag_52\n      jump\t// in\n    tag_53:\n      pop\n      pop\n      pop\n        /* \"Om+.sol\":1248:1251  i++ */\n      dup1\n      dup1\n      0x01\n      add\n      swap2\n      pop\n      pop\n        /* \"Om+.sol\":1207:1313  for(uint i = 0; i < _verifyInfos.length; i++) {... */\n      jump(tag_44)\n    tag_45:\n      pop\n        /* \"Om+.sol\":1327:1329  _r */\n      dup1\n        /* \"Om+.sol\":1323:1324  r */\n      0x09\n        /* \"Om+.sol\":1323:1329  r = _r */\n      dup2\n      swap1\n      sstore\n      pop\n        /* \"Om+.sol\":1111:1337  function storeVerifyInfosAndR(VerifyInfo[] memory _verifyInfos, uint256 _r) external {... */\n      pop\n      pop\n      jump\t// out\n        /* \"Om+.sol\":294:313  uint256 public num2 */\n    tag_21:\n      sload(0x02)\n      dup2\n      jump\t// out\n        /* \"Om+.sol\":910:1103  function storeCommitments(Commitment[] memory _commitments) external {... */\n    tag_27:\n        /* \"Om+.sol\":994:1000  uint i */\n      0x00\n        /* \"Om+.sol\":990:1096  for(uint i = 0; i < _commitments.length; i++) {... */\n    tag_55:\n        /* \"Om+.sol\":1010:1022  _commitments */\n      dup2\n        /* \"Om+.sol\":1010:1029  _commitments.length */\n      mload\n        /* \"Om+.sol\":1006:1007  i */\n      dup2\n        /* \"Om+.sol\":1006:1029  i < _commitments.length */\n      lt\n        /* \"Om+.sol\":990:1096  for(uint i = 0; i < _commitments.length; i++) {... */\n      iszero\n      tag_56\n      jumpi\n        /* \"Om+.sol\":1051:1062  commitments */\n      0x07\n        /* \"Om+.sol\":1068:1080  _commitments */\n      dup3\n        /* \"Om+.sol\":1081:1082  i */\n      dup3\n        /* \"Om+.sol\":1068:1083  _commitments[i] */\n      dup2\n      mload\n      dup2\n      lt\n      tag_58\n      jumpi\n      tag_59\n      tag_49\n      jump\t// in\n    tag_59:\n    tag_58:\n      0x20\n      mul\n      0x20\n      add\n      add\n      mload\n        /* \"Om+.sol\":1051:1084  commitments.push(_commitments[i]) */\n      swap1\n      dup1\n      0x01\n      dup2\n      sload\n      add\n      dup1\n      dup3\n      sstore\n      dup1\n      swap2\n      pop\n      pop\n      0x01\n      swap1\n      sub\n      swap1\n      0x00\n      mstore\n      keccak256(0x00, 0x20)\n      swap1\n      0x04\n      mul\n      add\n      0x00\n      swap1\n      swap2\n      swap1\n      swap2\n      swap1\n      swap2\n      pop\n      0x00\n      dup3\n      add\n      mload\n      dup2\n      0x00\n      add\n      swap1\n      0x04\n      tag_61\n      swap3\n      swap2\n      swap1\n      tag_62\n      jump\t// in\n    tag_61:\n      pop\n      pop\n      pop\n        /* \"Om+.sol\":1031:1034  i++ */\n      dup1\n      dup1\n      0x01\n      add\n      swap2\n      pop\n      pop\n        /* \"Om+.sol\":990:1096  for(uint i = 0; i < _commitments.length; i++) {... */\n      jump(tag_55)\n    tag_56:\n      pop\n        /* \"Om+.sol\":910:1103  function storeCommitments(Commitment[] memory _commitments) external {... */\n      pop\n      jump\t// out\n        /* \"Om+.sol\":236:261  bytes32 public merkleRoot */\n    tag_29:\n      sload(0x00)\n      dup2\n      jump\t// out\n        /* \"Om+.sol\":268:287  uint256 public num1 */\n    tag_33:\n      sload(0x01)\n      dup2\n      jump\t// out\n        /* \"Om+.sol\":691:707  uint256 public r */\n    tag_36:\n      sload(0x09)\n      dup2\n      jump\t// out\n        /* \"Om+.sol\":1345:1816  function calculateFinalCommitment() external returns (uint256[4] memory) {... */\n    tag_39:\n        /* \"Om+.sol\":1399:1416  uint256[4] memory */\n      tag_63\n      tag_64\n      jump\t// in\n    tag_63:\n        /* \"Om+.sol\":1429:1462  uint256[4] memory finalCommitment */\n      0x00\n        /* \"Om+.sol\":1429:1486  uint256[4] memory finalCommitment = [uint256(1), 1, 1, 1] */\n      mload(0x40)\n      dup1\n      0x80\n      add\n      0x40\n      mstore\n      dup1\n        /* \"Om+.sol\":1474:1475  1 */\n      0x01\n        /* \"Om+.sol\":1429:1486  uint256[4] memory finalCommitment = [uint256(1), 1, 1, 1] */\n      dup2\n      mstore\n      0x20\n      add\n        /* \"Om+.sol\":1478:1479  1 */\n      0x01\n        /* \"Om+.sol\":1429:1486  uint256[4] memory finalCommitment = [uint256(1), 1, 1, 1] */\n      dup2\n      mstore\n      0x20\n      add\n        /* \"Om+.sol\":1481:1482  1 */\n      0x01\n        /* \"Om+.sol\":1429:1486  uint256[4] memory finalCommitment = [uint256(1), 1, 1, 1] */\n      dup2\n      mstore\n      0x20\n      add\n        /* \"Om+.sol\":1484:1485  1 */\n      0x01\n        /* \"Om+.sol\":1429:1486  uint256[4] memory finalCommitment = [uint256(1), 1, 1, 1] */\n      dup2\n      mstore\n      pop\n      swap1\n      pop\n        /* \"Om+.sol\":1519:1525  uint i */\n      0x00\n        /* \"Om+.sol\":1514:1697  for (uint i = 0; i < commitments.length; i++) {... */\n    tag_66:\n        /* \"Om+.sol\":1535:1546  commitments */\n      0x07\n        /* \"Om+.sol\":1535:1553  commitments.length */\n      dup1\n      sload\n      swap1\n      pop\n        /* \"Om+.sol\":1531:1532  i */\n      dup2\n        /* \"Om+.sol\":1531:1553  i < commitments.length */\n      lt\n        /* \"Om+.sol\":1514:1697  for (uint i = 0; i < commitments.length; i++) {... */\n      iszero\n      tag_67\n      jumpi\n        /* \"Om+.sol\":1580:1586  uint j */\n      0x00\n        /* \"Om+.sol\":1575:1686  for (uint j = 0; j < 4; j++) {... */\n    tag_69:\n        /* \"Om+.sol\":1596:1597  4 */\n      0x04\n        /* \"Om+.sol\":1592:1593  j */\n      dup2\n        /* \"Om+.sol\":1592:1597  j < 4 */\n      lt\n        /* \"Om+.sol\":1575:1686  for (uint j = 0; j < 4; j++) {... */\n      iszero\n      tag_70\n      jumpi\n        /* \"Om+.sol\":1645:1656  commitments */\n      0x07\n        /* \"Om+.sol\":1657:1658  i */\n      dup3\n        /* \"Om+.sol\":1645:1659  commitments[i] */\n      dup2\n      sload\n      dup2\n      lt\n      tag_72\n      jumpi\n      tag_73\n      tag_49\n      jump\t// in\n    tag_73:\n    tag_72:\n      swap1\n      0x00\n      mstore\n      keccak256(0x00, 0x20)\n      swap1\n      0x04\n      mul\n      add\n        /* \"Om+.sol\":1645:1667  commitments[i].numbers */\n      0x00\n      add\n        /* \"Om+.sol\":1668:1669  j */\n      dup2\n        /* \"Om+.sol\":1645:1670  commitments[i].numbers[j] */\n      0x04\n      dup2\n      lt\n      tag_75\n      jumpi\n      tag_76\n      tag_49\n      jump\t// in\n    tag_76:\n    tag_75:\n      add\n      sload\n        /* \"Om+.sol\":1623:1638  finalCommitment */\n      dup4\n        /* \"Om+.sol\":1639:1640  j */\n      dup3\n        /* \"Om+.sol\":1623:1641  finalCommitment[j] */\n      0x04\n      dup2\n      lt\n      tag_78\n      jumpi\n      tag_79\n      tag_49\n      jump\t// in\n    tag_79:\n    tag_78:\n      0x20\n      mul\n      add\n        /* \"Om+.sol\":1623:1670  finalCommitment[j] *= commitments[i].numbers[j] */\n      dup2\n      dup2\n      mload\n      tag_80\n      swap2\n      swap1\n      tag_81\n      jump\t// in\n    tag_80:\n      swap2\n      pop\n      dup2\n      dup2\n      mstore\n      pop\n      pop\n        /* \"Om+.sol\":1599:1602  j++ */\n      dup1\n      dup1\n      0x01\n      add\n      swap2\n      pop\n      pop\n        /* \"Om+.sol\":1575:1686  for (uint j = 0; j < 4; j++) {... */\n      jump(tag_69)\n    tag_70:\n      pop\n        /* \"Om+.sol\":1555:1558  i++ */\n      dup1\n      dup1\n      0x01\n      add\n      swap2\n      pop\n      pop\n        /* \"Om+.sol\":1514:1697  for (uint i = 0; i < commitments.length; i++) {... */\n      jump(tag_66)\n    tag_67:\n      pop\n        /* \"Om+.sol\":1760:1775  finalCommitment */\n      dup1\n        /* \"Om+.sol\":1746:1757  fCommitment */\n      0x03\n        /* \"Om+.sol\":1746:1775  fCommitment = finalCommitment */\n      swap1\n      0x04\n      tag_82\n      swap3\n      swap2\n      swap1\n      tag_62\n      jump\t// in\n    tag_82:\n      pop\n        /* \"Om+.sol\":1793:1808  finalCommitment */\n      dup1\n        /* \"Om+.sol\":1786:1808  return finalCommitment */\n      swap2\n      pop\n      pop\n        /* \"Om+.sol\":1345:1816  function calculateFinalCommitment() external returns (uint256[4] memory) {... */\n      swap1\n      jump\t// out\n    tag_52:\n      dup3\n      0x05\n      dup2\n      add\n      swap3\n      dup3\n      iszero\n      tag_83\n      jumpi\n      swap2\n      0x20\n      mul\n      dup3\n      add\n    tag_84:\n      dup3\n      dup2\n      gt\n      iszero\n      tag_85\n      jumpi\n      dup3\n      mload\n      dup3\n      sstore\n      swap2\n      0x20\n      add\n      swap2\n      swap1\n      0x01\n      add\n      swap1\n      jump(tag_84)\n    tag_85:\n    tag_83:\n      pop\n      swap1\n      pop\n      tag_86\n      swap2\n      swap1\n      tag_87\n      jump\t// in\n    tag_86:\n      pop\n      swap1\n      jump\t// out\n    tag_62:\n      dup3\n      0x04\n      dup2\n      add\n      swap3\n      dup3\n      iszero\n      tag_88\n      jumpi\n      swap2\n      0x20\n      mul\n      dup3\n      add\n    tag_89:\n      dup3\n      dup2\n      gt\n      iszero\n      tag_90\n      jumpi\n      dup3\n      mload\n      dup3\n      sstore\n      swap2\n      0x20\n      add\n      swap2\n      swap1\n      0x01\n      add\n      swap1\n      jump(tag_89)\n    tag_90:\n    tag_88:\n      pop\n      swap1\n      pop\n      tag_91\n      swap2\n      swap1\n      tag_87\n      jump\t// in\n    tag_91:\n      pop\n      swap1\n      jump\t// out\n    tag_64:\n      mload(0x40)\n      dup1\n      0x80\n      add\n      0x40\n      mstore\n      dup1\n      0x04\n      swap1\n      0x20\n      dup3\n      mul\n      dup1\n      calldatasize\n      dup4\n      calldatacopy\n      dup1\n      dup3\n      add\n      swap2\n      pop\n      pop\n      swap1\n      pop\n      pop\n      swap1\n      jump\t// out\n    tag_87:\n    tag_92:\n      dup1\n      dup3\n      gt\n      iszero\n      tag_93\n      jumpi\n      0x00\n      dup2\n      0x00\n      swap1\n      sstore\n      pop\n      0x01\n      add\n      jump(tag_92)\n    tag_93:\n      pop\n      swap1\n      jump\t// out\n        /* \"#utility.yul\":7:82   */\n    tag_94:\n        /* \"#utility.yul\":40:46   */\n      0x00\n        /* \"#utility.yul\":73:75   */\n      0x40\n        /* \"#utility.yul\":67:76   */\n      mload\n        /* \"#utility.yul\":57:76   */\n      swap1\n      pop\n        /* \"#utility.yul\":7:82   */\n      swap1\n      jump\t// out\n        /* \"#utility.yul\":88:205   */\n    tag_95:\n        /* \"#utility.yul\":197:198   */\n      0x00\n        /* \"#utility.yul\":194:195   */\n      dup1\n        /* \"#utility.yul\":187:199   */\n      revert\n        /* \"#utility.yul\":211:328   */\n    tag_96:\n        /* \"#utility.yul\":320:321   */\n      0x00\n        /* \"#utility.yul\":317:318   */\n      dup1\n        /* \"#utility.yul\":310:322   */\n      revert\n        /* \"#utility.yul\":334:411   */\n    tag_97:\n        /* \"#utility.yul\":371:378   */\n      0x00\n        /* \"#utility.yul\":400:405   */\n      dup2\n        /* \"#utility.yul\":389:405   */\n      swap1\n      pop\n        /* \"#utility.yul\":334:411   */\n      swap2\n      swap1\n      pop\n      jump\t// out\n        /* \"#utility.yul\":417:539   */\n    tag_98:\n        /* \"#utility.yul\":490:514   */\n      tag_141\n        /* \"#utility.yul\":508:513   */\n      dup2\n        /* \"#utility.yul\":490:514   */\n      tag_97\n      jump\t// in\n    tag_141:\n        /* \"#utility.yul\":483:488   */\n      dup2\n        /* \"#utility.yul\":480:515   */\n      eq\n        /* \"#utility.yul\":470:533   */\n      tag_142\n      jumpi\n        /* \"#utility.yul\":529:530   */\n      0x00\n        /* \"#utility.yul\":526:527   */\n      dup1\n        /* \"#utility.yul\":519:531   */\n      revert\n        /* \"#utility.yul\":470:533   */\n    tag_142:\n        /* \"#utility.yul\":417:539   */\n      pop\n      jump\t// out\n        /* \"#utility.yul\":545:684   */\n    tag_99:\n        /* \"#utility.yul\":591:596   */\n      0x00\n        /* \"#utility.yul\":629:635   */\n      dup2\n        /* \"#utility.yul\":616:636   */\n      calldataload\n        /* \"#utility.yul\":607:636   */\n      swap1\n      pop\n        /* \"#utility.yul\":645:678   */\n      tag_144\n        /* \"#utility.yul\":672:677   */\n      dup2\n        /* \"#utility.yul\":645:678   */\n      tag_98\n      jump\t// in\n    tag_144:\n        /* \"#utility.yul\":545:684   */\n      swap3\n      swap2\n      pop\n      pop\n      jump\t// out\n        /* \"#utility.yul\":690:767   */\n    tag_100:\n        /* \"#utility.yul\":727:734   */\n      0x00\n        /* \"#utility.yul\":756:761   */\n      dup2\n        /* \"#utility.yul\":745:761   */\n      swap1\n      pop\n        /* \"#utility.yul\":690:767   */\n      swap2\n      swap1\n      pop\n      jump\t// out\n        /* \"#utility.yul\":773:895   */\n    tag_101:\n        /* \"#utility.yul\":846:870   */\n      tag_147\n        /* \"#utility.yul\":864:869   */\n      dup2\n        /* \"#utility.yul\":846:870   */\n      tag_100\n      jump\t// in\n    tag_147:\n        /* \"#utility.yul\":839:844   */\n      dup2\n        /* \"#utility.yul\":836:871   */\n      eq\n        /* \"#utility.yul\":826:889   */\n      tag_148\n      jumpi\n        /* \"#utility.yul\":885:886   */\n      0x00\n        /* \"#utility.yul\":882:883   */\n      dup1\n        /* \"#utility.yul\":875:887   */\n      revert\n        /* \"#utility.yul\":826:889   */\n    tag_148:\n        /* \"#utility.yul\":773:895   */\n      pop\n      jump\t// out\n        /* \"#utility.yul\":901:1040   */\n    tag_102:\n        /* \"#utility.yul\":947:952   */\n      0x00\n        /* \"#utility.yul\":985:991   */\n      dup2\n        /* \"#utility.yul\":972:992   */\n      calldataload\n        /* \"#utility.yul\":963:992   */\n      swap1\n      pop\n        /* \"#utility.yul\":1001:1034   */\n      tag_150\n        /* \"#utility.yul\":1028:1033   */\n      dup2\n        /* \"#utility.yul\":1001:1034   */\n      tag_101\n      jump\t// in\n    tag_150:\n        /* \"#utility.yul\":901:1040   */\n      swap3\n      swap2\n      pop\n      pop\n      jump\t// out\n        /* \"#utility.yul\":1046:1665   */\n    tag_14:\n        /* \"#utility.yul\":1123:1129   */\n      0x00\n        /* \"#utility.yul\":1131:1137   */\n      dup1\n        /* \"#utility.yul\":1139:1145   */\n      0x00\n        /* \"#utility.yul\":1188:1190   */\n      0x60\n        /* \"#utility.yul\":1176:1185   */\n      dup5\n        /* \"#utility.yul\":1167:1174   */\n      dup7\n        /* \"#utility.yul\":1163:1186   */\n      sub\n        /* \"#utility.yul\":1159:1191   */\n      slt\n        /* \"#utility.yul\":1156:1275   */\n      iszero\n      tag_152\n      jumpi\n        /* \"#utility.yul\":1194:1273   */\n      tag_153\n      tag_95\n      jump\t// in\n    tag_153:\n        /* \"#utility.yul\":1156:1275   */\n    tag_152:\n        /* \"#utility.yul\":1314:1315   */\n      0x00\n        /* \"#utility.yul\":1339:1392   */\n      tag_154\n        /* \"#utility.yul\":1384:1391   */\n      dup7\n        /* \"#utility.yul\":1375:1381   */\n      dup3\n        /* \"#utility.yul\":1364:1373   */\n      dup8\n        /* \"#utility.yul\":1360:1382   */\n      add\n        /* \"#utility.yul\":1339:1392   */\n      tag_99\n      jump\t// in\n    tag_154:\n        /* \"#utility.yul\":1329:1392   */\n      swap4\n      pop\n        /* \"#utility.yul\":1285:1402   */\n      pop\n        /* \"#utility.yul\":1441:1443   */\n      0x20\n        /* \"#utility.yul\":1467:1520   */\n      tag_155\n        /* \"#utility.yul\":1512:1519   */\n      dup7\n        /* \"#utility.yul\":1503:1509   */\n      dup3\n        /* \"#utility.yul\":1492:1501   */\n      dup8\n        /* \"#utility.yul\":1488:1510   */\n      add\n        /* \"#utility.yul\":1467:1520   */\n      tag_102\n      jump\t// in\n    tag_155:\n        /* \"#utility.yul\":1457:1520   */\n      swap3\n      pop\n        /* \"#utility.yul\":1412:1530   */\n      pop\n        /* \"#utility.yul\":1569:1571   */\n      0x40\n        /* \"#utility.yul\":1595:1648   */\n      tag_156\n        /* \"#utility.yul\":1640:1647   */\n      dup7\n        /* \"#utility.yul\":1631:1637   */\n      dup3\n        /* \"#utility.yul\":1620:1629   */\n      dup8\n        /* \"#utility.yul\":1616:1638   */\n      add\n        /* \"#utility.yul\":1595:1648   */\n      tag_102\n      jump\t// in\n    tag_156:\n        /* \"#utility.yul\":1585:1648   */\n      swap2\n      pop\n        /* \"#utility.yul\":1540:1658   */\n      pop\n        /* \"#utility.yul\":1046:1665   */\n      swap3\n      pop\n      swap3\n      pop\n      swap3\n      jump\t// out\n        /* \"#utility.yul\":1671:1788   */\n    tag_103:\n        /* \"#utility.yul\":1780:1781   */\n      0x00\n        /* \"#utility.yul\":1777:1778   */\n      dup1\n        /* \"#utility.yul\":1770:1782   */\n      revert\n        /* \"#utility.yul\":1794:1896   */\n    tag_104:\n        /* \"#utility.yul\":1835:1841   */\n      0x00\n        /* \"#utility.yul\":1886:1888   */\n      0x1f\n        /* \"#utility.yul\":1882:1889   */\n      not\n        /* \"#utility.yul\":1877:1879   */\n      0x1f\n        /* \"#utility.yul\":1870:1875   */\n      dup4\n        /* \"#utility.yul\":1866:1880   */\n      add\n        /* \"#utility.yul\":1862:1890   */\n      and\n        /* \"#utility.yul\":1852:1890   */\n      swap1\n      pop\n        /* \"#utility.yul\":1794:1896   */\n      swap2\n      swap1\n      pop\n      jump\t// out\n        /* \"#utility.yul\":1902:2082   */\n    tag_105:\n        /* \"#utility.yul\":1950:2027   */\n      0x4e487b7100000000000000000000000000000000000000000000000000000000\n        /* \"#utility.yul\":1947:1948   */\n      0x00\n        /* \"#utility.yul\":1940:2028   */\n      mstore\n        /* \"#utility.yul\":2047:2051   */\n      0x41\n        /* \"#utility.yul\":2044:2045   */\n      0x04\n        /* \"#utility.yul\":2037:2052   */\n      mstore\n        /* \"#utility.yul\":2071:2075   */\n      0x24\n        /* \"#utility.yul\":2068:2069   */\n      0x00\n        /* \"#utility.yul\":2061:2076   */\n      revert\n        /* \"#utility.yul\":2088:2369   */\n    tag_106:\n        /* \"#utility.yul\":2171:2198   */\n      tag_161\n        /* \"#utility.yul\":2193:2197   */\n      dup3\n        /* \"#utility.yul\":2171:2198   */\n      tag_104\n      jump\t// in\n    tag_161:\n        /* \"#utility.yul\":2163:2169   */\n      dup2\n        /* \"#utility.yul\":2159:2199   */\n      add\n        /* \"#utility.yul\":2301:2307   */\n      dup2\n        /* \"#utility.yul\":2289:2299   */\n      dup2\n        /* \"#utility.yul\":2286:2308   */\n      lt\n        /* \"#utility.yul\":2265:2283   */\n      0xffffffffffffffff\n        /* \"#utility.yul\":2253:2263   */\n      dup3\n        /* \"#utility.yul\":2250:2284   */\n      gt\n        /* \"#utility.yul\":2247:2309   */\n      or\n        /* \"#utility.yul\":2244:2332   */\n      iszero\n      tag_162\n      jumpi\n        /* \"#utility.yul\":2312:2330   */\n      tag_163\n      tag_105\n      jump\t// in\n    tag_163:\n        /* \"#utility.yul\":2244:2332   */\n    tag_162:\n        /* \"#utility.yul\":2352:2362   */\n      dup1\n        /* \"#utility.yul\":2348:2350   */\n      0x40\n        /* \"#utility.yul\":2341:2363   */\n      mstore\n        /* \"#utility.yul\":2131:2369   */\n      pop\n        /* \"#utility.yul\":2088:2369   */\n      pop\n      pop\n      jump\t// out\n        /* \"#utility.yul\":2375:2504   */\n    tag_107:\n        /* \"#utility.yul\":2409:2415   */\n      0x00\n        /* \"#utility.yul\":2436:2456   */\n      tag_165\n      tag_94\n      jump\t// in\n    tag_165:\n        /* \"#utility.yul\":2426:2456   */\n      swap1\n      pop\n        /* \"#utility.yul\":2465:2498   */\n      tag_166\n        /* \"#utility.yul\":2493:2497   */\n      dup3\n        /* \"#utility.yul\":2485:2491   */\n      dup3\n        /* \"#utility.yul\":2465:2498   */\n      tag_106\n      jump\t// in\n    tag_166:\n        /* \"#utility.yul\":2375:2504   */\n      swap2\n      swap1\n      pop\n      jump\t// out\n        /* \"#utility.yul\":2510:2848   */\n    tag_108:\n        /* \"#utility.yul\":2614:2618   */\n      0x00\n        /* \"#utility.yul\":2704:2722   */\n      0xffffffffffffffff\n        /* \"#utility.yul\":2696:2702   */\n      dup3\n        /* \"#utility.yul\":2693:2723   */\n      gt\n        /* \"#utility.yul\":2690:2746   */\n      iszero\n      tag_168\n      jumpi\n        /* \"#utility.yul\":2726:2744   */\n      tag_169\n      tag_105\n      jump\t// in\n    tag_169:\n        /* \"#utility.yul\":2690:2746   */\n    tag_168:\n        /* \"#utility.yul\":2776:2780   */\n      0x20\n        /* \"#utility.yul\":2768:2774   */\n      dup3\n        /* \"#utility.yul\":2764:2781   */\n      mul\n        /* \"#utility.yul\":2756:2781   */\n      swap1\n      pop\n        /* \"#utility.yul\":2836:2840   */\n      0x20\n        /* \"#utility.yul\":2830:2834   */\n      dup2\n        /* \"#utility.yul\":2826:2841   */\n      add\n        /* \"#utility.yul\":2818:2841   */\n      swap1\n      pop\n        /* \"#utility.yul\":2510:2848   */\n      swap2\n      swap1\n      pop\n      jump\t// out\n        /* \"#utility.yul\":2854:2971   */\n    tag_109:\n        /* \"#utility.yul\":2963:2964   */\n      0x00\n        /* \"#utility.yul\":2960:2961   */\n      dup1\n        /* \"#utility.yul\":2953:2965   */\n      revert\n        /* \"#utility.yul\":2977:3094   */\n    tag_110:\n        /* \"#utility.yul\":3086:3087   */\n      0x00\n        /* \"#utility.yul\":3083:3084   */\n      dup1\n        /* \"#utility.yul\":3076:3088   */\n      revert\n        /* \"#utility.yul\":3223:3472   */\n    tag_112:\n        /* \"#utility.yul\":3298:3302   */\n      0x00\n        /* \"#utility.yul\":3388:3406   */\n      0xffffffffffffffff\n        /* \"#utility.yul\":3380:3386   */\n      dup3\n        /* \"#utility.yul\":3377:3407   */\n      gt\n        /* \"#utility.yul\":3374:3430   */\n      iszero\n      tag_174\n      jumpi\n        /* \"#utility.yul\":3410:3428   */\n      tag_175\n      tag_105\n      jump\t// in\n    tag_175:\n        /* \"#utility.yul\":3374:3430   */\n    tag_174:\n        /* \"#utility.yul\":3460:3464   */\n      0x20\n        /* \"#utility.yul\":3452:3458   */\n      dup3\n        /* \"#utility.yul\":3448:3465   */\n      mul\n        /* \"#utility.yul\":3440:3465   */\n      swap1\n      pop\n        /* \"#utility.yul\":3223:3472   */\n      swap2\n      swap1\n      pop\n      jump\t// out\n        /* \"#utility.yul\":3496:4139   */\n    tag_113:\n        /* \"#utility.yul\":3590:3595   */\n      0x00\n        /* \"#utility.yul\":3615:3694   */\n      tag_177\n        /* \"#utility.yul\":3631:3693   */\n      tag_178\n        /* \"#utility.yul\":3686:3692   */\n      dup5\n        /* \"#utility.yul\":3631:3693   */\n      tag_112\n      jump\t// in\n    tag_178:\n        /* \"#utility.yul\":3615:3694   */\n      tag_107\n      jump\t// in\n    tag_177:\n        /* \"#utility.yul\":3606:3694   */\n      swap1\n      pop\n        /* \"#utility.yul\":3714:3719   */\n      dup1\n        /* \"#utility.yul\":3767:3771   */\n      0x20\n        /* \"#utility.yul\":3759:3765   */\n      dup5\n        /* \"#utility.yul\":3755:3772   */\n      mul\n        /* \"#utility.yul\":3747:3753   */\n      dup4\n        /* \"#utility.yul\":3743:3773   */\n      add\n        /* \"#utility.yul\":3796:3799   */\n      dup6\n        /* \"#utility.yul\":3788:3794   */\n      dup2\n        /* \"#utility.yul\":3785:3800   */\n      gt\n        /* \"#utility.yul\":3782:3904   */\n      iszero\n      tag_179\n      jumpi\n        /* \"#utility.yul\":3815:3894   */\n      tag_180\n      tag_109\n      jump\t// in\n    tag_180:\n        /* \"#utility.yul\":3782:3904   */\n    tag_179:\n        /* \"#utility.yul\":3930:3936   */\n      dup4\n        /* \"#utility.yul\":3913:4133   */\n    tag_181:\n        /* \"#utility.yul\":3947:3953   */\n      dup2\n        /* \"#utility.yul\":3942:3945   */\n      dup2\n        /* \"#utility.yul\":3939:3954   */\n      lt\n        /* \"#utility.yul\":3913:4133   */\n      iszero\n      tag_183\n      jumpi\n        /* \"#utility.yul\":4022:4025   */\n      dup1\n        /* \"#utility.yul\":4051:4088   */\n      tag_184\n        /* \"#utility.yul\":4084:4087   */\n      dup9\n        /* \"#utility.yul\":4072:4082   */\n      dup3\n        /* \"#utility.yul\":4051:4088   */\n      tag_102\n      jump\t// in\n    tag_184:\n        /* \"#utility.yul\":4046:4049   */\n      dup5\n        /* \"#utility.yul\":4039:4089   */\n      mstore\n        /* \"#utility.yul\":4118:4122   */\n      0x20\n        /* \"#utility.yul\":4113:4116   */\n      dup5\n        /* \"#utility.yul\":4109:4123   */\n      add\n        /* \"#utility.yul\":4102:4123   */\n      swap4\n      pop\n        /* \"#utility.yul\":3989:4133   */\n      pop\n        /* \"#utility.yul\":3973:3977   */\n      0x20\n        /* \"#utility.yul\":3968:3971   */\n      dup2\n        /* \"#utility.yul\":3964:3978   */\n      add\n        /* \"#utility.yul\":3957:3978   */\n      swap1\n      pop\n        /* \"#utility.yul\":3913:4133   */\n      jump(tag_181)\n    tag_183:\n        /* \"#utility.yul\":3917:3938   */\n      pop\n        /* \"#utility.yul\":3596:4139   */\n      pop\n      pop\n        /* \"#utility.yul\":3496:4139   */\n      swap4\n      swap3\n      pop\n      pop\n      pop\n      jump\t// out\n        /* \"#utility.yul\":4163:4502   */\n    tag_114:\n        /* \"#utility.yul\":4232:4237   */\n      0x00\n        /* \"#utility.yul\":4281:4284   */\n      dup3\n        /* \"#utility.yul\":4274:4278   */\n      0x1f\n        /* \"#utility.yul\":4266:4272   */\n      dup4\n        /* \"#utility.yul\":4262:4279   */\n      add\n        /* \"#utility.yul\":4258:4285   */\n      slt\n        /* \"#utility.yul\":4248:4370   */\n      tag_186\n      jumpi\n        /* \"#utility.yul\":4289:4368   */\n      tag_187\n      tag_103\n      jump\t// in\n    tag_187:\n        /* \"#utility.yul\":4248:4370   */\n    tag_186:\n        /* \"#utility.yul\":4393:4397   */\n      0x05\n        /* \"#utility.yul\":4415:4496   */\n      tag_188\n        /* \"#utility.yul\":4492:4495   */\n      dup5\n        /* \"#utility.yul\":4484:4490   */\n      dup3\n        /* \"#utility.yul\":4476:4482   */\n      dup6\n        /* \"#utility.yul\":4415:4496   */\n      tag_113\n      jump\t// in\n    tag_188:\n        /* \"#utility.yul\":4406:4496   */\n      swap2\n      pop\n        /* \"#utility.yul\":4238:4502   */\n      pop\n        /* \"#utility.yul\":4163:4502   */\n      swap3\n      swap2\n      pop\n      pop\n      jump\t// out\n        /* \"#utility.yul\":4541:5175   */\n    tag_115:\n        /* \"#utility.yul\":4617:4622   */\n      0x00\n        /* \"#utility.yul\":4661:4667   */\n      0x0140\n        /* \"#utility.yul\":4649:4658   */\n      dup3\n        /* \"#utility.yul\":4644:4647   */\n      dup5\n        /* \"#utility.yul\":4640:4659   */\n      sub\n        /* \"#utility.yul\":4636:4668   */\n      slt\n        /* \"#utility.yul\":4633:4752   */\n      iszero\n      tag_190\n      jumpi\n        /* \"#utility.yul\":4671:4750   */\n      tag_191\n      tag_110\n      jump\t// in\n    tag_191:\n        /* \"#utility.yul\":4633:4752   */\n    tag_190:\n        /* \"#utility.yul\":4770:4791   */\n      tag_192\n        /* \"#utility.yul\":4786:4790   */\n      0x40\n        /* \"#utility.yul\":4770:4791   */\n      tag_107\n      jump\t// in\n    tag_192:\n        /* \"#utility.yul\":4761:4791   */\n      swap1\n      pop\n        /* \"#utility.yul\":4857:4858   */\n      0x00\n        /* \"#utility.yul\":4897:4969   */\n      tag_193\n        /* \"#utility.yul\":4965:4968   */\n      dup5\n        /* \"#utility.yul\":4956:4962   */\n      dup3\n        /* \"#utility.yul\":4945:4954   */\n      dup6\n        /* \"#utility.yul\":4941:4963   */\n      add\n        /* \"#utility.yul\":4897:4969   */\n      tag_114\n      jump\t// in\n    tag_193:\n        /* \"#utility.yul\":4890:4894   */\n      0x00\n        /* \"#utility.yul\":4883:4888   */\n      dup4\n        /* \"#utility.yul\":4879:4895   */\n      add\n        /* \"#utility.yul\":4872:4970   */\n      mstore\n        /* \"#utility.yul\":4801:4981   */\n      pop\n        /* \"#utility.yul\":5042:5045   */\n      0xa0\n        /* \"#utility.yul\":5084:5156   */\n      tag_194\n        /* \"#utility.yul\":5152:5155   */\n      dup5\n        /* \"#utility.yul\":5143:5149   */\n      dup3\n        /* \"#utility.yul\":5132:5141   */\n      dup6\n        /* \"#utility.yul\":5128:5150   */\n      add\n        /* \"#utility.yul\":5084:5156   */\n      tag_114\n      jump\t// in\n    tag_194:\n        /* \"#utility.yul\":5077:5081   */\n      0x20\n        /* \"#utility.yul\":5070:5075   */\n      dup4\n        /* \"#utility.yul\":5066:5082   */\n      add\n        /* \"#utility.yul\":5059:5157   */\n      mstore\n        /* \"#utility.yul\":4991:5168   */\n      pop\n        /* \"#utility.yul\":4541:5175   */\n      swap3\n      swap2\n      pop\n      pop\n      jump\t// out\n        /* \"#utility.yul\":5216:6011   */\n    tag_116:\n        /* \"#utility.yul\":5339:5344   */\n      0x00\n        /* \"#utility.yul\":5364:5472   */\n      tag_196\n        /* \"#utility.yul\":5380:5471   */\n      tag_197\n        /* \"#utility.yul\":5464:5470   */\n      dup5\n        /* \"#utility.yul\":5380:5471   */\n      tag_108\n      jump\t// in\n    tag_197:\n        /* \"#utility.yul\":5364:5472   */\n      tag_107\n      jump\t// in\n    tag_196:\n        /* \"#utility.yul\":5355:5472   */\n      swap1\n      pop\n        /* \"#utility.yul\":5492:5497   */\n      dup1\n        /* \"#utility.yul\":5521:5527   */\n      dup4\n        /* \"#utility.yul\":5514:5519   */\n      dup3\n        /* \"#utility.yul\":5507:5528   */\n      mstore\n        /* \"#utility.yul\":5555:5559   */\n      0x20\n        /* \"#utility.yul\":5548:5553   */\n      dup3\n        /* \"#utility.yul\":5544:5560   */\n      add\n        /* \"#utility.yul\":5537:5560   */\n      swap1\n      pop\n        /* \"#utility.yul\":5608:5614   */\n      0x0140\n        /* \"#utility.yul\":5600:5606   */\n      dup5\n        /* \"#utility.yul\":5596:5615   */\n      mul\n        /* \"#utility.yul\":5588:5594   */\n      dup4\n        /* \"#utility.yul\":5584:5616   */\n      add\n        /* \"#utility.yul\":5639:5642   */\n      dup6\n        /* \"#utility.yul\":5631:5637   */\n      dup2\n        /* \"#utility.yul\":5628:5643   */\n      gt\n        /* \"#utility.yul\":5625:5747   */\n      iszero\n      tag_198\n      jumpi\n        /* \"#utility.yul\":5658:5737   */\n      tag_199\n      tag_109\n      jump\t// in\n    tag_199:\n        /* \"#utility.yul\":5625:5747   */\n    tag_198:\n        /* \"#utility.yul\":5773:5779   */\n      dup4\n        /* \"#utility.yul\":5756:6005   */\n    tag_200:\n        /* \"#utility.yul\":5790:5796   */\n      dup2\n        /* \"#utility.yul\":5785:5788   */\n      dup2\n        /* \"#utility.yul\":5782:5797   */\n      lt\n        /* \"#utility.yul\":5756:6005   */\n      iszero\n      tag_202\n      jumpi\n        /* \"#utility.yul\":5867:5870   */\n      dup1\n        /* \"#utility.yul\":5896:5960   */\n      tag_203\n        /* \"#utility.yul\":5956:5959   */\n      dup9\n        /* \"#utility.yul\":5944:5954   */\n      dup3\n        /* \"#utility.yul\":5896:5960   */\n      tag_115\n      jump\t// in\n    tag_203:\n        /* \"#utility.yul\":5891:5894   */\n      dup5\n        /* \"#utility.yul\":5884:5961   */\n      mstore\n        /* \"#utility.yul\":5990:5994   */\n      0x20\n        /* \"#utility.yul\":5985:5988   */\n      dup5\n        /* \"#utility.yul\":5981:5995   */\n      add\n        /* \"#utility.yul\":5974:5995   */\n      swap4\n      pop\n        /* \"#utility.yul\":5834:6005   */\n      pop\n        /* \"#utility.yul\":5816:5822   */\n      0x0140\n        /* \"#utility.yul\":5811:5814   */\n      dup2\n        /* \"#utility.yul\":5807:5823   */\n      add\n        /* \"#utility.yul\":5800:5823   */\n      swap1\n      pop\n        /* \"#utility.yul\":5756:6005   */\n      jump(tag_200)\n    tag_202:\n        /* \"#utility.yul\":5760:5781   */\n      pop\n        /* \"#utility.yul\":5345:6011   */\n      pop\n      pop\n        /* \"#utility.yul\":5216:6011   */\n      swap4\n      swap3\n      pop\n      pop\n      pop\n      jump\t// out\n        /* \"#utility.yul\":6052:6476   */\n    tag_117:\n        /* \"#utility.yul\":6150:6155   */\n      0x00\n        /* \"#utility.yul\":6199:6202   */\n      dup3\n        /* \"#utility.yul\":6192:6196   */\n      0x1f\n        /* \"#utility.yul\":6184:6190   */\n      dup4\n        /* \"#utility.yul\":6180:6197   */\n      add\n        /* \"#utility.yul\":6176:6203   */\n      slt\n        /* \"#utility.yul\":6166:6288   */\n      tag_205\n      jumpi\n        /* \"#utility.yul\":6207:6286   */\n      tag_206\n      tag_103\n      jump\t// in\n    tag_206:\n        /* \"#utility.yul\":6166:6288   */\n    tag_205:\n        /* \"#utility.yul\":6324:6330   */\n      dup2\n        /* \"#utility.yul\":6311:6331   */\n      calldataload\n        /* \"#utility.yul\":6349:6470   */\n      tag_207\n        /* \"#utility.yul\":6466:6469   */\n      dup5\n        /* \"#utility.yul\":6458:6464   */\n      dup3\n        /* \"#utility.yul\":6451:6455   */\n      0x20\n        /* \"#utility.yul\":6443:6449   */\n      dup7\n        /* \"#utility.yul\":6439:6456   */\n      add\n        /* \"#utility.yul\":6349:6470   */\n      tag_116\n      jump\t// in\n    tag_207:\n        /* \"#utility.yul\":6340:6470   */\n      swap2\n      pop\n        /* \"#utility.yul\":6156:6476   */\n      pop\n        /* \"#utility.yul\":6052:6476   */\n      swap3\n      swap2\n      pop\n      pop\n      jump\t// out\n        /* \"#utility.yul\":6482:7220   */\n    tag_18:\n        /* \"#utility.yul\":6602:6608   */\n      0x00\n        /* \"#utility.yul\":6610:6616   */\n      dup1\n        /* \"#utility.yul\":6659:6661   */\n      0x40\n        /* \"#utility.yul\":6647:6656   */\n      dup4\n        /* \"#utility.yul\":6638:6645   */\n      dup6\n        /* \"#utility.yul\":6634:6657   */\n      sub\n        /* \"#utility.yul\":6630:6662   */\n      slt\n        /* \"#utility.yul\":6627:6746   */\n      iszero\n      tag_209\n      jumpi\n        /* \"#utility.yul\":6665:6744   */\n      tag_210\n      tag_95\n      jump\t// in\n    tag_210:\n        /* \"#utility.yul\":6627:6746   */\n    tag_209:\n        /* \"#utility.yul\":6813:6814   */\n      0x00\n        /* \"#utility.yul\":6802:6811   */\n      dup4\n        /* \"#utility.yul\":6798:6815   */\n      add\n        /* \"#utility.yul\":6785:6816   */\n      calldataload\n        /* \"#utility.yul\":6843:6861   */\n      0xffffffffffffffff\n        /* \"#utility.yul\":6835:6841   */\n      dup2\n        /* \"#utility.yul\":6832:6862   */\n      gt\n        /* \"#utility.yul\":6829:6946   */\n      iszero\n      tag_211\n      jumpi\n        /* \"#utility.yul\":6865:6944   */\n      tag_212\n      tag_96\n      jump\t// in\n    tag_212:\n        /* \"#utility.yul\":6829:6946   */\n    tag_211:\n        /* \"#utility.yul\":6970:7075   */\n      tag_213\n        /* \"#utility.yul\":7067:7074   */\n      dup6\n        /* \"#utility.yul\":7058:7064   */\n      dup3\n        /* \"#utility.yul\":7047:7056   */\n      dup7\n        /* \"#utility.yul\":7043:7065   */\n      add\n        /* \"#utility.yul\":6970:7075   */\n      tag_117\n      jump\t// in\n    tag_213:\n        /* \"#utility.yul\":6960:7075   */\n      swap3\n      pop\n        /* \"#utility.yul\":6756:7085   */\n      pop\n        /* \"#utility.yul\":7124:7126   */\n      0x20\n        /* \"#utility.yul\":7150:7203   */\n      tag_214\n        /* \"#utility.yul\":7195:7202   */\n      dup6\n        /* \"#utility.yul\":7186:7192   */\n      dup3\n        /* \"#utility.yul\":7175:7184   */\n      dup7\n        /* \"#utility.yul\":7171:7193   */\n      add\n        /* \"#utility.yul\":7150:7203   */\n      tag_102\n      jump\t// in\n    tag_214:\n        /* \"#utility.yul\":7140:7203   */\n      swap2\n      pop\n        /* \"#utility.yul\":7095:7213   */\n      pop\n        /* \"#utility.yul\":6482:7220   */\n      swap3\n      pop\n      swap3\n      swap1\n      pop\n      jump\t// out\n        /* \"#utility.yul\":7226:7344   */\n    tag_118:\n        /* \"#utility.yul\":7313:7337   */\n      tag_216\n        /* \"#utility.yul\":7331:7336   */\n      dup2\n        /* \"#utility.yul\":7313:7337   */\n      tag_100\n      jump\t// in\n    tag_216:\n        /* \"#utility.yul\":7308:7311   */\n      dup3\n        /* \"#utility.yul\":7301:7338   */\n      mstore\n        /* \"#utility.yul\":7226:7344   */\n      pop\n      pop\n      jump\t// out\n        /* \"#utility.yul\":7350:7572   */\n    tag_23:\n        /* \"#utility.yul\":7443:7447   */\n      0x00\n        /* \"#utility.yul\":7481:7483   */\n      0x20\n        /* \"#utility.yul\":7470:7479   */\n      dup3\n        /* \"#utility.yul\":7466:7484   */\n      add\n        /* \"#utility.yul\":7458:7484   */\n      swap1\n      pop\n        /* \"#utility.yul\":7494:7565   */\n      tag_218\n        /* \"#utility.yul\":7562:7563   */\n      0x00\n        /* \"#utility.yul\":7551:7560   */\n      dup4\n        /* \"#utility.yul\":7547:7564   */\n      add\n        /* \"#utility.yul\":7538:7544   */\n      dup5\n        /* \"#utility.yul\":7494:7565   */\n      tag_118\n      jump\t// in\n    tag_218:\n        /* \"#utility.yul\":7350:7572   */\n      swap3\n      swap2\n      pop\n      pop\n      jump\t// out\n        /* \"#utility.yul\":7578:7916   */\n    tag_119:\n        /* \"#utility.yul\":7682:7686   */\n      0x00\n        /* \"#utility.yul\":7772:7790   */\n      0xffffffffffffffff\n        /* \"#utility.yul\":7764:7770   */\n      dup3\n        /* \"#utility.yul\":7761:7791   */\n      gt\n        /* \"#utility.yul\":7758:7814   */\n      iszero\n      tag_220\n      jumpi\n        /* \"#utility.yul\":7794:7812   */\n      tag_221\n      tag_105\n      jump\t// in\n    tag_221:\n        /* \"#utility.yul\":7758:7814   */\n    tag_220:\n        /* \"#utility.yul\":7844:7848   */\n      0x20\n        /* \"#utility.yul\":7836:7842   */\n      dup3\n        /* \"#utility.yul\":7832:7849   */\n      mul\n        /* \"#utility.yul\":7824:7849   */\n      swap1\n      pop\n        /* \"#utility.yul\":7904:7908   */\n      0x20\n        /* \"#utility.yul\":7898:7902   */\n      dup2\n        /* \"#utility.yul\":7894:7909   */\n      add\n        /* \"#utility.yul\":7886:7909   */\n      swap1\n      pop\n        /* \"#utility.yul\":7578:7916   */\n      swap2\n      swap1\n      pop\n      jump\t// out\n        /* \"#utility.yul\":7922:8171   */\n    tag_120:\n        /* \"#utility.yul\":7997:8001   */\n      0x00\n        /* \"#utility.yul\":8087:8105   */\n      0xffffffffffffffff\n        /* \"#utility.yul\":8079:8085   */\n      dup3\n        /* \"#utility.yul\":8076:8106   */\n      gt\n        /* \"#utility.yul\":8073:8129   */\n      iszero\n      tag_223\n      jumpi\n        /* \"#utility.yul\":8109:8127   */\n      tag_224\n      tag_105\n      jump\t// in\n    tag_224:\n        /* \"#utility.yul\":8073:8129   */\n    tag_223:\n        /* \"#utility.yul\":8159:8163   */\n      0x20\n        /* \"#utility.yul\":8151:8157   */\n      dup3\n        /* \"#utility.yul\":8147:8164   */\n      mul\n        /* \"#utility.yul\":8139:8164   */\n      swap1\n      pop\n        /* \"#utility.yul\":7922:8171   */\n      swap2\n      swap1\n      pop\n      jump\t// out\n        /* \"#utility.yul\":8195:8838   */\n    tag_121:\n        /* \"#utility.yul\":8289:8294   */\n      0x00\n        /* \"#utility.yul\":8314:8393   */\n      tag_226\n        /* \"#utility.yul\":8330:8392   */\n      tag_227\n        /* \"#utility.yul\":8385:8391   */\n      dup5\n        /* \"#utility.yul\":8330:8392   */\n      tag_120\n      jump\t// in\n    tag_227:\n        /* \"#utility.yul\":8314:8393   */\n      tag_107\n      jump\t// in\n    tag_226:\n        /* \"#utility.yul\":8305:8393   */\n      swap1\n      pop\n        /* \"#utility.yul\":8413:8418   */\n      dup1\n        /* \"#utility.yul\":8466:8470   */\n      0x20\n        /* \"#utility.yul\":8458:8464   */\n      dup5\n        /* \"#utility.yul\":8454:8471   */\n      mul\n        /* \"#utility.yul\":8446:8452   */\n      dup4\n        /* \"#utility.yul\":8442:8472   */\n      add\n        /* \"#utility.yul\":8495:8498   */\n      dup6\n        /* \"#utility.yul\":8487:8493   */\n      dup2\n        /* \"#utility.yul\":8484:8499   */\n      gt\n        /* \"#utility.yul\":8481:8603   */\n      iszero\n      tag_228\n      jumpi\n        /* \"#utility.yul\":8514:8593   */\n      tag_229\n      tag_109\n      jump\t// in\n    tag_229:\n        /* \"#utility.yul\":8481:8603   */\n    tag_228:\n        /* \"#utility.yul\":8629:8635   */\n      dup4\n        /* \"#utility.yul\":8612:8832   */\n    tag_230:\n        /* \"#utility.yul\":8646:8652   */\n      dup2\n        /* \"#utility.yul\":8641:8644   */\n      dup2\n        /* \"#utility.yul\":8638:8653   */\n      lt\n        /* \"#utility.yul\":8612:8832   */\n      iszero\n      tag_232\n      jumpi\n        /* \"#utility.yul\":8721:8724   */\n      dup1\n        /* \"#utility.yul\":8750:8787   */\n      tag_233\n        /* \"#utility.yul\":8783:8786   */\n      dup9\n        /* \"#utility.yul\":8771:8781   */\n      dup3\n        /* \"#utility.yul\":8750:8787   */\n      tag_102\n      jump\t// in\n    tag_233:\n        /* \"#utility.yul\":8745:8748   */\n      dup5\n        /* \"#utility.yul\":8738:8788   */\n      mstore\n        /* \"#utility.yul\":8817:8821   */\n      0x20\n        /* \"#utility.yul\":8812:8815   */\n      dup5\n        /* \"#utility.yul\":8808:8822   */\n      add\n        /* \"#utility.yul\":8801:8822   */\n      swap4\n      pop\n        /* \"#utility.yul\":8688:8832   */\n      pop\n        /* \"#utility.yul\":8672:8676   */\n      0x20\n        /* \"#utility.yul\":8667:8670   */\n      dup2\n        /* \"#utility.yul\":8663:8677   */\n      add\n        /* \"#utility.yul\":8656:8677   */\n      swap1\n      pop\n        /* \"#utility.yul\":8612:8832   */\n      jump(tag_230)\n    tag_232:\n        /* \"#utility.yul\":8616:8637   */\n      pop\n        /* \"#utility.yul\":8295:8838   */\n      pop\n      pop\n        /* \"#utility.yul\":8195:8838   */\n      swap4\n      swap3\n      pop\n      pop\n      pop\n      jump\t// out\n        /* \"#utility.yul\":8862:9201   */\n    tag_122:\n        /* \"#utility.yul\":8931:8936   */\n      0x00\n        /* \"#utility.yul\":8980:8983   */\n      dup3\n        /* \"#utility.yul\":8973:8977   */\n      0x1f\n        /* \"#utility.yul\":8965:8971   */\n      dup4\n        /* \"#utility.yul\":8961:8978   */\n      add\n        /* \"#utility.yul\":8957:8984   */\n      slt\n        /* \"#utility.yul\":8947:9069   */\n      tag_235\n      jumpi\n        /* \"#utility.yul\":8988:9067   */\n      tag_236\n      tag_103\n      jump\t// in\n    tag_236:\n        /* \"#utility.yul\":8947:9069   */\n    tag_235:\n        /* \"#utility.yul\":9092:9096   */\n      0x04\n        /* \"#utility.yul\":9114:9195   */\n      tag_237\n        /* \"#utility.yul\":9191:9194   */\n      dup5\n        /* \"#utility.yul\":9183:9189   */\n      dup3\n        /* \"#utility.yul\":9175:9181   */\n      dup6\n        /* \"#utility.yul\":9114:9195   */\n      tag_121\n      jump\t// in\n    tag_237:\n        /* \"#utility.yul\":9105:9195   */\n      swap2\n      pop\n        /* \"#utility.yul\":8937:9201   */\n      pop\n        /* \"#utility.yul\":8862:9201   */\n      swap3\n      swap2\n      pop\n      pop\n      jump\t// out\n        /* \"#utility.yul\":9240:9681   */\n    tag_123:\n        /* \"#utility.yul\":9316:9321   */\n      0x00\n        /* \"#utility.yul\":9360:9364   */\n      0x80\n        /* \"#utility.yul\":9348:9357   */\n      dup3\n        /* \"#utility.yul\":9343:9346   */\n      dup5\n        /* \"#utility.yul\":9339:9358   */\n      sub\n        /* \"#utility.yul\":9335:9365   */\n      slt\n        /* \"#utility.yul\":9332:9449   */\n      iszero\n      tag_239\n      jumpi\n        /* \"#utility.yul\":9368:9447   */\n      tag_240\n      tag_110\n      jump\t// in\n    tag_240:\n        /* \"#utility.yul\":9332:9449   */\n    tag_239:\n        /* \"#utility.yul\":9467:9488   */\n      tag_241\n        /* \"#utility.yul\":9483:9487   */\n      0x20\n        /* \"#utility.yul\":9467:9488   */\n      tag_107\n      jump\t// in\n    tag_241:\n        /* \"#utility.yul\":9458:9488   */\n      swap1\n      pop\n        /* \"#utility.yul\":9550:9551   */\n      0x00\n        /* \"#utility.yul\":9590:9662   */\n      tag_242\n        /* \"#utility.yul\":9658:9661   */\n      dup5\n        /* \"#utility.yul\":9649:9655   */\n      dup3\n        /* \"#utility.yul\":9638:9647   */\n      dup6\n        /* \"#utility.yul\":9634:9656   */\n      add\n        /* \"#utility.yul\":9590:9662   */\n      tag_122\n      jump\t// in\n    tag_242:\n        /* \"#utility.yul\":9583:9587   */\n      0x00\n        /* \"#utility.yul\":9576:9581   */\n      dup4\n        /* \"#utility.yul\":9572:9588   */\n      add\n        /* \"#utility.yul\":9565:9663   */\n      mstore\n        /* \"#utility.yul\":9498:9674   */\n      pop\n        /* \"#utility.yul\":9240:9681   */\n      swap3\n      swap2\n      pop\n      pop\n      jump\t// out\n        /* \"#utility.yul\":9722:10513   */\n    tag_124:\n        /* \"#utility.yul\":9845:9850   */\n      0x00\n        /* \"#utility.yul\":9870:9978   */\n      tag_244\n        /* \"#utility.yul\":9886:9977   */\n      tag_245\n        /* \"#utility.yul\":9970:9976   */\n      dup5\n        /* \"#utility.yul\":9886:9977   */\n      tag_119\n      jump\t// in\n    tag_245:\n        /* \"#utility.yul\":9870:9978   */\n      tag_107\n      jump\t// in\n    tag_244:\n        /* \"#utility.yul\":9861:9978   */\n      swap1\n      pop\n        /* \"#utility.yul\":9998:10003   */\n      dup1\n        /* \"#utility.yul\":10027:10033   */\n      dup4\n        /* \"#utility.yul\":10020:10025   */\n      dup3\n        /* \"#utility.yul\":10013:10034   */\n      mstore\n        /* \"#utility.yul\":10061:10065   */\n      0x20\n        /* \"#utility.yul\":10054:10059   */\n      dup3\n        /* \"#utility.yul\":10050:10066   */\n      add\n        /* \"#utility.yul\":10043:10066   */\n      swap1\n      pop\n        /* \"#utility.yul\":10114:10118   */\n      0x80\n        /* \"#utility.yul\":10106:10112   */\n      dup5\n        /* \"#utility.yul\":10102:10119   */\n      mul\n        /* \"#utility.yul\":10094:10100   */\n      dup4\n        /* \"#utility.yul\":10090:10120   */\n      add\n        /* \"#utility.yul\":10143:10146   */\n      dup6\n        /* \"#utility.yul\":10135:10141   */\n      dup2\n        /* \"#utility.yul\":10132:10147   */\n      gt\n        /* \"#utility.yul\":10129:10251   */\n      iszero\n      tag_246\n      jumpi\n        /* \"#utility.yul\":10162:10241   */\n      tag_247\n      tag_109\n      jump\t// in\n    tag_247:\n        /* \"#utility.yul\":10129:10251   */\n    tag_246:\n        /* \"#utility.yul\":10277:10283   */\n      dup4\n        /* \"#utility.yul\":10260:10507   */\n    tag_248:\n        /* \"#utility.yul\":10294:10300   */\n      dup2\n        /* \"#utility.yul\":10289:10292   */\n      dup2\n        /* \"#utility.yul\":10286:10301   */\n      lt\n        /* \"#utility.yul\":10260:10507   */\n      iszero\n      tag_250\n      jumpi\n        /* \"#utility.yul\":10369:10372   */\n      dup1\n        /* \"#utility.yul\":10398:10462   */\n      tag_251\n        /* \"#utility.yul\":10458:10461   */\n      dup9\n        /* \"#utility.yul\":10446:10456   */\n      dup3\n        /* \"#utility.yul\":10398:10462   */\n      tag_123\n      jump\t// in\n    tag_251:\n        /* \"#utility.yul\":10393:10396   */\n      dup5\n        /* \"#utility.yul\":10386:10463   */\n      mstore\n        /* \"#utility.yul\":10492:10496   */\n      0x20\n        /* \"#utility.yul\":10487:10490   */\n      dup5\n        /* \"#utility.yul\":10483:10497   */\n      add\n        /* \"#utility.yul\":10476:10497   */\n      swap4\n      pop\n        /* \"#utility.yul\":10336:10507   */\n      pop\n        /* \"#utility.yul\":10320:10324   */\n      0x80\n        /* \"#utility.yul\":10315:10318   */\n      dup2\n        /* \"#utility.yul\":10311:10325   */\n      add\n        /* \"#utility.yul\":10304:10325   */\n      swap1\n      pop\n        /* \"#utility.yul\":10260:10507   */\n      jump(tag_248)\n    tag_250:\n        /* \"#utility.yul\":10264:10285   */\n      pop\n        /* \"#utility.yul\":9851:10513   */\n      pop\n      pop\n        /* \"#utility.yul\":9722:10513   */\n      swap4\n      swap3\n      pop\n      pop\n      pop\n      jump\t// out\n        /* \"#utility.yul\":10554:10978   */\n    tag_125:\n        /* \"#utility.yul\":10652:10657   */\n      0x00\n        /* \"#utility.yul\":10701:10704   */\n      dup3\n        /* \"#utility.yul\":10694:10698   */\n      0x1f\n        /* \"#utility.yul\":10686:10692   */\n      dup4\n        /* \"#utility.yul\":10682:10699   */\n      add\n        /* \"#utility.yul\":10678:10705   */\n      slt\n        /* \"#utility.yul\":10668:10790   */\n      tag_253\n      jumpi\n        /* \"#utility.yul\":10709:10788   */\n      tag_254\n      tag_103\n      jump\t// in\n    tag_254:\n        /* \"#utility.yul\":10668:10790   */\n    tag_253:\n        /* \"#utility.yul\":10826:10832   */\n      dup2\n        /* \"#utility.yul\":10813:10833   */\n      calldataload\n        /* \"#utility.yul\":10851:10972   */\n      tag_255\n        /* \"#utility.yul\":10968:10971   */\n      dup5\n        /* \"#utility.yul\":10960:10966   */\n      dup3\n        /* \"#utility.yul\":10953:10957   */\n      0x20\n        /* \"#utility.yul\":10945:10951   */\n      dup7\n        /* \"#utility.yul\":10941:10958   */\n      add\n        /* \"#utility.yul\":10851:10972   */\n      tag_124\n      jump\t// in\n    tag_255:\n        /* \"#utility.yul\":10842:10972   */\n      swap2\n      pop\n        /* \"#utility.yul\":10658:10978   */\n      pop\n        /* \"#utility.yul\":10554:10978   */\n      swap3\n      swap2\n      pop\n      pop\n      jump\t// out\n        /* \"#utility.yul\":10984:11577   */\n    tag_26:\n        /* \"#utility.yul\":11095:11101   */\n      0x00\n        /* \"#utility.yul\":11144:11146   */\n      0x20\n        /* \"#utility.yul\":11132:11141   */\n      dup3\n        /* \"#utility.yul\":11123:11130   */\n      dup5\n        /* \"#utility.yul\":11119:11142   */\n      sub\n        /* \"#utility.yul\":11115:11147   */\n      slt\n        /* \"#utility.yul\":11112:11231   */\n      iszero\n      tag_257\n      jumpi\n        /* \"#utility.yul\":11150:11229   */\n      tag_258\n      tag_95\n      jump\t// in\n    tag_258:\n        /* \"#utility.yul\":11112:11231   */\n    tag_257:\n        /* \"#utility.yul\":11298:11299   */\n      0x00\n        /* \"#utility.yul\":11287:11296   */\n      dup3\n        /* \"#utility.yul\":11283:11300   */\n      add\n        /* \"#utility.yul\":11270:11301   */\n      calldataload\n        /* \"#utility.yul\":11328:11346   */\n      0xffffffffffffffff\n        /* \"#utility.yul\":11320:11326   */\n      dup2\n        /* \"#utility.yul\":11317:11347   */\n      gt\n        /* \"#utility.yul\":11314:11431   */\n      iszero\n      tag_259\n      jumpi\n        /* \"#utility.yul\":11350:11429   */\n      tag_260\n      tag_96\n      jump\t// in\n    tag_260:\n        /* \"#utility.yul\":11314:11431   */\n    tag_259:\n        /* \"#utility.yul\":11455:11560   */\n      tag_261\n        /* \"#utility.yul\":11552:11559   */\n      dup5\n        /* \"#utility.yul\":11543:11549   */\n      dup3\n        /* \"#utility.yul\":11532:11541   */\n      dup6\n        /* \"#utility.yul\":11528:11550   */\n      add\n        /* \"#utility.yul\":11455:11560   */\n      tag_125\n      jump\t// in\n    tag_261:\n        /* \"#utility.yul\":11445:11560   */\n      swap2\n      pop\n        /* \"#utility.yul\":11241:11570   */\n      pop\n        /* \"#utility.yul\":10984:11577   */\n      swap3\n      swap2\n      pop\n      pop\n      jump\t// out\n        /* \"#utility.yul\":11583:11701   */\n    tag_126:\n        /* \"#utility.yul\":11670:11694   */\n      tag_263\n        /* \"#utility.yul\":11688:11693   */\n      dup2\n        /* \"#utility.yul\":11670:11694   */\n      tag_97\n      jump\t// in\n    tag_263:\n        /* \"#utility.yul\":11665:11668   */\n      dup3\n        /* \"#utility.yul\":11658:11695   */\n      mstore\n        /* \"#utility.yul\":11583:11701   */\n      pop\n      pop\n      jump\t// out\n        /* \"#utility.yul\":11707:11929   */\n    tag_31:\n        /* \"#utility.yul\":11800:11804   */\n      0x00\n        /* \"#utility.yul\":11838:11840   */\n      0x20\n        /* \"#utility.yul\":11827:11836   */\n      dup3\n        /* \"#utility.yul\":11823:11841   */\n      add\n        /* \"#utility.yul\":11815:11841   */\n      swap1\n      pop\n        /* \"#utility.yul\":11851:11922   */\n      tag_265\n        /* \"#utility.yul\":11919:11920   */\n      0x00\n        /* \"#utility.yul\":11908:11917   */\n      dup4\n        /* \"#utility.yul\":11904:11921   */\n      add\n        /* \"#utility.yul\":11895:11901   */\n      dup5\n        /* \"#utility.yul\":11851:11922   */\n      tag_126\n      jump\t// in\n    tag_265:\n        /* \"#utility.yul\":11707:11929   */\n      swap3\n      swap2\n      pop\n      pop\n      jump\t// out\n        /* \"#utility.yul\":11935:12039   */\n    tag_127:\n        /* \"#utility.yul\":12000:12006   */\n      0x00\n        /* \"#utility.yul\":12028:12032   */\n      0x04\n        /* \"#utility.yul\":12018:12032   */\n      swap1\n      pop\n        /* \"#utility.yul\":11935:12039   */\n      swap2\n      swap1\n      pop\n      jump\t// out\n        /* \"#utility.yul\":12045:12188   */\n    tag_128:\n        /* \"#utility.yul\":12142:12153   */\n      0x00\n        /* \"#utility.yul\":12179:12182   */\n      dup2\n        /* \"#utility.yul\":12164:12182   */\n      swap1\n      pop\n        /* \"#utility.yul\":12045:12188   */\n      swap3\n      swap2\n      pop\n      pop\n      jump\t// out\n        /* \"#utility.yul\":12194:12292   */\n    tag_129:\n        /* \"#utility.yul\":12259:12263   */\n      0x00\n        /* \"#utility.yul\":12282:12285   */\n      dup2\n        /* \"#utility.yul\":12274:12285   */\n      swap1\n      pop\n        /* \"#utility.yul\":12194:12292   */\n      swap2\n      swap1\n      pop\n      jump\t// out\n        /* \"#utility.yul\":12298:12406   */\n    tag_130:\n        /* \"#utility.yul\":12375:12399   */\n      tag_270\n        /* \"#utility.yul\":12393:12398   */\n      dup2\n        /* \"#utility.yul\":12375:12399   */\n      tag_100\n      jump\t// in\n    tag_270:\n        /* \"#utility.yul\":12370:12373   */\n      dup3\n        /* \"#utility.yul\":12363:12400   */\n      mstore\n        /* \"#utility.yul\":12298:12406   */\n      pop\n      pop\n      jump\t// out\n        /* \"#utility.yul\":12412:12591   */\n    tag_131:\n        /* \"#utility.yul\":12481:12491   */\n      0x00\n        /* \"#utility.yul\":12502:12548   */\n      tag_272\n        /* \"#utility.yul\":12544:12547   */\n      dup4\n        /* \"#utility.yul\":12536:12542   */\n      dup4\n        /* \"#utility.yul\":12502:12548   */\n      tag_130\n      jump\t// in\n    tag_272:\n        /* \"#utility.yul\":12580:12584   */\n      0x20\n        /* \"#utility.yul\":12575:12578   */\n      dup4\n        /* \"#utility.yul\":12571:12585   */\n      add\n        /* \"#utility.yul\":12557:12585   */\n      swap1\n      pop\n        /* \"#utility.yul\":12412:12591   */\n      swap3\n      swap2\n      pop\n      pop\n      jump\t// out\n        /* \"#utility.yul\":12597:12708   */\n    tag_132:\n        /* \"#utility.yul\":12665:12669   */\n      0x00\n        /* \"#utility.yul\":12697:12701   */\n      0x20\n        /* \"#utility.yul\":12692:12695   */\n      dup3\n        /* \"#utility.yul\":12688:12702   */\n      add\n        /* \"#utility.yul\":12680:12702   */\n      swap1\n      pop\n        /* \"#utility.yul\":12597:12708   */\n      swap2\n      swap1\n      pop\n      jump\t// out\n        /* \"#utility.yul\":12746:13440   */\n    tag_133:\n        /* \"#utility.yul\":12882:12934   */\n      tag_275\n        /* \"#utility.yul\":12928:12933   */\n      dup2\n        /* \"#utility.yul\":12882:12934   */\n      tag_127\n      jump\t// in\n    tag_275:\n        /* \"#utility.yul\":12950:13034   */\n      tag_276\n        /* \"#utility.yul\":13027:13033   */\n      dup2\n        /* \"#utility.yul\":13022:13025   */\n      dup5\n        /* \"#utility.yul\":12950:13034   */\n      tag_128\n      jump\t// in\n    tag_276:\n        /* \"#utility.yul\":12943:13034   */\n      swap3\n      pop\n        /* \"#utility.yul\":13058:13112   */\n      tag_277\n        /* \"#utility.yul\":13106:13111   */\n      dup3\n        /* \"#utility.yul\":13058:13112   */\n      tag_129\n      jump\t// in\n    tag_277:\n        /* \"#utility.yul\":13135:13142   */\n      dup1\n        /* \"#utility.yul\":13166:13167   */\n      0x00\n        /* \"#utility.yul\":13151:13433   */\n    tag_278:\n        /* \"#utility.yul\":13176:13182   */\n      dup4\n        /* \"#utility.yul\":13173:13174   */\n      dup2\n        /* \"#utility.yul\":13170:13183   */\n      lt\n        /* \"#utility.yul\":13151:13433   */\n      iszero\n      tag_280\n      jumpi\n        /* \"#utility.yul\":13252:13258   */\n      dup2\n        /* \"#utility.yul\":13246:13259   */\n      mload\n        /* \"#utility.yul\":13279:13342   */\n      tag_281\n        /* \"#utility.yul\":13338:13341   */\n      dup8\n        /* \"#utility.yul\":13323:13336   */\n      dup3\n        /* \"#utility.yul\":13279:13342   */\n      tag_131\n      jump\t// in\n    tag_281:\n        /* \"#utility.yul\":13272:13342   */\n      swap7\n      pop\n        /* \"#utility.yul\":13365:13423   */\n      tag_282\n        /* \"#utility.yul\":13416:13422   */\n      dup4\n        /* \"#utility.yul\":13365:13423   */\n      tag_132\n      jump\t// in\n    tag_282:\n        /* \"#utility.yul\":13355:13423   */\n      swap3\n      pop\n        /* \"#utility.yul\":13211:13433   */\n      pop\n        /* \"#utility.yul\":13198:13199   */\n      0x01\n        /* \"#utility.yul\":13195:13196   */\n      dup2\n        /* \"#utility.yul\":13191:13200   */\n      add\n        /* \"#utility.yul\":13186:13200   */\n      swap1\n      pop\n        /* \"#utility.yul\":13151:13433   */\n      jump(tag_278)\n    tag_280:\n        /* \"#utility.yul\":13155:13169   */\n      pop\n        /* \"#utility.yul\":12858:13440   */\n      pop\n      pop\n      pop\n        /* \"#utility.yul\":12746:13440   */\n      pop\n      pop\n      jump\t// out\n        /* \"#utility.yul\":13446:13761   */\n    tag_41:\n        /* \"#utility.yul\":13585:13589   */\n      0x00\n        /* \"#utility.yul\":13623:13626   */\n      0x80\n        /* \"#utility.yul\":13612:13621   */\n      dup3\n        /* \"#utility.yul\":13608:13627   */\n      add\n        /* \"#utility.yul\":13600:13627   */\n      swap1\n      pop\n        /* \"#utility.yul\":13637:13754   */\n      tag_284\n        /* \"#utility.yul\":13751:13752   */\n      0x00\n        /* \"#utility.yul\":13740:13749   */\n      dup4\n        /* \"#utility.yul\":13736:13753   */\n      add\n        /* \"#utility.yul\":13727:13733   */\n      dup5\n        /* \"#utility.yul\":13637:13754   */\n      tag_133\n      jump\t// in\n    tag_284:\n        /* \"#utility.yul\":13446:13761   */\n      swap3\n      swap2\n      pop\n      pop\n      jump\t// out\n        /* \"#utility.yul\":13767:13947   */\n    tag_49:\n        /* \"#utility.yul\":13815:13892   */\n      0x4e487b7100000000000000000000000000000000000000000000000000000000\n        /* \"#utility.yul\":13812:13813   */\n      0x00\n        /* \"#utility.yul\":13805:13893   */\n      mstore\n        /* \"#utility.yul\":13912:13916   */\n      0x32\n        /* \"#utility.yul\":13909:13910   */\n      0x04\n        /* \"#utility.yul\":13902:13917   */\n      mstore\n        /* \"#utility.yul\":13936:13940   */\n      0x24\n        /* \"#utility.yul\":13933:13934   */\n      0x00\n        /* \"#utility.yul\":13926:13941   */\n      revert\n        /* \"#utility.yul\":13953:14133   */\n    tag_134:\n        /* \"#utility.yul\":14001:14078   */\n      0x4e487b7100000000000000000000000000000000000000000000000000000000\n        /* \"#utility.yul\":13998:13999   */\n      0x00\n        /* \"#utility.yul\":13991:14079   */\n      mstore\n        /* \"#utility.yul\":14098:14102   */\n      0x11\n        /* \"#utility.yul\":14095:14096   */\n      0x04\n        /* \"#utility.yul\":14088:14103   */\n      mstore\n        /* \"#utility.yul\":14122:14126   */\n      0x24\n        /* \"#utility.yul\":14119:14120   */\n      0x00\n        /* \"#utility.yul\":14112:14127   */\n      revert\n        /* \"#utility.yul\":14139:14549   */\n    tag_81:\n        /* \"#utility.yul\":14179:14186   */\n      0x00\n        /* \"#utility.yul\":14202:14222   */\n      tag_288\n        /* \"#utility.yul\":14220:14221   */\n      dup3\n        /* \"#utility.yul\":14202:14222   */\n      tag_100\n      jump\t// in\n    tag_288:\n        /* \"#utility.yul\":14197:14222   */\n      swap2\n      pop\n        /* \"#utility.yul\":14236:14256   */\n      tag_289\n        /* \"#utility.yul\":14254:14255   */\n      dup4\n        /* \"#utility.yul\":14236:14256   */\n      tag_100\n      jump\t// in\n    tag_289:\n        /* \"#utility.yul\":14231:14256   */\n      swap3\n      pop\n        /* \"#utility.yul\":14291:14292   */\n      dup3\n        /* \"#utility.yul\":14288:14289   */\n      dup3\n        /* \"#utility.yul\":14284:14293   */\n      mul\n        /* \"#utility.yul\":14313:14343   */\n      tag_290\n        /* \"#utility.yul\":14331:14342   */\n      dup2\n        /* \"#utility.yul\":14313:14343   */\n      tag_100\n      jump\t// in\n    tag_290:\n        /* \"#utility.yul\":14302:14343   */\n      swap2\n      pop\n        /* \"#utility.yul\":14492:14493   */\n      dup3\n        /* \"#utility.yul\":14483:14490   */\n      dup3\n        /* \"#utility.yul\":14479:14494   */\n      div\n        /* \"#utility.yul\":14476:14477   */\n      dup5\n        /* \"#utility.yul\":14473:14495   */\n      eq\n        /* \"#utility.yul\":14453:14454   */\n      dup4\n        /* \"#utility.yul\":14446:14455   */\n      iszero\n        /* \"#utility.yul\":14426:14509   */\n      or\n        /* \"#utility.yul\":14403:14542   */\n      tag_291\n      jumpi\n        /* \"#utility.yul\":14522:14540   */\n      tag_292\n      tag_134\n      jump\t// in\n    tag_292:\n        /* \"#utility.yul\":14403:14542   */\n    tag_291:\n        /* \"#utility.yul\":14187:14549   */\n      pop\n        /* \"#utility.yul\":14139:14549   */\n      swap3\n      swap2\n      pop\n      pop\n      jump\t// out\n\n    auxdata: 0xa26469706673582212207fc20614c90fdfdac24a60cebea5377b3247fa45c5c05016c92e2097c5810d7064736f6c63430008190033\n}\n",
				"bytecode": {
					"linkReferences": {},
					"object": "6080604052348015600e575f80fd5b50610b8f8061001c5f395ff3fe608060405234801561000f575f80fd5b5060043610610086575f3560e01c80632eb4a7ab116100595780632eb4a7ab146100fc5780633b9eac4b1461011a5780636c8ae38c14610138578063884ecded1461015657610086565b806303b98fdb1461008a578063105b6afc146100a657806315d4266c146100c257806322b34183146100e0575b5f80fd5b6100a4600480360381019061009f91906104c6565b610174565b005b6100c060048036038101906100bb9190610768565b61018d565b005b6100ca610224565b6040516100d791906107d1565b60405180910390f35b6100fa60048036038101906100f59190610991565b61022a565b005b6101046102a1565b60405161011191906109e7565b60405180910390f35b6101226102a6565b60405161012f91906107d1565b60405180910390f35b6101406102ac565b60405161014d91906107d1565b60405180910390f35b61015e6102b2565b60405161016b9190610aa5565b60405180910390f35b825f819055508160018190555080600281905550505050565b5f5b82518110156102185760088382815181106101ad576101ac610abe565b5b6020026020010151908060018154018082558091505060019003905f5260205f2090600a02015f909190919091505f820151815f019060056101f0929190610392565b50602082015181600501906005610208929190610392565b505050808060010191505061018f565b50806009819055505050565b60025481565b5f5b815181101561029d57600782828151811061024a57610249610abe565b5b6020026020010151908060018154018082558091505060019003905f5260205f2090600402015f909190919091505f820151815f0190600461028d9291906103d2565b505050808060010191505061022c565b5050565b5f5481565b60015481565b60095481565b6102ba610412565b5f6040518060800160405280600181526020016001815260200160018152602001600181525090505f5b600780549050811015610378575f5b600481101561036a57600782815481106103105761030f610abe565b5b905f5260205f2090600402015f0181600481106103305761032f610abe565b5b015483826004811061034557610344610abe565b5b602002018181516103569190610b18565b9150818152505080806001019150506102f3565b5080806001019150506102e4565b5080600390600461038a9291906103d2565b508091505090565b82600581019282156103c1579160200282015b828111156103c05782518255916020019190600101906103a5565b5b5090506103ce9190610434565b5090565b8260048101928215610401579160200282015b828111156104005782518255916020019190600101906103e5565b5b50905061040e9190610434565b5090565b6040518060800160405280600490602082028036833780820191505090505090565b5b8082111561044b575f815f905550600101610435565b5090565b5f604051905090565b5f80fd5b5f80fd5b5f819050919050565b61047281610460565b811461047c575f80fd5b50565b5f8135905061048d81610469565b92915050565b5f819050919050565b6104a581610493565b81146104af575f80fd5b50565b5f813590506104c08161049c565b92915050565b5f805f606084860312156104dd576104dc610458565b5b5f6104ea8682870161047f565b93505060206104fb868287016104b2565b925050604061050c868287016104b2565b9150509250925092565b5f80fd5b5f601f19601f8301169050919050565b7f4e487b71000000000000000000000000000000000000000000000000000000005f52604160045260245ffd5b6105608261051a565b810181811067ffffffffffffffff8211171561057f5761057e61052a565b5b80604052505050565b5f61059161044f565b905061059d8282610557565b919050565b5f67ffffffffffffffff8211156105bc576105bb61052a565b5b602082029050602081019050919050565b5f80fd5b5f80fd5b5f67ffffffffffffffff8211156105ef576105ee61052a565b5b602082029050919050565b5f61060c610607846105d5565b610588565b90508060208402830185811115610626576106256105cd565b5b835b8181101561064f578061063b88826104b2565b845260208401935050602081019050610628565b5050509392505050565b5f82601f83011261066d5761066c610516565b5b600561067a8482856105fa565b91505092915050565b5f6101408284031215610699576106986105d1565b5b6106a36040610588565b90505f6106b284828501610659565b5f8301525060a06106c584828501610659565b60208301525092915050565b5f6106e36106de846105a2565b610588565b9050808382526020820190506101408402830185811115610707576107066105cd565b5b835b81811015610731578061071c8882610683565b84526020840193505061014081019050610709565b5050509392505050565b5f82601f83011261074f5761074e610516565b5b813561075f8482602086016106d1565b91505092915050565b5f806040838503121561077e5761077d610458565b5b5f83013567ffffffffffffffff81111561079b5761079a61045c565b5b6107a78582860161073b565b92505060206107b8858286016104b2565b9150509250929050565b6107cb81610493565b82525050565b5f6020820190506107e45f8301846107c2565b92915050565b5f67ffffffffffffffff8211156108045761080361052a565b5b602082029050602081019050919050565b5f67ffffffffffffffff82111561082f5761082e61052a565b5b602082029050919050565b5f61084c61084784610815565b610588565b90508060208402830185811115610866576108656105cd565b5b835b8181101561088f578061087b88826104b2565b845260208401935050602081019050610868565b5050509392505050565b5f82601f8301126108ad576108ac610516565b5b60046108ba84828561083a565b91505092915050565b5f608082840312156108d8576108d76105d1565b5b6108e26020610588565b90505f6108f184828501610899565b5f8301525092915050565b5f61090e610909846107ea565b610588565b90508083825260208201905060808402830185811115610931576109306105cd565b5b835b8181101561095a578061094688826108c3565b845260208401935050608081019050610933565b5050509392505050565b5f82601f83011261097857610977610516565b5b81356109888482602086016108fc565b91505092915050565b5f602082840312156109a6576109a5610458565b5b5f82013567ffffffffffffffff8111156109c3576109c261045c565b5b6109cf84828501610964565b91505092915050565b6109e181610460565b82525050565b5f6020820190506109fa5f8301846109d8565b92915050565b5f60049050919050565b5f81905092915050565b5f819050919050565b610a2681610493565b82525050565b5f610a378383610a1d565b60208301905092915050565b5f602082019050919050565b610a5881610a00565b610a628184610a0a565b9250610a6d82610a14565b805f5b83811015610a9d578151610a848782610a2c565b9650610a8f83610a43565b925050600181019050610a70565b505050505050565b5f608082019050610ab85f830184610a4f565b92915050565b7f4e487b71000000000000000000000000000000000000000000000000000000005f52603260045260245ffd5b7f4e487b71000000000000000000000000000000000000000000000000000000005f52601160045260245ffd5b5f610b2282610493565b9150610b2d83610493565b9250828202610b3b81610493565b91508282048414831517610b5257610b51610aeb565b5b509291505056fea26469706673582212207fc20614c90fdfdac24a60cebea5377b3247fa45c5c05016c92e2097c5810d7064736f6c63430008190033",
					"opcodes": "PUSH1 0x80 PUSH1 0x40 MSTORE CALLVALUE DUP1 ISZERO PUSH1 0xE JUMPI PUSH0 DUP1 REVERT JUMPDEST POP PUSH2 0xB8F DUP1 PUSH2 0x1C PUSH0 CODECOPY PUSH0 RETURN INVALID PUSH1 0x80 PUSH1 0x40 MSTORE CALLVALUE DUP1 ISZERO PUSH2 0xF JUMPI PUSH0 DUP1 REVERT JUMPDEST POP PUSH1 0x4 CALLDATASIZE LT PUSH2 0x86 JUMPI PUSH0 CALLDATALOAD PUSH1 0xE0 SHR DUP1 PUSH4 0x2EB4A7AB GT PUSH2 0x59 JUMPI DUP1 PUSH4 0x2EB4A7AB EQ PUSH2 0xFC JUMPI DUP1 PUSH4 0x3B9EAC4B EQ PUSH2 0x11A JUMPI DUP1 PUSH4 0x6C8AE38C EQ PUSH2 0x138 JUMPI DUP1 PUSH4 0x884ECDED EQ PUSH2 0x156 JUMPI PUSH2 0x86 JUMP JUMPDEST DUP1 PUSH4 0x3B98FDB EQ PUSH2 0x8A JUMPI DUP1 PUSH4 0x105B6AFC EQ PUSH2 0xA6 JUMPI DUP1 PUSH4 0x15D4266C EQ PUSH2 0xC2 JUMPI DUP1 PUSH4 0x22B34183 EQ PUSH2 0xE0 JUMPI JUMPDEST PUSH0 DUP1 REVERT JUMPDEST PUSH2 0xA4 PUSH1 0x4 DUP1 CALLDATASIZE SUB DUP2 ADD SWAP1 PUSH2 0x9F SWAP2 SWAP1 PUSH2 0x4C6 JUMP JUMPDEST PUSH2 0x174 JUMP JUMPDEST STOP JUMPDEST PUSH2 0xC0 PUSH1 0x4 DUP1 CALLDATASIZE SUB DUP2 ADD SWAP1 PUSH2 0xBB SWAP2 SWAP1 PUSH2 0x768 JUMP JUMPDEST PUSH2 0x18D JUMP JUMPDEST STOP JUMPDEST PUSH2 0xCA PUSH2 0x224 JUMP JUMPDEST PUSH1 0x40 MLOAD PUSH2 0xD7 SWAP2 SWAP1 PUSH2 0x7D1 JUMP JUMPDEST PUSH1 0x40 MLOAD DUP1 SWAP2 SUB SWAP1 RETURN JUMPDEST PUSH2 0xFA PUSH1 0x4 DUP1 CALLDATASIZE SUB DUP2 ADD SWAP1 PUSH2 0xF5 SWAP2 SWAP1 PUSH2 0x991 JUMP JUMPDEST PUSH2 0x22A JUMP JUMPDEST STOP JUMPDEST PUSH2 0x104 PUSH2 0x2A1 JUMP JUMPDEST PUSH1 0x40 MLOAD PUSH2 0x111 SWAP2 SWAP1 PUSH2 0x9E7 JUMP JUMPDEST PUSH1 0x40 MLOAD DUP1 SWAP2 SUB SWAP1 RETURN JUMPDEST PUSH2 0x122 PUSH2 0x2A6 JUMP JUMPDEST PUSH1 0x40 MLOAD PUSH2 0x12F SWAP2 SWAP1 PUSH2 0x7D1 JUMP JUMPDEST PUSH1 0x40 MLOAD DUP1 SWAP2 SUB SWAP1 RETURN JUMPDEST PUSH2 0x140 PUSH2 0x2AC JUMP JUMPDEST PUSH1 0x40 MLOAD PUSH2 0x14D SWAP2 SWAP1 PUSH2 0x7D1 JUMP JUMPDEST PUSH1 0x40 MLOAD DUP1 SWAP2 SUB SWAP1 RETURN JUMPDEST PUSH2 0x15E PUSH2 0x2B2 JUMP JUMPDEST PUSH1 0x40 MLOAD PUSH2 0x16B SWAP2 SWAP1 PUSH2 0xAA5 JUMP JUMPDEST PUSH1 0x40 MLOAD DUP1 SWAP2 SUB SWAP1 RETURN JUMPDEST DUP3 PUSH0 DUP2 SWAP1 SSTORE POP DUP2 PUSH1 0x1 DUP2 SWAP1 SSTORE POP DUP1 PUSH1 0x2 DUP2 SWAP1 SSTORE POP POP POP POP JUMP JUMPDEST PUSH0 JUMPDEST DUP3 MLOAD DUP2 LT ISZERO PUSH2 0x218 JUMPI PUSH1 0x8 DUP4 DUP3 DUP2 MLOAD DUP2 LT PUSH2 0x1AD JUMPI PUSH2 0x1AC PUSH2 0xABE JUMP JUMPDEST JUMPDEST PUSH1 0x20 MUL PUSH1 0x20 ADD ADD MLOAD SWAP1 DUP1 PUSH1 0x1 DUP2 SLOAD ADD DUP1 DUP3 SSTORE DUP1 SWAP2 POP POP PUSH1 0x1 SWAP1 SUB SWAP1 PUSH0 MSTORE PUSH1 0x20 PUSH0 KECCAK256 SWAP1 PUSH1 0xA MUL ADD PUSH0 SWAP1 SWAP2 SWAP1 SWAP2 SWAP1 SWAP2 POP PUSH0 DUP3 ADD MLOAD DUP2 PUSH0 ADD SWAP1 PUSH1 0x5 PUSH2 0x1F0 SWAP3 SWAP2 SWAP1 PUSH2 0x392 JUMP JUMPDEST POP PUSH1 0x20 DUP3 ADD MLOAD DUP2 PUSH1 0x5 ADD SWAP1 PUSH1 0x5 PUSH2 0x208 SWAP3 SWAP2 SWAP1 PUSH2 0x392 JUMP JUMPDEST POP POP POP DUP1 DUP1 PUSH1 0x1 ADD SWAP2 POP POP PUSH2 0x18F JUMP JUMPDEST POP DUP1 PUSH1 0x9 DUP2 SWAP1 SSTORE POP POP POP JUMP JUMPDEST PUSH1 0x2 SLOAD DUP2 JUMP JUMPDEST PUSH0 JUMPDEST DUP2 MLOAD DUP2 LT ISZERO PUSH2 0x29D JUMPI PUSH1 0x7 DUP3 DUP3 DUP2 MLOAD DUP2 LT PUSH2 0x24A JUMPI PUSH2 0x249 PUSH2 0xABE JUMP JUMPDEST JUMPDEST PUSH1 0x20 MUL PUSH1 0x20 ADD ADD MLOAD SWAP1 DUP1 PUSH1 0x1 DUP2 SLOAD ADD DUP1 DUP3 SSTORE DUP1 SWAP2 POP POP PUSH1 0x1 SWAP1 SUB SWAP1 PUSH0 MSTORE PUSH1 0x20 PUSH0 KECCAK256 SWAP1 PUSH1 0x4 MUL ADD PUSH0 SWAP1 SWAP2 SWAP1 SWAP2 SWAP1 SWAP2 POP PUSH0 DUP3 ADD MLOAD DUP2 PUSH0 ADD SWAP1 PUSH1 0x4 PUSH2 0x28D SWAP3 SWAP2 SWAP1 PUSH2 0x3D2 JUMP JUMPDEST POP POP POP DUP1 DUP1 PUSH1 0x1 ADD SWAP2 POP POP PUSH2 0x22C JUMP JUMPDEST POP POP JUMP JUMPDEST PUSH0 SLOAD DUP2 JUMP JUMPDEST PUSH1 0x1 SLOAD DUP2 JUMP JUMPDEST PUSH1 0x9 SLOAD DUP2 JUMP JUMPDEST PUSH2 0x2BA PUSH2 0x412 JUMP JUMPDEST PUSH0 PUSH1 0x40 MLOAD DUP1 PUSH1 0x80 ADD PUSH1 0x40 MSTORE DUP1 PUSH1 0x1 DUP2 MSTORE PUSH1 0x20 ADD PUSH1 0x1 DUP2 MSTORE PUSH1 0x20 ADD PUSH1 0x1 DUP2 MSTORE PUSH1 0x20 ADD PUSH1 0x1 DUP2 MSTORE POP SWAP1 POP PUSH0 JUMPDEST PUSH1 0x7 DUP1 SLOAD SWAP1 POP DUP2 LT ISZERO PUSH2 0x378 JUMPI PUSH0 JUMPDEST PUSH1 0x4 DUP2 LT ISZERO PUSH2 0x36A JUMPI PUSH1 0x7 DUP3 DUP2 SLOAD DUP2 LT PUSH2 0x310 JUMPI PUSH2 0x30F PUSH2 0xABE JUMP JUMPDEST JUMPDEST SWAP1 PUSH0 MSTORE PUSH1 0x20 PUSH0 KECCAK256 SWAP1 PUSH1 0x4 MUL ADD PUSH0 ADD DUP2 PUSH1 0x4 DUP2 LT PUSH2 0x330 JUMPI PUSH2 0x32F PUSH2 0xABE JUMP JUMPDEST JUMPDEST ADD SLOAD DUP4 DUP3 PUSH1 0x4 DUP2 LT PUSH2 0x345 JUMPI PUSH2 0x344 PUSH2 0xABE JUMP JUMPDEST JUMPDEST PUSH1 0x20 MUL ADD DUP2 DUP2 MLOAD PUSH2 0x356 SWAP2 SWAP1 PUSH2 0xB18 JUMP JUMPDEST SWAP2 POP DUP2 DUP2 MSTORE POP POP DUP1 DUP1 PUSH1 0x1 ADD SWAP2 POP POP PUSH2 0x2F3 JUMP JUMPDEST POP DUP1 DUP1 PUSH1 0x1 ADD SWAP2 POP POP PUSH2 0x2E4 JUMP JUMPDEST POP DUP1 PUSH1 0x3 SWAP1 PUSH1 0x4 PUSH2 0x38A SWAP3 SWAP2 SWAP1 PUSH2 0x3D2 JUMP JUMPDEST POP DUP1 SWAP2 POP POP SWAP1 JUMP JUMPDEST DUP3 PUSH1 0x5 DUP2 ADD SWAP3 DUP3 ISZERO PUSH2 0x3C1 JUMPI SWAP2 PUSH1 0x20 MUL DUP3 ADD JUMPDEST DUP3 DUP2 GT ISZERO PUSH2 0x3C0 JUMPI DUP3 MLOAD DUP3 SSTORE SWAP2 PUSH1 0x20 ADD SWAP2 SWAP1 PUSH1 0x1 ADD SWAP1 PUSH2 0x3A5 JUMP JUMPDEST JUMPDEST POP SWAP1 POP PUSH2 0x3CE SWAP2 SWAP1 PUSH2 0x434 JUMP JUMPDEST POP SWAP1 JUMP JUMPDEST DUP3 PUSH1 0x4 DUP2 ADD SWAP3 DUP3 ISZERO PUSH2 0x401 JUMPI SWAP2 PUSH1 0x20 MUL DUP3 ADD JUMPDEST DUP3 DUP2 GT ISZERO PUSH2 0x400 JUMPI DUP3 MLOAD DUP3 SSTORE SWAP2 PUSH1 0x20 ADD SWAP2 SWAP1 PUSH1 0x1 ADD SWAP1 PUSH2 0x3E5 JUMP JUMPDEST JUMPDEST POP SWAP1 POP PUSH2 0x40E SWAP2 SWAP1 PUSH2 0x434 JUMP JUMPDEST POP SWAP1 JUMP JUMPDEST PUSH1 0x40 MLOAD DUP1 PUSH1 0x80 ADD PUSH1 0x40 MSTORE DUP1 PUSH1 0x4 SWAP1 PUSH1 0x20 DUP3 MUL DUP1 CALLDATASIZE DUP4 CALLDATACOPY DUP1 DUP3 ADD SWAP2 POP POP SWAP1 POP POP SWAP1 JUMP JUMPDEST JUMPDEST DUP1 DUP3 GT ISZERO PUSH2 0x44B JUMPI PUSH0 DUP2 PUSH0 SWAP1 SSTORE POP PUSH1 0x1 ADD PUSH2 0x435 JUMP JUMPDEST POP SWAP1 JUMP JUMPDEST PUSH0 PUSH1 0x40 MLOAD SWAP1 POP SWAP1 JUMP JUMPDEST PUSH0 DUP1 REVERT JUMPDEST PUSH0 DUP1 REVERT JUMPDEST PUSH0 DUP2 SWAP1 POP SWAP2 SWAP1 POP JUMP JUMPDEST PUSH2 0x472 DUP2 PUSH2 0x460 JUMP JUMPDEST DUP2 EQ PUSH2 0x47C JUMPI PUSH0 DUP1 REVERT JUMPDEST POP JUMP JUMPDEST PUSH0 DUP2 CALLDATALOAD SWAP1 POP PUSH2 0x48D DUP2 PUSH2 0x469 JUMP JUMPDEST SWAP3 SWAP2 POP POP JUMP JUMPDEST PUSH0 DUP2 SWAP1 POP SWAP2 SWAP1 POP JUMP JUMPDEST PUSH2 0x4A5 DUP2 PUSH2 0x493 JUMP JUMPDEST DUP2 EQ PUSH2 0x4AF JUMPI PUSH0 DUP1 REVERT JUMPDEST POP JUMP JUMPDEST PUSH0 DUP2 CALLDATALOAD SWAP1 POP PUSH2 0x4C0 DUP2 PUSH2 0x49C JUMP JUMPDEST SWAP3 SWAP2 POP POP JUMP JUMPDEST PUSH0 DUP1 PUSH0 PUSH1 0x60 DUP5 DUP7 SUB SLT ISZERO PUSH2 0x4DD JUMPI PUSH2 0x4DC PUSH2 0x458 JUMP JUMPDEST JUMPDEST PUSH0 PUSH2 0x4EA DUP7 DUP3 DUP8 ADD PUSH2 0x47F JUMP JUMPDEST SWAP4 POP POP PUSH1 0x20 PUSH2 0x4FB DUP7 DUP3 DUP8 ADD PUSH2 0x4B2 JUMP JUMPDEST SWAP3 POP POP PUSH1 0x40 PUSH2 0x50C DUP7 DUP3 DUP8 ADD PUSH2 0x4B2 JUMP JUMPDEST SWAP2 POP POP SWAP3 POP SWAP3 POP SWAP3 JUMP JUMPDEST PUSH0 DUP1 REVERT JUMPDEST PUSH0 PUSH1 0x1F NOT PUSH1 0x1F DUP4 ADD AND SWAP1 POP SWAP2 SWAP1 POP JUMP JUMPDEST PUSH32 0x4E487B7100000000000000000000000000000000000000000000000000000000 PUSH0 MSTORE PUSH1 0x41 PUSH1 0x4 MSTORE PUSH1 0x24 PUSH0 REVERT JUMPDEST PUSH2 0x560 DUP3 PUSH2 0x51A JUMP JUMPDEST DUP2 ADD DUP2 DUP2 LT PUSH8 0xFFFFFFFFFFFFFFFF DUP3 GT OR ISZERO PUSH2 0x57F JUMPI PUSH2 0x57E PUSH2 0x52A JUMP JUMPDEST JUMPDEST DUP1 PUSH1 0x40 MSTORE POP POP POP JUMP JUMPDEST PUSH0 PUSH2 0x591 PUSH2 0x44F JUMP JUMPDEST SWAP1 POP PUSH2 0x59D DUP3 DUP3 PUSH2 0x557 JUMP JUMPDEST SWAP2 SWAP1 POP JUMP JUMPDEST PUSH0 PUSH8 0xFFFFFFFFFFFFFFFF DUP3 GT ISZERO PUSH2 0x5BC JUMPI PUSH2 0x5BB PUSH2 0x52A JUMP JUMPDEST JUMPDEST PUSH1 0x20 DUP3 MUL SWAP1 POP PUSH1 0x20 DUP2 ADD SWAP1 POP SWAP2 SWAP1 POP JUMP JUMPDEST PUSH0 DUP1 REVERT JUMPDEST PUSH0 DUP1 REVERT JUMPDEST PUSH0 PUSH8 0xFFFFFFFFFFFFFFFF DUP3 GT ISZERO PUSH2 0x5EF JUMPI PUSH2 0x5EE PUSH2 0x52A JUMP JUMPDEST JUMPDEST PUSH1 0x20 DUP3 MUL SWAP1 POP SWAP2 SWAP1 POP JUMP JUMPDEST PUSH0 PUSH2 0x60C PUSH2 0x607 DUP5 PUSH2 0x5D5 JUMP JUMPDEST PUSH2 0x588 JUMP JUMPDEST SWAP1 POP DUP1 PUSH1 0x20 DUP5 MUL DUP4 ADD DUP6 DUP2 GT ISZERO PUSH2 0x626 JUMPI PUSH2 0x625 PUSH2 0x5CD JUMP JUMPDEST JUMPDEST DUP4 JUMPDEST DUP2 DUP2 LT ISZERO PUSH2 0x64F JUMPI DUP1 PUSH2 0x63B DUP9 DUP3 PUSH2 0x4B2 JUMP JUMPDEST DUP5 MSTORE PUSH1 0x20 DUP5 ADD SWAP4 POP POP PUSH1 0x20 DUP2 ADD SWAP1 POP PUSH2 0x628 JUMP JUMPDEST POP POP POP SWAP4 SWAP3 POP POP POP JUMP JUMPDEST PUSH0 DUP3 PUSH1 0x1F DUP4 ADD SLT PUSH2 0x66D JUMPI PUSH2 0x66C PUSH2 0x516 JUMP JUMPDEST JUMPDEST PUSH1 0x5 PUSH2 0x67A DUP5 DUP3 DUP6 PUSH2 0x5FA JUMP JUMPDEST SWAP2 POP POP SWAP3 SWAP2 POP POP JUMP JUMPDEST PUSH0 PUSH2 0x140 DUP3 DUP5 SUB SLT ISZERO PUSH2 0x699 JUMPI PUSH2 0x698 PUSH2 0x5D1 JUMP JUMPDEST JUMPDEST PUSH2 0x6A3 PUSH1 0x40 PUSH2 0x588 JUMP JUMPDEST SWAP1 POP PUSH0 PUSH2 0x6B2 DUP5 DUP3 DUP6 ADD PUSH2 0x659 JUMP JUMPDEST PUSH0 DUP4 ADD MSTORE POP PUSH1 0xA0 PUSH2 0x6C5 DUP5 DUP3 DUP6 ADD PUSH2 0x659 JUMP JUMPDEST PUSH1 0x20 DUP4 ADD MSTORE POP SWAP3 SWAP2 POP POP JUMP JUMPDEST PUSH0 PUSH2 0x6E3 PUSH2 0x6DE DUP5 PUSH2 0x5A2 JUMP JUMPDEST PUSH2 0x588 JUMP JUMPDEST SWAP1 POP DUP1 DUP4 DUP3 MSTORE PUSH1 0x20 DUP3 ADD SWAP1 POP PUSH2 0x140 DUP5 MUL DUP4 ADD DUP6 DUP2 GT ISZERO PUSH2 0x707 JUMPI PUSH2 0x706 PUSH2 0x5CD JUMP JUMPDEST JUMPDEST DUP4 JUMPDEST DUP2 DUP2 LT ISZERO PUSH2 0x731 JUMPI DUP1 PUSH2 0x71C DUP9 DUP3 PUSH2 0x683 JUMP JUMPDEST DUP5 MSTORE PUSH1 0x20 DUP5 ADD SWAP4 POP POP PUSH2 0x140 DUP2 ADD SWAP1 POP PUSH2 0x709 JUMP JUMPDEST POP POP POP SWAP4 SWAP3 POP POP POP JUMP JUMPDEST PUSH0 DUP3 PUSH1 0x1F DUP4 ADD SLT PUSH2 0x74F JUMPI PUSH2 0x74E PUSH2 0x516 JUMP JUMPDEST JUMPDEST DUP2 CALLDATALOAD PUSH2 0x75F DUP5 DUP3 PUSH1 0x20 DUP7 ADD PUSH2 0x6D1 JUMP JUMPDEST SWAP2 POP POP SWAP3 SWAP2 POP POP JUMP JUMPDEST PUSH0 DUP1 PUSH1 0x40 DUP4 DUP6 SUB SLT ISZERO PUSH2 0x77E JUMPI PUSH2 0x77D PUSH2 0x458 JUMP JUMPDEST JUMPDEST PUSH0 DUP4 ADD CALLDATALOAD PUSH8 0xFFFFFFFFFFFFFFFF DUP2 GT ISZERO PUSH2 0x79B JUMPI PUSH2 0x79A PUSH2 0x45C JUMP JUMPDEST JUMPDEST PUSH2 0x7A7 DUP6 DUP3 DUP7 ADD PUSH2 0x73B JUMP JUMPDEST SWAP3 POP POP PUSH1 0x20 PUSH2 0x7B8 DUP6 DUP3 DUP7 ADD PUSH2 0x4B2 JUMP JUMPDEST SWAP2 POP POP SWAP3 POP SWAP3 SWAP1 POP JUMP JUMPDEST PUSH2 0x7CB DUP2 PUSH2 0x493 JUMP JUMPDEST DUP3 MSTORE POP POP JUMP JUMPDEST PUSH0 PUSH1 0x20 DUP3 ADD SWAP1 POP PUSH2 0x7E4 PUSH0 DUP4 ADD DUP5 PUSH2 0x7C2 JUMP JUMPDEST SWAP3 SWAP2 POP POP JUMP JUMPDEST PUSH0 PUSH8 0xFFFFFFFFFFFFFFFF DUP3 GT ISZERO PUSH2 0x804 JUMPI PUSH2 0x803 PUSH2 0x52A JUMP JUMPDEST JUMPDEST PUSH1 0x20 DUP3 MUL SWAP1 POP PUSH1 0x20 DUP2 ADD SWAP1 POP SWAP2 SWAP1 POP JUMP JUMPDEST PUSH0 PUSH8 0xFFFFFFFFFFFFFFFF DUP3 GT ISZERO PUSH2 0x82F JUMPI PUSH2 0x82E PUSH2 0x52A JUMP JUMPDEST JUMPDEST PUSH1 0x20 DUP3 MUL SWAP1 POP SWAP2 SWAP1 POP JUMP JUMPDEST PUSH0 PUSH2 0x84C PUSH2 0x847 DUP5 PUSH2 0x815 JUMP JUMPDEST PUSH2 0x588 JUMP JUMPDEST SWAP1 POP DUP1 PUSH1 0x20 DUP5 MUL DUP4 ADD DUP6 DUP2 GT ISZERO PUSH2 0x866 JUMPI PUSH2 0x865 PUSH2 0x5CD JUMP JUMPDEST JUMPDEST DUP4 JUMPDEST DUP2 DUP2 LT ISZERO PUSH2 0x88F JUMPI DUP1 PUSH2 0x87B DUP9 DUP3 PUSH2 0x4B2 JUMP JUMPDEST DUP5 MSTORE PUSH1 0x20 DUP5 ADD SWAP4 POP POP PUSH1 0x20 DUP2 ADD SWAP1 POP PUSH2 0x868 JUMP JUMPDEST POP POP POP SWAP4 SWAP3 POP POP POP JUMP JUMPDEST PUSH0 DUP3 PUSH1 0x1F DUP4 ADD SLT PUSH2 0x8AD JUMPI PUSH2 0x8AC PUSH2 0x516 JUMP JUMPDEST JUMPDEST PUSH1 0x4 PUSH2 0x8BA DUP5 DUP3 DUP6 PUSH2 0x83A JUMP JUMPDEST SWAP2 POP POP SWAP3 SWAP2 POP POP JUMP JUMPDEST PUSH0 PUSH1 0x80 DUP3 DUP5 SUB SLT ISZERO PUSH2 0x8D8 JUMPI PUSH2 0x8D7 PUSH2 0x5D1 JUMP JUMPDEST JUMPDEST PUSH2 0x8E2 PUSH1 0x20 PUSH2 0x588 JUMP JUMPDEST SWAP1 POP PUSH0 PUSH2 0x8F1 DUP5 DUP3 DUP6 ADD PUSH2 0x899 JUMP JUMPDEST PUSH0 DUP4 ADD MSTORE POP SWAP3 SWAP2 POP POP JUMP JUMPDEST PUSH0 PUSH2 0x90E PUSH2 0x909 DUP5 PUSH2 0x7EA JUMP JUMPDEST PUSH2 0x588 JUMP JUMPDEST SWAP1 POP DUP1 DUP4 DUP3 MSTORE PUSH1 0x20 DUP3 ADD SWAP1 POP PUSH1 0x80 DUP5 MUL DUP4 ADD DUP6 DUP2 GT ISZERO PUSH2 0x931 JUMPI PUSH2 0x930 PUSH2 0x5CD JUMP JUMPDEST JUMPDEST DUP4 JUMPDEST DUP2 DUP2 LT ISZERO PUSH2 0x95A JUMPI DUP1 PUSH2 0x946 DUP9 DUP3 PUSH2 0x8C3 JUMP JUMPDEST DUP5 MSTORE PUSH1 0x20 DUP5 ADD SWAP4 POP POP PUSH1 0x80 DUP2 ADD SWAP1 POP PUSH2 0x933 JUMP JUMPDEST POP POP POP SWAP4 SWAP3 POP POP POP JUMP JUMPDEST PUSH0 DUP3 PUSH1 0x1F DUP4 ADD SLT PUSH2 0x978 JUMPI PUSH2 0x977 PUSH2 0x516 JUMP JUMPDEST JUMPDEST DUP2 CALLDATALOAD PUSH2 0x988 DUP5 DUP3 PUSH1 0x20 DUP7 ADD PUSH2 0x8FC JUMP JUMPDEST SWAP2 POP POP SWAP3 SWAP2 POP POP JUMP JUMPDEST PUSH0 PUSH1 0x20 DUP3 DUP5 SUB SLT ISZERO PUSH2 0x9A6 JUMPI PUSH2 0x9A5 PUSH2 0x458 JUMP JUMPDEST JUMPDEST PUSH0 DUP3 ADD CALLDATALOAD PUSH8 0xFFFFFFFFFFFFFFFF DUP2 GT ISZERO PUSH2 0x9C3 JUMPI PUSH2 0x9C2 PUSH2 0x45C JUMP JUMPDEST JUMPDEST PUSH2 0x9CF DUP5 DUP3 DUP6 ADD PUSH2 0x964 JUMP JUMPDEST SWAP2 POP POP SWAP3 SWAP2 POP POP JUMP JUMPDEST PUSH2 0x9E1 DUP2 PUSH2 0x460 JUMP JUMPDEST DUP3 MSTORE POP POP JUMP JUMPDEST PUSH0 PUSH1 0x20 DUP3 ADD SWAP1 POP PUSH2 0x9FA PUSH0 DUP4 ADD DUP5 PUSH2 0x9D8 JUMP JUMPDEST SWAP3 SWAP2 POP POP JUMP JUMPDEST PUSH0 PUSH1 0x4 SWAP1 POP SWAP2 SWAP1 POP JUMP JUMPDEST PUSH0 DUP2 SWAP1 POP SWAP3 SWAP2 POP POP JUMP JUMPDEST PUSH0 DUP2 SWAP1 POP SWAP2 SWAP1 POP JUMP JUMPDEST PUSH2 0xA26 DUP2 PUSH2 0x493 JUMP JUMPDEST DUP3 MSTORE POP POP JUMP JUMPDEST PUSH0 PUSH2 0xA37 DUP4 DUP4 PUSH2 0xA1D JUMP JUMPDEST PUSH1 0x20 DUP4 ADD SWAP1 POP SWAP3 SWAP2 POP POP JUMP JUMPDEST PUSH0 PUSH1 0x20 DUP3 ADD SWAP1 POP SWAP2 SWAP1 POP JUMP JUMPDEST PUSH2 0xA58 DUP2 PUSH2 0xA00 JUMP JUMPDEST PUSH2 0xA62 DUP2 DUP5 PUSH2 0xA0A JUMP JUMPDEST SWAP3 POP PUSH2 0xA6D DUP3 PUSH2 0xA14 JUMP JUMPDEST DUP1 PUSH0 JUMPDEST DUP4 DUP2 LT ISZERO PUSH2 0xA9D JUMPI DUP2 MLOAD PUSH2 0xA84 DUP8 DUP3 PUSH2 0xA2C JUMP JUMPDEST SWAP7 POP PUSH2 0xA8F DUP4 PUSH2 0xA43 JUMP JUMPDEST SWAP3 POP POP PUSH1 0x1 DUP2 ADD SWAP1 POP PUSH2 0xA70 JUMP JUMPDEST POP POP POP POP POP POP JUMP JUMPDEST PUSH0 PUSH1 0x80 DUP3 ADD SWAP1 POP PUSH2 0xAB8 PUSH0 DUP4 ADD DUP5 PUSH2 0xA4F JUMP JUMPDEST SWAP3 SWAP2 POP POP JUMP JUMPDEST PUSH32 0x4E487B7100000000000000000000000000000000000000000000000000000000 PUSH0 MSTORE PUSH1 0x32 PUSH1 0x4 MSTORE PUSH1 0x24 PUSH0 REVERT JUMPDEST PUSH32 0x4E487B7100000000000000000000000000000000000000000000000000000000 PUSH0 MSTORE PUSH1 0x11 PUSH1 0x4 MSTORE PUSH1 0x24 PUSH0 REVERT JUMPDEST PUSH0 PUSH2 0xB22 DUP3 PUSH2 0x493 JUMP JUMPDEST SWAP2 POP PUSH2 0xB2D DUP4 PUSH2 0x493 JUMP JUMPDEST SWAP3 POP DUP3 DUP3 MUL PUSH2 0xB3B DUP2 PUSH2 0x493 JUMP JUMPDEST SWAP2 POP DUP3 DUP3 DIV DUP5 EQ DUP4 ISZERO OR PUSH2 0xB52 JUMPI PUSH2 0xB51 PUSH2 0xAEB JUMP JUMPDEST JUMPDEST POP SWAP3 SWAP2 POP POP JUMP INVALID LOG2 PUSH5 0x6970667358 0x22 SLT KECCAK256 PUSH32 0xC20614C90FDFDAC24A60CEBEA5377B3247FA45C5C05016C92E2097C5810D7064 PUSH20 0x6F6C634300081900330000000000000000000000 "
				},
				"gasEstimates": {
					"creation": {
						"codeDepositCost": "591800",
						"executionCost": "623",
						"totalCost": "592423"
					},
					"external": {
						"calculateFinalCommitment()": "infinite",
						"merkleRoot()": "2424",
						"num1()": "2447",
						"num2()": "2470",
						"r()": "2469",
						"storeCommitments((uint256[4])[])": "infinite",
						"storeMerkleRootAndNumbers(bytes32,uint256,uint256)": "infinite",
						"storeVerifyInfosAndR((uint256[5],uint256[5])[],uint256)": "infinite"
					}
				},
				"methodIdentifiers": {
					"calculateFinalCommitment()": "884ecded",
					"merkleRoot()": "2eb4a7ab",
					"num1()": "3b9eac4b",
					"num2()": "15d4266c",
					"r()": "6c8ae38c",
					"storeCommitments((uint256[4])[])": "22b34183",
					"storeMerkleRootAndNumbers(bytes32,uint256,uint256)": "03b98fdb",
					"storeVerifyInfosAndR((uint256[5],uint256[5])[],uint256)": "105b6afc"
				}
			},
			"storageLayout": {
				"storage": [
					{
						"astId": 197,
						"contract": "Om+.sol:OmPlus3",
						"label": "merkleRoot",
						"offset": 0,
						"slot": "0",
						"type": "t_bytes32"
					},
					{
						"astId": 199,
						"contract": "Om+.sol:OmPlus3",
						"label": "num1",
						"offset": 0,
						"slot": "1",
						"type": "t_uint256"
					},
					{
						"astId": 201,
						"contract": "Om+.sol:OmPlus3",
						"label": "num2",
						"offset": 0,
						"slot": "2",
						"type": "t_uint256"
					},
					{
						"astId": 205,
						"contract": "Om+.sol:OmPlus3",
						"label": "fCommitment",
						"offset": 0,
						"slot": "3",
						"type": "t_array(t_uint256)4_storage"
					},
					{
						"astId": 223,
						"contract": "Om+.sol:OmPlus3",
						"label": "commitments",
						"offset": 0,
						"slot": "7",
						"type": "t_array(t_struct(Commitment)210_storage)dyn_storage"
					},
					{
						"astId": 227,
						"contract": "Om+.sol:OmPlus3",
						"label": "verifyInfos",
						"offset": 0,
						"slot": "8",
						"type": "t_array(t_struct(VerifyInfo)219_storage)dyn_storage"
					},
					{
						"astId": 229,
						"contract": "Om+.sol:OmPlus3",
						"label": "r",
						"offset": 0,
						"slot": "9",
						"type": "t_uint256"
					}
				],
				"types": {
					"t_array(t_struct(Commitment)210_storage)dyn_storage": {
						"base": "t_struct(Commitment)210_storage",
						"encoding": "dynamic_array",
						"label": "struct OmPlus3.Commitment[]",
						"numberOfBytes": "32"
					},
					"t_array(t_struct(VerifyInfo)219_storage)dyn_storage": {
						"base": "t_struct(VerifyInfo)219_storage",
						"encoding": "dynamic_array",
						"label": "struct OmPlus3.VerifyInfo[]",
						"numberOfBytes": "32"
					},
					"t_array(t_uint256)4_storage": {
						"base": "t_uint256",
						"encoding": "inplace",
						"label": "uint256[4]",
						"numberOfBytes": "128"
					},
					"t_array(t_uint256)5_storage": {
						"base": "t_uint256",
						"encoding": "inplace",
						"label": "uint256[5]",
						"numberOfBytes": "160"
					},
					"t_bytes32": {
						"encoding": "inplace",
						"label": "bytes32",
						"numberOfBytes": "32"
					},
					"t_struct(Commitment)210_storage": {
						"encoding": "inplace",
						"label": "struct OmPlus3.Commitment",
						"members": [
							{
								"astId": 209,
								"contract": "Om+.sol:OmPlus3",
								"label": "numbers",
								"offset": 0,
								"slot": "0",
								"type": "t_array(t_uint256)4_storage"
							}
						],
						"numberOfBytes": "128"
					},
					"t_struct(VerifyInfo)219_storage": {
						"encoding": "inplace",
						"label": "struct OmPlus3.VerifyInfo",
						"members": [
							{
								"astId": 214,
								"contract": "Om+.sol:OmPlus3",
								"label": "outputWires",
								"offset": 0,
								"slot": "0",
								"type": "t_array(t_uint256)5_storage"
							},
							{
								"astId": 218,
								"contract": "Om+.sol:OmPlus3",
								"label": "sigmas",
								"offset": 0,
								"slot": "5",
								"type": "t_array(t_uint256)5_storage"
							}
						],
						"numberOfBytes": "320"
					},
					"t_uint256": {
						"encoding": "inplace",
						"label": "uint256",
						"numberOfBytes": "32"
					}
				}
			},
			"userdoc": {
				"kind": "user",
				"methods": {},
				"version": 1
			}
		}
	}
}