{
	"totalOnchain.sol": {
		"GradientContract": {
			"abi": [
				{
					"inputs": [],
					"name": "calculateFinalGradients",
					"outputs": [
						{
							"components": [
								{
									"internalType": "uint256",
									"name": "alpha",
									"type": "uint256"
								},
								{
									"internalType": "uint256",
									"name": "beta",
									"type": "uint256"
								},
								{
									"internalType": "uint256",
									"name": "gama",
									"type": "uint256"
								}
							],
							"internalType": "struct GradientContract.Gradient[]",
							"name": "",
							"type": "tuple[]"
						}
					],
					"stateMutability": "nonpayable",
					"type": "function"
				},
				{
					"inputs": [
						{
							"internalType": "uint256",
							"name": "userId",
							"type": "uint256"
						},
						{
							"components": [
								{
									"internalType": "uint256",
									"name": "alpha",
									"type": "uint256"
								},
								{
									"internalType": "uint256",
									"name": "beta",
									"type": "uint256"
								},
								{
									"internalType": "uint256",
									"name": "gama",
									"type": "uint256"
								}
							],
							"internalType": "struct GradientContract.Gradient[]",
							"name": "gradients",
							"type": "tuple[]"
						}
					],
					"name": "uploadGradients",
					"outputs": [],
					"stateMutability": "nonpayable",
					"type": "function"
				},
				{
					"inputs": [
						{
							"internalType": "uint256",
							"name": "",
							"type": "uint256"
						},
						{
							"internalType": "uint256",
							"name": "",
							"type": "uint256"
						}
					],
					"name": "userGradients",
					"outputs": [
						{
							"internalType": "uint256",
							"name": "alpha",
							"type": "uint256"
						},
						{
							"internalType": "uint256",
							"name": "beta",
							"type": "uint256"
						},
						{
							"internalType": "uint256",
							"name": "gama",
							"type": "uint256"
						}
					],
					"stateMutability": "view",
					"type": "function"
				}
			],
			"devdoc": {
				"kind": "dev",
				"methods": {},
				"version": 1
			},
			"evm": {
				"assembly": "    /* \"totalOnchain.sol\":60:1817  contract GradientContract {... */\n  mstore(0x40, 0x80)\n  callvalue\n  dup1\n  iszero\n  tag_1\n  jumpi\n  0x00\n  dup1\n  revert\ntag_1:\n  pop\n  dataSize(sub_0)\n  dup1\n  dataOffset(sub_0)\n  0x00\n  codecopy\n  0x00\n  return\nstop\n\nsub_0: assembly {\n        /* \"totalOnchain.sol\":60:1817  contract GradientContract {... */\n      mstore(0x40, 0x80)\n      callvalue\n      dup1\n      iszero\n      tag_1\n      jumpi\n      0x00\n      dup1\n      revert\n    tag_1:\n      pop\n      jumpi(tag_2, lt(calldatasize, 0x04))\n      shr(0xe0, calldataload(0x00))\n      dup1\n      0x3b7ca659\n      eq\n      tag_3\n      jumpi\n      dup1\n      0x4224c7e7\n      eq\n      tag_4\n      jumpi\n      dup1\n      0x432d7310\n      eq\n      tag_5\n      jumpi\n    tag_2:\n      0x00\n      dup1\n      revert\n        /* \"totalOnchain.sol\":291:342  mapping(uint256 => Gradient[]) public userGradients */\n    tag_3:\n      tag_6\n      0x04\n      dup1\n      calldatasize\n      sub\n      dup2\n      add\n      swap1\n      tag_7\n      swap2\n      swap1\n      tag_8\n      jump\t// in\n    tag_7:\n      tag_9\n      jump\t// in\n    tag_6:\n      mload(0x40)\n      tag_10\n      swap4\n      swap3\n      swap2\n      swap1\n      tag_11\n      jump\t// in\n    tag_10:\n      mload(0x40)\n      dup1\n      swap2\n      sub\n      swap1\n      return\n        /* \"totalOnchain.sol\":687:1814  function calculateFinalGradients() public returns (Gradient[] memory) {... */\n    tag_4:\n      tag_12\n      tag_13\n      jump\t// in\n    tag_12:\n      mload(0x40)\n      tag_14\n      swap2\n      swap1\n      tag_15\n      jump\t// in\n    tag_14:\n      mload(0x40)\n      dup1\n      swap2\n      sub\n      swap1\n      return\n        /* \"totalOnchain.sol\":423:631  function uploadGradients(uint256 userId, Gradient[] memory gradients) public {... */\n    tag_5:\n      tag_16\n      0x04\n      dup1\n      calldatasize\n      sub\n      dup2\n      add\n      swap1\n      tag_17\n      swap2\n      swap1\n      tag_18\n      jump\t// in\n    tag_17:\n      tag_19\n      jump\t// in\n    tag_16:\n      stop\n        /* \"totalOnchain.sol\":291:342  mapping(uint256 => Gradient[]) public userGradients */\n    tag_9:\n      mstore(0x20, 0x00)\n      dup2\n      0x00\n      mstore\n      keccak256(0x00, 0x40)\n      dup2\n      dup2\n      sload\n      dup2\n      lt\n      tag_20\n      jumpi\n      0x00\n      dup1\n      revert\n    tag_20:\n      swap1\n      0x00\n      mstore\n      keccak256(0x00, 0x20)\n      swap1\n      0x03\n      mul\n      add\n      0x00\n      swap2\n      pop\n      swap2\n      pop\n      pop\n      dup1\n      0x00\n      add\n      sload\n      swap1\n      dup1\n      0x01\n      add\n      sload\n      swap1\n      dup1\n      0x02\n      add\n      sload\n      swap1\n      pop\n      dup4\n      jump\t// out\n        /* \"totalOnchain.sol\":687:1814  function calculateFinalGradients() public returns (Gradient[] memory) {... */\n    tag_13:\n        /* \"totalOnchain.sol\":738:755  Gradient[] memory */\n      0x60\n        /* \"totalOnchain.sol\":826:843  uint256 maxLength */\n      0x00\n        /* \"totalOnchain.sol\":862:876  uint256 userId */\n      dup1\n        /* \"totalOnchain.sol\":879:880  1 */\n      0x01\n        /* \"totalOnchain.sol\":862:880  uint256 userId = 1 */\n      swap1\n      pop\n        /* \"totalOnchain.sol\":858:1072  for(uint256 userId = 1; userGradients[userId].length > 0; userId++) {... */\n    tag_23:\n        /* \"totalOnchain.sol\":913:914  0 */\n      0x00\n        /* \"totalOnchain.sol\":882:895  userGradients */\n      dup1\n        /* \"totalOnchain.sol\":882:903  userGradients[userId] */\n      0x00\n        /* \"totalOnchain.sol\":896:902  userId */\n      dup4\n        /* \"totalOnchain.sol\":882:903  userGradients[userId] */\n      dup2\n      mstore\n      0x20\n      add\n      swap1\n      dup2\n      mstore\n      0x20\n      add\n      0x00\n      keccak256\n        /* \"totalOnchain.sol\":882:910  userGradients[userId].length */\n      dup1\n      sload\n      swap1\n      pop\n        /* \"totalOnchain.sol\":882:914  userGradients[userId].length > 0 */\n      gt\n        /* \"totalOnchain.sol\":858:1072  for(uint256 userId = 1; userGradients[userId].length > 0; userId++) {... */\n      iszero\n      tag_24\n      jumpi\n        /* \"totalOnchain.sol\":975:984  maxLength */\n      dup2\n        /* \"totalOnchain.sol\":944:957  userGradients */\n      0x00\n        /* \"totalOnchain.sol\":944:965  userGradients[userId] */\n      dup1\n        /* \"totalOnchain.sol\":958:964  userId */\n      dup4\n        /* \"totalOnchain.sol\":944:965  userGradients[userId] */\n      dup2\n      mstore\n      0x20\n      add\n      swap1\n      dup2\n      mstore\n      0x20\n      add\n      0x00\n      keccak256\n        /* \"totalOnchain.sol\":944:972  userGradients[userId].length */\n      dup1\n      sload\n      swap1\n      pop\n        /* \"totalOnchain.sol\":944:984  userGradients[userId].length > maxLength */\n      gt\n        /* \"totalOnchain.sol\":941:1061  if(userGradients[userId].length > maxLength) {... */\n      iszero\n      tag_26\n      jumpi\n        /* \"totalOnchain.sol\":1017:1030  userGradients */\n      0x00\n        /* \"totalOnchain.sol\":1017:1038  userGradients[userId] */\n      dup1\n        /* \"totalOnchain.sol\":1031:1037  userId */\n      dup3\n        /* \"totalOnchain.sol\":1017:1038  userGradients[userId] */\n      dup2\n      mstore\n      0x20\n      add\n      swap1\n      dup2\n      mstore\n      0x20\n      add\n      0x00\n      keccak256\n        /* \"totalOnchain.sol\":1017:1045  userGradients[userId].length */\n      dup1\n      sload\n      swap1\n      pop\n        /* \"totalOnchain.sol\":1005:1045  maxLength = userGradients[userId].length */\n      swap2\n      pop\n        /* \"totalOnchain.sol\":941:1061  if(userGradients[userId].length > maxLength) {... */\n    tag_26:\n        /* \"totalOnchain.sol\":916:924  userId++ */\n      dup1\n      dup1\n      tag_27\n      swap1\n      tag_28\n      jump\t// in\n    tag_27:\n      swap2\n      pop\n      pop\n        /* \"totalOnchain.sol\":858:1072  for(uint256 userId = 1; userGradients[userId].length > 0; userId++) {... */\n      jump(tag_23)\n    tag_24:\n      pop\n        /* \"totalOnchain.sol\":1124:1156  Gradient[] memory finalGradients */\n      0x00\n        /* \"totalOnchain.sol\":1174:1183  maxLength */\n      dup2\n        /* \"totalOnchain.sol\":1159:1184  new Gradient[](maxLength) */\n      0xffffffffffffffff\n      dup2\n      gt\n      iszero\n      tag_29\n      jumpi\n      tag_30\n      tag_31\n      jump\t// in\n    tag_30:\n    tag_29:\n      mload(0x40)\n      swap1\n      dup1\n      dup3\n      mstore\n      dup1\n      0x20\n      mul\n      0x20\n      add\n      dup3\n      add\n      0x40\n      mstore\n      dup1\n      iszero\n      tag_32\n      jumpi\n      dup2\n      0x20\n      add\n    tag_33:\n      tag_34\n      tag_35\n      jump\t// in\n    tag_34:\n      dup2\n      mstore\n      0x20\n      add\n      swap1\n      0x01\n      swap1\n      sub\n      swap1\n      dup2\n      tag_33\n      jumpi\n      swap1\n      pop\n    tag_32:\n      pop\n        /* \"totalOnchain.sol\":1124:1184  Gradient[] memory finalGradients = new Gradient[](maxLength) */\n      swap1\n      pop\n        /* \"totalOnchain.sol\":1200:1209  uint256 i */\n      0x00\n        /* \"totalOnchain.sol\":1195:1299  for (uint256 i = 0; i < maxLength; i++) {... */\n    tag_36:\n        /* \"totalOnchain.sol\":1219:1228  maxLength */\n      dup3\n        /* \"totalOnchain.sol\":1215:1216  i */\n      dup2\n        /* \"totalOnchain.sol\":1215:1228  i < maxLength */\n      lt\n        /* \"totalOnchain.sol\":1195:1299  for (uint256 i = 0; i < maxLength; i++) {... */\n      iszero\n      tag_37\n      jumpi\n        /* \"totalOnchain.sol\":1270:1287  Gradient(0, 0, 0) */\n      mload(0x40)\n      dup1\n      0x60\n      add\n      0x40\n      mstore\n      dup1\n        /* \"totalOnchain.sol\":1279:1280  0 */\n      0x00\n        /* \"totalOnchain.sol\":1270:1287  Gradient(0, 0, 0) */\n      dup2\n      mstore\n      0x20\n      add\n        /* \"totalOnchain.sol\":1282:1283  0 */\n      0x00\n        /* \"totalOnchain.sol\":1270:1287  Gradient(0, 0, 0) */\n      dup2\n      mstore\n      0x20\n      add\n        /* \"totalOnchain.sol\":1285:1286  0 */\n      0x00\n        /* \"totalOnchain.sol\":1270:1287  Gradient(0, 0, 0) */\n      dup2\n      mstore\n      pop\n        /* \"totalOnchain.sol\":1250:1264  finalGradients */\n      dup3\n        /* \"totalOnchain.sol\":1265:1266  i */\n      dup3\n        /* \"totalOnchain.sol\":1250:1267  finalGradients[i] */\n      dup2\n      mload\n      dup2\n      lt\n      tag_39\n      jumpi\n      tag_40\n      tag_41\n      jump\t// in\n    tag_40:\n    tag_39:\n      0x20\n      mul\n      0x20\n      add\n      add\n        /* \"totalOnchain.sol\":1250:1287  finalGradients[i] = Gradient(0, 0, 0) */\n      dup2\n      swap1\n      mstore\n      pop\n        /* \"totalOnchain.sol\":1230:1233  i++ */\n      dup1\n      dup1\n      0x01\n      add\n      swap2\n      pop\n      pop\n        /* \"totalOnchain.sol\":1195:1299  for (uint256 i = 0; i < maxLength; i++) {... */\n      jump(tag_36)\n    tag_37:\n      pop\n        /* \"totalOnchain.sol\":1384:1398  uint256 userId */\n      0x00\n        /* \"totalOnchain.sol\":1401:1402  1 */\n      0x01\n        /* \"totalOnchain.sol\":1384:1402  uint256 userId = 1 */\n      swap1\n      pop\n        /* \"totalOnchain.sol\":1380:1773  for(uint256 userId = 1; userGradients[userId].length > 0; userId++) {... */\n    tag_42:\n        /* \"totalOnchain.sol\":1435:1436  0 */\n      0x00\n        /* \"totalOnchain.sol\":1404:1417  userGradients */\n      dup1\n        /* \"totalOnchain.sol\":1404:1425  userGradients[userId] */\n      0x00\n        /* \"totalOnchain.sol\":1418:1424  userId */\n      dup4\n        /* \"totalOnchain.sol\":1404:1425  userGradients[userId] */\n      dup2\n      mstore\n      0x20\n      add\n      swap1\n      dup2\n      mstore\n      0x20\n      add\n      0x00\n      keccak256\n        /* \"totalOnchain.sol\":1404:1432  userGradients[userId].length */\n      dup1\n      sload\n      swap1\n      pop\n        /* \"totalOnchain.sol\":1404:1436  userGradients[userId].length > 0 */\n      gt\n        /* \"totalOnchain.sol\":1380:1773  for(uint256 userId = 1; userGradients[userId].length > 0; userId++) {... */\n      iszero\n      tag_43\n      jumpi\n        /* \"totalOnchain.sol\":1468:1477  uint256 i */\n      0x00\n        /* \"totalOnchain.sol\":1463:1762  for (uint256 i = 0; i < userGradients[userId].length; i++) {... */\n    tag_45:\n        /* \"totalOnchain.sol\":1487:1500  userGradients */\n      0x00\n        /* \"totalOnchain.sol\":1487:1508  userGradients[userId] */\n      dup1\n        /* \"totalOnchain.sol\":1501:1507  userId */\n      dup4\n        /* \"totalOnchain.sol\":1487:1508  userGradients[userId] */\n      dup2\n      mstore\n      0x20\n      add\n      swap1\n      dup2\n      mstore\n      0x20\n      add\n      0x00\n      keccak256\n        /* \"totalOnchain.sol\":1487:1515  userGradients[userId].length */\n      dup1\n      sload\n      swap1\n      pop\n        /* \"totalOnchain.sol\":1483:1484  i */\n      dup2\n        /* \"totalOnchain.sol\":1483:1515  i < userGradients[userId].length */\n      lt\n        /* \"totalOnchain.sol\":1463:1762  for (uint256 i = 0; i < userGradients[userId].length; i++) {... */\n      iszero\n      tag_46\n      jumpi\n        /* \"totalOnchain.sol\":1568:1581  userGradients */\n      0x00\n        /* \"totalOnchain.sol\":1568:1589  userGradients[userId] */\n      dup1\n        /* \"totalOnchain.sol\":1582:1588  userId */\n      dup4\n        /* \"totalOnchain.sol\":1568:1589  userGradients[userId] */\n      dup2\n      mstore\n      0x20\n      add\n      swap1\n      dup2\n      mstore\n      0x20\n      add\n      0x00\n      keccak256\n        /* \"totalOnchain.sol\":1590:1591  i */\n      dup2\n        /* \"totalOnchain.sol\":1568:1592  userGradients[userId][i] */\n      dup2\n      sload\n      dup2\n      lt\n      tag_48\n      jumpi\n      tag_49\n      tag_41\n      jump\t// in\n    tag_49:\n    tag_48:\n      swap1\n      0x00\n      mstore\n      keccak256(0x00, 0x20)\n      swap1\n      0x03\n      mul\n      add\n        /* \"totalOnchain.sol\":1568:1598  userGradients[userId][i].alpha */\n      0x00\n      add\n      sload\n        /* \"totalOnchain.sol\":1541:1555  finalGradients */\n      dup4\n        /* \"totalOnchain.sol\":1556:1557  i */\n      dup3\n        /* \"totalOnchain.sol\":1541:1558  finalGradients[i] */\n      dup2\n      mload\n      dup2\n      lt\n      tag_51\n      jumpi\n      tag_52\n      tag_41\n      jump\t// in\n    tag_52:\n    tag_51:\n      0x20\n      mul\n      0x20\n      add\n      add\n      mload\n        /* \"totalOnchain.sol\":1541:1564  finalGradients[i].alpha */\n      0x00\n      add\n        /* \"totalOnchain.sol\":1541:1598  finalGradients[i].alpha += userGradients[userId][i].alpha */\n      dup2\n      dup2\n      mload\n      tag_53\n      swap2\n      swap1\n      tag_54\n      jump\t// in\n    tag_53:\n      swap2\n      pop\n      dup2\n      dup2\n      mstore\n      pop\n      pop\n        /* \"totalOnchain.sol\":1643:1656  userGradients */\n      0x00\n        /* \"totalOnchain.sol\":1643:1664  userGradients[userId] */\n      dup1\n        /* \"totalOnchain.sol\":1657:1663  userId */\n      dup4\n        /* \"totalOnchain.sol\":1643:1664  userGradients[userId] */\n      dup2\n      mstore\n      0x20\n      add\n      swap1\n      dup2\n      mstore\n      0x20\n      add\n      0x00\n      keccak256\n        /* \"totalOnchain.sol\":1665:1666  i */\n      dup2\n        /* \"totalOnchain.sol\":1643:1667  userGradients[userId][i] */\n      dup2\n      sload\n      dup2\n      lt\n      tag_55\n      jumpi\n      tag_56\n      tag_41\n      jump\t// in\n    tag_56:\n    tag_55:\n      swap1\n      0x00\n      mstore\n      keccak256(0x00, 0x20)\n      swap1\n      0x03\n      mul\n      add\n        /* \"totalOnchain.sol\":1643:1672  userGradients[userId][i].beta */\n      0x01\n      add\n      sload\n        /* \"totalOnchain.sol\":1617:1631  finalGradients */\n      dup4\n        /* \"totalOnchain.sol\":1632:1633  i */\n      dup3\n        /* \"totalOnchain.sol\":1617:1634  finalGradients[i] */\n      dup2\n      mload\n      dup2\n      lt\n      tag_58\n      jumpi\n      tag_59\n      tag_41\n      jump\t// in\n    tag_59:\n    tag_58:\n      0x20\n      mul\n      0x20\n      add\n      add\n      mload\n        /* \"totalOnchain.sol\":1617:1639  finalGradients[i].beta */\n      0x20\n      add\n        /* \"totalOnchain.sol\":1617:1672  finalGradients[i].beta += userGradients[userId][i].beta */\n      dup2\n      dup2\n      mload\n      tag_60\n      swap2\n      swap1\n      tag_54\n      jump\t// in\n    tag_60:\n      swap2\n      pop\n      dup2\n      dup2\n      mstore\n      pop\n      pop\n        /* \"totalOnchain.sol\":1717:1730  userGradients */\n      0x00\n        /* \"totalOnchain.sol\":1717:1738  userGradients[userId] */\n      dup1\n        /* \"totalOnchain.sol\":1731:1737  userId */\n      dup4\n        /* \"totalOnchain.sol\":1717:1738  userGradients[userId] */\n      dup2\n      mstore\n      0x20\n      add\n      swap1\n      dup2\n      mstore\n      0x20\n      add\n      0x00\n      keccak256\n        /* \"totalOnchain.sol\":1739:1740  i */\n      dup2\n        /* \"totalOnchain.sol\":1717:1741  userGradients[userId][i] */\n      dup2\n      sload\n      dup2\n      lt\n      tag_61\n      jumpi\n      tag_62\n      tag_41\n      jump\t// in\n    tag_62:\n    tag_61:\n      swap1\n      0x00\n      mstore\n      keccak256(0x00, 0x20)\n      swap1\n      0x03\n      mul\n      add\n        /* \"totalOnchain.sol\":1717:1746  userGradients[userId][i].gama */\n      0x02\n      add\n      sload\n        /* \"totalOnchain.sol\":1691:1705  finalGradients */\n      dup4\n        /* \"totalOnchain.sol\":1706:1707  i */\n      dup3\n        /* \"totalOnchain.sol\":1691:1708  finalGradients[i] */\n      dup2\n      mload\n      dup2\n      lt\n      tag_64\n      jumpi\n      tag_65\n      tag_41\n      jump\t// in\n    tag_65:\n    tag_64:\n      0x20\n      mul\n      0x20\n      add\n      add\n      mload\n        /* \"totalOnchain.sol\":1691:1713  finalGradients[i].gama */\n      0x40\n      add\n        /* \"totalOnchain.sol\":1691:1746  finalGradients[i].gama += userGradients[userId][i].gama */\n      dup2\n      dup2\n      mload\n      tag_66\n      swap2\n      swap1\n      tag_54\n      jump\t// in\n    tag_66:\n      swap2\n      pop\n      dup2\n      dup2\n      mstore\n      pop\n      pop\n        /* \"totalOnchain.sol\":1517:1520  i++ */\n      dup1\n      dup1\n      0x01\n      add\n      swap2\n      pop\n      pop\n        /* \"totalOnchain.sol\":1463:1762  for (uint256 i = 0; i < userGradients[userId].length; i++) {... */\n      jump(tag_45)\n    tag_46:\n      pop\n        /* \"totalOnchain.sol\":1438:1446  userId++ */\n      dup1\n      dup1\n      tag_67\n      swap1\n      tag_28\n      jump\t// in\n    tag_67:\n      swap2\n      pop\n      pop\n        /* \"totalOnchain.sol\":1380:1773  for(uint256 userId = 1; userGradients[userId].length > 0; userId++) {... */\n      jump(tag_42)\n    tag_43:\n      pop\n        /* \"totalOnchain.sol\":1792:1806  finalGradients */\n      dup1\n        /* \"totalOnchain.sol\":1785:1806  return finalGradients */\n      swap3\n      pop\n      pop\n      pop\n        /* \"totalOnchain.sol\":687:1814  function calculateFinalGradients() public returns (Gradient[] memory) {... */\n      swap1\n      jump\t// out\n        /* \"totalOnchain.sol\":423:631  function uploadGradients(uint256 userId, Gradient[] memory gradients) public {... */\n    tag_19:\n        /* \"totalOnchain.sol\":515:524  uint256 i */\n      0x00\n        /* \"totalOnchain.sol\":511:624  for(uint256 i = 0; i < gradients.length; i++) {... */\n    tag_69:\n        /* \"totalOnchain.sol\":534:543  gradients */\n      dup2\n        /* \"totalOnchain.sol\":534:550  gradients.length */\n      mload\n        /* \"totalOnchain.sol\":530:531  i */\n      dup2\n        /* \"totalOnchain.sol\":530:550  i < gradients.length */\n      lt\n        /* \"totalOnchain.sol\":511:624  for(uint256 i = 0; i < gradients.length; i++) {... */\n      iszero\n      tag_70\n      jumpi\n        /* \"totalOnchain.sol\":572:585  userGradients */\n      0x00\n        /* \"totalOnchain.sol\":572:593  userGradients[userId] */\n      dup1\n        /* \"totalOnchain.sol\":586:592  userId */\n      dup5\n        /* \"totalOnchain.sol\":572:593  userGradients[userId] */\n      dup2\n      mstore\n      0x20\n      add\n      swap1\n      dup2\n      mstore\n      0x20\n      add\n      0x00\n      keccak256\n        /* \"totalOnchain.sol\":599:608  gradients */\n      dup3\n        /* \"totalOnchain.sol\":609:610  i */\n      dup3\n        /* \"totalOnchain.sol\":599:611  gradients[i] */\n      dup2\n      mload\n      dup2\n      lt\n      tag_72\n      jumpi\n      tag_73\n      tag_41\n      jump\t// in\n    tag_73:\n    tag_72:\n      0x20\n      mul\n      0x20\n      add\n      add\n      mload\n        /* \"totalOnchain.sol\":572:612  userGradients[userId].push(gradients[i]) */\n      swap1\n      dup1\n      0x01\n      dup2\n      sload\n      add\n      dup1\n      dup3\n      sstore\n      dup1\n      swap2\n      pop\n      pop\n      0x01\n      swap1\n      sub\n      swap1\n      0x00\n      mstore\n      keccak256(0x00, 0x20)\n      swap1\n      0x03\n      mul\n      add\n      0x00\n      swap1\n      swap2\n      swap1\n      swap2\n      swap1\n      swap2\n      pop\n      0x00\n      dup3\n      add\n      mload\n      dup2\n      0x00\n      add\n      sstore\n      0x20\n      dup3\n      add\n      mload\n      dup2\n      0x01\n      add\n      sstore\n      0x40\n      dup3\n      add\n      mload\n      dup2\n      0x02\n      add\n      sstore\n      pop\n      pop\n        /* \"totalOnchain.sol\":552:555  i++ */\n      dup1\n      dup1\n      0x01\n      add\n      swap2\n      pop\n      pop\n        /* \"totalOnchain.sol\":511:624  for(uint256 i = 0; i < gradients.length; i++) {... */\n      jump(tag_69)\n    tag_70:\n      pop\n        /* \"totalOnchain.sol\":423:631  function uploadGradients(uint256 userId, Gradient[] memory gradients) public {... */\n      pop\n      pop\n      jump\t// out\n    tag_35:\n      mload(0x40)\n      dup1\n      0x60\n      add\n      0x40\n      mstore\n      dup1\n      0x00\n      dup2\n      mstore\n      0x20\n      add\n      0x00\n      dup2\n      mstore\n      0x20\n      add\n      0x00\n      dup2\n      mstore\n      pop\n      swap1\n      jump\t// out\n        /* \"#utility.yul\":7:82   */\n    tag_75:\n        /* \"#utility.yul\":40:46   */\n      0x00\n        /* \"#utility.yul\":73:75   */\n      0x40\n        /* \"#utility.yul\":67:76   */\n      mload\n        /* \"#utility.yul\":57:76   */\n      swap1\n      pop\n        /* \"#utility.yul\":7:82   */\n      swap1\n      jump\t// out\n        /* \"#utility.yul\":88:205   */\n    tag_76:\n        /* \"#utility.yul\":197:198   */\n      0x00\n        /* \"#utility.yul\":194:195   */\n      dup1\n        /* \"#utility.yul\":187:199   */\n      revert\n        /* \"#utility.yul\":211:328   */\n    tag_77:\n        /* \"#utility.yul\":320:321   */\n      0x00\n        /* \"#utility.yul\":317:318   */\n      dup1\n        /* \"#utility.yul\":310:322   */\n      revert\n        /* \"#utility.yul\":334:411   */\n    tag_78:\n        /* \"#utility.yul\":371:378   */\n      0x00\n        /* \"#utility.yul\":400:405   */\n      dup2\n        /* \"#utility.yul\":389:405   */\n      swap1\n      pop\n        /* \"#utility.yul\":334:411   */\n      swap2\n      swap1\n      pop\n      jump\t// out\n        /* \"#utility.yul\":417:539   */\n    tag_79:\n        /* \"#utility.yul\":490:514   */\n      tag_108\n        /* \"#utility.yul\":508:513   */\n      dup2\n        /* \"#utility.yul\":490:514   */\n      tag_78\n      jump\t// in\n    tag_108:\n        /* \"#utility.yul\":483:488   */\n      dup2\n        /* \"#utility.yul\":480:515   */\n      eq\n        /* \"#utility.yul\":470:533   */\n      tag_109\n      jumpi\n        /* \"#utility.yul\":529:530   */\n      0x00\n        /* \"#utility.yul\":526:527   */\n      dup1\n        /* \"#utility.yul\":519:531   */\n      revert\n        /* \"#utility.yul\":470:533   */\n    tag_109:\n        /* \"#utility.yul\":417:539   */\n      pop\n      jump\t// out\n        /* \"#utility.yul\":545:684   */\n    tag_80:\n        /* \"#utility.yul\":591:596   */\n      0x00\n        /* \"#utility.yul\":629:635   */\n      dup2\n        /* \"#utility.yul\":616:636   */\n      calldataload\n        /* \"#utility.yul\":607:636   */\n      swap1\n      pop\n        /* \"#utility.yul\":645:678   */\n      tag_111\n        /* \"#utility.yul\":672:677   */\n      dup2\n        /* \"#utility.yul\":645:678   */\n      tag_79\n      jump\t// in\n    tag_111:\n        /* \"#utility.yul\":545:684   */\n      swap3\n      swap2\n      pop\n      pop\n      jump\t// out\n        /* \"#utility.yul\":690:1164   */\n    tag_8:\n        /* \"#utility.yul\":758:764   */\n      0x00\n        /* \"#utility.yul\":766:772   */\n      dup1\n        /* \"#utility.yul\":815:817   */\n      0x40\n        /* \"#utility.yul\":803:812   */\n      dup4\n        /* \"#utility.yul\":794:801   */\n      dup6\n        /* \"#utility.yul\":790:813   */\n      sub\n        /* \"#utility.yul\":786:818   */\n      slt\n        /* \"#utility.yul\":783:902   */\n      iszero\n      tag_113\n      jumpi\n        /* \"#utility.yul\":821:900   */\n      tag_114\n      tag_76\n      jump\t// in\n    tag_114:\n        /* \"#utility.yul\":783:902   */\n    tag_113:\n        /* \"#utility.yul\":941:942   */\n      0x00\n        /* \"#utility.yul\":966:1019   */\n      tag_115\n        /* \"#utility.yul\":1011:1018   */\n      dup6\n        /* \"#utility.yul\":1002:1008   */\n      dup3\n        /* \"#utility.yul\":991:1000   */\n      dup7\n        /* \"#utility.yul\":987:1009   */\n      add\n        /* \"#utility.yul\":966:1019   */\n      tag_80\n      jump\t// in\n    tag_115:\n        /* \"#utility.yul\":956:1019   */\n      swap3\n      pop\n        /* \"#utility.yul\":912:1029   */\n      pop\n        /* \"#utility.yul\":1068:1070   */\n      0x20\n        /* \"#utility.yul\":1094:1147   */\n      tag_116\n        /* \"#utility.yul\":1139:1146   */\n      dup6\n        /* \"#utility.yul\":1130:1136   */\n      dup3\n        /* \"#utility.yul\":1119:1128   */\n      dup7\n        /* \"#utility.yul\":1115:1137   */\n      add\n        /* \"#utility.yul\":1094:1147   */\n      tag_80\n      jump\t// in\n    tag_116:\n        /* \"#utility.yul\":1084:1147   */\n      swap2\n      pop\n        /* \"#utility.yul\":1039:1157   */\n      pop\n        /* \"#utility.yul\":690:1164   */\n      swap3\n      pop\n      swap3\n      swap1\n      pop\n      jump\t// out\n        /* \"#utility.yul\":1170:1288   */\n    tag_81:\n        /* \"#utility.yul\":1257:1281   */\n      tag_118\n        /* \"#utility.yul\":1275:1280   */\n      dup2\n        /* \"#utility.yul\":1257:1281   */\n      tag_78\n      jump\t// in\n    tag_118:\n        /* \"#utility.yul\":1252:1255   */\n      dup3\n        /* \"#utility.yul\":1245:1282   */\n      mstore\n        /* \"#utility.yul\":1170:1288   */\n      pop\n      pop\n      jump\t// out\n        /* \"#utility.yul\":1294:1736   */\n    tag_11:\n        /* \"#utility.yul\":1443:1447   */\n      0x00\n        /* \"#utility.yul\":1481:1483   */\n      0x60\n        /* \"#utility.yul\":1470:1479   */\n      dup3\n        /* \"#utility.yul\":1466:1484   */\n      add\n        /* \"#utility.yul\":1458:1484   */\n      swap1\n      pop\n        /* \"#utility.yul\":1494:1565   */\n      tag_120\n        /* \"#utility.yul\":1562:1563   */\n      0x00\n        /* \"#utility.yul\":1551:1560   */\n      dup4\n        /* \"#utility.yul\":1547:1564   */\n      add\n        /* \"#utility.yul\":1538:1544   */\n      dup7\n        /* \"#utility.yul\":1494:1565   */\n      tag_81\n      jump\t// in\n    tag_120:\n        /* \"#utility.yul\":1575:1647   */\n      tag_121\n        /* \"#utility.yul\":1643:1645   */\n      0x20\n        /* \"#utility.yul\":1632:1641   */\n      dup4\n        /* \"#utility.yul\":1628:1646   */\n      add\n        /* \"#utility.yul\":1619:1625   */\n      dup6\n        /* \"#utility.yul\":1575:1647   */\n      tag_81\n      jump\t// in\n    tag_121:\n        /* \"#utility.yul\":1657:1729   */\n      tag_122\n        /* \"#utility.yul\":1725:1727   */\n      0x40\n        /* \"#utility.yul\":1714:1723   */\n      dup4\n        /* \"#utility.yul\":1710:1728   */\n      add\n        /* \"#utility.yul\":1701:1707   */\n      dup5\n        /* \"#utility.yul\":1657:1729   */\n      tag_81\n      jump\t// in\n    tag_122:\n        /* \"#utility.yul\":1294:1736   */\n      swap5\n      swap4\n      pop\n      pop\n      pop\n      pop\n      jump\t// out\n        /* \"#utility.yul\":1742:1879   */\n    tag_82:\n        /* \"#utility.yul\":1832:1838   */\n      0x00\n        /* \"#utility.yul\":1866:1871   */\n      dup2\n        /* \"#utility.yul\":1860:1872   */\n      mload\n        /* \"#utility.yul\":1850:1872   */\n      swap1\n      pop\n        /* \"#utility.yul\":1742:1879   */\n      swap2\n      swap1\n      pop\n      jump\t// out\n        /* \"#utility.yul\":1885:2092   */\n    tag_83:\n        /* \"#utility.yul\":2007:2018   */\n      0x00\n        /* \"#utility.yul\":2041:2047   */\n      dup3\n        /* \"#utility.yul\":2036:2039   */\n      dup3\n        /* \"#utility.yul\":2029:2048   */\n      mstore\n        /* \"#utility.yul\":2081:2085   */\n      0x20\n        /* \"#utility.yul\":2076:2079   */\n      dup3\n        /* \"#utility.yul\":2072:2086   */\n      add\n        /* \"#utility.yul\":2057:2086   */\n      swap1\n      pop\n        /* \"#utility.yul\":1885:2092   */\n      swap3\n      swap2\n      pop\n      pop\n      jump\t// out\n        /* \"#utility.yul\":2098:2253   */\n    tag_84:\n        /* \"#utility.yul\":2188:2192   */\n      0x00\n        /* \"#utility.yul\":2211:2214   */\n      dup2\n        /* \"#utility.yul\":2203:2214   */\n      swap1\n      pop\n        /* \"#utility.yul\":2241:2245   */\n      0x20\n        /* \"#utility.yul\":2236:2239   */\n      dup3\n        /* \"#utility.yul\":2232:2246   */\n      add\n        /* \"#utility.yul\":2224:2246   */\n      swap1\n      pop\n        /* \"#utility.yul\":2098:2253   */\n      swap2\n      swap1\n      pop\n      jump\t// out\n        /* \"#utility.yul\":2259:2367   */\n    tag_85:\n        /* \"#utility.yul\":2336:2360   */\n      tag_127\n        /* \"#utility.yul\":2354:2359   */\n      dup2\n        /* \"#utility.yul\":2336:2360   */\n      tag_78\n      jump\t// in\n    tag_127:\n        /* \"#utility.yul\":2331:2334   */\n      dup3\n        /* \"#utility.yul\":2324:2361   */\n      mstore\n        /* \"#utility.yul\":2259:2367   */\n      pop\n      pop\n      jump\t// out\n        /* \"#utility.yul\":2449:3117   */\n    tag_86:\n        /* \"#utility.yul\":2582:2586   */\n      0x60\n        /* \"#utility.yul\":2577:2580   */\n      dup3\n        /* \"#utility.yul\":2573:2587   */\n      add\n        /* \"#utility.yul\":2670:2674   */\n      0x00\n        /* \"#utility.yul\":2663:2668   */\n      dup3\n        /* \"#utility.yul\":2659:2675   */\n      add\n        /* \"#utility.yul\":2653:2676   */\n      mload\n        /* \"#utility.yul\":2689:2752   */\n      tag_129\n        /* \"#utility.yul\":2746:2750   */\n      0x00\n        /* \"#utility.yul\":2741:2744   */\n      dup6\n        /* \"#utility.yul\":2737:2751   */\n      add\n        /* \"#utility.yul\":2723:2735   */\n      dup3\n        /* \"#utility.yul\":2689:2752   */\n      tag_85\n      jump\t// in\n    tag_129:\n        /* \"#utility.yul\":2597:2762   */\n      pop\n        /* \"#utility.yul\":2844:2848   */\n      0x20\n        /* \"#utility.yul\":2837:2842   */\n      dup3\n        /* \"#utility.yul\":2833:2849   */\n      add\n        /* \"#utility.yul\":2827:2850   */\n      mload\n        /* \"#utility.yul\":2863:2926   */\n      tag_130\n        /* \"#utility.yul\":2920:2924   */\n      0x20\n        /* \"#utility.yul\":2915:2918   */\n      dup6\n        /* \"#utility.yul\":2911:2925   */\n      add\n        /* \"#utility.yul\":2897:2909   */\n      dup3\n        /* \"#utility.yul\":2863:2926   */\n      tag_85\n      jump\t// in\n    tag_130:\n        /* \"#utility.yul\":2772:2936   */\n      pop\n        /* \"#utility.yul\":3018:3022   */\n      0x40\n        /* \"#utility.yul\":3011:3016   */\n      dup3\n        /* \"#utility.yul\":3007:3023   */\n      add\n        /* \"#utility.yul\":3001:3024   */\n      mload\n        /* \"#utility.yul\":3037:3100   */\n      tag_131\n        /* \"#utility.yul\":3094:3098   */\n      0x40\n        /* \"#utility.yul\":3089:3092   */\n      dup6\n        /* \"#utility.yul\":3085:3099   */\n      add\n        /* \"#utility.yul\":3071:3083   */\n      dup3\n        /* \"#utility.yul\":3037:3100   */\n      tag_85\n      jump\t// in\n    tag_131:\n        /* \"#utility.yul\":2946:3110   */\n      pop\n        /* \"#utility.yul\":2551:3117   */\n      pop\n        /* \"#utility.yul\":2449:3117   */\n      pop\n      pop\n      jump\t// out\n        /* \"#utility.yul\":3123:3394   */\n    tag_87:\n        /* \"#utility.yul\":3238:3248   */\n      0x00\n        /* \"#utility.yul\":3259:3351   */\n      tag_133\n        /* \"#utility.yul\":3347:3350   */\n      dup4\n        /* \"#utility.yul\":3339:3345   */\n      dup4\n        /* \"#utility.yul\":3259:3351   */\n      tag_86\n      jump\t// in\n    tag_133:\n        /* \"#utility.yul\":3383:3387   */\n      0x60\n        /* \"#utility.yul\":3378:3381   */\n      dup4\n        /* \"#utility.yul\":3374:3388   */\n      add\n        /* \"#utility.yul\":3360:3388   */\n      swap1\n      pop\n        /* \"#utility.yul\":3123:3394   */\n      swap3\n      swap2\n      pop\n      pop\n      jump\t// out\n        /* \"#utility.yul\":3400:3536   */\n    tag_88:\n        /* \"#utility.yul\":3493:3497   */\n      0x00\n        /* \"#utility.yul\":3525:3529   */\n      0x20\n        /* \"#utility.yul\":3520:3523   */\n      dup3\n        /* \"#utility.yul\":3516:3530   */\n      add\n        /* \"#utility.yul\":3508:3530   */\n      swap1\n      pop\n        /* \"#utility.yul\":3400:3536   */\n      swap2\n      swap1\n      pop\n      jump\t// out\n        /* \"#utility.yul\":3622:4538   */\n    tag_89:\n        /* \"#utility.yul\":3787:3790   */\n      0x00\n        /* \"#utility.yul\":3816:3893   */\n      tag_136\n        /* \"#utility.yul\":3887:3892   */\n      dup3\n        /* \"#utility.yul\":3816:3893   */\n      tag_82\n      jump\t// in\n    tag_136:\n        /* \"#utility.yul\":3909:4018   */\n      tag_137\n        /* \"#utility.yul\":4011:4017   */\n      dup2\n        /* \"#utility.yul\":4006:4009   */\n      dup6\n        /* \"#utility.yul\":3909:4018   */\n      tag_83\n      jump\t// in\n    tag_137:\n        /* \"#utility.yul\":3902:4018   */\n      swap4\n      pop\n        /* \"#utility.yul\":4042:4121   */\n      tag_138\n        /* \"#utility.yul\":4115:4120   */\n      dup4\n        /* \"#utility.yul\":4042:4121   */\n      tag_84\n      jump\t// in\n    tag_138:\n        /* \"#utility.yul\":4144:4151   */\n      dup1\n        /* \"#utility.yul\":4175:4176   */\n      0x00\n        /* \"#utility.yul\":4160:4513   */\n    tag_139:\n        /* \"#utility.yul\":4185:4191   */\n      dup4\n        /* \"#utility.yul\":4182:4183   */\n      dup2\n        /* \"#utility.yul\":4179:4192   */\n      lt\n        /* \"#utility.yul\":4160:4513   */\n      iszero\n      tag_141\n      jumpi\n        /* \"#utility.yul\":4261:4267   */\n      dup2\n        /* \"#utility.yul\":4255:4268   */\n      mload\n        /* \"#utility.yul\":4288:4397   */\n      tag_142\n        /* \"#utility.yul\":4393:4396   */\n      dup9\n        /* \"#utility.yul\":4378:4391   */\n      dup3\n        /* \"#utility.yul\":4288:4397   */\n      tag_87\n      jump\t// in\n    tag_142:\n        /* \"#utility.yul\":4281:4397   */\n      swap8\n      pop\n        /* \"#utility.yul\":4420:4503   */\n      tag_143\n        /* \"#utility.yul\":4496:4502   */\n      dup4\n        /* \"#utility.yul\":4420:4503   */\n      tag_88\n      jump\t// in\n    tag_143:\n        /* \"#utility.yul\":4410:4503   */\n      swap3\n      pop\n        /* \"#utility.yul\":4220:4513   */\n      pop\n        /* \"#utility.yul\":4207:4208   */\n      0x01\n        /* \"#utility.yul\":4204:4205   */\n      dup2\n        /* \"#utility.yul\":4200:4209   */\n      add\n        /* \"#utility.yul\":4195:4209   */\n      swap1\n      pop\n        /* \"#utility.yul\":4160:4513   */\n      jump(tag_139)\n    tag_141:\n        /* \"#utility.yul\":4164:4178   */\n      pop\n        /* \"#utility.yul\":4529:4532   */\n      dup6\n        /* \"#utility.yul\":4522:4532   */\n      swap4\n      pop\n        /* \"#utility.yul\":3792:4538   */\n      pop\n      pop\n      pop\n        /* \"#utility.yul\":3622:4538   */\n      swap3\n      swap2\n      pop\n      pop\n      jump\t// out\n        /* \"#utility.yul\":4544:5009   */\n    tag_15:\n        /* \"#utility.yul\":4733:4737   */\n      0x00\n        /* \"#utility.yul\":4771:4773   */\n      0x20\n        /* \"#utility.yul\":4760:4769   */\n      dup3\n        /* \"#utility.yul\":4756:4774   */\n      add\n        /* \"#utility.yul\":4748:4774   */\n      swap1\n      pop\n        /* \"#utility.yul\":4820:4829   */\n      dup2\n        /* \"#utility.yul\":4814:4818   */\n      dup2\n        /* \"#utility.yul\":4810:4830   */\n      sub\n        /* \"#utility.yul\":4806:4807   */\n      0x00\n        /* \"#utility.yul\":4795:4804   */\n      dup4\n        /* \"#utility.yul\":4791:4808   */\n      add\n        /* \"#utility.yul\":4784:4831   */\n      mstore\n        /* \"#utility.yul\":4848:5002   */\n      tag_145\n        /* \"#utility.yul\":4997:5001   */\n      dup2\n        /* \"#utility.yul\":4988:4994   */\n      dup5\n        /* \"#utility.yul\":4848:5002   */\n      tag_89\n      jump\t// in\n    tag_145:\n        /* \"#utility.yul\":4840:5002   */\n      swap1\n      pop\n        /* \"#utility.yul\":4544:5009   */\n      swap3\n      swap2\n      pop\n      pop\n      jump\t// out\n        /* \"#utility.yul\":5015:5132   */\n    tag_90:\n        /* \"#utility.yul\":5124:5125   */\n      0x00\n        /* \"#utility.yul\":5121:5122   */\n      dup1\n        /* \"#utility.yul\":5114:5126   */\n      revert\n        /* \"#utility.yul\":5138:5240   */\n    tag_91:\n        /* \"#utility.yul\":5179:5185   */\n      0x00\n        /* \"#utility.yul\":5230:5232   */\n      0x1f\n        /* \"#utility.yul\":5226:5233   */\n      not\n        /* \"#utility.yul\":5221:5223   */\n      0x1f\n        /* \"#utility.yul\":5214:5219   */\n      dup4\n        /* \"#utility.yul\":5210:5224   */\n      add\n        /* \"#utility.yul\":5206:5234   */\n      and\n        /* \"#utility.yul\":5196:5234   */\n      swap1\n      pop\n        /* \"#utility.yul\":5138:5240   */\n      swap2\n      swap1\n      pop\n      jump\t// out\n        /* \"#utility.yul\":5246:5426   */\n    tag_31:\n        /* \"#utility.yul\":5294:5371   */\n      0x4e487b7100000000000000000000000000000000000000000000000000000000\n        /* \"#utility.yul\":5291:5292   */\n      0x00\n        /* \"#utility.yul\":5284:5372   */\n      mstore\n        /* \"#utility.yul\":5391:5395   */\n      0x41\n        /* \"#utility.yul\":5388:5389   */\n      0x04\n        /* \"#utility.yul\":5381:5396   */\n      mstore\n        /* \"#utility.yul\":5415:5419   */\n      0x24\n        /* \"#utility.yul\":5412:5413   */\n      0x00\n        /* \"#utility.yul\":5405:5420   */\n      revert\n        /* \"#utility.yul\":5432:5713   */\n    tag_92:\n        /* \"#utility.yul\":5515:5542   */\n      tag_150\n        /* \"#utility.yul\":5537:5541   */\n      dup3\n        /* \"#utility.yul\":5515:5542   */\n      tag_91\n      jump\t// in\n    tag_150:\n        /* \"#utility.yul\":5507:5513   */\n      dup2\n        /* \"#utility.yul\":5503:5543   */\n      add\n        /* \"#utility.yul\":5645:5651   */\n      dup2\n        /* \"#utility.yul\":5633:5643   */\n      dup2\n        /* \"#utility.yul\":5630:5652   */\n      lt\n        /* \"#utility.yul\":5609:5627   */\n      0xffffffffffffffff\n        /* \"#utility.yul\":5597:5607   */\n      dup3\n        /* \"#utility.yul\":5594:5628   */\n      gt\n        /* \"#utility.yul\":5591:5653   */\n      or\n        /* \"#utility.yul\":5588:5676   */\n      iszero\n      tag_151\n      jumpi\n        /* \"#utility.yul\":5656:5674   */\n      tag_152\n      tag_31\n      jump\t// in\n    tag_152:\n        /* \"#utility.yul\":5588:5676   */\n    tag_151:\n        /* \"#utility.yul\":5696:5706   */\n      dup1\n        /* \"#utility.yul\":5692:5694   */\n      0x40\n        /* \"#utility.yul\":5685:5707   */\n      mstore\n        /* \"#utility.yul\":5475:5713   */\n      pop\n        /* \"#utility.yul\":5432:5713   */\n      pop\n      pop\n      jump\t// out\n        /* \"#utility.yul\":5719:5848   */\n    tag_93:\n        /* \"#utility.yul\":5753:5759   */\n      0x00\n        /* \"#utility.yul\":5780:5800   */\n      tag_154\n      tag_75\n      jump\t// in\n    tag_154:\n        /* \"#utility.yul\":5770:5800   */\n      swap1\n      pop\n        /* \"#utility.yul\":5809:5842   */\n      tag_155\n        /* \"#utility.yul\":5837:5841   */\n      dup3\n        /* \"#utility.yul\":5829:5835   */\n      dup3\n        /* \"#utility.yul\":5809:5842   */\n      tag_92\n      jump\t// in\n    tag_155:\n        /* \"#utility.yul\":5719:5848   */\n      swap2\n      swap1\n      pop\n      jump\t// out\n        /* \"#utility.yul\":5854:6188   */\n    tag_94:\n        /* \"#utility.yul\":5954:5958   */\n      0x00\n        /* \"#utility.yul\":6044:6062   */\n      0xffffffffffffffff\n        /* \"#utility.yul\":6036:6042   */\n      dup3\n        /* \"#utility.yul\":6033:6063   */\n      gt\n        /* \"#utility.yul\":6030:6086   */\n      iszero\n      tag_157\n      jumpi\n        /* \"#utility.yul\":6066:6084   */\n      tag_158\n      tag_31\n      jump\t// in\n    tag_158:\n        /* \"#utility.yul\":6030:6086   */\n    tag_157:\n        /* \"#utility.yul\":6116:6120   */\n      0x20\n        /* \"#utility.yul\":6108:6114   */\n      dup3\n        /* \"#utility.yul\":6104:6121   */\n      mul\n        /* \"#utility.yul\":6096:6121   */\n      swap1\n      pop\n        /* \"#utility.yul\":6176:6180   */\n      0x20\n        /* \"#utility.yul\":6170:6174   */\n      dup2\n        /* \"#utility.yul\":6166:6181   */\n      add\n        /* \"#utility.yul\":6158:6181   */\n      swap1\n      pop\n        /* \"#utility.yul\":5854:6188   */\n      swap2\n      swap1\n      pop\n      jump\t// out\n        /* \"#utility.yul\":6194:6311   */\n    tag_95:\n        /* \"#utility.yul\":6303:6304   */\n      0x00\n        /* \"#utility.yul\":6300:6301   */\n      dup1\n        /* \"#utility.yul\":6293:6305   */\n      revert\n        /* \"#utility.yul\":6317:6434   */\n    tag_96:\n        /* \"#utility.yul\":6426:6427   */\n      0x00\n        /* \"#utility.yul\":6423:6424   */\n      dup1\n        /* \"#utility.yul\":6416:6428   */\n      revert\n        /* \"#utility.yul\":6603:7337   */\n    tag_98:\n        /* \"#utility.yul\":6675:6680   */\n      0x00\n        /* \"#utility.yul\":6719:6723   */\n      0x60\n        /* \"#utility.yul\":6707:6716   */\n      dup3\n        /* \"#utility.yul\":6702:6705   */\n      dup5\n        /* \"#utility.yul\":6698:6717   */\n      sub\n        /* \"#utility.yul\":6694:6724   */\n      slt\n        /* \"#utility.yul\":6691:6808   */\n      iszero\n      tag_163\n      jumpi\n        /* \"#utility.yul\":6727:6806   */\n      tag_164\n      tag_96\n      jump\t// in\n    tag_164:\n        /* \"#utility.yul\":6691:6808   */\n    tag_163:\n        /* \"#utility.yul\":6826:6847   */\n      tag_165\n        /* \"#utility.yul\":6842:6846   */\n      0x60\n        /* \"#utility.yul\":6826:6847   */\n      tag_93\n      jump\t// in\n    tag_165:\n        /* \"#utility.yul\":6817:6847   */\n      swap1\n      pop\n        /* \"#utility.yul\":6907:6908   */\n      0x00\n        /* \"#utility.yul\":6947:6996   */\n      tag_166\n        /* \"#utility.yul\":6992:6995   */\n      dup5\n        /* \"#utility.yul\":6983:6989   */\n      dup3\n        /* \"#utility.yul\":6972:6981   */\n      dup6\n        /* \"#utility.yul\":6968:6990   */\n      add\n        /* \"#utility.yul\":6947:6996   */\n      tag_80\n      jump\t// in\n    tag_166:\n        /* \"#utility.yul\":6940:6944   */\n      0x00\n        /* \"#utility.yul\":6933:6938   */\n      dup4\n        /* \"#utility.yul\":6929:6945   */\n      add\n        /* \"#utility.yul\":6922:6997   */\n      mstore\n        /* \"#utility.yul\":6857:7008   */\n      pop\n        /* \"#utility.yul\":7067:7069   */\n      0x20\n        /* \"#utility.yul\":7108:7157   */\n      tag_167\n        /* \"#utility.yul\":7153:7156   */\n      dup5\n        /* \"#utility.yul\":7144:7150   */\n      dup3\n        /* \"#utility.yul\":7133:7142   */\n      dup6\n        /* \"#utility.yul\":7129:7151   */\n      add\n        /* \"#utility.yul\":7108:7157   */\n      tag_80\n      jump\t// in\n    tag_167:\n        /* \"#utility.yul\":7101:7105   */\n      0x20\n        /* \"#utility.yul\":7094:7099   */\n      dup4\n        /* \"#utility.yul\":7090:7106   */\n      add\n        /* \"#utility.yul\":7083:7158   */\n      mstore\n        /* \"#utility.yul\":7018:7169   */\n      pop\n        /* \"#utility.yul\":7228:7230   */\n      0x40\n        /* \"#utility.yul\":7269:7318   */\n      tag_168\n        /* \"#utility.yul\":7314:7317   */\n      dup5\n        /* \"#utility.yul\":7305:7311   */\n      dup3\n        /* \"#utility.yul\":7294:7303   */\n      dup6\n        /* \"#utility.yul\":7290:7312   */\n      add\n        /* \"#utility.yul\":7269:7318   */\n      tag_80\n      jump\t// in\n    tag_168:\n        /* \"#utility.yul\":7262:7266   */\n      0x40\n        /* \"#utility.yul\":7255:7260   */\n      dup4\n        /* \"#utility.yul\":7251:7267   */\n      add\n        /* \"#utility.yul\":7244:7319   */\n      mstore\n        /* \"#utility.yul\":7179:7330   */\n      pop\n        /* \"#utility.yul\":6603:7337   */\n      swap3\n      swap2\n      pop\n      pop\n      jump\t// out\n        /* \"#utility.yul\":7385:8164   */\n    tag_99:\n        /* \"#utility.yul\":7504:7509   */\n      0x00\n        /* \"#utility.yul\":7529:7633   */\n      tag_170\n        /* \"#utility.yul\":7545:7632   */\n      tag_171\n        /* \"#utility.yul\":7625:7631   */\n      dup5\n        /* \"#utility.yul\":7545:7632   */\n      tag_94\n      jump\t// in\n    tag_171:\n        /* \"#utility.yul\":7529:7633   */\n      tag_93\n      jump\t// in\n    tag_170:\n        /* \"#utility.yul\":7520:7633   */\n      swap1\n      pop\n        /* \"#utility.yul\":7653:7658   */\n      dup1\n        /* \"#utility.yul\":7682:7688   */\n      dup4\n        /* \"#utility.yul\":7675:7680   */\n      dup3\n        /* \"#utility.yul\":7668:7689   */\n      mstore\n        /* \"#utility.yul\":7716:7720   */\n      0x20\n        /* \"#utility.yul\":7709:7714   */\n      dup3\n        /* \"#utility.yul\":7705:7721   */\n      add\n        /* \"#utility.yul\":7698:7721   */\n      swap1\n      pop\n        /* \"#utility.yul\":7769:7773   */\n      0x60\n        /* \"#utility.yul\":7761:7767   */\n      dup5\n        /* \"#utility.yul\":7757:7774   */\n      mul\n        /* \"#utility.yul\":7749:7755   */\n      dup4\n        /* \"#utility.yul\":7745:7775   */\n      add\n        /* \"#utility.yul\":7798:7801   */\n      dup6\n        /* \"#utility.yul\":7790:7796   */\n      dup2\n        /* \"#utility.yul\":7787:7802   */\n      gt\n        /* \"#utility.yul\":7784:7906   */\n      iszero\n      tag_172\n      jumpi\n        /* \"#utility.yul\":7817:7896   */\n      tag_173\n      tag_95\n      jump\t// in\n    tag_173:\n        /* \"#utility.yul\":7784:7906   */\n    tag_172:\n        /* \"#utility.yul\":7932:7938   */\n      dup4\n        /* \"#utility.yul\":7915:8158   */\n    tag_174:\n        /* \"#utility.yul\":7949:7955   */\n      dup2\n        /* \"#utility.yul\":7944:7947   */\n      dup2\n        /* \"#utility.yul\":7941:7956   */\n      lt\n        /* \"#utility.yul\":7915:8158   */\n      iszero\n      tag_176\n      jumpi\n        /* \"#utility.yul\":8024:8027   */\n      dup1\n        /* \"#utility.yul\":8053:8113   */\n      tag_177\n        /* \"#utility.yul\":8109:8112   */\n      dup9\n        /* \"#utility.yul\":8097:8107   */\n      dup3\n        /* \"#utility.yul\":8053:8113   */\n      tag_98\n      jump\t// in\n    tag_177:\n        /* \"#utility.yul\":8048:8051   */\n      dup5\n        /* \"#utility.yul\":8041:8114   */\n      mstore\n        /* \"#utility.yul\":8143:8147   */\n      0x20\n        /* \"#utility.yul\":8138:8141   */\n      dup5\n        /* \"#utility.yul\":8134:8148   */\n      add\n        /* \"#utility.yul\":8127:8148   */\n      swap4\n      pop\n        /* \"#utility.yul\":7991:8158   */\n      pop\n        /* \"#utility.yul\":7975:7979   */\n      0x60\n        /* \"#utility.yul\":7970:7973   */\n      dup2\n        /* \"#utility.yul\":7966:7980   */\n      add\n        /* \"#utility.yul\":7959:7980   */\n      swap1\n      pop\n        /* \"#utility.yul\":7915:8158   */\n      jump(tag_174)\n    tag_176:\n        /* \"#utility.yul\":7919:7940   */\n      pop\n        /* \"#utility.yul\":7510:8164   */\n      pop\n      pop\n        /* \"#utility.yul\":7385:8164   */\n      swap4\n      swap3\n      pop\n      pop\n      pop\n      jump\t// out\n        /* \"#utility.yul\":8212:8628   */\n    tag_100:\n        /* \"#utility.yul\":8306:8311   */\n      0x00\n        /* \"#utility.yul\":8355:8358   */\n      dup3\n        /* \"#utility.yul\":8348:8352   */\n      0x1f\n        /* \"#utility.yul\":8340:8346   */\n      dup4\n        /* \"#utility.yul\":8336:8353   */\n      add\n        /* \"#utility.yul\":8332:8359   */\n      slt\n        /* \"#utility.yul\":8322:8444   */\n      tag_179\n      jumpi\n        /* \"#utility.yul\":8363:8442   */\n      tag_180\n      tag_90\n      jump\t// in\n    tag_180:\n        /* \"#utility.yul\":8322:8444   */\n    tag_179:\n        /* \"#utility.yul\":8480:8486   */\n      dup2\n        /* \"#utility.yul\":8467:8487   */\n      calldataload\n        /* \"#utility.yul\":8505:8622   */\n      tag_181\n        /* \"#utility.yul\":8618:8621   */\n      dup5\n        /* \"#utility.yul\":8610:8616   */\n      dup3\n        /* \"#utility.yul\":8603:8607   */\n      0x20\n        /* \"#utility.yul\":8595:8601   */\n      dup7\n        /* \"#utility.yul\":8591:8608   */\n      add\n        /* \"#utility.yul\":8505:8622   */\n      tag_99\n      jump\t// in\n    tag_181:\n        /* \"#utility.yul\":8496:8622   */\n      swap2\n      pop\n        /* \"#utility.yul\":8312:8628   */\n      pop\n        /* \"#utility.yul\":8212:8628   */\n      swap3\n      swap2\n      pop\n      pop\n      jump\t// out\n        /* \"#utility.yul\":8634:9364   */\n    tag_18:\n        /* \"#utility.yul\":8750:8756   */\n      0x00\n        /* \"#utility.yul\":8758:8764   */\n      dup1\n        /* \"#utility.yul\":8807:8809   */\n      0x40\n        /* \"#utility.yul\":8795:8804   */\n      dup4\n        /* \"#utility.yul\":8786:8793   */\n      dup6\n        /* \"#utility.yul\":8782:8805   */\n      sub\n        /* \"#utility.yul\":8778:8810   */\n      slt\n        /* \"#utility.yul\":8775:8894   */\n      iszero\n      tag_183\n      jumpi\n        /* \"#utility.yul\":8813:8892   */\n      tag_184\n      tag_76\n      jump\t// in\n    tag_184:\n        /* \"#utility.yul\":8775:8894   */\n    tag_183:\n        /* \"#utility.yul\":8933:8934   */\n      0x00\n        /* \"#utility.yul\":8958:9011   */\n      tag_185\n        /* \"#utility.yul\":9003:9010   */\n      dup6\n        /* \"#utility.yul\":8994:9000   */\n      dup3\n        /* \"#utility.yul\":8983:8992   */\n      dup7\n        /* \"#utility.yul\":8979:9001   */\n      add\n        /* \"#utility.yul\":8958:9011   */\n      tag_80\n      jump\t// in\n    tag_185:\n        /* \"#utility.yul\":8948:9011   */\n      swap3\n      pop\n        /* \"#utility.yul\":8904:9021   */\n      pop\n        /* \"#utility.yul\":9088:9090   */\n      0x20\n        /* \"#utility.yul\":9077:9086   */\n      dup4\n        /* \"#utility.yul\":9073:9091   */\n      add\n        /* \"#utility.yul\":9060:9092   */\n      calldataload\n        /* \"#utility.yul\":9119:9137   */\n      0xffffffffffffffff\n        /* \"#utility.yul\":9111:9117   */\n      dup2\n        /* \"#utility.yul\":9108:9138   */\n      gt\n        /* \"#utility.yul\":9105:9222   */\n      iszero\n      tag_186\n      jumpi\n        /* \"#utility.yul\":9141:9220   */\n      tag_187\n      tag_77\n      jump\t// in\n    tag_187:\n        /* \"#utility.yul\":9105:9222   */\n    tag_186:\n        /* \"#utility.yul\":9246:9347   */\n      tag_188\n        /* \"#utility.yul\":9339:9346   */\n      dup6\n        /* \"#utility.yul\":9330:9336   */\n      dup3\n        /* \"#utility.yul\":9319:9328   */\n      dup7\n        /* \"#utility.yul\":9315:9337   */\n      add\n        /* \"#utility.yul\":9246:9347   */\n      tag_100\n      jump\t// in\n    tag_188:\n        /* \"#utility.yul\":9236:9347   */\n      swap2\n      pop\n        /* \"#utility.yul\":9031:9357   */\n      pop\n        /* \"#utility.yul\":8634:9364   */\n      swap3\n      pop\n      swap3\n      swap1\n      pop\n      jump\t// out\n        /* \"#utility.yul\":9370:9550   */\n    tag_101:\n        /* \"#utility.yul\":9418:9495   */\n      0x4e487b7100000000000000000000000000000000000000000000000000000000\n        /* \"#utility.yul\":9415:9416   */\n      0x00\n        /* \"#utility.yul\":9408:9496   */\n      mstore\n        /* \"#utility.yul\":9515:9519   */\n      0x11\n        /* \"#utility.yul\":9512:9513   */\n      0x04\n        /* \"#utility.yul\":9505:9520   */\n      mstore\n        /* \"#utility.yul\":9539:9543   */\n      0x24\n        /* \"#utility.yul\":9536:9537   */\n      0x00\n        /* \"#utility.yul\":9529:9544   */\n      revert\n        /* \"#utility.yul\":9556:9789   */\n    tag_28:\n        /* \"#utility.yul\":9595:9598   */\n      0x00\n        /* \"#utility.yul\":9618:9642   */\n      tag_191\n        /* \"#utility.yul\":9636:9641   */\n      dup3\n        /* \"#utility.yul\":9618:9642   */\n      tag_78\n      jump\t// in\n    tag_191:\n        /* \"#utility.yul\":9609:9642   */\n      swap2\n      pop\n        /* \"#utility.yul\":9664:9730   */\n      0xffffffffffffffffffffffffffffffffffffffffffffffffffffffffffffffff\n        /* \"#utility.yul\":9657:9662   */\n      dup3\n        /* \"#utility.yul\":9654:9731   */\n      sub\n        /* \"#utility.yul\":9651:9754   */\n      tag_192\n      jumpi\n        /* \"#utility.yul\":9734:9752   */\n      tag_193\n      tag_101\n      jump\t// in\n    tag_193:\n        /* \"#utility.yul\":9651:9754   */\n    tag_192:\n        /* \"#utility.yul\":9781:9782   */\n      0x01\n        /* \"#utility.yul\":9774:9779   */\n      dup3\n        /* \"#utility.yul\":9770:9783   */\n      add\n        /* \"#utility.yul\":9763:9783   */\n      swap1\n      pop\n        /* \"#utility.yul\":9556:9789   */\n      swap2\n      swap1\n      pop\n      jump\t// out\n        /* \"#utility.yul\":9795:9975   */\n    tag_41:\n        /* \"#utility.yul\":9843:9920   */\n      0x4e487b7100000000000000000000000000000000000000000000000000000000\n        /* \"#utility.yul\":9840:9841   */\n      0x00\n        /* \"#utility.yul\":9833:9921   */\n      mstore\n        /* \"#utility.yul\":9940:9944   */\n      0x32\n        /* \"#utility.yul\":9937:9938   */\n      0x04\n        /* \"#utility.yul\":9930:9945   */\n      mstore\n        /* \"#utility.yul\":9964:9968   */\n      0x24\n        /* \"#utility.yul\":9961:9962   */\n      0x00\n        /* \"#utility.yul\":9954:9969   */\n      revert\n        /* \"#utility.yul\":9981:10172   */\n    tag_54:\n        /* \"#utility.yul\":10021:10024   */\n      0x00\n        /* \"#utility.yul\":10040:10060   */\n      tag_196\n        /* \"#utility.yul\":10058:10059   */\n      dup3\n        /* \"#utility.yul\":10040:10060   */\n      tag_78\n      jump\t// in\n    tag_196:\n        /* \"#utility.yul\":10035:10060   */\n      swap2\n      pop\n        /* \"#utility.yul\":10074:10094   */\n      tag_197\n        /* \"#utility.yul\":10092:10093   */\n      dup4\n        /* \"#utility.yul\":10074:10094   */\n      tag_78\n      jump\t// in\n    tag_197:\n        /* \"#utility.yul\":10069:10094   */\n      swap3\n      pop\n        /* \"#utility.yul\":10117:10118   */\n      dup3\n        /* \"#utility.yul\":10114:10115   */\n      dup3\n        /* \"#utility.yul\":10110:10119   */\n      add\n        /* \"#utility.yul\":10103:10119   */\n      swap1\n      pop\n        /* \"#utility.yul\":10138:10141   */\n      dup1\n        /* \"#utility.yul\":10135:10136   */\n      dup3\n        /* \"#utility.yul\":10132:10142   */\n      gt\n        /* \"#utility.yul\":10129:10165   */\n      iszero\n      tag_198\n      jumpi\n        /* \"#utility.yul\":10145:10163   */\n      tag_199\n      tag_101\n      jump\t// in\n    tag_199:\n        /* \"#utility.yul\":10129:10165   */\n    tag_198:\n        /* \"#utility.yul\":9981:10172   */\n      swap3\n      swap2\n      pop\n      pop\n      jump\t// out\n\n    auxdata: 0xa26469706673582212205eee81a1f95fdc834c18709fb235530564a609ff9fea0c8f2588bd3e55e94ae264736f6c63430008190033\n}\n",
				"bytecode": {
					"linkReferences": {},
					"object": "6080604052348015600e575f80fd5b506109328061001c5f395ff3fe608060405234801561000f575f80fd5b506004361061003f575f3560e01c80633b7ca659146100435780634224c7e714610075578063432d731014610093575b5f80fd5b61005d60048036038101906100589190610480565b6100af565b60405161006c939291906104cd565b60405180910390f35b61007d6100ee565b60405161008a91906105f9565b60405180910390f35b6100ad60048036038101906100a891906107ce565b610392565b005b5f602052815f5260405f2081815481106100c7575f80fd5b905f5260205f2090600302015f9150915050805f0154908060010154908060020154905083565b60605f80600190505b5f805f8381526020019081526020015f2080549050111561015757815f808381526020019081526020015f20805490501115610144575f808281526020019081526020015f208054905091505b808061014f90610855565b9150506100f7565b505f8167ffffffffffffffff8111156101735761017261062d565b5b6040519080825280602002602001820160405280156101ac57816020015b61019961041e565b8152602001906001900390816101915790505b5090505f5b828110156101ff5760405180606001604052805f81526020015f81526020015f8152508282815181106101e7576101e661089c565b5b602002602001018190525080806001019150506101b1565b505f600190505b5f805f8381526020019081526020015f20805490501115610389575f5b5f808381526020019081526020015f2080549050811015610375575f808381526020019081526020015f2081815481106102605761025f61089c565b5b905f5260205f2090600302015f01548382815181106102825761028161089c565b5b60200260200101515f0181815161029991906108c9565b915081815250505f808381526020019081526020015f2081815481106102c2576102c161089c565b5b905f5260205f209060030201600101548382815181106102e5576102e461089c565b5b60200260200101516020018181516102fd91906108c9565b915081815250505f808381526020019081526020015f2081815481106103265761032561089c565b5b905f5260205f209060030201600201548382815181106103495761034861089c565b5b602002602001015160400181815161036191906108c9565b915081815250508080600101915050610223565b50808061038190610855565b915050610206565b50809250505090565b5f5b8151811015610419575f808481526020019081526020015f208282815181106103c0576103bf61089c565b5b6020026020010151908060018154018082558091505060019003905f5260205f2090600302015f909190919091505f820151815f0155602082015181600101556040820151816002015550508080600101915050610394565b505050565b60405180606001604052805f81526020015f81526020015f81525090565b5f604051905090565b5f80fd5b5f80fd5b5f819050919050565b61045f8161044d565b8114610469575f80fd5b50565b5f8135905061047a81610456565b92915050565b5f806040838503121561049657610495610445565b5b5f6104a38582860161046c565b92505060206104b48582860161046c565b9150509250929050565b6104c78161044d565b82525050565b5f6060820190506104e05f8301866104be565b6104ed60208301856104be565b6104fa60408301846104be565b949350505050565b5f81519050919050565b5f82825260208201905092915050565b5f819050602082019050919050565b6105348161044d565b82525050565b606082015f82015161054e5f85018261052b565b506020820151610561602085018261052b565b506040820151610574604085018261052b565b50505050565b5f610585838361053a565b60608301905092915050565b5f602082019050919050565b5f6105a782610502565b6105b1818561050c565b93506105bc8361051c565b805f5b838110156105ec5781516105d3888261057a565b97506105de83610591565b9250506001810190506105bf565b5085935050505092915050565b5f6020820190508181035f830152610611818461059d565b905092915050565b5f80fd5b5f601f19601f8301169050919050565b7f4e487b71000000000000000000000000000000000000000000000000000000005f52604160045260245ffd5b6106638261061d565b810181811067ffffffffffffffff821117156106825761068161062d565b5b80604052505050565b5f61069461043c565b90506106a0828261065a565b919050565b5f67ffffffffffffffff8211156106bf576106be61062d565b5b602082029050602081019050919050565b5f80fd5b5f80fd5b5f606082840312156106ed576106ec6106d4565b5b6106f7606061068b565b90505f6107068482850161046c565b5f8301525060206107198482850161046c565b602083015250604061072d8482850161046c565b60408301525092915050565b5f61074b610746846106a5565b61068b565b9050808382526020820190506060840283018581111561076e5761076d6106d0565b5b835b81811015610797578061078388826106d8565b845260208401935050606081019050610770565b5050509392505050565b5f82601f8301126107b5576107b4610619565b5b81356107c5848260208601610739565b91505092915050565b5f80604083850312156107e4576107e3610445565b5b5f6107f18582860161046c565b925050602083013567ffffffffffffffff81111561081257610811610449565b5b61081e858286016107a1565b9150509250929050565b7f4e487b71000000000000000000000000000000000000000000000000000000005f52601160045260245ffd5b5f61085f8261044d565b91507fffffffffffffffffffffffffffffffffffffffffffffffffffffffffffffffff820361089157610890610828565b5b600182019050919050565b7f4e487b71000000000000000000000000000000000000000000000000000000005f52603260045260245ffd5b5f6108d38261044d565b91506108de8361044d565b92508282019050808211156108f6576108f5610828565b5b9291505056fea26469706673582212205eee81a1f95fdc834c18709fb235530564a609ff9fea0c8f2588bd3e55e94ae264736f6c63430008190033",
					"opcodes": "PUSH1 0x80 PUSH1 0x40 MSTORE CALLVALUE DUP1 ISZERO PUSH1 0xE JUMPI PUSH0 DUP1 REVERT JUMPDEST POP PUSH2 0x932 DUP1 PUSH2 0x1C PUSH0 CODECOPY PUSH0 RETURN INVALID PUSH1 0x80 PUSH1 0x40 MSTORE CALLVALUE DUP1 ISZERO PUSH2 0xF JUMPI PUSH0 DUP1 REVERT JUMPDEST POP PUSH1 0x4 CALLDATASIZE LT PUSH2 0x3F JUMPI PUSH0 CALLDATALOAD PUSH1 0xE0 SHR DUP1 PUSH4 0x3B7CA659 EQ PUSH2 0x43 JUMPI DUP1 PUSH4 0x4224C7E7 EQ PUSH2 0x75 JUMPI DUP1 PUSH4 0x432D7310 EQ PUSH2 0x93 JUMPI JUMPDEST PUSH0 DUP1 REVERT JUMPDEST PUSH2 0x5D PUSH1 0x4 DUP1 CALLDATASIZE SUB DUP2 ADD SWAP1 PUSH2 0x58 SWAP2 SWAP1 PUSH2 0x480 JUMP JUMPDEST PUSH2 0xAF JUMP JUMPDEST PUSH1 0x40 MLOAD PUSH2 0x6C SWAP4 SWAP3 SWAP2 SWAP1 PUSH2 0x4CD JUMP JUMPDEST PUSH1 0x40 MLOAD DUP1 SWAP2 SUB SWAP1 RETURN JUMPDEST PUSH2 0x7D PUSH2 0xEE JUMP JUMPDEST PUSH1 0x40 MLOAD PUSH2 0x8A SWAP2 SWAP1 PUSH2 0x5F9 JUMP JUMPDEST PUSH1 0x40 MLOAD DUP1 SWAP2 SUB SWAP1 RETURN JUMPDEST PUSH2 0xAD PUSH1 0x4 DUP1 CALLDATASIZE SUB DUP2 ADD SWAP1 PUSH2 0xA8 SWAP2 SWAP1 PUSH2 0x7CE JUMP JUMPDEST PUSH2 0x392 JUMP JUMPDEST STOP JUMPDEST PUSH0 PUSH1 0x20 MSTORE DUP2 PUSH0 MSTORE PUSH1 0x40 PUSH0 KECCAK256 DUP2 DUP2 SLOAD DUP2 LT PUSH2 0xC7 JUMPI PUSH0 DUP1 REVERT JUMPDEST SWAP1 PUSH0 MSTORE PUSH1 0x20 PUSH0 KECCAK256 SWAP1 PUSH1 0x3 MUL ADD PUSH0 SWAP2 POP SWAP2 POP POP DUP1 PUSH0 ADD SLOAD SWAP1 DUP1 PUSH1 0x1 ADD SLOAD SWAP1 DUP1 PUSH1 0x2 ADD SLOAD SWAP1 POP DUP4 JUMP JUMPDEST PUSH1 0x60 PUSH0 DUP1 PUSH1 0x1 SWAP1 POP JUMPDEST PUSH0 DUP1 PUSH0 DUP4 DUP2 MSTORE PUSH1 0x20 ADD SWAP1 DUP2 MSTORE PUSH1 0x20 ADD PUSH0 KECCAK256 DUP1 SLOAD SWAP1 POP GT ISZERO PUSH2 0x157 JUMPI DUP2 PUSH0 DUP1 DUP4 DUP2 MSTORE PUSH1 0x20 ADD SWAP1 DUP2 MSTORE PUSH1 0x20 ADD PUSH0 KECCAK256 DUP1 SLOAD SWAP1 POP GT ISZERO PUSH2 0x144 JUMPI PUSH0 DUP1 DUP3 DUP2 MSTORE PUSH1 0x20 ADD SWAP1 DUP2 MSTORE PUSH1 0x20 ADD PUSH0 KECCAK256 DUP1 SLOAD SWAP1 POP SWAP2 POP JUMPDEST DUP1 DUP1 PUSH2 0x14F SWAP1 PUSH2 0x855 JUMP JUMPDEST SWAP2 POP POP PUSH2 0xF7 JUMP JUMPDEST POP PUSH0 DUP2 PUSH8 0xFFFFFFFFFFFFFFFF DUP2 GT ISZERO PUSH2 0x173 JUMPI PUSH2 0x172 PUSH2 0x62D JUMP JUMPDEST JUMPDEST PUSH1 0x40 MLOAD SWAP1 DUP1 DUP3 MSTORE DUP1 PUSH1 0x20 MUL PUSH1 0x20 ADD DUP3 ADD PUSH1 0x40 MSTORE DUP1 ISZERO PUSH2 0x1AC JUMPI DUP2 PUSH1 0x20 ADD JUMPDEST PUSH2 0x199 PUSH2 0x41E JUMP JUMPDEST DUP2 MSTORE PUSH1 0x20 ADD SWAP1 PUSH1 0x1 SWAP1 SUB SWAP1 DUP2 PUSH2 0x191 JUMPI SWAP1 POP JUMPDEST POP SWAP1 POP PUSH0 JUMPDEST DUP3 DUP2 LT ISZERO PUSH2 0x1FF JUMPI PUSH1 0x40 MLOAD DUP1 PUSH1 0x60 ADD PUSH1 0x40 MSTORE DUP1 PUSH0 DUP2 MSTORE PUSH1 0x20 ADD PUSH0 DUP2 MSTORE PUSH1 0x20 ADD PUSH0 DUP2 MSTORE POP DUP3 DUP3 DUP2 MLOAD DUP2 LT PUSH2 0x1E7 JUMPI PUSH2 0x1E6 PUSH2 0x89C JUMP JUMPDEST JUMPDEST PUSH1 0x20 MUL PUSH1 0x20 ADD ADD DUP2 SWAP1 MSTORE POP DUP1 DUP1 PUSH1 0x1 ADD SWAP2 POP POP PUSH2 0x1B1 JUMP JUMPDEST POP PUSH0 PUSH1 0x1 SWAP1 POP JUMPDEST PUSH0 DUP1 PUSH0 DUP4 DUP2 MSTORE PUSH1 0x20 ADD SWAP1 DUP2 MSTORE PUSH1 0x20 ADD PUSH0 KECCAK256 DUP1 SLOAD SWAP1 POP GT ISZERO PUSH2 0x389 JUMPI PUSH0 JUMPDEST PUSH0 DUP1 DUP4 DUP2 MSTORE PUSH1 0x20 ADD SWAP1 DUP2 MSTORE PUSH1 0x20 ADD PUSH0 KECCAK256 DUP1 SLOAD SWAP1 POP DUP2 LT ISZERO PUSH2 0x375 JUMPI PUSH0 DUP1 DUP4 DUP2 MSTORE PUSH1 0x20 ADD SWAP1 DUP2 MSTORE PUSH1 0x20 ADD PUSH0 KECCAK256 DUP2 DUP2 SLOAD DUP2 LT PUSH2 0x260 JUMPI PUSH2 0x25F PUSH2 0x89C JUMP JUMPDEST JUMPDEST SWAP1 PUSH0 MSTORE PUSH1 0x20 PUSH0 KECCAK256 SWAP1 PUSH1 0x3 MUL ADD PUSH0 ADD SLOAD DUP4 DUP3 DUP2 MLOAD DUP2 LT PUSH2 0x282 JUMPI PUSH2 0x281 PUSH2 0x89C JUMP JUMPDEST JUMPDEST PUSH1 0x20 MUL PUSH1 0x20 ADD ADD MLOAD PUSH0 ADD DUP2 DUP2 MLOAD PUSH2 0x299 SWAP2 SWAP1 PUSH2 0x8C9 JUMP JUMPDEST SWAP2 POP DUP2 DUP2 MSTORE POP POP PUSH0 DUP1 DUP4 DUP2 MSTORE PUSH1 0x20 ADD SWAP1 DUP2 MSTORE PUSH1 0x20 ADD PUSH0 KECCAK256 DUP2 DUP2 SLOAD DUP2 LT PUSH2 0x2C2 JUMPI PUSH2 0x2C1 PUSH2 0x89C JUMP JUMPDEST JUMPDEST SWAP1 PUSH0 MSTORE PUSH1 0x20 PUSH0 KECCAK256 SWAP1 PUSH1 0x3 MUL ADD PUSH1 0x1 ADD SLOAD DUP4 DUP3 DUP2 MLOAD DUP2 LT PUSH2 0x2E5 JUMPI PUSH2 0x2E4 PUSH2 0x89C JUMP JUMPDEST JUMPDEST PUSH1 0x20 MUL PUSH1 0x20 ADD ADD MLOAD PUSH1 0x20 ADD DUP2 DUP2 MLOAD PUSH2 0x2FD SWAP2 SWAP1 PUSH2 0x8C9 JUMP JUMPDEST SWAP2 POP DUP2 DUP2 MSTORE POP POP PUSH0 DUP1 DUP4 DUP2 MSTORE PUSH1 0x20 ADD SWAP1 DUP2 MSTORE PUSH1 0x20 ADD PUSH0 KECCAK256 DUP2 DUP2 SLOAD DUP2 LT PUSH2 0x326 JUMPI PUSH2 0x325 PUSH2 0x89C JUMP JUMPDEST JUMPDEST SWAP1 PUSH0 MSTORE PUSH1 0x20 PUSH0 KECCAK256 SWAP1 PUSH1 0x3 MUL ADD PUSH1 0x2 ADD SLOAD DUP4 DUP3 DUP2 MLOAD DUP2 LT PUSH2 0x349 JUMPI PUSH2 0x348 PUSH2 0x89C JUMP JUMPDEST JUMPDEST PUSH1 0x20 MUL PUSH1 0x20 ADD ADD MLOAD PUSH1 0x40 ADD DUP2 DUP2 MLOAD PUSH2 0x361 SWAP2 SWAP1 PUSH2 0x8C9 JUMP JUMPDEST SWAP2 POP DUP2 DUP2 MSTORE POP POP DUP1 DUP1 PUSH1 0x1 ADD SWAP2 POP POP PUSH2 0x223 JUMP JUMPDEST POP DUP1 DUP1 PUSH2 0x381 SWAP1 PUSH2 0x855 JUMP JUMPDEST SWAP2 POP POP PUSH2 0x206 JUMP JUMPDEST POP DUP1 SWAP3 POP POP POP SWAP1 JUMP JUMPDEST PUSH0 JUMPDEST DUP2 MLOAD DUP2 LT ISZERO PUSH2 0x419 JUMPI PUSH0 DUP1 DUP5 DUP2 MSTORE PUSH1 0x20 ADD SWAP1 DUP2 MSTORE PUSH1 0x20 ADD PUSH0 KECCAK256 DUP3 DUP3 DUP2 MLOAD DUP2 LT PUSH2 0x3C0 JUMPI PUSH2 0x3BF PUSH2 0x89C JUMP JUMPDEST JUMPDEST PUSH1 0x20 MUL PUSH1 0x20 ADD ADD MLOAD SWAP1 DUP1 PUSH1 0x1 DUP2 SLOAD ADD DUP1 DUP3 SSTORE DUP1 SWAP2 POP POP PUSH1 0x1 SWAP1 SUB SWAP1 PUSH0 MSTORE PUSH1 0x20 PUSH0 KECCAK256 SWAP1 PUSH1 0x3 MUL ADD PUSH0 SWAP1 SWAP2 SWAP1 SWAP2 SWAP1 SWAP2 POP PUSH0 DUP3 ADD MLOAD DUP2 PUSH0 ADD SSTORE PUSH1 0x20 DUP3 ADD MLOAD DUP2 PUSH1 0x1 ADD SSTORE PUSH1 0x40 DUP3 ADD MLOAD DUP2 PUSH1 0x2 ADD SSTORE POP POP DUP1 DUP1 PUSH1 0x1 ADD SWAP2 POP POP PUSH2 0x394 JUMP JUMPDEST POP POP POP JUMP JUMPDEST PUSH1 0x40 MLOAD DUP1 PUSH1 0x60 ADD PUSH1 0x40 MSTORE DUP1 PUSH0 DUP2 MSTORE PUSH1 0x20 ADD PUSH0 DUP2 MSTORE PUSH1 0x20 ADD PUSH0 DUP2 MSTORE POP SWAP1 JUMP JUMPDEST PUSH0 PUSH1 0x40 MLOAD SWAP1 POP SWAP1 JUMP JUMPDEST PUSH0 DUP1 REVERT JUMPDEST PUSH0 DUP1 REVERT JUMPDEST PUSH0 DUP2 SWAP1 POP SWAP2 SWAP1 POP JUMP JUMPDEST PUSH2 0x45F DUP2 PUSH2 0x44D JUMP JUMPDEST DUP2 EQ PUSH2 0x469 JUMPI PUSH0 DUP1 REVERT JUMPDEST POP JUMP JUMPDEST PUSH0 DUP2 CALLDATALOAD SWAP1 POP PUSH2 0x47A DUP2 PUSH2 0x456 JUMP JUMPDEST SWAP3 SWAP2 POP POP JUMP JUMPDEST PUSH0 DUP1 PUSH1 0x40 DUP4 DUP6 SUB SLT ISZERO PUSH2 0x496 JUMPI PUSH2 0x495 PUSH2 0x445 JUMP JUMPDEST JUMPDEST PUSH0 PUSH2 0x4A3 DUP6 DUP3 DUP7 ADD PUSH2 0x46C JUMP JUMPDEST SWAP3 POP POP PUSH1 0x20 PUSH2 0x4B4 DUP6 DUP3 DUP7 ADD PUSH2 0x46C JUMP JUMPDEST SWAP2 POP POP SWAP3 POP SWAP3 SWAP1 POP JUMP JUMPDEST PUSH2 0x4C7 DUP2 PUSH2 0x44D JUMP JUMPDEST DUP3 MSTORE POP POP JUMP JUMPDEST PUSH0 PUSH1 0x60 DUP3 ADD SWAP1 POP PUSH2 0x4E0 PUSH0 DUP4 ADD DUP7 PUSH2 0x4BE JUMP JUMPDEST PUSH2 0x4ED PUSH1 0x20 DUP4 ADD DUP6 PUSH2 0x4BE JUMP JUMPDEST PUSH2 0x4FA PUSH1 0x40 DUP4 ADD DUP5 PUSH2 0x4BE JUMP JUMPDEST SWAP5 SWAP4 POP POP POP POP JUMP JUMPDEST PUSH0 DUP2 MLOAD SWAP1 POP SWAP2 SWAP1 POP JUMP JUMPDEST PUSH0 DUP3 DUP3 MSTORE PUSH1 0x20 DUP3 ADD SWAP1 POP SWAP3 SWAP2 POP POP JUMP JUMPDEST PUSH0 DUP2 SWAP1 POP PUSH1 0x20 DUP3 ADD SWAP1 POP SWAP2 SWAP1 POP JUMP JUMPDEST PUSH2 0x534 DUP2 PUSH2 0x44D JUMP JUMPDEST DUP3 MSTORE POP POP JUMP JUMPDEST PUSH1 0x60 DUP3 ADD PUSH0 DUP3 ADD MLOAD PUSH2 0x54E PUSH0 DUP6 ADD DUP3 PUSH2 0x52B JUMP JUMPDEST POP PUSH1 0x20 DUP3 ADD MLOAD PUSH2 0x561 PUSH1 0x20 DUP6 ADD DUP3 PUSH2 0x52B JUMP JUMPDEST POP PUSH1 0x40 DUP3 ADD MLOAD PUSH2 0x574 PUSH1 0x40 DUP6 ADD DUP3 PUSH2 0x52B JUMP JUMPDEST POP POP POP POP JUMP JUMPDEST PUSH0 PUSH2 0x585 DUP4 DUP4 PUSH2 0x53A JUMP JUMPDEST PUSH1 0x60 DUP4 ADD SWAP1 POP SWAP3 SWAP2 POP POP JUMP JUMPDEST PUSH0 PUSH1 0x20 DUP3 ADD SWAP1 POP SWAP2 SWAP1 POP JUMP JUMPDEST PUSH0 PUSH2 0x5A7 DUP3 PUSH2 0x502 JUMP JUMPDEST PUSH2 0x5B1 DUP2 DUP6 PUSH2 0x50C JUMP JUMPDEST SWAP4 POP PUSH2 0x5BC DUP4 PUSH2 0x51C JUMP JUMPDEST DUP1 PUSH0 JUMPDEST DUP4 DUP2 LT ISZERO PUSH2 0x5EC JUMPI DUP2 MLOAD PUSH2 0x5D3 DUP9 DUP3 PUSH2 0x57A JUMP JUMPDEST SWAP8 POP PUSH2 0x5DE DUP4 PUSH2 0x591 JUMP JUMPDEST SWAP3 POP POP PUSH1 0x1 DUP2 ADD SWAP1 POP PUSH2 0x5BF JUMP JUMPDEST POP DUP6 SWAP4 POP POP POP POP SWAP3 SWAP2 POP POP JUMP JUMPDEST PUSH0 PUSH1 0x20 DUP3 ADD SWAP1 POP DUP2 DUP2 SUB PUSH0 DUP4 ADD MSTORE PUSH2 0x611 DUP2 DUP5 PUSH2 0x59D JUMP JUMPDEST SWAP1 POP SWAP3 SWAP2 POP POP JUMP JUMPDEST PUSH0 DUP1 REVERT JUMPDEST PUSH0 PUSH1 0x1F NOT PUSH1 0x1F DUP4 ADD AND SWAP1 POP SWAP2 SWAP1 POP JUMP JUMPDEST PUSH32 0x4E487B7100000000000000000000000000000000000000000000000000000000 PUSH0 MSTORE PUSH1 0x41 PUSH1 0x4 MSTORE PUSH1 0x24 PUSH0 REVERT JUMPDEST PUSH2 0x663 DUP3 PUSH2 0x61D JUMP JUMPDEST DUP2 ADD DUP2 DUP2 LT PUSH8 0xFFFFFFFFFFFFFFFF DUP3 GT OR ISZERO PUSH2 0x682 JUMPI PUSH2 0x681 PUSH2 0x62D JUMP JUMPDEST JUMPDEST DUP1 PUSH1 0x40 MSTORE POP POP POP JUMP JUMPDEST PUSH0 PUSH2 0x694 PUSH2 0x43C JUMP JUMPDEST SWAP1 POP PUSH2 0x6A0 DUP3 DUP3 PUSH2 0x65A JUMP JUMPDEST SWAP2 SWAP1 POP JUMP JUMPDEST PUSH0 PUSH8 0xFFFFFFFFFFFFFFFF DUP3 GT ISZERO PUSH2 0x6BF JUMPI PUSH2 0x6BE PUSH2 0x62D JUMP JUMPDEST JUMPDEST PUSH1 0x20 DUP3 MUL SWAP1 POP PUSH1 0x20 DUP2 ADD SWAP1 POP SWAP2 SWAP1 POP JUMP JUMPDEST PUSH0 DUP1 REVERT JUMPDEST PUSH0 DUP1 REVERT JUMPDEST PUSH0 PUSH1 0x60 DUP3 DUP5 SUB SLT ISZERO PUSH2 0x6ED JUMPI PUSH2 0x6EC PUSH2 0x6D4 JUMP JUMPDEST JUMPDEST PUSH2 0x6F7 PUSH1 0x60 PUSH2 0x68B JUMP JUMPDEST SWAP1 POP PUSH0 PUSH2 0x706 DUP5 DUP3 DUP6 ADD PUSH2 0x46C JUMP JUMPDEST PUSH0 DUP4 ADD MSTORE POP PUSH1 0x20 PUSH2 0x719 DUP5 DUP3 DUP6 ADD PUSH2 0x46C JUMP JUMPDEST PUSH1 0x20 DUP4 ADD MSTORE POP PUSH1 0x40 PUSH2 0x72D DUP5 DUP3 DUP6 ADD PUSH2 0x46C JUMP JUMPDEST PUSH1 0x40 DUP4 ADD MSTORE POP SWAP3 SWAP2 POP POP JUMP JUMPDEST PUSH0 PUSH2 0x74B PUSH2 0x746 DUP5 PUSH2 0x6A5 JUMP JUMPDEST PUSH2 0x68B JUMP JUMPDEST SWAP1 POP DUP1 DUP4 DUP3 MSTORE PUSH1 0x20 DUP3 ADD SWAP1 POP PUSH1 0x60 DUP5 MUL DUP4 ADD DUP6 DUP2 GT ISZERO PUSH2 0x76E JUMPI PUSH2 0x76D PUSH2 0x6D0 JUMP JUMPDEST JUMPDEST DUP4 JUMPDEST DUP2 DUP2 LT ISZERO PUSH2 0x797 JUMPI DUP1 PUSH2 0x783 DUP9 DUP3 PUSH2 0x6D8 JUMP JUMPDEST DUP5 MSTORE PUSH1 0x20 DUP5 ADD SWAP4 POP POP PUSH1 0x60 DUP2 ADD SWAP1 POP PUSH2 0x770 JUMP JUMPDEST POP POP POP SWAP4 SWAP3 POP POP POP JUMP JUMPDEST PUSH0 DUP3 PUSH1 0x1F DUP4 ADD SLT PUSH2 0x7B5 JUMPI PUSH2 0x7B4 PUSH2 0x619 JUMP JUMPDEST JUMPDEST DUP2 CALLDATALOAD PUSH2 0x7C5 DUP5 DUP3 PUSH1 0x20 DUP7 ADD PUSH2 0x739 JUMP JUMPDEST SWAP2 POP POP SWAP3 SWAP2 POP POP JUMP JUMPDEST PUSH0 DUP1 PUSH1 0x40 DUP4 DUP6 SUB SLT ISZERO PUSH2 0x7E4 JUMPI PUSH2 0x7E3 PUSH2 0x445 JUMP JUMPDEST JUMPDEST PUSH0 PUSH2 0x7F1 DUP6 DUP3 DUP7 ADD PUSH2 0x46C JUMP JUMPDEST SWAP3 POP POP PUSH1 0x20 DUP4 ADD CALLDATALOAD PUSH8 0xFFFFFFFFFFFFFFFF DUP2 GT ISZERO PUSH2 0x812 JUMPI PUSH2 0x811 PUSH2 0x449 JUMP JUMPDEST JUMPDEST PUSH2 0x81E DUP6 DUP3 DUP7 ADD PUSH2 0x7A1 JUMP JUMPDEST SWAP2 POP POP SWAP3 POP SWAP3 SWAP1 POP JUMP JUMPDEST PUSH32 0x4E487B7100000000000000000000000000000000000000000000000000000000 PUSH0 MSTORE PUSH1 0x11 PUSH1 0x4 MSTORE PUSH1 0x24 PUSH0 REVERT JUMPDEST PUSH0 PUSH2 0x85F DUP3 PUSH2 0x44D JUMP JUMPDEST SWAP2 POP PUSH32 0xFFFFFFFFFFFFFFFFFFFFFFFFFFFFFFFFFFFFFFFFFFFFFFFFFFFFFFFFFFFFFFFF DUP3 SUB PUSH2 0x891 JUMPI PUSH2 0x890 PUSH2 0x828 JUMP JUMPDEST JUMPDEST PUSH1 0x1 DUP3 ADD SWAP1 POP SWAP2 SWAP1 POP JUMP JUMPDEST PUSH32 0x4E487B7100000000000000000000000000000000000000000000000000000000 PUSH0 MSTORE PUSH1 0x32 PUSH1 0x4 MSTORE PUSH1 0x24 PUSH0 REVERT JUMPDEST PUSH0 PUSH2 0x8D3 DUP3 PUSH2 0x44D JUMP JUMPDEST SWAP2 POP PUSH2 0x8DE DUP4 PUSH2 0x44D JUMP JUMPDEST SWAP3 POP DUP3 DUP3 ADD SWAP1 POP DUP1 DUP3 GT ISZERO PUSH2 0x8F6 JUMPI PUSH2 0x8F5 PUSH2 0x828 JUMP JUMPDEST JUMPDEST SWAP3 SWAP2 POP POP JUMP INVALID LOG2 PUSH5 0x6970667358 0x22 SLT KECCAK256 MCOPY 0xEE DUP2 LOG1 0xF9 PUSH0 0xDC DUP4 0x4C XOR PUSH17 0x9FB235530564A609FF9FEA0C8F2588BD3E SSTORE 0xE9 BLOBBASEFEE 0xE2 PUSH5 0x736F6C6343 STOP ADDMOD NOT STOP CALLER "
				},
				"gasEstimates": {
					"creation": {
						"codeDepositCost": "470800",
						"executionCost": "503",
						"totalCost": "471303"
					},
					"external": {
						"calculateFinalGradients()": "infinite",
						"uploadGradients(uint256,(uint256,uint256,uint256)[])": "infinite",
						"userGradients(uint256,uint256)": "infinite"
					}
				},
				"methodIdentifiers": {
					"calculateFinalGradients()": "4224c7e7",
					"uploadGradients(uint256,(uint256,uint256,uint256)[])": "432d7310",
					"userGradients(uint256,uint256)": "3b7ca659"
				}
			},
			"storageLayout": {
				"storage": [
					{
						"astId": 14,
						"contract": "totalOnchain.sol:GradientContract",
						"label": "userGradients",
						"offset": 0,
						"slot": "0",
						"type": "t_mapping(t_uint256,t_array(t_struct(Gradient)8_storage)dyn_storage)"
					}
				],
				"types": {
					"t_array(t_struct(Gradient)8_storage)dyn_storage": {
						"base": "t_struct(Gradient)8_storage",
						"encoding": "dynamic_array",
						"label": "struct GradientContract.Gradient[]",
						"numberOfBytes": "32"
					},
					"t_mapping(t_uint256,t_array(t_struct(Gradient)8_storage)dyn_storage)": {
						"encoding": "mapping",
						"key": "t_uint256",
						"label": "mapping(uint256 => struct GradientContract.Gradient[])",
						"numberOfBytes": "32",
						"value": "t_array(t_struct(Gradient)8_storage)dyn_storage"
					},
					"t_struct(Gradient)8_storage": {
						"encoding": "inplace",
						"label": "struct GradientContract.Gradient",
						"members": [
							{
								"astId": 3,
								"contract": "totalOnchain.sol:GradientContract",
								"label": "alpha",
								"offset": 0,
								"slot": "0",
								"type": "t_uint256"
							},
							{
								"astId": 5,
								"contract": "totalOnchain.sol:GradientContract",
								"label": "beta",
								"offset": 0,
								"slot": "1",
								"type": "t_uint256"
							},
							{
								"astId": 7,
								"contract": "totalOnchain.sol:GradientContract",
								"label": "gama",
								"offset": 0,
								"slot": "2",
								"type": "t_uint256"
							}
						],
						"numberOfBytes": "96"
					},
					"t_uint256": {
						"encoding": "inplace",
						"label": "uint256",
						"numberOfBytes": "32"
					}
				}
			},
			"userdoc": {
				"kind": "user",
				"methods": {},
				"version": 1
			}
		}
	}
}