{
	"10.sol": {
		"DataStorage": {
			"abi": [
				{
					"inputs": [
						{
							"internalType": "int256[]",
							"name": "keys",
							"type": "int256[]"
						}
					],
					"name": "addArrays",
					"outputs": [
						{
							"internalType": "int256[]",
							"name": "resultGrad",
							"type": "int256[]"
						},
						{
							"internalType": "int256[]",
							"name": "resultBeta",
							"type": "int256[]"
						},
						{
							"internalType": "int256[]",
							"name": "resultSigma",
							"type": "int256[]"
						}
					],
					"stateMutability": "view",
					"type": "function"
				},
				{
					"inputs": [
						{
							"internalType": "int256",
							"name": "key",
							"type": "int256"
						}
					],
					"name": "calculateAndStoreSquareSum",
					"outputs": [
						{
							"internalType": "int256",
							"name": "",
							"type": "int256"
						}
					],
					"stateMutability": "view",
					"type": "function"
				},
				{
					"inputs": [
						{
							"internalType": "int256",
							"name": "startKey",
							"type": "int256"
						},
						{
							"internalType": "int256",
							"name": "endKey",
							"type": "int256"
						}
					],
					"name": "computeSumOfSquaresInRange",
					"outputs": [
						{
							"internalType": "int256",
							"name": "gradSum",
							"type": "int256"
						},
						{
							"internalType": "int256",
							"name": "betaSum",
							"type": "int256"
						},
						{
							"internalType": "int256",
							"name": "sigmaSum",
							"type": "int256"
						}
					],
					"stateMutability": "view",
					"type": "function"
				},
				{
					"inputs": [
						{
							"internalType": "int256",
							"name": "key",
							"type": "int256"
						}
					],
					"name": "getBeta",
					"outputs": [
						{
							"internalType": "int256[]",
							"name": "",
							"type": "int256[]"
						}
					],
					"stateMutability": "view",
					"type": "function"
				},
				{
					"inputs": [
						{
							"internalType": "int256",
							"name": "key",
							"type": "int256"
						}
					],
					"name": "getGrad",
					"outputs": [
						{
							"internalType": "int256[]",
							"name": "",
							"type": "int256[]"
						}
					],
					"stateMutability": "view",
					"type": "function"
				},
				{
					"inputs": [
						{
							"internalType": "int256",
							"name": "key",
							"type": "int256"
						}
					],
					"name": "getSigma",
					"outputs": [
						{
							"internalType": "int256[]",
							"name": "",
							"type": "int256[]"
						}
					],
					"stateMutability": "view",
					"type": "function"
				},
				{
					"inputs": [
						{
							"internalType": "int256",
							"name": "key",
							"type": "int256"
						},
						{
							"internalType": "int256[]",
							"name": "grad",
							"type": "int256[]"
						},
						{
							"internalType": "int256[]",
							"name": "beta",
							"type": "int256[]"
						},
						{
							"internalType": "int256[]",
							"name": "sigma",
							"type": "int256[]"
						}
					],
					"name": "storeData",
					"outputs": [],
					"stateMutability": "nonpayable",
					"type": "function"
				}
			],
			"devdoc": {
				"kind": "dev",
				"methods": {},
				"version": 1
			},
			"evm": {
				"assembly": "    /* \"10.sol\":57:5054  contract DataStorage {... */\n  mstore(0x40, 0x80)\n  callvalue\n  dup1\n  iszero\n  tag_1\n  jumpi\n  0x00\n  dup1\n  revert\ntag_1:\n  pop\n  dataSize(sub_0)\n  dup1\n  dataOffset(sub_0)\n  0x00\n  codecopy\n  0x00\n  return\nstop\n\nsub_0: assembly {\n        /* \"10.sol\":57:5054  contract DataStorage {... */\n      mstore(0x40, 0x80)\n      callvalue\n      dup1\n      iszero\n      tag_1\n      jumpi\n      0x00\n      dup1\n      revert\n    tag_1:\n      pop\n      jumpi(tag_2, lt(calldatasize, 0x04))\n      shr(0xe0, calldataload(0x00))\n      dup1\n      0x83e6e9c8\n      gt\n      tag_10\n      jumpi\n      dup1\n      0x83e6e9c8\n      eq\n      tag_6\n      jumpi\n      dup1\n      0x8b99ee23\n      eq\n      tag_7\n      jumpi\n      dup1\n      0x9e96d76d\n      eq\n      tag_8\n      jumpi\n      dup1\n      0xb892ca35\n      eq\n      tag_9\n      jumpi\n      jump(tag_2)\n    tag_10:\n      dup1\n      0x3e463da2\n      eq\n      tag_3\n      jumpi\n      dup1\n      0x43858f3f\n      eq\n      tag_4\n      jumpi\n      dup1\n      0x61c1f355\n      eq\n      tag_5\n      jumpi\n    tag_2:\n      0x00\n      dup1\n      revert\n        /* \"10.sol\":4631:5052  function computeSumOfSquaresInRange(int256 startKey, int256 endKey) public view returns (int256 gradSum, int256 betaSum, int256 sigmaSum) {... */\n    tag_3:\n      tag_11\n      0x04\n      dup1\n      calldatasize\n      sub\n      dup2\n      add\n      swap1\n      tag_12\n      swap2\n      swap1\n      tag_13\n      jump\t// in\n    tag_12:\n      tag_14\n      jump\t// in\n    tag_11:\n      mload(0x40)\n      tag_15\n      swap4\n      swap3\n      swap2\n      swap1\n      tag_16\n      jump\t// in\n    tag_15:\n      mload(0x40)\n      dup1\n      swap2\n      sub\n      swap1\n      return\n        /* \"10.sol\":656:768  function getSigma(int256 key) public view returns (int256[] memory) {... */\n    tag_4:\n      tag_17\n      0x04\n      dup1\n      calldatasize\n      sub\n      dup2\n      add\n      swap1\n      tag_18\n      swap2\n      swap1\n      tag_19\n      jump\t// in\n    tag_18:\n      tag_20\n      jump\t// in\n    tag_17:\n      mload(0x40)\n      tag_21\n      swap2\n      swap1\n      tag_22\n      jump\t// in\n    tag_21:\n      mload(0x40)\n      dup1\n      swap2\n      sub\n      swap1\n      return\n        /* \"10.sol\":792:1207  function storeData(int256 key, int256[] memory grad, int256[] memory beta, int256[] memory sigma) public {... */\n    tag_5:\n      tag_23\n      0x04\n      dup1\n      calldatasize\n      sub\n      dup2\n      add\n      swap1\n      tag_24\n      swap2\n      swap1\n      tag_25\n      jump\t// in\n    tag_24:\n      tag_26\n      jump\t// in\n    tag_23:\n      stop\n        /* \"10.sol\":1274:2417  function addArrays(int256[] memory keys) public view returns (int256[] memory resultGrad, int256[] memory resultBeta, int256[] memory resultSigma) {... */\n    tag_6:\n      tag_27\n      0x04\n      dup1\n      calldatasize\n      sub\n      dup2\n      add\n      swap1\n      tag_28\n      swap2\n      swap1\n      tag_29\n      jump\t// in\n    tag_28:\n      tag_30\n      jump\t// in\n    tag_27:\n      mload(0x40)\n      tag_31\n      swap4\n      swap3\n      swap2\n      swap1\n      tag_32\n      jump\t// in\n    tag_31:\n      mload(0x40)\n      dup1\n      swap2\n      sub\n      swap1\n      return\n        /* \"10.sol\":2424:4101  function calculateAndStoreSquareSum(int256 key) public view returns (int256) {... */\n    tag_7:\n      tag_33\n      0x04\n      dup1\n      calldatasize\n      sub\n      dup2\n      add\n      swap1\n      tag_34\n      swap2\n      swap1\n      tag_19\n      jump\t// in\n    tag_34:\n      tag_35\n      jump\t// in\n    tag_33:\n      mload(0x40)\n      tag_36\n      swap2\n      swap1\n      tag_37\n      jump\t// in\n    tag_36:\n      mload(0x40)\n      dup1\n      swap2\n      sub\n      swap1\n      return\n        /* \"10.sol\":540:650  function getBeta(int256 key) public view returns (int256[] memory) {... */\n    tag_8:\n      tag_38\n      0x04\n      dup1\n      calldatasize\n      sub\n      dup2\n      add\n      swap1\n      tag_39\n      swap2\n      swap1\n      tag_19\n      jump\t// in\n    tag_39:\n      tag_40\n      jump\t// in\n    tag_38:\n      mload(0x40)\n      tag_41\n      swap2\n      swap1\n      tag_22\n      jump\t// in\n    tag_41:\n      mload(0x40)\n      dup1\n      swap2\n      sub\n      swap1\n      return\n        /* \"10.sol\":424:534  function getGrad(int256 key) public view returns (int256[] memory) {... */\n    tag_9:\n      tag_42\n      0x04\n      dup1\n      calldatasize\n      sub\n      dup2\n      add\n      swap1\n      tag_43\n      swap2\n      swap1\n      tag_19\n      jump\t// in\n    tag_43:\n      tag_44\n      jump\t// in\n    tag_42:\n      mload(0x40)\n      tag_45\n      swap2\n      swap1\n      tag_22\n      jump\t// in\n    tag_45:\n      mload(0x40)\n      dup1\n      swap2\n      sub\n      swap1\n      return\n        /* \"10.sol\":4631:5052  function computeSumOfSquaresInRange(int256 startKey, int256 endKey) public view returns (int256 gradSum, int256 betaSum, int256 sigmaSum) {... */\n    tag_14:\n        /* \"10.sol\":4720:4734  int256 gradSum */\n      0x00\n        /* \"10.sol\":4736:4750  int256 betaSum */\n      dup1\n        /* \"10.sol\":4752:4767  int256 sigmaSum */\n      0x00\n        /* \"10.sol\":4784:4794  int256 key */\n      dup1\n        /* \"10.sol\":4797:4805  startKey */\n      dup6\n        /* \"10.sol\":4784:4805  int256 key = startKey */\n      swap1\n      pop\n        /* \"10.sol\":4779:5046  for (int256 key = startKey; key <= endKey; key++) {... */\n    tag_47:\n        /* \"10.sol\":4814:4820  endKey */\n      dup5\n        /* \"10.sol\":4807:4810  key */\n      dup2\n        /* \"10.sol\":4807:4820  key <= endKey */\n      sgt\n        /* \"10.sol\":4779:5046  for (int256 key = startKey; key <= endKey; key++) {... */\n      tag_48\n      jumpi\n        /* \"10.sol\":4854:4897  processAndSumOfSquares(dataStore[key].grad) */\n      tag_50\n        /* \"10.sol\":4877:4886  dataStore */\n      0x00\n        /* \"10.sol\":4877:4891  dataStore[key] */\n      dup1\n        /* \"10.sol\":4887:4890  key */\n      dup4\n        /* \"10.sol\":4877:4891  dataStore[key] */\n      dup2\n      mstore\n      0x20\n      add\n      swap1\n      dup2\n      mstore\n      0x20\n      add\n      0x00\n      keccak256\n        /* \"10.sol\":4877:4896  dataStore[key].grad */\n      0x00\n      add\n        /* \"10.sol\":4854:4897  processAndSumOfSquares(dataStore[key].grad) */\n      dup1\n      sload\n      dup1\n      0x20\n      mul\n      0x20\n      add\n      mload(0x40)\n      swap1\n      dup2\n      add\n      0x40\n      mstore\n      dup1\n      swap3\n      swap2\n      swap1\n      dup2\n      dup2\n      mstore\n      0x20\n      add\n      dup3\n      dup1\n      sload\n      dup1\n      iszero\n      tag_51\n      jumpi\n      0x20\n      mul\n      dup3\n      add\n      swap2\n      swap1\n      0x00\n      mstore\n      keccak256(0x00, 0x20)\n      swap1\n    tag_52:\n      dup2\n      sload\n      dup2\n      mstore\n      0x20\n      add\n      swap1\n      0x01\n      add\n      swap1\n      dup1\n      dup4\n      gt\n      tag_52\n      jumpi\n    tag_51:\n      pop\n      pop\n      pop\n      pop\n      pop\n        /* \"10.sol\":4854:4876  processAndSumOfSquares */\n      tag_53\n        /* \"10.sol\":4854:4897  processAndSumOfSquares(dataStore[key].grad) */\n      jump\t// in\n    tag_50:\n        /* \"10.sol\":4843:4897  gradSum += processAndSumOfSquares(dataStore[key].grad) */\n      dup5\n      tag_54\n      swap2\n      swap1\n      tag_55\n      jump\t// in\n    tag_54:\n      swap4\n      pop\n        /* \"10.sol\":4922:4965  processAndSumOfSquares(dataStore[key].beta) */\n      tag_56\n        /* \"10.sol\":4945:4954  dataStore */\n      0x00\n        /* \"10.sol\":4945:4959  dataStore[key] */\n      dup1\n        /* \"10.sol\":4955:4958  key */\n      dup4\n        /* \"10.sol\":4945:4959  dataStore[key] */\n      dup2\n      mstore\n      0x20\n      add\n      swap1\n      dup2\n      mstore\n      0x20\n      add\n      0x00\n      keccak256\n        /* \"10.sol\":4945:4964  dataStore[key].beta */\n      0x01\n      add\n        /* \"10.sol\":4922:4965  processAndSumOfSquares(dataStore[key].beta) */\n      dup1\n      sload\n      dup1\n      0x20\n      mul\n      0x20\n      add\n      mload(0x40)\n      swap1\n      dup2\n      add\n      0x40\n      mstore\n      dup1\n      swap3\n      swap2\n      swap1\n      dup2\n      dup2\n      mstore\n      0x20\n      add\n      dup3\n      dup1\n      sload\n      dup1\n      iszero\n      tag_57\n      jumpi\n      0x20\n      mul\n      dup3\n      add\n      swap2\n      swap1\n      0x00\n      mstore\n      keccak256(0x00, 0x20)\n      swap1\n    tag_58:\n      dup2\n      sload\n      dup2\n      mstore\n      0x20\n      add\n      swap1\n      0x01\n      add\n      swap1\n      dup1\n      dup4\n      gt\n      tag_58\n      jumpi\n    tag_57:\n      pop\n      pop\n      pop\n      pop\n      pop\n        /* \"10.sol\":4922:4944  processAndSumOfSquares */\n      tag_53\n        /* \"10.sol\":4922:4965  processAndSumOfSquares(dataStore[key].beta) */\n      jump\t// in\n    tag_56:\n        /* \"10.sol\":4911:4965  betaSum += processAndSumOfSquares(dataStore[key].beta) */\n      dup4\n      tag_59\n      swap2\n      swap1\n      tag_55\n      jump\t// in\n    tag_59:\n      swap3\n      pop\n        /* \"10.sol\":4991:5035  processAndSumOfSquares(dataStore[key].sigma) */\n      tag_60\n        /* \"10.sol\":5014:5023  dataStore */\n      0x00\n        /* \"10.sol\":5014:5028  dataStore[key] */\n      dup1\n        /* \"10.sol\":5024:5027  key */\n      dup4\n        /* \"10.sol\":5014:5028  dataStore[key] */\n      dup2\n      mstore\n      0x20\n      add\n      swap1\n      dup2\n      mstore\n      0x20\n      add\n      0x00\n      keccak256\n        /* \"10.sol\":5014:5034  dataStore[key].sigma */\n      0x02\n      add\n        /* \"10.sol\":4991:5035  processAndSumOfSquares(dataStore[key].sigma) */\n      dup1\n      sload\n      dup1\n      0x20\n      mul\n      0x20\n      add\n      mload(0x40)\n      swap1\n      dup2\n      add\n      0x40\n      mstore\n      dup1\n      swap3\n      swap2\n      swap1\n      dup2\n      dup2\n      mstore\n      0x20\n      add\n      dup3\n      dup1\n      sload\n      dup1\n      iszero\n      tag_61\n      jumpi\n      0x20\n      mul\n      dup3\n      add\n      swap2\n      swap1\n      0x00\n      mstore\n      keccak256(0x00, 0x20)\n      swap1\n    tag_62:\n      dup2\n      sload\n      dup2\n      mstore\n      0x20\n      add\n      swap1\n      0x01\n      add\n      swap1\n      dup1\n      dup4\n      gt\n      tag_62\n      jumpi\n    tag_61:\n      pop\n      pop\n      pop\n      pop\n      pop\n        /* \"10.sol\":4991:5013  processAndSumOfSquares */\n      tag_53\n        /* \"10.sol\":4991:5035  processAndSumOfSquares(dataStore[key].sigma) */\n      jump\t// in\n    tag_60:\n        /* \"10.sol\":4979:5035  sigmaSum += processAndSumOfSquares(dataStore[key].sigma) */\n      dup3\n      tag_63\n      swap2\n      swap1\n      tag_55\n      jump\t// in\n    tag_63:\n      swap2\n      pop\n        /* \"10.sol\":4822:4827  key++ */\n      dup1\n      dup1\n      tag_64\n      swap1\n      tag_65\n      jump\t// in\n    tag_64:\n      swap2\n      pop\n      pop\n        /* \"10.sol\":4779:5046  for (int256 key = startKey; key <= endKey; key++) {... */\n      jump(tag_47)\n    tag_48:\n      pop\n        /* \"10.sol\":4631:5052  function computeSumOfSquaresInRange(int256 startKey, int256 endKey) public view returns (int256 gradSum, int256 betaSum, int256 sigmaSum) {... */\n      swap3\n      pop\n      swap3\n      pop\n      swap3\n      jump\t// out\n        /* \"10.sol\":656:768  function getSigma(int256 key) public view returns (int256[] memory) {... */\n    tag_20:\n        /* \"10.sol\":707:722  int256[] memory */\n      0x60\n        /* \"10.sol\":741:750  dataStore */\n      0x00\n        /* \"10.sol\":741:755  dataStore[key] */\n      dup1\n        /* \"10.sol\":751:754  key */\n      dup4\n        /* \"10.sol\":741:755  dataStore[key] */\n      dup2\n      mstore\n      0x20\n      add\n      swap1\n      dup2\n      mstore\n      0x20\n      add\n      0x00\n      keccak256\n        /* \"10.sol\":741:761  dataStore[key].sigma */\n      0x02\n      add\n        /* \"10.sol\":734:761  return dataStore[key].sigma */\n      dup1\n      sload\n      dup1\n      0x20\n      mul\n      0x20\n      add\n      mload(0x40)\n      swap1\n      dup2\n      add\n      0x40\n      mstore\n      dup1\n      swap3\n      swap2\n      swap1\n      dup2\n      dup2\n      mstore\n      0x20\n      add\n      dup3\n      dup1\n      sload\n      dup1\n      iszero\n      tag_67\n      jumpi\n      0x20\n      mul\n      dup3\n      add\n      swap2\n      swap1\n      0x00\n      mstore\n      keccak256(0x00, 0x20)\n      swap1\n    tag_68:\n      dup2\n      sload\n      dup2\n      mstore\n      0x20\n      add\n      swap1\n      0x01\n      add\n      swap1\n      dup1\n      dup4\n      gt\n      tag_68\n      jumpi\n    tag_67:\n      pop\n      pop\n      pop\n      pop\n      pop\n      swap1\n      pop\n        /* \"10.sol\":656:768  function getSigma(int256 key) public view returns (int256[] memory) {... */\n      swap2\n      swap1\n      pop\n      jump\t// out\n        /* \"10.sol\":792:1207  function storeData(int256 key, int256[] memory grad, int256[] memory beta, int256[] memory sigma) public {... */\n    tag_26:\n        /* \"10.sol\":988:992  beta */\n      dup2\n        /* \"10.sol\":988:999  beta.length */\n      mload\n        /* \"10.sol\":973:977  grad */\n      dup4\n        /* \"10.sol\":973:984  grad.length */\n      mload\n        /* \"10.sol\":973:999  grad.length == beta.length */\n      eq\n        /* \"10.sol\":973:1030  grad.length == beta.length && grad.length == sigma.length */\n      dup1\n      iszero\n      tag_70\n      jumpi\n      pop\n        /* \"10.sol\":1018:1023  sigma */\n      dup1\n        /* \"10.sol\":1018:1030  sigma.length */\n      mload\n        /* \"10.sol\":1003:1007  grad */\n      dup4\n        /* \"10.sol\":1003:1014  grad.length */\n      mload\n        /* \"10.sol\":1003:1030  grad.length == sigma.length */\n      eq\n        /* \"10.sol\":973:1030  grad.length == beta.length && grad.length == sigma.length */\n    tag_70:\n        /* \"10.sol\":965:1071  require(grad.length == beta.length && grad.length == sigma.length, \"All arrays must have the same length\") */\n      tag_71\n      jumpi\n      mload(0x40)\n      0x08c379a000000000000000000000000000000000000000000000000000000000\n      dup2\n      mstore\n      0x04\n      add\n      tag_72\n      swap1\n      tag_73\n      jump\t// in\n    tag_72:\n      mload(0x40)\n      dup1\n      swap2\n      sub\n      swap1\n      revert\n    tag_71:\n        /* \"10.sol\":1082:1100  Data storage entry */\n      0x00\n        /* \"10.sol\":1103:1112  dataStore */\n      dup1\n        /* \"10.sol\":1103:1117  dataStore[key] */\n      0x00\n        /* \"10.sol\":1113:1116  key */\n      dup7\n        /* \"10.sol\":1103:1117  dataStore[key] */\n      dup2\n      mstore\n      0x20\n      add\n      swap1\n      dup2\n      mstore\n      0x20\n      add\n      0x00\n      keccak256\n        /* \"10.sol\":1082:1117  Data storage entry = dataStore[key] */\n      swap1\n      pop\n        /* \"10.sol\":1140:1144  grad */\n      dup4\n        /* \"10.sol\":1127:1132  entry */\n      dup2\n        /* \"10.sol\":1127:1137  entry.grad */\n      0x00\n      add\n        /* \"10.sol\":1127:1144  entry.grad = grad */\n      swap1\n      dup1\n      mload\n      swap1\n      0x20\n      add\n      swap1\n      tag_74\n      swap3\n      swap2\n      swap1\n      tag_75\n      jump\t// in\n    tag_74:\n      pop\n        /* \"10.sol\":1167:1171  beta */\n      dup3\n        /* \"10.sol\":1154:1159  entry */\n      dup2\n        /* \"10.sol\":1154:1164  entry.beta */\n      0x01\n      add\n        /* \"10.sol\":1154:1171  entry.beta = beta */\n      swap1\n      dup1\n      mload\n      swap1\n      0x20\n      add\n      swap1\n      tag_76\n      swap3\n      swap2\n      swap1\n      tag_75\n      jump\t// in\n    tag_76:\n      pop\n        /* \"10.sol\":1195:1200  sigma */\n      dup2\n        /* \"10.sol\":1181:1186  entry */\n      dup2\n        /* \"10.sol\":1181:1192  entry.sigma */\n      0x02\n      add\n        /* \"10.sol\":1181:1200  entry.sigma = sigma */\n      swap1\n      dup1\n      mload\n      swap1\n      0x20\n      add\n      swap1\n      tag_77\n      swap3\n      swap2\n      swap1\n      tag_75\n      jump\t// in\n    tag_77:\n      pop\n        /* \"10.sol\":897:1207  {... */\n      pop\n        /* \"10.sol\":792:1207  function storeData(int256 key, int256[] memory grad, int256[] memory beta, int256[] memory sigma) public {... */\n      pop\n      pop\n      pop\n      pop\n      jump\t// out\n        /* \"10.sol\":1274:2417  function addArrays(int256[] memory keys) public view returns (int256[] memory resultGrad, int256[] memory resultBeta, int256[] memory resultSigma) {... */\n    tag_30:\n        /* \"10.sol\":1336:1362  int256[] memory resultGrad */\n      0x60\n        /* \"10.sol\":1364:1390  int256[] memory resultBeta */\n      dup1\n        /* \"10.sol\":1392:1419  int256[] memory resultSigma */\n      0x60\n        /* \"10.sol\":1453:1454  0 */\n      0x00\n        /* \"10.sol\":1439:1443  keys */\n      dup5\n        /* \"10.sol\":1439:1450  keys.length */\n      mload\n        /* \"10.sol\":1439:1454  keys.length > 0 */\n      gt\n        /* \"10.sol\":1431:1487  require(keys.length > 0, \"At least one key is required\") */\n      tag_79\n      jumpi\n      mload(0x40)\n      0x08c379a000000000000000000000000000000000000000000000000000000000\n      dup2\n      mstore\n      0x04\n      add\n      tag_80\n      swap1\n      tag_81\n      jump\t// in\n    tag_80:\n      mload(0x40)\n      dup1\n      swap2\n      sub\n      swap1\n      revert\n    tag_79:\n        /* \"10.sol\":1498:1512  uint256 length */\n      0x00\n        /* \"10.sol\":1515:1524  dataStore */\n      dup1\n        /* \"10.sol\":1515:1533  dataStore[keys[0]] */\n      0x00\n        /* \"10.sol\":1525:1529  keys */\n      dup7\n        /* \"10.sol\":1530:1531  0 */\n      0x00\n        /* \"10.sol\":1525:1532  keys[0] */\n      dup2\n      mload\n      dup2\n      lt\n      tag_82\n      jumpi\n      tag_83\n      tag_84\n      jump\t// in\n    tag_83:\n    tag_82:\n      0x20\n      mul\n      0x20\n      add\n      add\n      mload\n        /* \"10.sol\":1515:1533  dataStore[keys[0]] */\n      dup2\n      mstore\n      0x20\n      add\n      swap1\n      dup2\n      mstore\n      0x20\n      add\n      0x00\n      keccak256\n        /* \"10.sol\":1515:1538  dataStore[keys[0]].grad */\n      0x00\n      add\n        /* \"10.sol\":1515:1545  dataStore[keys[0]].grad.length */\n      dup1\n      sload\n      swap1\n      pop\n        /* \"10.sol\":1498:1545  uint256 length = dataStore[keys[0]].grad.length */\n      swap1\n      pop\n        /* \"10.sol\":1621:1630  uint256 k */\n      0x00\n        /* \"10.sol\":1616:1967  for (uint256 k = 0; k < keys.length; k++) {... */\n    tag_85:\n        /* \"10.sol\":1640:1644  keys */\n      dup6\n        /* \"10.sol\":1640:1651  keys.length */\n      mload\n        /* \"10.sol\":1636:1637  k */\n      dup2\n        /* \"10.sol\":1636:1651  k < keys.length */\n      lt\n        /* \"10.sol\":1616:1967  for (uint256 k = 0; k < keys.length; k++) {... */\n      iszero\n      tag_86\n      jumpi\n        /* \"10.sol\":1714:1720  length */\n      dup2\n        /* \"10.sol\":1680:1689  dataStore */\n      0x00\n        /* \"10.sol\":1680:1698  dataStore[keys[k]] */\n      dup1\n        /* \"10.sol\":1690:1694  keys */\n      dup9\n        /* \"10.sol\":1695:1696  k */\n      dup5\n        /* \"10.sol\":1690:1697  keys[k] */\n      dup2\n      mload\n      dup2\n      lt\n      tag_88\n      jumpi\n      tag_89\n      tag_84\n      jump\t// in\n    tag_89:\n    tag_88:\n      0x20\n      mul\n      0x20\n      add\n      add\n      mload\n        /* \"10.sol\":1680:1698  dataStore[keys[k]] */\n      dup2\n      mstore\n      0x20\n      add\n      swap1\n      dup2\n      mstore\n      0x20\n      add\n      0x00\n      keccak256\n        /* \"10.sol\":1680:1703  dataStore[keys[k]].grad */\n      0x00\n      add\n        /* \"10.sol\":1680:1710  dataStore[keys[k]].grad.length */\n      dup1\n      sload\n      swap1\n      pop\n        /* \"10.sol\":1680:1720  dataStore[keys[k]].grad.length == length */\n      eq\n        /* \"10.sol\":1672:1757  require(dataStore[keys[k]].grad.length == length, \"Array length mismatch among keys\") */\n      tag_90\n      jumpi\n      mload(0x40)\n      0x08c379a000000000000000000000000000000000000000000000000000000000\n      dup2\n      mstore\n      0x04\n      add\n      tag_91\n      swap1\n      tag_92\n      jump\t// in\n    tag_91:\n      mload(0x40)\n      dup1\n      swap2\n      sub\n      swap1\n      revert\n    tag_90:\n        /* \"10.sol\":1813:1819  length */\n      dup2\n        /* \"10.sol\":1779:1788  dataStore */\n      0x00\n        /* \"10.sol\":1779:1797  dataStore[keys[k]] */\n      dup1\n        /* \"10.sol\":1789:1793  keys */\n      dup9\n        /* \"10.sol\":1794:1795  k */\n      dup5\n        /* \"10.sol\":1789:1796  keys[k] */\n      dup2\n      mload\n      dup2\n      lt\n      tag_93\n      jumpi\n      tag_94\n      tag_84\n      jump\t// in\n    tag_94:\n    tag_93:\n      0x20\n      mul\n      0x20\n      add\n      add\n      mload\n        /* \"10.sol\":1779:1797  dataStore[keys[k]] */\n      dup2\n      mstore\n      0x20\n      add\n      swap1\n      dup2\n      mstore\n      0x20\n      add\n      0x00\n      keccak256\n        /* \"10.sol\":1779:1802  dataStore[keys[k]].beta */\n      0x01\n      add\n        /* \"10.sol\":1779:1809  dataStore[keys[k]].beta.length */\n      dup1\n      sload\n      swap1\n      pop\n        /* \"10.sol\":1779:1819  dataStore[keys[k]].beta.length == length */\n      eq\n        /* \"10.sol\":1771:1856  require(dataStore[keys[k]].beta.length == length, \"Array length mismatch among keys\") */\n      tag_95\n      jumpi\n      mload(0x40)\n      0x08c379a000000000000000000000000000000000000000000000000000000000\n      dup2\n      mstore\n      0x04\n      add\n      tag_96\n      swap1\n      tag_92\n      jump\t// in\n    tag_96:\n      mload(0x40)\n      dup1\n      swap2\n      sub\n      swap1\n      revert\n    tag_95:\n        /* \"10.sol\":1913:1919  length */\n      dup2\n        /* \"10.sol\":1878:1887  dataStore */\n      0x00\n        /* \"10.sol\":1878:1896  dataStore[keys[k]] */\n      dup1\n        /* \"10.sol\":1888:1892  keys */\n      dup9\n        /* \"10.sol\":1893:1894  k */\n      dup5\n        /* \"10.sol\":1888:1895  keys[k] */\n      dup2\n      mload\n      dup2\n      lt\n      tag_97\n      jumpi\n      tag_98\n      tag_84\n      jump\t// in\n    tag_98:\n    tag_97:\n      0x20\n      mul\n      0x20\n      add\n      add\n      mload\n        /* \"10.sol\":1878:1896  dataStore[keys[k]] */\n      dup2\n      mstore\n      0x20\n      add\n      swap1\n      dup2\n      mstore\n      0x20\n      add\n      0x00\n      keccak256\n        /* \"10.sol\":1878:1902  dataStore[keys[k]].sigma */\n      0x02\n      add\n        /* \"10.sol\":1878:1909  dataStore[keys[k]].sigma.length */\n      dup1\n      sload\n      swap1\n      pop\n        /* \"10.sol\":1878:1919  dataStore[keys[k]].sigma.length == length */\n      eq\n        /* \"10.sol\":1870:1956  require(dataStore[keys[k]].sigma.length == length, \"Array length mismatch among keys\") */\n      tag_99\n      jumpi\n      mload(0x40)\n      0x08c379a000000000000000000000000000000000000000000000000000000000\n      dup2\n      mstore\n      0x04\n      add\n      tag_100\n      swap1\n      tag_92\n      jump\t// in\n    tag_100:\n      mload(0x40)\n      dup1\n      swap2\n      sub\n      swap1\n      revert\n    tag_99:\n        /* \"10.sol\":1653:1656  k++ */\n      dup1\n      dup1\n      0x01\n      add\n      swap2\n      pop\n      pop\n        /* \"10.sol\":1616:1967  for (uint256 k = 0; k < keys.length; k++) {... */\n      jump(tag_85)\n    tag_86:\n      pop\n        /* \"10.sol\":2003:2009  length */\n      dup1\n        /* \"10.sol\":1990:2010  new int256[](length) */\n      0xffffffffffffffff\n      dup2\n      gt\n      iszero\n      tag_101\n      jumpi\n      tag_102\n      tag_103\n      jump\t// in\n    tag_102:\n    tag_101:\n      mload(0x40)\n      swap1\n      dup1\n      dup3\n      mstore\n      dup1\n      0x20\n      mul\n      0x20\n      add\n      dup3\n      add\n      0x40\n      mstore\n      dup1\n      iszero\n      tag_104\n      jumpi\n      dup2\n      0x20\n      add\n      0x20\n      dup3\n      mul\n      dup1\n      calldatasize\n      dup4\n      calldatacopy\n      dup1\n      dup3\n      add\n      swap2\n      pop\n      pop\n      swap1\n      pop\n    tag_104:\n      pop\n        /* \"10.sol\":1977:2010  resultGrad = new int256[](length) */\n      swap4\n      pop\n        /* \"10.sol\":2046:2052  length */\n      dup1\n        /* \"10.sol\":2033:2053  new int256[](length) */\n      0xffffffffffffffff\n      dup2\n      gt\n      iszero\n      tag_105\n      jumpi\n      tag_106\n      tag_103\n      jump\t// in\n    tag_106:\n    tag_105:\n      mload(0x40)\n      swap1\n      dup1\n      dup3\n      mstore\n      dup1\n      0x20\n      mul\n      0x20\n      add\n      dup3\n      add\n      0x40\n      mstore\n      dup1\n      iszero\n      tag_107\n      jumpi\n      dup2\n      0x20\n      add\n      0x20\n      dup3\n      mul\n      dup1\n      calldatasize\n      dup4\n      calldatacopy\n      dup1\n      dup3\n      add\n      swap2\n      pop\n      pop\n      swap1\n      pop\n    tag_107:\n      pop\n        /* \"10.sol\":2020:2053  resultBeta = new int256[](length) */\n      swap3\n      pop\n        /* \"10.sol\":2090:2096  length */\n      dup1\n        /* \"10.sol\":2077:2097  new int256[](length) */\n      0xffffffffffffffff\n      dup2\n      gt\n      iszero\n      tag_108\n      jumpi\n      tag_109\n      tag_103\n      jump\t// in\n    tag_109:\n    tag_108:\n      mload(0x40)\n      swap1\n      dup1\n      dup3\n      mstore\n      dup1\n      0x20\n      mul\n      0x20\n      add\n      dup3\n      add\n      0x40\n      mstore\n      dup1\n      iszero\n      tag_110\n      jumpi\n      dup2\n      0x20\n      add\n      0x20\n      dup3\n      mul\n      dup1\n      calldatasize\n      dup4\n      calldatacopy\n      dup1\n      dup3\n      add\n      swap2\n      pop\n      pop\n      swap1\n      pop\n    tag_110:\n      pop\n        /* \"10.sol\":2063:2097  resultSigma = new int256[](length) */\n      swap2\n      pop\n        /* \"10.sol\":2113:2122  uint256 i */\n      0x00\n        /* \"10.sol\":2108:2411  for (uint256 i = 0; i < length; i++) {... */\n    tag_111:\n        /* \"10.sol\":2132:2138  length */\n      dup2\n        /* \"10.sol\":2128:2129  i */\n      dup2\n        /* \"10.sol\":2128:2138  i < length */\n      lt\n        /* \"10.sol\":2108:2411  for (uint256 i = 0; i < length; i++) {... */\n      iszero\n      tag_112\n      jumpi\n        /* \"10.sol\":2164:2173  uint256 k */\n      0x00\n        /* \"10.sol\":2159:2401  for (uint256 k = 0; k < keys.length; k++) {... */\n    tag_114:\n        /* \"10.sol\":2183:2187  keys */\n      dup7\n        /* \"10.sol\":2183:2194  keys.length */\n      mload\n        /* \"10.sol\":2179:2180  k */\n      dup2\n        /* \"10.sol\":2179:2194  k < keys.length */\n      lt\n        /* \"10.sol\":2159:2401  for (uint256 k = 0; k < keys.length; k++) {... */\n      iszero\n      tag_115\n      jumpi\n        /* \"10.sol\":2236:2245  dataStore */\n      0x00\n        /* \"10.sol\":2236:2254  dataStore[keys[k]] */\n      dup1\n        /* \"10.sol\":2246:2250  keys */\n      dup9\n        /* \"10.sol\":2251:2252  k */\n      dup4\n        /* \"10.sol\":2246:2253  keys[k] */\n      dup2\n      mload\n      dup2\n      lt\n      tag_117\n      jumpi\n      tag_118\n      tag_84\n      jump\t// in\n    tag_118:\n    tag_117:\n      0x20\n      mul\n      0x20\n      add\n      add\n      mload\n        /* \"10.sol\":2236:2254  dataStore[keys[k]] */\n      dup2\n      mstore\n      0x20\n      add\n      swap1\n      dup2\n      mstore\n      0x20\n      add\n      0x00\n      keccak256\n        /* \"10.sol\":2236:2259  dataStore[keys[k]].grad */\n      0x00\n      add\n        /* \"10.sol\":2260:2261  i */\n      dup3\n        /* \"10.sol\":2236:2262  dataStore[keys[k]].grad[i] */\n      dup2\n      sload\n      dup2\n      lt\n      tag_119\n      jumpi\n      tag_120\n      tag_84\n      jump\t// in\n    tag_120:\n    tag_119:\n      swap1\n      0x00\n      mstore\n      keccak256(0x00, 0x20)\n      add\n      sload\n        /* \"10.sol\":2219:2229  resultGrad */\n      dup7\n        /* \"10.sol\":2230:2231  i */\n      dup4\n        /* \"10.sol\":2219:2232  resultGrad[i] */\n      dup2\n      mload\n      dup2\n      lt\n      tag_122\n      jumpi\n      tag_123\n      tag_84\n      jump\t// in\n    tag_123:\n    tag_122:\n      0x20\n      mul\n      0x20\n      add\n      add\n        /* \"10.sol\":2219:2262  resultGrad[i] += dataStore[keys[k]].grad[i] */\n      dup2\n      dup2\n      mload\n      tag_124\n      swap2\n      swap1\n      tag_55\n      jump\t// in\n    tag_124:\n      swap2\n      pop\n      dup2\n      dup2\n      mstore\n      pop\n      pop\n        /* \"10.sol\":2297:2306  dataStore */\n      0x00\n        /* \"10.sol\":2297:2315  dataStore[keys[k]] */\n      dup1\n        /* \"10.sol\":2307:2311  keys */\n      dup9\n        /* \"10.sol\":2312:2313  k */\n      dup4\n        /* \"10.sol\":2307:2314  keys[k] */\n      dup2\n      mload\n      dup2\n      lt\n      tag_125\n      jumpi\n      tag_126\n      tag_84\n      jump\t// in\n    tag_126:\n    tag_125:\n      0x20\n      mul\n      0x20\n      add\n      add\n      mload\n        /* \"10.sol\":2297:2315  dataStore[keys[k]] */\n      dup2\n      mstore\n      0x20\n      add\n      swap1\n      dup2\n      mstore\n      0x20\n      add\n      0x00\n      keccak256\n        /* \"10.sol\":2297:2320  dataStore[keys[k]].beta */\n      0x01\n      add\n        /* \"10.sol\":2321:2322  i */\n      dup3\n        /* \"10.sol\":2297:2323  dataStore[keys[k]].beta[i] */\n      dup2\n      sload\n      dup2\n      lt\n      tag_127\n      jumpi\n      tag_128\n      tag_84\n      jump\t// in\n    tag_128:\n    tag_127:\n      swap1\n      0x00\n      mstore\n      keccak256(0x00, 0x20)\n      add\n      sload\n        /* \"10.sol\":2280:2290  resultBeta */\n      dup6\n        /* \"10.sol\":2291:2292  i */\n      dup4\n        /* \"10.sol\":2280:2293  resultBeta[i] */\n      dup2\n      mload\n      dup2\n      lt\n      tag_130\n      jumpi\n      tag_131\n      tag_84\n      jump\t// in\n    tag_131:\n    tag_130:\n      0x20\n      mul\n      0x20\n      add\n      add\n        /* \"10.sol\":2280:2323  resultBeta[i] += dataStore[keys[k]].beta[i] */\n      dup2\n      dup2\n      mload\n      tag_132\n      swap2\n      swap1\n      tag_55\n      jump\t// in\n    tag_132:\n      swap2\n      pop\n      dup2\n      dup2\n      mstore\n      pop\n      pop\n        /* \"10.sol\":2359:2368  dataStore */\n      0x00\n        /* \"10.sol\":2359:2377  dataStore[keys[k]] */\n      dup1\n        /* \"10.sol\":2369:2373  keys */\n      dup9\n        /* \"10.sol\":2374:2375  k */\n      dup4\n        /* \"10.sol\":2369:2376  keys[k] */\n      dup2\n      mload\n      dup2\n      lt\n      tag_133\n      jumpi\n      tag_134\n      tag_84\n      jump\t// in\n    tag_134:\n    tag_133:\n      0x20\n      mul\n      0x20\n      add\n      add\n      mload\n        /* \"10.sol\":2359:2377  dataStore[keys[k]] */\n      dup2\n      mstore\n      0x20\n      add\n      swap1\n      dup2\n      mstore\n      0x20\n      add\n      0x00\n      keccak256\n        /* \"10.sol\":2359:2383  dataStore[keys[k]].sigma */\n      0x02\n      add\n        /* \"10.sol\":2384:2385  i */\n      dup3\n        /* \"10.sol\":2359:2386  dataStore[keys[k]].sigma[i] */\n      dup2\n      sload\n      dup2\n      lt\n      tag_135\n      jumpi\n      tag_136\n      tag_84\n      jump\t// in\n    tag_136:\n    tag_135:\n      swap1\n      0x00\n      mstore\n      keccak256(0x00, 0x20)\n      add\n      sload\n        /* \"10.sol\":2341:2352  resultSigma */\n      dup5\n        /* \"10.sol\":2353:2354  i */\n      dup4\n        /* \"10.sol\":2341:2355  resultSigma[i] */\n      dup2\n      mload\n      dup2\n      lt\n      tag_138\n      jumpi\n      tag_139\n      tag_84\n      jump\t// in\n    tag_139:\n    tag_138:\n      0x20\n      mul\n      0x20\n      add\n      add\n        /* \"10.sol\":2341:2386  resultSigma[i] += dataStore[keys[k]].sigma[i] */\n      dup2\n      dup2\n      mload\n      tag_140\n      swap2\n      swap1\n      tag_55\n      jump\t// in\n    tag_140:\n      swap2\n      pop\n      dup2\n      dup2\n      mstore\n      pop\n      pop\n        /* \"10.sol\":2196:2199  k++ */\n      dup1\n      dup1\n      0x01\n      add\n      swap2\n      pop\n      pop\n        /* \"10.sol\":2159:2401  for (uint256 k = 0; k < keys.length; k++) {... */\n      jump(tag_114)\n    tag_115:\n      pop\n        /* \"10.sol\":2140:2143  i++ */\n      dup1\n      dup1\n      0x01\n      add\n      swap2\n      pop\n      pop\n        /* \"10.sol\":2108:2411  for (uint256 i = 0; i < length; i++) {... */\n      jump(tag_111)\n    tag_112:\n      pop\n        /* \"10.sol\":1421:2417  {... */\n      pop\n        /* \"10.sol\":1274:2417  function addArrays(int256[] memory keys) public view returns (int256[] memory resultGrad, int256[] memory resultBeta, int256[] memory resultSigma) {... */\n      swap2\n      swap4\n      swap1\n      swap3\n      pop\n      jump\t// out\n        /* \"10.sol\":2424:4101  function calculateAndStoreSquareSum(int256 key) public view returns (int256) {... */\n    tag_35:\n        /* \"10.sol\":2493:2499  int256 */\n      0x00\n        /* \"10.sol\":2511:2521  int256 sum */\n      dup1\n        /* \"10.sol\":2524:2525  0 */\n      0x00\n        /* \"10.sol\":2511:2525  int256 sum = 0 */\n      swap1\n      pop\n        /* \"10.sol\":2536:2560  int256[] memory gradData */\n      0x00\n        /* \"10.sol\":2563:2572  dataStore */\n      dup1\n        /* \"10.sol\":2563:2577  dataStore[key] */\n      0x00\n        /* \"10.sol\":2573:2576  key */\n      dup6\n        /* \"10.sol\":2563:2577  dataStore[key] */\n      dup2\n      mstore\n      0x20\n      add\n      swap1\n      dup2\n      mstore\n      0x20\n      add\n      0x00\n      keccak256\n        /* \"10.sol\":2563:2582  dataStore[key].grad */\n      0x00\n      add\n        /* \"10.sol\":2536:2582  int256[] memory gradData = dataStore[key].grad */\n      dup1\n      sload\n      dup1\n      0x20\n      mul\n      0x20\n      add\n      mload(0x40)\n      swap1\n      dup2\n      add\n      0x40\n      mstore\n      dup1\n      swap3\n      swap2\n      swap1\n      dup2\n      dup2\n      mstore\n      0x20\n      add\n      dup3\n      dup1\n      sload\n      dup1\n      iszero\n      tag_142\n      jumpi\n      0x20\n      mul\n      dup3\n      add\n      swap2\n      swap1\n      0x00\n      mstore\n      keccak256(0x00, 0x20)\n      swap1\n    tag_143:\n      dup2\n      sload\n      dup2\n      mstore\n      0x20\n      add\n      swap1\n      0x01\n      add\n      swap1\n      dup1\n      dup4\n      gt\n      tag_143\n      jumpi\n    tag_142:\n      pop\n      pop\n      pop\n      pop\n      pop\n      swap1\n      pop\n        /* \"10.sol\":2598:2607  uint256 i */\n      0x00\n        /* \"10.sol\":2593:2812  for (uint256 i = 0; i < gradData.length; i++) {... */\n    tag_144:\n        /* \"10.sol\":2617:2625  gradData */\n      dup2\n        /* \"10.sol\":2617:2632  gradData.length */\n      mload\n        /* \"10.sol\":2613:2614  i */\n      dup2\n        /* \"10.sol\":2613:2632  i < gradData.length */\n      lt\n        /* \"10.sol\":2593:2812  for (uint256 i = 0; i < gradData.length; i++) {... */\n      iszero\n      tag_145\n      jumpi\n        /* \"10.sol\":2653:2672  int256 reducedValue */\n      0x00\n        /* \"10.sol\":2690:2694  1e20 */\n      0x056bc75e2d63100000\n        /* \"10.sol\":2675:2683  gradData */\n      dup4\n        /* \"10.sol\":2684:2685  i */\n      dup4\n        /* \"10.sol\":2675:2686  gradData[i] */\n      dup2\n      mload\n      dup2\n      lt\n      tag_147\n      jumpi\n      tag_148\n      tag_84\n      jump\t// in\n    tag_148:\n    tag_147:\n      0x20\n      mul\n      0x20\n      add\n      add\n      mload\n        /* \"10.sol\":2675:2694  gradData[i]  / 1e20 */\n      tag_149\n      swap2\n      swap1\n      tag_150\n      jump\t// in\n    tag_149:\n        /* \"10.sol\":2653:2694  int256 reducedValue = gradData[i]  / 1e20 */\n      swap1\n      pop\n        /* \"10.sol\":2708:2727  int256 squaredValue */\n      0x00\n        /* \"10.sol\":2743:2755  reducedValue */\n      dup2\n        /* \"10.sol\":2730:2742  reducedValue */\n      dup3\n        /* \"10.sol\":2730:2755  reducedValue*reducedValue */\n      tag_151\n      swap2\n      swap1\n      tag_152\n      jump\t// in\n    tag_151:\n        /* \"10.sol\":2708:2755  int256 squaredValue = reducedValue*reducedValue */\n      swap1\n      pop\n        /* \"10.sol\":2789:2801  squaredValue */\n      dup1\n        /* \"10.sol\":2782:2801  sum += squaredValue */\n      dup6\n      tag_153\n      swap2\n      swap1\n      tag_55\n      jump\t// in\n    tag_153:\n      swap5\n      pop\n        /* \"10.sol\":2639:2812  {... */\n      pop\n      pop\n        /* \"10.sol\":2634:2637  i++ */\n      dup1\n      dup1\n      0x01\n      add\n      swap2\n      pop\n      pop\n        /* \"10.sol\":2593:2812  for (uint256 i = 0; i < gradData.length; i++) {... */\n      jump(tag_144)\n    tag_145:\n      pop\n        /* \"10.sol\":2827:2836  uint256 i */\n      0x00\n        /* \"10.sol\":2822:3041  for (uint256 i = 0; i < gradData.length; i++) {... */\n    tag_154:\n        /* \"10.sol\":2846:2854  gradData */\n      dup2\n        /* \"10.sol\":2846:2861  gradData.length */\n      mload\n        /* \"10.sol\":2842:2843  i */\n      dup2\n        /* \"10.sol\":2842:2861  i < gradData.length */\n      lt\n        /* \"10.sol\":2822:3041  for (uint256 i = 0; i < gradData.length; i++) {... */\n      iszero\n      tag_155\n      jumpi\n        /* \"10.sol\":2882:2901  int256 reducedValue */\n      0x00\n        /* \"10.sol\":2919:2923  1e20 */\n      0x056bc75e2d63100000\n        /* \"10.sol\":2904:2912  gradData */\n      dup4\n        /* \"10.sol\":2913:2914  i */\n      dup4\n        /* \"10.sol\":2904:2915  gradData[i] */\n      dup2\n      mload\n      dup2\n      lt\n      tag_157\n      jumpi\n      tag_158\n      tag_84\n      jump\t// in\n    tag_158:\n    tag_157:\n      0x20\n      mul\n      0x20\n      add\n      add\n      mload\n        /* \"10.sol\":2904:2923  gradData[i]  / 1e20 */\n      tag_159\n      swap2\n      swap1\n      tag_150\n      jump\t// in\n    tag_159:\n        /* \"10.sol\":2882:2923  int256 reducedValue = gradData[i]  / 1e20 */\n      swap1\n      pop\n        /* \"10.sol\":2937:2956  int256 squaredValue */\n      0x00\n        /* \"10.sol\":2972:2984  reducedValue */\n      dup2\n        /* \"10.sol\":2959:2971  reducedValue */\n      dup3\n        /* \"10.sol\":2959:2984  reducedValue*reducedValue */\n      tag_160\n      swap2\n      swap1\n      tag_152\n      jump\t// in\n    tag_160:\n        /* \"10.sol\":2937:2984  int256 squaredValue = reducedValue*reducedValue */\n      swap1\n      pop\n        /* \"10.sol\":3018:3030  squaredValue */\n      dup1\n        /* \"10.sol\":3011:3030  sum += squaredValue */\n      dup6\n      tag_161\n      swap2\n      swap1\n      tag_55\n      jump\t// in\n    tag_161:\n      swap5\n      pop\n        /* \"10.sol\":2868:3041  {... */\n      pop\n      pop\n        /* \"10.sol\":2863:2866  i++ */\n      dup1\n      dup1\n      0x01\n      add\n      swap2\n      pop\n      pop\n        /* \"10.sol\":2822:3041  for (uint256 i = 0; i < gradData.length; i++) {... */\n      jump(tag_154)\n    tag_155:\n      pop\n        /* \"10.sol\":3050:3074  int256[] memory betaData */\n      0x00\n        /* \"10.sol\":3077:3086  dataStore */\n      dup1\n        /* \"10.sol\":3077:3091  dataStore[key] */\n      0x00\n        /* \"10.sol\":3087:3090  key */\n      dup7\n        /* \"10.sol\":3077:3091  dataStore[key] */\n      dup2\n      mstore\n      0x20\n      add\n      swap1\n      dup2\n      mstore\n      0x20\n      add\n      0x00\n      keccak256\n        /* \"10.sol\":3077:3096  dataStore[key].beta */\n      0x01\n      add\n        /* \"10.sol\":3050:3096  int256[] memory betaData = dataStore[key].beta */\n      dup1\n      sload\n      dup1\n      0x20\n      mul\n      0x20\n      add\n      mload(0x40)\n      swap1\n      dup2\n      add\n      0x40\n      mstore\n      dup1\n      swap3\n      swap2\n      swap1\n      dup2\n      dup2\n      mstore\n      0x20\n      add\n      dup3\n      dup1\n      sload\n      dup1\n      iszero\n      tag_162\n      jumpi\n      0x20\n      mul\n      dup3\n      add\n      swap2\n      swap1\n      0x00\n      mstore\n      keccak256(0x00, 0x20)\n      swap1\n    tag_163:\n      dup2\n      sload\n      dup2\n      mstore\n      0x20\n      add\n      swap1\n      0x01\n      add\n      swap1\n      dup1\n      dup4\n      gt\n      tag_163\n      jumpi\n    tag_162:\n      pop\n      pop\n      pop\n      pop\n      pop\n      swap1\n      pop\n        /* \"10.sol\":3112:3121  uint256 i */\n      0x00\n        /* \"10.sol\":3107:3326  for (uint256 i = 0; i < betaData.length; i++) {... */\n    tag_164:\n        /* \"10.sol\":3131:3139  betaData */\n      dup2\n        /* \"10.sol\":3131:3146  betaData.length */\n      mload\n        /* \"10.sol\":3127:3128  i */\n      dup2\n        /* \"10.sol\":3127:3146  i < betaData.length */\n      lt\n        /* \"10.sol\":3107:3326  for (uint256 i = 0; i < betaData.length; i++) {... */\n      iszero\n      tag_165\n      jumpi\n        /* \"10.sol\":3167:3186  int256 reducedValue */\n      0x00\n        /* \"10.sol\":3204:3208  1e20 */\n      0x056bc75e2d63100000\n        /* \"10.sol\":3189:3197  betaData */\n      dup4\n        /* \"10.sol\":3198:3199  i */\n      dup4\n        /* \"10.sol\":3189:3200  betaData[i] */\n      dup2\n      mload\n      dup2\n      lt\n      tag_167\n      jumpi\n      tag_168\n      tag_84\n      jump\t// in\n    tag_168:\n    tag_167:\n      0x20\n      mul\n      0x20\n      add\n      add\n      mload\n        /* \"10.sol\":3189:3208  betaData[i]  / 1e20 */\n      tag_169\n      swap2\n      swap1\n      tag_150\n      jump\t// in\n    tag_169:\n        /* \"10.sol\":3167:3208  int256 reducedValue = betaData[i]  / 1e20 */\n      swap1\n      pop\n        /* \"10.sol\":3222:3241  int256 squaredValue */\n      0x00\n        /* \"10.sol\":3257:3269  reducedValue */\n      dup2\n        /* \"10.sol\":3244:3256  reducedValue */\n      dup3\n        /* \"10.sol\":3244:3269  reducedValue*reducedValue */\n      tag_170\n      swap2\n      swap1\n      tag_152\n      jump\t// in\n    tag_170:\n        /* \"10.sol\":3222:3269  int256 squaredValue = reducedValue*reducedValue */\n      swap1\n      pop\n        /* \"10.sol\":3303:3315  squaredValue */\n      dup1\n        /* \"10.sol\":3296:3315  sum += squaredValue */\n      dup7\n      tag_171\n      swap2\n      swap1\n      tag_55\n      jump\t// in\n    tag_171:\n      swap6\n      pop\n        /* \"10.sol\":3153:3326  {... */\n      pop\n      pop\n        /* \"10.sol\":3148:3151  i++ */\n      dup1\n      dup1\n      0x01\n      add\n      swap2\n      pop\n      pop\n        /* \"10.sol\":3107:3326  for (uint256 i = 0; i < betaData.length; i++) {... */\n      jump(tag_164)\n    tag_165:\n      pop\n        /* \"10.sol\":3341:3350  uint256 i */\n      0x00\n        /* \"10.sol\":3336:3555  for (uint256 i = 0; i < betaData.length; i++) {... */\n    tag_172:\n        /* \"10.sol\":3360:3368  betaData */\n      dup2\n        /* \"10.sol\":3360:3375  betaData.length */\n      mload\n        /* \"10.sol\":3356:3357  i */\n      dup2\n        /* \"10.sol\":3356:3375  i < betaData.length */\n      lt\n        /* \"10.sol\":3336:3555  for (uint256 i = 0; i < betaData.length; i++) {... */\n      iszero\n      tag_173\n      jumpi\n        /* \"10.sol\":3396:3415  int256 reducedValue */\n      0x00\n        /* \"10.sol\":3433:3437  1e20 */\n      0x056bc75e2d63100000\n        /* \"10.sol\":3418:3426  betaData */\n      dup4\n        /* \"10.sol\":3427:3428  i */\n      dup4\n        /* \"10.sol\":3418:3429  betaData[i] */\n      dup2\n      mload\n      dup2\n      lt\n      tag_175\n      jumpi\n      tag_176\n      tag_84\n      jump\t// in\n    tag_176:\n    tag_175:\n      0x20\n      mul\n      0x20\n      add\n      add\n      mload\n        /* \"10.sol\":3418:3437  betaData[i]  / 1e20 */\n      tag_177\n      swap2\n      swap1\n      tag_150\n      jump\t// in\n    tag_177:\n        /* \"10.sol\":3396:3437  int256 reducedValue = betaData[i]  / 1e20 */\n      swap1\n      pop\n        /* \"10.sol\":3451:3470  int256 squaredValue */\n      0x00\n        /* \"10.sol\":3486:3498  reducedValue */\n      dup2\n        /* \"10.sol\":3473:3485  reducedValue */\n      dup3\n        /* \"10.sol\":3473:3498  reducedValue*reducedValue */\n      tag_178\n      swap2\n      swap1\n      tag_152\n      jump\t// in\n    tag_178:\n        /* \"10.sol\":3451:3498  int256 squaredValue = reducedValue*reducedValue */\n      swap1\n      pop\n        /* \"10.sol\":3532:3544  squaredValue */\n      dup1\n        /* \"10.sol\":3525:3544  sum += squaredValue */\n      dup7\n      tag_179\n      swap2\n      swap1\n      tag_55\n      jump\t// in\n    tag_179:\n      swap6\n      pop\n        /* \"10.sol\":3382:3555  {... */\n      pop\n      pop\n        /* \"10.sol\":3377:3380  i++ */\n      dup1\n      dup1\n      0x01\n      add\n      swap2\n      pop\n      pop\n        /* \"10.sol\":3336:3555  for (uint256 i = 0; i < betaData.length; i++) {... */\n      jump(tag_172)\n    tag_173:\n      pop\n        /* \"10.sol\":3564:3589  int256[] memory sigmaData */\n      0x00\n        /* \"10.sol\":3592:3601  dataStore */\n      dup1\n        /* \"10.sol\":3592:3606  dataStore[key] */\n      0x00\n        /* \"10.sol\":3602:3605  key */\n      dup8\n        /* \"10.sol\":3592:3606  dataStore[key] */\n      dup2\n      mstore\n      0x20\n      add\n      swap1\n      dup2\n      mstore\n      0x20\n      add\n      0x00\n      keccak256\n        /* \"10.sol\":3592:3612  dataStore[key].sigma */\n      0x02\n      add\n        /* \"10.sol\":3564:3612  int256[] memory sigmaData = dataStore[key].sigma */\n      dup1\n      sload\n      dup1\n      0x20\n      mul\n      0x20\n      add\n      mload(0x40)\n      swap1\n      dup2\n      add\n      0x40\n      mstore\n      dup1\n      swap3\n      swap2\n      swap1\n      dup2\n      dup2\n      mstore\n      0x20\n      add\n      dup3\n      dup1\n      sload\n      dup1\n      iszero\n      tag_180\n      jumpi\n      0x20\n      mul\n      dup3\n      add\n      swap2\n      swap1\n      0x00\n      mstore\n      keccak256(0x00, 0x20)\n      swap1\n    tag_181:\n      dup2\n      sload\n      dup2\n      mstore\n      0x20\n      add\n      swap1\n      0x01\n      add\n      swap1\n      dup1\n      dup4\n      gt\n      tag_181\n      jumpi\n    tag_180:\n      pop\n      pop\n      pop\n      pop\n      pop\n      swap1\n      pop\n        /* \"10.sol\":3628:3637  uint256 i */\n      0x00\n        /* \"10.sol\":3623:3844  for (uint256 i = 0; i < sigmaData.length; i++) {... */\n    tag_182:\n        /* \"10.sol\":3647:3656  sigmaData */\n      dup2\n        /* \"10.sol\":3647:3663  sigmaData.length */\n      mload\n        /* \"10.sol\":3643:3644  i */\n      dup2\n        /* \"10.sol\":3643:3663  i < sigmaData.length */\n      lt\n        /* \"10.sol\":3623:3844  for (uint256 i = 0; i < sigmaData.length; i++) {... */\n      iszero\n      tag_183\n      jumpi\n        /* \"10.sol\":3684:3703  int256 reducedValue */\n      0x00\n        /* \"10.sol\":3722:3726  1e20 */\n      0x056bc75e2d63100000\n        /* \"10.sol\":3706:3715  sigmaData */\n      dup4\n        /* \"10.sol\":3716:3717  i */\n      dup4\n        /* \"10.sol\":3706:3718  sigmaData[i] */\n      dup2\n      mload\n      dup2\n      lt\n      tag_185\n      jumpi\n      tag_186\n      tag_84\n      jump\t// in\n    tag_186:\n    tag_185:\n      0x20\n      mul\n      0x20\n      add\n      add\n      mload\n        /* \"10.sol\":3706:3726  sigmaData[i]  / 1e20 */\n      tag_187\n      swap2\n      swap1\n      tag_150\n      jump\t// in\n    tag_187:\n        /* \"10.sol\":3684:3726  int256 reducedValue = sigmaData[i]  / 1e20 */\n      swap1\n      pop\n        /* \"10.sol\":3740:3759  int256 squaredValue */\n      0x00\n        /* \"10.sol\":3775:3787  reducedValue */\n      dup2\n        /* \"10.sol\":3762:3774  reducedValue */\n      dup3\n        /* \"10.sol\":3762:3787  reducedValue*reducedValue */\n      tag_188\n      swap2\n      swap1\n      tag_152\n      jump\t// in\n    tag_188:\n        /* \"10.sol\":3740:3787  int256 squaredValue = reducedValue*reducedValue */\n      swap1\n      pop\n        /* \"10.sol\":3821:3833  squaredValue */\n      dup1\n        /* \"10.sol\":3814:3833  sum += squaredValue */\n      dup8\n      tag_189\n      swap2\n      swap1\n      tag_55\n      jump\t// in\n    tag_189:\n      swap7\n      pop\n        /* \"10.sol\":3670:3844  {... */\n      pop\n      pop\n        /* \"10.sol\":3665:3668  i++ */\n      dup1\n      dup1\n      0x01\n      add\n      swap2\n      pop\n      pop\n        /* \"10.sol\":3623:3844  for (uint256 i = 0; i < sigmaData.length; i++) {... */\n      jump(tag_182)\n    tag_183:\n      pop\n        /* \"10.sol\":3859:3868  uint256 i */\n      0x00\n        /* \"10.sol\":3854:4075  for (uint256 i = 0; i < sigmaData.length; i++) {... */\n    tag_190:\n        /* \"10.sol\":3878:3887  sigmaData */\n      dup2\n        /* \"10.sol\":3878:3894  sigmaData.length */\n      mload\n        /* \"10.sol\":3874:3875  i */\n      dup2\n        /* \"10.sol\":3874:3894  i < sigmaData.length */\n      lt\n        /* \"10.sol\":3854:4075  for (uint256 i = 0; i < sigmaData.length; i++) {... */\n      iszero\n      tag_191\n      jumpi\n        /* \"10.sol\":3915:3934  int256 reducedValue */\n      0x00\n        /* \"10.sol\":3953:3957  1e20 */\n      0x056bc75e2d63100000\n        /* \"10.sol\":3937:3946  sigmaData */\n      dup4\n        /* \"10.sol\":3947:3948  i */\n      dup4\n        /* \"10.sol\":3937:3949  sigmaData[i] */\n      dup2\n      mload\n      dup2\n      lt\n      tag_193\n      jumpi\n      tag_194\n      tag_84\n      jump\t// in\n    tag_194:\n    tag_193:\n      0x20\n      mul\n      0x20\n      add\n      add\n      mload\n        /* \"10.sol\":3937:3957  sigmaData[i]  / 1e20 */\n      tag_195\n      swap2\n      swap1\n      tag_150\n      jump\t// in\n    tag_195:\n        /* \"10.sol\":3915:3957  int256 reducedValue = sigmaData[i]  / 1e20 */\n      swap1\n      pop\n        /* \"10.sol\":3971:3990  int256 squaredValue */\n      0x00\n        /* \"10.sol\":4006:4018  reducedValue */\n      dup2\n        /* \"10.sol\":3993:4005  reducedValue */\n      dup3\n        /* \"10.sol\":3993:4018  reducedValue*reducedValue */\n      tag_196\n      swap2\n      swap1\n      tag_152\n      jump\t// in\n    tag_196:\n        /* \"10.sol\":3971:4018  int256 squaredValue = reducedValue*reducedValue */\n      swap1\n      pop\n        /* \"10.sol\":4052:4064  squaredValue */\n      dup1\n        /* \"10.sol\":4045:4064  sum += squaredValue */\n      dup8\n      tag_197\n      swap2\n      swap1\n      tag_55\n      jump\t// in\n    tag_197:\n      swap7\n      pop\n        /* \"10.sol\":3901:4075  {... */\n      pop\n      pop\n        /* \"10.sol\":3896:3899  i++ */\n      dup1\n      dup1\n      0x01\n      add\n      swap2\n      pop\n      pop\n        /* \"10.sol\":3854:4075  for (uint256 i = 0; i < sigmaData.length; i++) {... */\n      jump(tag_190)\n    tag_191:\n      pop\n        /* \"10.sol\":4091:4094  sum */\n      dup4\n        /* \"10.sol\":4084:4094  return sum */\n      swap5\n      pop\n      pop\n      pop\n      pop\n      pop\n        /* \"10.sol\":2424:4101  function calculateAndStoreSquareSum(int256 key) public view returns (int256) {... */\n      swap2\n      swap1\n      pop\n      jump\t// out\n        /* \"10.sol\":540:650  function getBeta(int256 key) public view returns (int256[] memory) {... */\n    tag_40:\n        /* \"10.sol\":590:605  int256[] memory */\n      0x60\n        /* \"10.sol\":624:633  dataStore */\n      0x00\n        /* \"10.sol\":624:638  dataStore[key] */\n      dup1\n        /* \"10.sol\":634:637  key */\n      dup4\n        /* \"10.sol\":624:638  dataStore[key] */\n      dup2\n      mstore\n      0x20\n      add\n      swap1\n      dup2\n      mstore\n      0x20\n      add\n      0x00\n      keccak256\n        /* \"10.sol\":624:643  dataStore[key].beta */\n      0x01\n      add\n        /* \"10.sol\":617:643  return dataStore[key].beta */\n      dup1\n      sload\n      dup1\n      0x20\n      mul\n      0x20\n      add\n      mload(0x40)\n      swap1\n      dup2\n      add\n      0x40\n      mstore\n      dup1\n      swap3\n      swap2\n      swap1\n      dup2\n      dup2\n      mstore\n      0x20\n      add\n      dup3\n      dup1\n      sload\n      dup1\n      iszero\n      tag_199\n      jumpi\n      0x20\n      mul\n      dup3\n      add\n      swap2\n      swap1\n      0x00\n      mstore\n      keccak256(0x00, 0x20)\n      swap1\n    tag_200:\n      dup2\n      sload\n      dup2\n      mstore\n      0x20\n      add\n      swap1\n      0x01\n      add\n      swap1\n      dup1\n      dup4\n      gt\n      tag_200\n      jumpi\n    tag_199:\n      pop\n      pop\n      pop\n      pop\n      pop\n      swap1\n      pop\n        /* \"10.sol\":540:650  function getBeta(int256 key) public view returns (int256[] memory) {... */\n      swap2\n      swap1\n      pop\n      jump\t// out\n        /* \"10.sol\":424:534  function getGrad(int256 key) public view returns (int256[] memory) {... */\n    tag_44:\n        /* \"10.sol\":474:489  int256[] memory */\n      0x60\n        /* \"10.sol\":508:517  dataStore */\n      0x00\n        /* \"10.sol\":508:522  dataStore[key] */\n      dup1\n        /* \"10.sol\":518:521  key */\n      dup4\n        /* \"10.sol\":508:522  dataStore[key] */\n      dup2\n      mstore\n      0x20\n      add\n      swap1\n      dup2\n      mstore\n      0x20\n      add\n      0x00\n      keccak256\n        /* \"10.sol\":508:527  dataStore[key].grad */\n      0x00\n      add\n        /* \"10.sol\":501:527  return dataStore[key].grad */\n      dup1\n      sload\n      dup1\n      0x20\n      mul\n      0x20\n      add\n      mload(0x40)\n      swap1\n      dup2\n      add\n      0x40\n      mstore\n      dup1\n      swap3\n      swap2\n      swap1\n      dup2\n      dup2\n      mstore\n      0x20\n      add\n      dup3\n      dup1\n      sload\n      dup1\n      iszero\n      tag_202\n      jumpi\n      0x20\n      mul\n      dup3\n      add\n      swap2\n      swap1\n      0x00\n      mstore\n      keccak256(0x00, 0x20)\n      swap1\n    tag_203:\n      dup2\n      sload\n      dup2\n      mstore\n      0x20\n      add\n      swap1\n      0x01\n      add\n      swap1\n      dup1\n      dup4\n      gt\n      tag_203\n      jumpi\n    tag_202:\n      pop\n      pop\n      pop\n      pop\n      pop\n      swap1\n      pop\n        /* \"10.sol\":424:534  function getGrad(int256 key) public view returns (int256[] memory) {... */\n      swap2\n      swap1\n      pop\n      jump\t// out\n        /* \"10.sol\":4183:4523  function processAndSumOfSquares(int256[] memory arr) private pure returns (int256) {... */\n    tag_53:\n        /* \"10.sol\":4258:4264  int256 */\n      0x00\n        /* \"10.sol\":4276:4286  int256 sum */\n      dup1\n        /* \"10.sol\":4289:4290  0 */\n      0x00\n        /* \"10.sol\":4276:4290  int256 sum = 0 */\n      swap1\n      pop\n        /* \"10.sol\":4305:4314  uint256 i */\n      0x00\n        /* \"10.sol\":4300:4497  for (uint256 i = 0; i < arr.length; i++) {... */\n    tag_205:\n        /* \"10.sol\":4324:4327  arr */\n      dup4\n        /* \"10.sol\":4324:4334  arr.length */\n      mload\n        /* \"10.sol\":4320:4321  i */\n      dup2\n        /* \"10.sol\":4320:4334  i < arr.length */\n      lt\n        /* \"10.sol\":4300:4497  for (uint256 i = 0; i < arr.length; i++) {... */\n      iszero\n      tag_206\n      jumpi\n        /* \"10.sol\":4355:4376  int256 processedValue */\n      0x00\n        /* \"10.sol\":4388:4394  10**19 */\n      0x8ac7230489e80000\n        /* \"10.sol\":4379:4382  arr */\n      dup6\n        /* \"10.sol\":4383:4384  i */\n      dup4\n        /* \"10.sol\":4379:4385  arr[i] */\n      dup2\n      mload\n      dup2\n      lt\n      tag_208\n      jumpi\n      tag_209\n      tag_84\n      jump\t// in\n    tag_209:\n    tag_208:\n      0x20\n      mul\n      0x20\n      add\n      add\n      mload\n        /* \"10.sol\":4379:4394  arr[i] / 10**19 */\n      tag_210\n      swap2\n      swap1\n      tag_150\n      jump\t// in\n    tag_210:\n        /* \"10.sol\":4355:4394  int256 processedValue = arr[i] / 10**19 */\n      swap1\n      pop\n        /* \"10.sol\":4452:4466  processedValue */\n      dup1\n        /* \"10.sol\":4435:4449  processedValue */\n      dup2\n        /* \"10.sol\":4435:4466  processedValue * processedValue */\n      tag_211\n      swap2\n      swap1\n      tag_152\n      jump\t// in\n    tag_211:\n        /* \"10.sol\":4428:4466  sum += processedValue * processedValue */\n      dup4\n      tag_212\n      swap2\n      swap1\n      tag_55\n      jump\t// in\n    tag_212:\n      swap3\n      pop\n        /* \"10.sol\":4341:4497  {... */\n      pop\n        /* \"10.sol\":4336:4339  i++ */\n      dup1\n      dup1\n      0x01\n      add\n      swap2\n      pop\n      pop\n        /* \"10.sol\":4300:4497  for (uint256 i = 0; i < arr.length; i++) {... */\n      jump(tag_205)\n    tag_206:\n      pop\n        /* \"10.sol\":4513:4516  sum */\n      dup1\n        /* \"10.sol\":4506:4516  return sum */\n      swap2\n      pop\n      pop\n        /* \"10.sol\":4183:4523  function processAndSumOfSquares(int256[] memory arr) private pure returns (int256) {... */\n      swap2\n      swap1\n      pop\n      jump\t// out\n    tag_75:\n      dup3\n      dup1\n      sload\n      dup3\n      dup3\n      sstore\n      swap1\n      0x00\n      mstore\n      keccak256(0x00, 0x20)\n      swap1\n      dup2\n      add\n      swap3\n      dup3\n      iszero\n      tag_213\n      jumpi\n      swap2\n      0x20\n      mul\n      dup3\n      add\n    tag_214:\n      dup3\n      dup2\n      gt\n      iszero\n      tag_215\n      jumpi\n      dup3\n      mload\n      dup3\n      sstore\n      swap2\n      0x20\n      add\n      swap2\n      swap1\n      0x01\n      add\n      swap1\n      jump(tag_214)\n    tag_215:\n    tag_213:\n      pop\n      swap1\n      pop\n      tag_216\n      swap2\n      swap1\n      tag_217\n      jump\t// in\n    tag_216:\n      pop\n      swap1\n      jump\t// out\n    tag_217:\n    tag_218:\n      dup1\n      dup3\n      gt\n      iszero\n      tag_219\n      jumpi\n      0x00\n      dup2\n      0x00\n      swap1\n      sstore\n      pop\n      0x01\n      add\n      jump(tag_218)\n    tag_219:\n      pop\n      swap1\n      jump\t// out\n        /* \"#utility.yul\":7:82   */\n    tag_220:\n        /* \"#utility.yul\":40:46   */\n      0x00\n        /* \"#utility.yul\":73:75   */\n      0x40\n        /* \"#utility.yul\":67:76   */\n      mload\n        /* \"#utility.yul\":57:76   */\n      swap1\n      pop\n        /* \"#utility.yul\":7:82   */\n      swap1\n      jump\t// out\n        /* \"#utility.yul\":88:205   */\n    tag_221:\n        /* \"#utility.yul\":197:198   */\n      0x00\n        /* \"#utility.yul\":194:195   */\n      dup1\n        /* \"#utility.yul\":187:199   */\n      revert\n        /* \"#utility.yul\":211:328   */\n    tag_222:\n        /* \"#utility.yul\":320:321   */\n      0x00\n        /* \"#utility.yul\":317:318   */\n      dup1\n        /* \"#utility.yul\":310:322   */\n      revert\n        /* \"#utility.yul\":334:410   */\n    tag_223:\n        /* \"#utility.yul\":370:377   */\n      0x00\n        /* \"#utility.yul\":399:404   */\n      dup2\n        /* \"#utility.yul\":388:404   */\n      swap1\n      pop\n        /* \"#utility.yul\":334:410   */\n      swap2\n      swap1\n      pop\n      jump\t// out\n        /* \"#utility.yul\":416:536   */\n    tag_224:\n        /* \"#utility.yul\":488:511   */\n      tag_257\n        /* \"#utility.yul\":505:510   */\n      dup2\n        /* \"#utility.yul\":488:511   */\n      tag_223\n      jump\t// in\n    tag_257:\n        /* \"#utility.yul\":481:486   */\n      dup2\n        /* \"#utility.yul\":478:512   */\n      eq\n        /* \"#utility.yul\":468:530   */\n      tag_258\n      jumpi\n        /* \"#utility.yul\":526:527   */\n      0x00\n        /* \"#utility.yul\":523:524   */\n      dup1\n        /* \"#utility.yul\":516:528   */\n      revert\n        /* \"#utility.yul\":468:530   */\n    tag_258:\n        /* \"#utility.yul\":416:536   */\n      pop\n      jump\t// out\n        /* \"#utility.yul\":542:679   */\n    tag_225:\n        /* \"#utility.yul\":587:592   */\n      0x00\n        /* \"#utility.yul\":625:631   */\n      dup2\n        /* \"#utility.yul\":612:632   */\n      calldataload\n        /* \"#utility.yul\":603:632   */\n      swap1\n      pop\n        /* \"#utility.yul\":641:673   */\n      tag_260\n        /* \"#utility.yul\":667:672   */\n      dup2\n        /* \"#utility.yul\":641:673   */\n      tag_224\n      jump\t// in\n    tag_260:\n        /* \"#utility.yul\":542:679   */\n      swap3\n      swap2\n      pop\n      pop\n      jump\t// out\n        /* \"#utility.yul\":685:1155   */\n    tag_13:\n        /* \"#utility.yul\":751:757   */\n      0x00\n        /* \"#utility.yul\":759:765   */\n      dup1\n        /* \"#utility.yul\":808:810   */\n      0x40\n        /* \"#utility.yul\":796:805   */\n      dup4\n        /* \"#utility.yul\":787:794   */\n      dup6\n        /* \"#utility.yul\":783:806   */\n      sub\n        /* \"#utility.yul\":779:811   */\n      slt\n        /* \"#utility.yul\":776:895   */\n      iszero\n      tag_262\n      jumpi\n        /* \"#utility.yul\":814:893   */\n      tag_263\n      tag_221\n      jump\t// in\n    tag_263:\n        /* \"#utility.yul\":776:895   */\n    tag_262:\n        /* \"#utility.yul\":934:935   */\n      0x00\n        /* \"#utility.yul\":959:1011   */\n      tag_264\n        /* \"#utility.yul\":1003:1010   */\n      dup6\n        /* \"#utility.yul\":994:1000   */\n      dup3\n        /* \"#utility.yul\":983:992   */\n      dup7\n        /* \"#utility.yul\":979:1001   */\n      add\n        /* \"#utility.yul\":959:1011   */\n      tag_225\n      jump\t// in\n    tag_264:\n        /* \"#utility.yul\":949:1011   */\n      swap3\n      pop\n        /* \"#utility.yul\":905:1021   */\n      pop\n        /* \"#utility.yul\":1060:1062   */\n      0x20\n        /* \"#utility.yul\":1086:1138   */\n      tag_265\n        /* \"#utility.yul\":1130:1137   */\n      dup6\n        /* \"#utility.yul\":1121:1127   */\n      dup3\n        /* \"#utility.yul\":1110:1119   */\n      dup7\n        /* \"#utility.yul\":1106:1128   */\n      add\n        /* \"#utility.yul\":1086:1138   */\n      tag_225\n      jump\t// in\n    tag_265:\n        /* \"#utility.yul\":1076:1138   */\n      swap2\n      pop\n        /* \"#utility.yul\":1031:1148   */\n      pop\n        /* \"#utility.yul\":685:1155   */\n      swap3\n      pop\n      swap3\n      swap1\n      pop\n      jump\t// out\n        /* \"#utility.yul\":1161:1276   */\n    tag_226:\n        /* \"#utility.yul\":1246:1269   */\n      tag_267\n        /* \"#utility.yul\":1263:1268   */\n      dup2\n        /* \"#utility.yul\":1246:1269   */\n      tag_223\n      jump\t// in\n    tag_267:\n        /* \"#utility.yul\":1241:1244   */\n      dup3\n        /* \"#utility.yul\":1234:1270   */\n      mstore\n        /* \"#utility.yul\":1161:1276   */\n      pop\n      pop\n      jump\t// out\n        /* \"#utility.yul\":1282:1712   */\n    tag_16:\n        /* \"#utility.yul\":1425:1429   */\n      0x00\n        /* \"#utility.yul\":1463:1465   */\n      0x60\n        /* \"#utility.yul\":1452:1461   */\n      dup3\n        /* \"#utility.yul\":1448:1466   */\n      add\n        /* \"#utility.yul\":1440:1466   */\n      swap1\n      pop\n        /* \"#utility.yul\":1476:1545   */\n      tag_269\n        /* \"#utility.yul\":1542:1543   */\n      0x00\n        /* \"#utility.yul\":1531:1540   */\n      dup4\n        /* \"#utility.yul\":1527:1544   */\n      add\n        /* \"#utility.yul\":1518:1524   */\n      dup7\n        /* \"#utility.yul\":1476:1545   */\n      tag_226\n      jump\t// in\n    tag_269:\n        /* \"#utility.yul\":1555:1625   */\n      tag_270\n        /* \"#utility.yul\":1621:1623   */\n      0x20\n        /* \"#utility.yul\":1610:1619   */\n      dup4\n        /* \"#utility.yul\":1606:1624   */\n      add\n        /* \"#utility.yul\":1597:1603   */\n      dup6\n        /* \"#utility.yul\":1555:1625   */\n      tag_226\n      jump\t// in\n    tag_270:\n        /* \"#utility.yul\":1635:1705   */\n      tag_271\n        /* \"#utility.yul\":1701:1703   */\n      0x40\n        /* \"#utility.yul\":1690:1699   */\n      dup4\n        /* \"#utility.yul\":1686:1704   */\n      add\n        /* \"#utility.yul\":1677:1683   */\n      dup5\n        /* \"#utility.yul\":1635:1705   */\n      tag_226\n      jump\t// in\n    tag_271:\n        /* \"#utility.yul\":1282:1712   */\n      swap5\n      swap4\n      pop\n      pop\n      pop\n      pop\n      jump\t// out\n        /* \"#utility.yul\":1718:2045   */\n    tag_19:\n        /* \"#utility.yul\":1776:1782   */\n      0x00\n        /* \"#utility.yul\":1825:1827   */\n      0x20\n        /* \"#utility.yul\":1813:1822   */\n      dup3\n        /* \"#utility.yul\":1804:1811   */\n      dup5\n        /* \"#utility.yul\":1800:1823   */\n      sub\n        /* \"#utility.yul\":1796:1828   */\n      slt\n        /* \"#utility.yul\":1793:1912   */\n      iszero\n      tag_273\n      jumpi\n        /* \"#utility.yul\":1831:1910   */\n      tag_274\n      tag_221\n      jump\t// in\n    tag_274:\n        /* \"#utility.yul\":1793:1912   */\n    tag_273:\n        /* \"#utility.yul\":1951:1952   */\n      0x00\n        /* \"#utility.yul\":1976:2028   */\n      tag_275\n        /* \"#utility.yul\":2020:2027   */\n      dup5\n        /* \"#utility.yul\":2011:2017   */\n      dup3\n        /* \"#utility.yul\":2000:2009   */\n      dup6\n        /* \"#utility.yul\":1996:2018   */\n      add\n        /* \"#utility.yul\":1976:2028   */\n      tag_225\n      jump\t// in\n    tag_275:\n        /* \"#utility.yul\":1966:2028   */\n      swap2\n      pop\n        /* \"#utility.yul\":1922:2038   */\n      pop\n        /* \"#utility.yul\":1718:2045   */\n      swap3\n      swap2\n      pop\n      pop\n      jump\t// out\n        /* \"#utility.yul\":2051:2164   */\n    tag_227:\n        /* \"#utility.yul\":2117:2123   */\n      0x00\n        /* \"#utility.yul\":2151:2156   */\n      dup2\n        /* \"#utility.yul\":2145:2157   */\n      mload\n        /* \"#utility.yul\":2135:2157   */\n      swap1\n      pop\n        /* \"#utility.yul\":2051:2164   */\n      swap2\n      swap1\n      pop\n      jump\t// out\n        /* \"#utility.yul\":2170:2353   */\n    tag_228:\n        /* \"#utility.yul\":2268:2279   */\n      0x00\n        /* \"#utility.yul\":2302:2308   */\n      dup3\n        /* \"#utility.yul\":2297:2300   */\n      dup3\n        /* \"#utility.yul\":2290:2309   */\n      mstore\n        /* \"#utility.yul\":2342:2346   */\n      0x20\n        /* \"#utility.yul\":2337:2340   */\n      dup3\n        /* \"#utility.yul\":2333:2347   */\n      add\n        /* \"#utility.yul\":2318:2347   */\n      swap1\n      pop\n        /* \"#utility.yul\":2170:2353   */\n      swap3\n      swap2\n      pop\n      pop\n      jump\t// out\n        /* \"#utility.yul\":2359:2490   */\n    tag_229:\n        /* \"#utility.yul\":2425:2429   */\n      0x00\n        /* \"#utility.yul\":2448:2451   */\n      dup2\n        /* \"#utility.yul\":2440:2451   */\n      swap1\n      pop\n        /* \"#utility.yul\":2478:2482   */\n      0x20\n        /* \"#utility.yul\":2473:2476   */\n      dup3\n        /* \"#utility.yul\":2469:2483   */\n      add\n        /* \"#utility.yul\":2461:2483   */\n      swap1\n      pop\n        /* \"#utility.yul\":2359:2490   */\n      swap2\n      swap1\n      pop\n      jump\t// out\n        /* \"#utility.yul\":2496:2601   */\n    tag_230:\n        /* \"#utility.yul\":2571:2594   */\n      tag_280\n        /* \"#utility.yul\":2588:2593   */\n      dup2\n        /* \"#utility.yul\":2571:2594   */\n      tag_223\n      jump\t// in\n    tag_280:\n        /* \"#utility.yul\":2566:2569   */\n      dup3\n        /* \"#utility.yul\":2559:2595   */\n      mstore\n        /* \"#utility.yul\":2496:2601   */\n      pop\n      pop\n      jump\t// out\n        /* \"#utility.yul\":2607:2782   */\n    tag_231:\n        /* \"#utility.yul\":2674:2684   */\n      0x00\n        /* \"#utility.yul\":2695:2739   */\n      tag_282\n        /* \"#utility.yul\":2735:2738   */\n      dup4\n        /* \"#utility.yul\":2727:2733   */\n      dup4\n        /* \"#utility.yul\":2695:2739   */\n      tag_230\n      jump\t// in\n    tag_282:\n        /* \"#utility.yul\":2771:2775   */\n      0x20\n        /* \"#utility.yul\":2766:2769   */\n      dup4\n        /* \"#utility.yul\":2762:2776   */\n      add\n        /* \"#utility.yul\":2748:2776   */\n      swap1\n      pop\n        /* \"#utility.yul\":2607:2782   */\n      swap3\n      swap2\n      pop\n      pop\n      jump\t// out\n        /* \"#utility.yul\":2788:2900   */\n    tag_232:\n        /* \"#utility.yul\":2857:2861   */\n      0x00\n        /* \"#utility.yul\":2889:2893   */\n      0x20\n        /* \"#utility.yul\":2884:2887   */\n      dup3\n        /* \"#utility.yul\":2880:2894   */\n      add\n        /* \"#utility.yul\":2872:2894   */\n      swap1\n      pop\n        /* \"#utility.yul\":2788:2900   */\n      swap2\n      swap1\n      pop\n      jump\t// out\n        /* \"#utility.yul\":2934:3658   */\n    tag_233:\n        /* \"#utility.yul\":3051:3054   */\n      0x00\n        /* \"#utility.yul\":3080:3133   */\n      tag_285\n        /* \"#utility.yul\":3127:3132   */\n      dup3\n        /* \"#utility.yul\":3080:3133   */\n      tag_227\n      jump\t// in\n    tag_285:\n        /* \"#utility.yul\":3149:3234   */\n      tag_286\n        /* \"#utility.yul\":3227:3233   */\n      dup2\n        /* \"#utility.yul\":3222:3225   */\n      dup6\n        /* \"#utility.yul\":3149:3234   */\n      tag_228\n      jump\t// in\n    tag_286:\n        /* \"#utility.yul\":3142:3234   */\n      swap4\n      pop\n        /* \"#utility.yul\":3258:3313   */\n      tag_287\n        /* \"#utility.yul\":3307:3312   */\n      dup4\n        /* \"#utility.yul\":3258:3313   */\n      tag_229\n      jump\t// in\n    tag_287:\n        /* \"#utility.yul\":3336:3343   */\n      dup1\n        /* \"#utility.yul\":3367:3368   */\n      0x00\n        /* \"#utility.yul\":3352:3633   */\n    tag_288:\n        /* \"#utility.yul\":3377:3383   */\n      dup4\n        /* \"#utility.yul\":3374:3375   */\n      dup2\n        /* \"#utility.yul\":3371:3384   */\n      lt\n        /* \"#utility.yul\":3352:3633   */\n      iszero\n      tag_290\n      jumpi\n        /* \"#utility.yul\":3453:3459   */\n      dup2\n        /* \"#utility.yul\":3447:3460   */\n      mload\n        /* \"#utility.yul\":3480:3541   */\n      tag_291\n        /* \"#utility.yul\":3537:3540   */\n      dup9\n        /* \"#utility.yul\":3522:3535   */\n      dup3\n        /* \"#utility.yul\":3480:3541   */\n      tag_231\n      jump\t// in\n    tag_291:\n        /* \"#utility.yul\":3473:3541   */\n      swap8\n      pop\n        /* \"#utility.yul\":3564:3623   */\n      tag_292\n        /* \"#utility.yul\":3616:3622   */\n      dup4\n        /* \"#utility.yul\":3564:3623   */\n      tag_232\n      jump\t// in\n    tag_292:\n        /* \"#utility.yul\":3554:3623   */\n      swap3\n      pop\n        /* \"#utility.yul\":3412:3633   */\n      pop\n        /* \"#utility.yul\":3399:3400   */\n      0x01\n        /* \"#utility.yul\":3396:3397   */\n      dup2\n        /* \"#utility.yul\":3392:3401   */\n      add\n        /* \"#utility.yul\":3387:3401   */\n      swap1\n      pop\n        /* \"#utility.yul\":3352:3633   */\n      jump(tag_288)\n    tag_290:\n        /* \"#utility.yul\":3356:3370   */\n      pop\n        /* \"#utility.yul\":3649:3652   */\n      dup6\n        /* \"#utility.yul\":3642:3652   */\n      swap4\n      pop\n        /* \"#utility.yul\":3056:3658   */\n      pop\n      pop\n      pop\n        /* \"#utility.yul\":2934:3658   */\n      swap3\n      swap2\n      pop\n      pop\n      jump\t// out\n        /* \"#utility.yul\":3664:4033   */\n    tag_22:\n        /* \"#utility.yul\":3805:3809   */\n      0x00\n        /* \"#utility.yul\":3843:3845   */\n      0x20\n        /* \"#utility.yul\":3832:3841   */\n      dup3\n        /* \"#utility.yul\":3828:3846   */\n      add\n        /* \"#utility.yul\":3820:3846   */\n      swap1\n      pop\n        /* \"#utility.yul\":3892:3901   */\n      dup2\n        /* \"#utility.yul\":3886:3890   */\n      dup2\n        /* \"#utility.yul\":3882:3902   */\n      sub\n        /* \"#utility.yul\":3878:3879   */\n      0x00\n        /* \"#utility.yul\":3867:3876   */\n      dup4\n        /* \"#utility.yul\":3863:3880   */\n      add\n        /* \"#utility.yul\":3856:3903   */\n      mstore\n        /* \"#utility.yul\":3920:4026   */\n      tag_294\n        /* \"#utility.yul\":4021:4025   */\n      dup2\n        /* \"#utility.yul\":4012:4018   */\n      dup5\n        /* \"#utility.yul\":3920:4026   */\n      tag_233\n      jump\t// in\n    tag_294:\n        /* \"#utility.yul\":3912:4026   */\n      swap1\n      pop\n        /* \"#utility.yul\":3664:4033   */\n      swap3\n      swap2\n      pop\n      pop\n      jump\t// out\n        /* \"#utility.yul\":4039:4156   */\n    tag_234:\n        /* \"#utility.yul\":4148:4149   */\n      0x00\n        /* \"#utility.yul\":4145:4146   */\n      dup1\n        /* \"#utility.yul\":4138:4150   */\n      revert\n        /* \"#utility.yul\":4162:4264   */\n    tag_235:\n        /* \"#utility.yul\":4203:4209   */\n      0x00\n        /* \"#utility.yul\":4254:4256   */\n      0x1f\n        /* \"#utility.yul\":4250:4257   */\n      not\n        /* \"#utility.yul\":4245:4247   */\n      0x1f\n        /* \"#utility.yul\":4238:4243   */\n      dup4\n        /* \"#utility.yul\":4234:4248   */\n      add\n        /* \"#utility.yul\":4230:4258   */\n      and\n        /* \"#utility.yul\":4220:4258   */\n      swap1\n      pop\n        /* \"#utility.yul\":4162:4264   */\n      swap2\n      swap1\n      pop\n      jump\t// out\n        /* \"#utility.yul\":4270:4450   */\n    tag_103:\n        /* \"#utility.yul\":4318:4395   */\n      0x4e487b7100000000000000000000000000000000000000000000000000000000\n        /* \"#utility.yul\":4315:4316   */\n      0x00\n        /* \"#utility.yul\":4308:4396   */\n      mstore\n        /* \"#utility.yul\":4415:4419   */\n      0x41\n        /* \"#utility.yul\":4412:4413   */\n      0x04\n        /* \"#utility.yul\":4405:4420   */\n      mstore\n        /* \"#utility.yul\":4439:4443   */\n      0x24\n        /* \"#utility.yul\":4436:4437   */\n      0x00\n        /* \"#utility.yul\":4429:4444   */\n      revert\n        /* \"#utility.yul\":4456:4737   */\n    tag_236:\n        /* \"#utility.yul\":4539:4566   */\n      tag_299\n        /* \"#utility.yul\":4561:4565   */\n      dup3\n        /* \"#utility.yul\":4539:4566   */\n      tag_235\n      jump\t// in\n    tag_299:\n        /* \"#utility.yul\":4531:4537   */\n      dup2\n        /* \"#utility.yul\":4527:4567   */\n      add\n        /* \"#utility.yul\":4669:4675   */\n      dup2\n        /* \"#utility.yul\":4657:4667   */\n      dup2\n        /* \"#utility.yul\":4654:4676   */\n      lt\n        /* \"#utility.yul\":4633:4651   */\n      0xffffffffffffffff\n        /* \"#utility.yul\":4621:4631   */\n      dup3\n        /* \"#utility.yul\":4618:4652   */\n      gt\n        /* \"#utility.yul\":4615:4677   */\n      or\n        /* \"#utility.yul\":4612:4700   */\n      iszero\n      tag_300\n      jumpi\n        /* \"#utility.yul\":4680:4698   */\n      tag_301\n      tag_103\n      jump\t// in\n    tag_301:\n        /* \"#utility.yul\":4612:4700   */\n    tag_300:\n        /* \"#utility.yul\":4720:4730   */\n      dup1\n        /* \"#utility.yul\":4716:4718   */\n      0x40\n        /* \"#utility.yul\":4709:4731   */\n      mstore\n        /* \"#utility.yul\":4499:4737   */\n      pop\n        /* \"#utility.yul\":4456:4737   */\n      pop\n      pop\n      jump\t// out\n        /* \"#utility.yul\":4743:4872   */\n    tag_237:\n        /* \"#utility.yul\":4777:4783   */\n      0x00\n        /* \"#utility.yul\":4804:4824   */\n      tag_303\n      tag_220\n      jump\t// in\n    tag_303:\n        /* \"#utility.yul\":4794:4824   */\n      swap1\n      pop\n        /* \"#utility.yul\":4833:4866   */\n      tag_304\n        /* \"#utility.yul\":4861:4865   */\n      dup3\n        /* \"#utility.yul\":4853:4859   */\n      dup3\n        /* \"#utility.yul\":4833:4866   */\n      tag_236\n      jump\t// in\n    tag_304:\n        /* \"#utility.yul\":4743:4872   */\n      swap2\n      swap1\n      pop\n      jump\t// out\n        /* \"#utility.yul\":4878:5188   */\n    tag_238:\n        /* \"#utility.yul\":4954:4958   */\n      0x00\n        /* \"#utility.yul\":5044:5062   */\n      0xffffffffffffffff\n        /* \"#utility.yul\":5036:5042   */\n      dup3\n        /* \"#utility.yul\":5033:5063   */\n      gt\n        /* \"#utility.yul\":5030:5086   */\n      iszero\n      tag_306\n      jumpi\n        /* \"#utility.yul\":5066:5084   */\n      tag_307\n      tag_103\n      jump\t// in\n    tag_307:\n        /* \"#utility.yul\":5030:5086   */\n    tag_306:\n        /* \"#utility.yul\":5116:5120   */\n      0x20\n        /* \"#utility.yul\":5108:5114   */\n      dup3\n        /* \"#utility.yul\":5104:5121   */\n      mul\n        /* \"#utility.yul\":5096:5121   */\n      swap1\n      pop\n        /* \"#utility.yul\":5176:5180   */\n      0x20\n        /* \"#utility.yul\":5170:5174   */\n      dup2\n        /* \"#utility.yul\":5166:5181   */\n      add\n        /* \"#utility.yul\":5158:5181   */\n      swap1\n      pop\n        /* \"#utility.yul\":4878:5188   */\n      swap2\n      swap1\n      pop\n      jump\t// out\n        /* \"#utility.yul\":5194:5311   */\n    tag_239:\n        /* \"#utility.yul\":5303:5304   */\n      0x00\n        /* \"#utility.yul\":5300:5301   */\n      dup1\n        /* \"#utility.yul\":5293:5305   */\n      revert\n        /* \"#utility.yul\":5333:6040   */\n    tag_240:\n        /* \"#utility.yul\":5428:5433   */\n      0x00\n        /* \"#utility.yul\":5453:5533   */\n      tag_310\n        /* \"#utility.yul\":5469:5532   */\n      tag_311\n        /* \"#utility.yul\":5525:5531   */\n      dup5\n        /* \"#utility.yul\":5469:5532   */\n      tag_238\n      jump\t// in\n    tag_311:\n        /* \"#utility.yul\":5453:5533   */\n      tag_237\n      jump\t// in\n    tag_310:\n        /* \"#utility.yul\":5444:5533   */\n      swap1\n      pop\n        /* \"#utility.yul\":5553:5558   */\n      dup1\n        /* \"#utility.yul\":5582:5588   */\n      dup4\n        /* \"#utility.yul\":5575:5580   */\n      dup3\n        /* \"#utility.yul\":5568:5589   */\n      mstore\n        /* \"#utility.yul\":5616:5620   */\n      0x20\n        /* \"#utility.yul\":5609:5614   */\n      dup3\n        /* \"#utility.yul\":5605:5621   */\n      add\n        /* \"#utility.yul\":5598:5621   */\n      swap1\n      pop\n        /* \"#utility.yul\":5669:5673   */\n      0x20\n        /* \"#utility.yul\":5661:5667   */\n      dup5\n        /* \"#utility.yul\":5657:5674   */\n      mul\n        /* \"#utility.yul\":5649:5655   */\n      dup4\n        /* \"#utility.yul\":5645:5675   */\n      add\n        /* \"#utility.yul\":5698:5701   */\n      dup6\n        /* \"#utility.yul\":5690:5696   */\n      dup2\n        /* \"#utility.yul\":5687:5702   */\n      gt\n        /* \"#utility.yul\":5684:5806   */\n      iszero\n      tag_312\n      jumpi\n        /* \"#utility.yul\":5717:5796   */\n      tag_313\n      tag_239\n      jump\t// in\n    tag_313:\n        /* \"#utility.yul\":5684:5806   */\n    tag_312:\n        /* \"#utility.yul\":5832:5838   */\n      dup4\n        /* \"#utility.yul\":5815:6034   */\n    tag_314:\n        /* \"#utility.yul\":5849:5855   */\n      dup2\n        /* \"#utility.yul\":5844:5847   */\n      dup2\n        /* \"#utility.yul\":5841:5856   */\n      lt\n        /* \"#utility.yul\":5815:6034   */\n      iszero\n      tag_316\n      jumpi\n        /* \"#utility.yul\":5924:5927   */\n      dup1\n        /* \"#utility.yul\":5953:5989   */\n      tag_317\n        /* \"#utility.yul\":5985:5988   */\n      dup9\n        /* \"#utility.yul\":5973:5983   */\n      dup3\n        /* \"#utility.yul\":5953:5989   */\n      tag_225\n      jump\t// in\n    tag_317:\n        /* \"#utility.yul\":5948:5951   */\n      dup5\n        /* \"#utility.yul\":5941:5990   */\n      mstore\n        /* \"#utility.yul\":6019:6023   */\n      0x20\n        /* \"#utility.yul\":6014:6017   */\n      dup5\n        /* \"#utility.yul\":6010:6024   */\n      add\n        /* \"#utility.yul\":6003:6024   */\n      swap4\n      pop\n        /* \"#utility.yul\":5891:6034   */\n      pop\n        /* \"#utility.yul\":5875:5879   */\n      0x20\n        /* \"#utility.yul\":5870:5873   */\n      dup2\n        /* \"#utility.yul\":5866:5880   */\n      add\n        /* \"#utility.yul\":5859:5880   */\n      swap1\n      pop\n        /* \"#utility.yul\":5815:6034   */\n      jump(tag_314)\n    tag_316:\n        /* \"#utility.yul\":5819:5840   */\n      pop\n        /* \"#utility.yul\":5434:6040   */\n      pop\n      pop\n        /* \"#utility.yul\":5333:6040   */\n      swap4\n      swap3\n      pop\n      pop\n      pop\n      jump\t// out\n        /* \"#utility.yul\":6062:6430   */\n    tag_241:\n        /* \"#utility.yul\":6132:6137   */\n      0x00\n        /* \"#utility.yul\":6181:6184   */\n      dup3\n        /* \"#utility.yul\":6174:6178   */\n      0x1f\n        /* \"#utility.yul\":6166:6172   */\n      dup4\n        /* \"#utility.yul\":6162:6179   */\n      add\n        /* \"#utility.yul\":6158:6185   */\n      slt\n        /* \"#utility.yul\":6148:6270   */\n      tag_319\n      jumpi\n        /* \"#utility.yul\":6189:6268   */\n      tag_320\n      tag_234\n      jump\t// in\n    tag_320:\n        /* \"#utility.yul\":6148:6270   */\n    tag_319:\n        /* \"#utility.yul\":6306:6312   */\n      dup2\n        /* \"#utility.yul\":6293:6313   */\n      calldataload\n        /* \"#utility.yul\":6331:6424   */\n      tag_321\n        /* \"#utility.yul\":6420:6423   */\n      dup5\n        /* \"#utility.yul\":6412:6418   */\n      dup3\n        /* \"#utility.yul\":6405:6409   */\n      0x20\n        /* \"#utility.yul\":6397:6403   */\n      dup7\n        /* \"#utility.yul\":6393:6410   */\n      add\n        /* \"#utility.yul\":6331:6424   */\n      tag_240\n      jump\t// in\n    tag_321:\n        /* \"#utility.yul\":6322:6424   */\n      swap2\n      pop\n        /* \"#utility.yul\":6138:6430   */\n      pop\n        /* \"#utility.yul\":6062:6430   */\n      swap3\n      swap2\n      pop\n      pop\n      jump\t// out\n        /* \"#utility.yul\":6436:7823   */\n    tag_25:\n        /* \"#utility.yul\":6593:6599   */\n      0x00\n        /* \"#utility.yul\":6601:6607   */\n      dup1\n        /* \"#utility.yul\":6609:6615   */\n      0x00\n        /* \"#utility.yul\":6617:6623   */\n      dup1\n        /* \"#utility.yul\":6666:6669   */\n      0x80\n        /* \"#utility.yul\":6654:6663   */\n      dup6\n        /* \"#utility.yul\":6645:6652   */\n      dup8\n        /* \"#utility.yul\":6641:6664   */\n      sub\n        /* \"#utility.yul\":6637:6670   */\n      slt\n        /* \"#utility.yul\":6634:6754   */\n      iszero\n      tag_323\n      jumpi\n        /* \"#utility.yul\":6673:6752   */\n      tag_324\n      tag_221\n      jump\t// in\n    tag_324:\n        /* \"#utility.yul\":6634:6754   */\n    tag_323:\n        /* \"#utility.yul\":6793:6794   */\n      0x00\n        /* \"#utility.yul\":6818:6870   */\n      tag_325\n        /* \"#utility.yul\":6862:6869   */\n      dup8\n        /* \"#utility.yul\":6853:6859   */\n      dup3\n        /* \"#utility.yul\":6842:6851   */\n      dup9\n        /* \"#utility.yul\":6838:6860   */\n      add\n        /* \"#utility.yul\":6818:6870   */\n      tag_225\n      jump\t// in\n    tag_325:\n        /* \"#utility.yul\":6808:6870   */\n      swap5\n      pop\n        /* \"#utility.yul\":6764:6880   */\n      pop\n        /* \"#utility.yul\":6947:6949   */\n      0x20\n        /* \"#utility.yul\":6936:6945   */\n      dup6\n        /* \"#utility.yul\":6932:6950   */\n      add\n        /* \"#utility.yul\":6919:6951   */\n      calldataload\n        /* \"#utility.yul\":6978:6996   */\n      0xffffffffffffffff\n        /* \"#utility.yul\":6970:6976   */\n      dup2\n        /* \"#utility.yul\":6967:6997   */\n      gt\n        /* \"#utility.yul\":6964:7081   */\n      iszero\n      tag_326\n      jumpi\n        /* \"#utility.yul\":7000:7079   */\n      tag_327\n      tag_222\n      jump\t// in\n    tag_327:\n        /* \"#utility.yul\":6964:7081   */\n    tag_326:\n        /* \"#utility.yul\":7105:7182   */\n      tag_328\n        /* \"#utility.yul\":7174:7181   */\n      dup8\n        /* \"#utility.yul\":7165:7171   */\n      dup3\n        /* \"#utility.yul\":7154:7163   */\n      dup9\n        /* \"#utility.yul\":7150:7172   */\n      add\n        /* \"#utility.yul\":7105:7182   */\n      tag_241\n      jump\t// in\n    tag_328:\n        /* \"#utility.yul\":7095:7182   */\n      swap4\n      pop\n        /* \"#utility.yul\":6890:7192   */\n      pop\n        /* \"#utility.yul\":7259:7261   */\n      0x40\n        /* \"#utility.yul\":7248:7257   */\n      dup6\n        /* \"#utility.yul\":7244:7262   */\n      add\n        /* \"#utility.yul\":7231:7263   */\n      calldataload\n        /* \"#utility.yul\":7290:7308   */\n      0xffffffffffffffff\n        /* \"#utility.yul\":7282:7288   */\n      dup2\n        /* \"#utility.yul\":7279:7309   */\n      gt\n        /* \"#utility.yul\":7276:7393   */\n      iszero\n      tag_329\n      jumpi\n        /* \"#utility.yul\":7312:7391   */\n      tag_330\n      tag_222\n      jump\t// in\n    tag_330:\n        /* \"#utility.yul\":7276:7393   */\n    tag_329:\n        /* \"#utility.yul\":7417:7494   */\n      tag_331\n        /* \"#utility.yul\":7486:7493   */\n      dup8\n        /* \"#utility.yul\":7477:7483   */\n      dup3\n        /* \"#utility.yul\":7466:7475   */\n      dup9\n        /* \"#utility.yul\":7462:7484   */\n      add\n        /* \"#utility.yul\":7417:7494   */\n      tag_241\n      jump\t// in\n    tag_331:\n        /* \"#utility.yul\":7407:7494   */\n      swap3\n      pop\n        /* \"#utility.yul\":7202:7504   */\n      pop\n        /* \"#utility.yul\":7571:7573   */\n      0x60\n        /* \"#utility.yul\":7560:7569   */\n      dup6\n        /* \"#utility.yul\":7556:7574   */\n      add\n        /* \"#utility.yul\":7543:7575   */\n      calldataload\n        /* \"#utility.yul\":7602:7620   */\n      0xffffffffffffffff\n        /* \"#utility.yul\":7594:7600   */\n      dup2\n        /* \"#utility.yul\":7591:7621   */\n      gt\n        /* \"#utility.yul\":7588:7705   */\n      iszero\n      tag_332\n      jumpi\n        /* \"#utility.yul\":7624:7703   */\n      tag_333\n      tag_222\n      jump\t// in\n    tag_333:\n        /* \"#utility.yul\":7588:7705   */\n    tag_332:\n        /* \"#utility.yul\":7729:7806   */\n      tag_334\n        /* \"#utility.yul\":7798:7805   */\n      dup8\n        /* \"#utility.yul\":7789:7795   */\n      dup3\n        /* \"#utility.yul\":7778:7787   */\n      dup9\n        /* \"#utility.yul\":7774:7796   */\n      add\n        /* \"#utility.yul\":7729:7806   */\n      tag_241\n      jump\t// in\n    tag_334:\n        /* \"#utility.yul\":7719:7806   */\n      swap2\n      pop\n        /* \"#utility.yul\":7514:7816   */\n      pop\n        /* \"#utility.yul\":6436:7823   */\n      swap3\n      swap6\n      swap2\n      swap5\n      pop\n      swap3\n      pop\n      jump\t// out\n        /* \"#utility.yul\":7829:8366   */\n    tag_29:\n        /* \"#utility.yul\":7912:7918   */\n      0x00\n        /* \"#utility.yul\":7961:7963   */\n      0x20\n        /* \"#utility.yul\":7949:7958   */\n      dup3\n        /* \"#utility.yul\":7940:7947   */\n      dup5\n        /* \"#utility.yul\":7936:7959   */\n      sub\n        /* \"#utility.yul\":7932:7964   */\n      slt\n        /* \"#utility.yul\":7929:8048   */\n      iszero\n      tag_336\n      jumpi\n        /* \"#utility.yul\":7967:8046   */\n      tag_337\n      tag_221\n      jump\t// in\n    tag_337:\n        /* \"#utility.yul\":7929:8048   */\n    tag_336:\n        /* \"#utility.yul\":8115:8116   */\n      0x00\n        /* \"#utility.yul\":8104:8113   */\n      dup3\n        /* \"#utility.yul\":8100:8117   */\n      add\n        /* \"#utility.yul\":8087:8118   */\n      calldataload\n        /* \"#utility.yul\":8145:8163   */\n      0xffffffffffffffff\n        /* \"#utility.yul\":8137:8143   */\n      dup2\n        /* \"#utility.yul\":8134:8164   */\n      gt\n        /* \"#utility.yul\":8131:8248   */\n      iszero\n      tag_338\n      jumpi\n        /* \"#utility.yul\":8167:8246   */\n      tag_339\n      tag_222\n      jump\t// in\n    tag_339:\n        /* \"#utility.yul\":8131:8248   */\n    tag_338:\n        /* \"#utility.yul\":8272:8349   */\n      tag_340\n        /* \"#utility.yul\":8341:8348   */\n      dup5\n        /* \"#utility.yul\":8332:8338   */\n      dup3\n        /* \"#utility.yul\":8321:8330   */\n      dup6\n        /* \"#utility.yul\":8317:8339   */\n      add\n        /* \"#utility.yul\":8272:8349   */\n      tag_241\n      jump\t// in\n    tag_340:\n        /* \"#utility.yul\":8262:8349   */\n      swap2\n      pop\n        /* \"#utility.yul\":8058:8359   */\n      pop\n        /* \"#utility.yul\":7829:8366   */\n      swap3\n      swap2\n      pop\n      pop\n      jump\t// out\n        /* \"#utility.yul\":8372:9255   */\n    tag_32:\n        /* \"#utility.yul\":8665:8669   */\n      0x00\n        /* \"#utility.yul\":8703:8705   */\n      0x60\n        /* \"#utility.yul\":8692:8701   */\n      dup3\n        /* \"#utility.yul\":8688:8706   */\n      add\n        /* \"#utility.yul\":8680:8706   */\n      swap1\n      pop\n        /* \"#utility.yul\":8752:8761   */\n      dup2\n        /* \"#utility.yul\":8746:8750   */\n      dup2\n        /* \"#utility.yul\":8742:8762   */\n      sub\n        /* \"#utility.yul\":8738:8739   */\n      0x00\n        /* \"#utility.yul\":8727:8736   */\n      dup4\n        /* \"#utility.yul\":8723:8740   */\n      add\n        /* \"#utility.yul\":8716:8763   */\n      mstore\n        /* \"#utility.yul\":8780:8886   */\n      tag_342\n        /* \"#utility.yul\":8881:8885   */\n      dup2\n        /* \"#utility.yul\":8872:8878   */\n      dup7\n        /* \"#utility.yul\":8780:8886   */\n      tag_233\n      jump\t// in\n    tag_342:\n        /* \"#utility.yul\":8772:8886   */\n      swap1\n      pop\n        /* \"#utility.yul\":8933:8942   */\n      dup2\n        /* \"#utility.yul\":8927:8931   */\n      dup2\n        /* \"#utility.yul\":8923:8943   */\n      sub\n        /* \"#utility.yul\":8918:8920   */\n      0x20\n        /* \"#utility.yul\":8907:8916   */\n      dup4\n        /* \"#utility.yul\":8903:8921   */\n      add\n        /* \"#utility.yul\":8896:8944   */\n      mstore\n        /* \"#utility.yul\":8961:9067   */\n      tag_343\n        /* \"#utility.yul\":9062:9066   */\n      dup2\n        /* \"#utility.yul\":9053:9059   */\n      dup6\n        /* \"#utility.yul\":8961:9067   */\n      tag_233\n      jump\t// in\n    tag_343:\n        /* \"#utility.yul\":8953:9067   */\n      swap1\n      pop\n        /* \"#utility.yul\":9114:9123   */\n      dup2\n        /* \"#utility.yul\":9108:9112   */\n      dup2\n        /* \"#utility.yul\":9104:9124   */\n      sub\n        /* \"#utility.yul\":9099:9101   */\n      0x40\n        /* \"#utility.yul\":9088:9097   */\n      dup4\n        /* \"#utility.yul\":9084:9102   */\n      add\n        /* \"#utility.yul\":9077:9125   */\n      mstore\n        /* \"#utility.yul\":9142:9248   */\n      tag_344\n        /* \"#utility.yul\":9243:9247   */\n      dup2\n        /* \"#utility.yul\":9234:9240   */\n      dup5\n        /* \"#utility.yul\":9142:9248   */\n      tag_233\n      jump\t// in\n    tag_344:\n        /* \"#utility.yul\":9134:9248   */\n      swap1\n      pop\n        /* \"#utility.yul\":8372:9255   */\n      swap5\n      swap4\n      pop\n      pop\n      pop\n      pop\n      jump\t// out\n        /* \"#utility.yul\":9261:9479   */\n    tag_37:\n        /* \"#utility.yul\":9352:9356   */\n      0x00\n        /* \"#utility.yul\":9390:9392   */\n      0x20\n        /* \"#utility.yul\":9379:9388   */\n      dup3\n        /* \"#utility.yul\":9375:9393   */\n      add\n        /* \"#utility.yul\":9367:9393   */\n      swap1\n      pop\n        /* \"#utility.yul\":9403:9472   */\n      tag_346\n        /* \"#utility.yul\":9469:9470   */\n      0x00\n        /* \"#utility.yul\":9458:9467   */\n      dup4\n        /* \"#utility.yul\":9454:9471   */\n      add\n        /* \"#utility.yul\":9445:9451   */\n      dup5\n        /* \"#utility.yul\":9403:9472   */\n      tag_226\n      jump\t// in\n    tag_346:\n        /* \"#utility.yul\":9261:9479   */\n      swap3\n      swap2\n      pop\n      pop\n      jump\t// out\n        /* \"#utility.yul\":9485:9665   */\n    tag_242:\n        /* \"#utility.yul\":9533:9610   */\n      0x4e487b7100000000000000000000000000000000000000000000000000000000\n        /* \"#utility.yul\":9530:9531   */\n      0x00\n        /* \"#utility.yul\":9523:9611   */\n      mstore\n        /* \"#utility.yul\":9630:9634   */\n      0x11\n        /* \"#utility.yul\":9627:9628   */\n      0x04\n        /* \"#utility.yul\":9620:9635   */\n      mstore\n        /* \"#utility.yul\":9654:9658   */\n      0x24\n        /* \"#utility.yul\":9651:9652   */\n      0x00\n        /* \"#utility.yul\":9644:9659   */\n      revert\n        /* \"#utility.yul\":9671:10046   */\n    tag_55:\n        /* \"#utility.yul\":9710:9713   */\n      0x00\n        /* \"#utility.yul\":9729:9748   */\n      tag_349\n        /* \"#utility.yul\":9746:9747   */\n      dup3\n        /* \"#utility.yul\":9729:9748   */\n      tag_223\n      jump\t// in\n    tag_349:\n        /* \"#utility.yul\":9724:9748   */\n      swap2\n      pop\n        /* \"#utility.yul\":9762:9781   */\n      tag_350\n        /* \"#utility.yul\":9779:9780   */\n      dup4\n        /* \"#utility.yul\":9762:9781   */\n      tag_223\n      jump\t// in\n    tag_350:\n        /* \"#utility.yul\":9757:9781   */\n      swap3\n      pop\n        /* \"#utility.yul\":9804:9805   */\n      dup3\n        /* \"#utility.yul\":9801:9802   */\n      dup3\n        /* \"#utility.yul\":9797:9806   */\n      add\n        /* \"#utility.yul\":9790:9806   */\n      swap1\n      pop\n        /* \"#utility.yul\":10002:10003   */\n      dup3\n        /* \"#utility.yul\":9997:10000   */\n      dup2\n        /* \"#utility.yul\":9993:10004   */\n      slt\n        /* \"#utility.yul\":9986:10005   */\n      iszero\n        /* \"#utility.yul\":9982:9983   */\n      0x00\n        /* \"#utility.yul\":9979:9980   */\n      dup4\n        /* \"#utility.yul\":9975:9984   */\n      slt\n        /* \"#utility.yul\":9971:10006   */\n      and\n        /* \"#utility.yul\":9954:9955   */\n      dup4\n        /* \"#utility.yul\":9949:9952   */\n      dup3\n        /* \"#utility.yul\":9945:9956   */\n      slt\n        /* \"#utility.yul\":9940:9941   */\n      0x00\n        /* \"#utility.yul\":9937:9938   */\n      dup5\n        /* \"#utility.yul\":9933:9942   */\n      slt\n        /* \"#utility.yul\":9926:9943   */\n      iszero\n        /* \"#utility.yul\":9922:9957   */\n      and\n        /* \"#utility.yul\":9906:10016   */\n      or\n        /* \"#utility.yul\":9903:10039   */\n      iszero\n      tag_351\n      jumpi\n        /* \"#utility.yul\":10019:10037   */\n      tag_352\n      tag_242\n      jump\t// in\n    tag_352:\n        /* \"#utility.yul\":9903:10039   */\n    tag_351:\n        /* \"#utility.yul\":9671:10046   */\n      swap3\n      swap2\n      pop\n      pop\n      jump\t// out\n        /* \"#utility.yul\":10052:10283   */\n    tag_65:\n        /* \"#utility.yul\":10090:10093   */\n      0x00\n        /* \"#utility.yul\":10113:10136   */\n      tag_354\n        /* \"#utility.yul\":10130:10135   */\n      dup3\n        /* \"#utility.yul\":10113:10136   */\n      tag_223\n      jump\t// in\n    tag_354:\n        /* \"#utility.yul\":10104:10136   */\n      swap2\n      pop\n        /* \"#utility.yul\":10158:10224   */\n      0x7fffffffffffffffffffffffffffffffffffffffffffffffffffffffffffffff\n        /* \"#utility.yul\":10151:10156   */\n      dup3\n        /* \"#utility.yul\":10148:10225   */\n      sub\n        /* \"#utility.yul\":10145:10248   */\n      tag_355\n      jumpi\n        /* \"#utility.yul\":10228:10246   */\n      tag_356\n      tag_242\n      jump\t// in\n    tag_356:\n        /* \"#utility.yul\":10145:10248   */\n    tag_355:\n        /* \"#utility.yul\":10275:10276   */\n      0x01\n        /* \"#utility.yul\":10268:10273   */\n      dup3\n        /* \"#utility.yul\":10264:10277   */\n      add\n        /* \"#utility.yul\":10257:10277   */\n      swap1\n      pop\n        /* \"#utility.yul\":10052:10283   */\n      swap2\n      swap1\n      pop\n      jump\t// out\n        /* \"#utility.yul\":10289:10458   */\n    tag_243:\n        /* \"#utility.yul\":10373:10384   */\n      0x00\n        /* \"#utility.yul\":10407:10413   */\n      dup3\n        /* \"#utility.yul\":10402:10405   */\n      dup3\n        /* \"#utility.yul\":10395:10414   */\n      mstore\n        /* \"#utility.yul\":10447:10451   */\n      0x20\n        /* \"#utility.yul\":10442:10445   */\n      dup3\n        /* \"#utility.yul\":10438:10452   */\n      add\n        /* \"#utility.yul\":10423:10452   */\n      swap1\n      pop\n        /* \"#utility.yul\":10289:10458   */\n      swap3\n      swap2\n      pop\n      pop\n      jump\t// out\n        /* \"#utility.yul\":10464:10687   */\n    tag_244:\n        /* \"#utility.yul\":10604:10638   */\n      0x416c6c20617272617973206d7573742068617665207468652073616d65206c65\n        /* \"#utility.yul\":10600:10601   */\n      0x00\n        /* \"#utility.yul\":10592:10598   */\n      dup3\n        /* \"#utility.yul\":10588:10602   */\n      add\n        /* \"#utility.yul\":10581:10639   */\n      mstore\n        /* \"#utility.yul\":10673:10679   */\n      0x6e67746800000000000000000000000000000000000000000000000000000000\n        /* \"#utility.yul\":10668:10670   */\n      0x20\n        /* \"#utility.yul\":10660:10666   */\n      dup3\n        /* \"#utility.yul\":10656:10671   */\n      add\n        /* \"#utility.yul\":10649:10680   */\n      mstore\n        /* \"#utility.yul\":10464:10687   */\n      pop\n      jump\t// out\n        /* \"#utility.yul\":10693:11059   */\n    tag_245:\n        /* \"#utility.yul\":10835:10838   */\n      0x00\n        /* \"#utility.yul\":10856:10923   */\n      tag_360\n        /* \"#utility.yul\":10920:10922   */\n      0x24\n        /* \"#utility.yul\":10915:10918   */\n      dup4\n        /* \"#utility.yul\":10856:10923   */\n      tag_243\n      jump\t// in\n    tag_360:\n        /* \"#utility.yul\":10849:10923   */\n      swap2\n      pop\n        /* \"#utility.yul\":10932:11025   */\n      tag_361\n        /* \"#utility.yul\":11021:11024   */\n      dup3\n        /* \"#utility.yul\":10932:11025   */\n      tag_244\n      jump\t// in\n    tag_361:\n        /* \"#utility.yul\":11050:11052   */\n      0x40\n        /* \"#utility.yul\":11045:11048   */\n      dup3\n        /* \"#utility.yul\":11041:11053   */\n      add\n        /* \"#utility.yul\":11034:11053   */\n      swap1\n      pop\n        /* \"#utility.yul\":10693:11059   */\n      swap2\n      swap1\n      pop\n      jump\t// out\n        /* \"#utility.yul\":11065:11484   */\n    tag_73:\n        /* \"#utility.yul\":11231:11235   */\n      0x00\n        /* \"#utility.yul\":11269:11271   */\n      0x20\n        /* \"#utility.yul\":11258:11267   */\n      dup3\n        /* \"#utility.yul\":11254:11272   */\n      add\n        /* \"#utility.yul\":11246:11272   */\n      swap1\n      pop\n        /* \"#utility.yul\":11318:11327   */\n      dup2\n        /* \"#utility.yul\":11312:11316   */\n      dup2\n        /* \"#utility.yul\":11308:11328   */\n      sub\n        /* \"#utility.yul\":11304:11305   */\n      0x00\n        /* \"#utility.yul\":11293:11302   */\n      dup4\n        /* \"#utility.yul\":11289:11306   */\n      add\n        /* \"#utility.yul\":11282:11329   */\n      mstore\n        /* \"#utility.yul\":11346:11477   */\n      tag_363\n        /* \"#utility.yul\":11472:11476   */\n      dup2\n        /* \"#utility.yul\":11346:11477   */\n      tag_245\n      jump\t// in\n    tag_363:\n        /* \"#utility.yul\":11338:11477   */\n      swap1\n      pop\n        /* \"#utility.yul\":11065:11484   */\n      swap2\n      swap1\n      pop\n      jump\t// out\n        /* \"#utility.yul\":11490:11668   */\n    tag_246:\n        /* \"#utility.yul\":11630:11660   */\n      0x4174206c65617374206f6e65206b657920697320726571756972656400000000\n        /* \"#utility.yul\":11626:11627   */\n      0x00\n        /* \"#utility.yul\":11618:11624   */\n      dup3\n        /* \"#utility.yul\":11614:11628   */\n      add\n        /* \"#utility.yul\":11607:11661   */\n      mstore\n        /* \"#utility.yul\":11490:11668   */\n      pop\n      jump\t// out\n        /* \"#utility.yul\":11674:12040   */\n    tag_247:\n        /* \"#utility.yul\":11816:11819   */\n      0x00\n        /* \"#utility.yul\":11837:11904   */\n      tag_366\n        /* \"#utility.yul\":11901:11903   */\n      0x1c\n        /* \"#utility.yul\":11896:11899   */\n      dup4\n        /* \"#utility.yul\":11837:11904   */\n      tag_243\n      jump\t// in\n    tag_366:\n        /* \"#utility.yul\":11830:11904   */\n      swap2\n      pop\n        /* \"#utility.yul\":11913:12006   */\n      tag_367\n        /* \"#utility.yul\":12002:12005   */\n      dup3\n        /* \"#utility.yul\":11913:12006   */\n      tag_246\n      jump\t// in\n    tag_367:\n        /* \"#utility.yul\":12031:12033   */\n      0x20\n        /* \"#utility.yul\":12026:12029   */\n      dup3\n        /* \"#utility.yul\":12022:12034   */\n      add\n        /* \"#utility.yul\":12015:12034   */\n      swap1\n      pop\n        /* \"#utility.yul\":11674:12040   */\n      swap2\n      swap1\n      pop\n      jump\t// out\n        /* \"#utility.yul\":12046:12465   */\n    tag_81:\n        /* \"#utility.yul\":12212:12216   */\n      0x00\n        /* \"#utility.yul\":12250:12252   */\n      0x20\n        /* \"#utility.yul\":12239:12248   */\n      dup3\n        /* \"#utility.yul\":12235:12253   */\n      add\n        /* \"#utility.yul\":12227:12253   */\n      swap1\n      pop\n        /* \"#utility.yul\":12299:12308   */\n      dup2\n        /* \"#utility.yul\":12293:12297   */\n      dup2\n        /* \"#utility.yul\":12289:12309   */\n      sub\n        /* \"#utility.yul\":12285:12286   */\n      0x00\n        /* \"#utility.yul\":12274:12283   */\n      dup4\n        /* \"#utility.yul\":12270:12287   */\n      add\n        /* \"#utility.yul\":12263:12310   */\n      mstore\n        /* \"#utility.yul\":12327:12458   */\n      tag_369\n        /* \"#utility.yul\":12453:12457   */\n      dup2\n        /* \"#utility.yul\":12327:12458   */\n      tag_247\n      jump\t// in\n    tag_369:\n        /* \"#utility.yul\":12319:12458   */\n      swap1\n      pop\n        /* \"#utility.yul\":12046:12465   */\n      swap2\n      swap1\n      pop\n      jump\t// out\n        /* \"#utility.yul\":12471:12651   */\n    tag_84:\n        /* \"#utility.yul\":12519:12596   */\n      0x4e487b7100000000000000000000000000000000000000000000000000000000\n        /* \"#utility.yul\":12516:12517   */\n      0x00\n        /* \"#utility.yul\":12509:12597   */\n      mstore\n        /* \"#utility.yul\":12616:12620   */\n      0x32\n        /* \"#utility.yul\":12613:12614   */\n      0x04\n        /* \"#utility.yul\":12606:12621   */\n      mstore\n        /* \"#utility.yul\":12640:12644   */\n      0x24\n        /* \"#utility.yul\":12637:12638   */\n      0x00\n        /* \"#utility.yul\":12630:12645   */\n      revert\n        /* \"#utility.yul\":12657:12839   */\n    tag_248:\n        /* \"#utility.yul\":12797:12831   */\n      0x4172726179206c656e677468206d69736d6174636820616d6f6e67206b657973\n        /* \"#utility.yul\":12793:12794   */\n      0x00\n        /* \"#utility.yul\":12785:12791   */\n      dup3\n        /* \"#utility.yul\":12781:12795   */\n      add\n        /* \"#utility.yul\":12774:12832   */\n      mstore\n        /* \"#utility.yul\":12657:12839   */\n      pop\n      jump\t// out\n        /* \"#utility.yul\":12845:13211   */\n    tag_249:\n        /* \"#utility.yul\":12987:12990   */\n      0x00\n        /* \"#utility.yul\":13008:13075   */\n      tag_373\n        /* \"#utility.yul\":13072:13074   */\n      0x20\n        /* \"#utility.yul\":13067:13070   */\n      dup4\n        /* \"#utility.yul\":13008:13075   */\n      tag_243\n      jump\t// in\n    tag_373:\n        /* \"#utility.yul\":13001:13075   */\n      swap2\n      pop\n        /* \"#utility.yul\":13084:13177   */\n      tag_374\n        /* \"#utility.yul\":13173:13176   */\n      dup3\n        /* \"#utility.yul\":13084:13177   */\n      tag_248\n      jump\t// in\n    tag_374:\n        /* \"#utility.yul\":13202:13204   */\n      0x20\n        /* \"#utility.yul\":13197:13200   */\n      dup3\n        /* \"#utility.yul\":13193:13205   */\n      add\n        /* \"#utility.yul\":13186:13205   */\n      swap1\n      pop\n        /* \"#utility.yul\":12845:13211   */\n      swap2\n      swap1\n      pop\n      jump\t// out\n        /* \"#utility.yul\":13217:13636   */\n    tag_92:\n        /* \"#utility.yul\":13383:13387   */\n      0x00\n        /* \"#utility.yul\":13421:13423   */\n      0x20\n        /* \"#utility.yul\":13410:13419   */\n      dup3\n        /* \"#utility.yul\":13406:13424   */\n      add\n        /* \"#utility.yul\":13398:13424   */\n      swap1\n      pop\n        /* \"#utility.yul\":13470:13479   */\n      dup2\n        /* \"#utility.yul\":13464:13468   */\n      dup2\n        /* \"#utility.yul\":13460:13480   */\n      sub\n        /* \"#utility.yul\":13456:13457   */\n      0x00\n        /* \"#utility.yul\":13445:13454   */\n      dup4\n        /* \"#utility.yul\":13441:13458   */\n      add\n        /* \"#utility.yul\":13434:13481   */\n      mstore\n        /* \"#utility.yul\":13498:13629   */\n      tag_376\n        /* \"#utility.yul\":13624:13628   */\n      dup2\n        /* \"#utility.yul\":13498:13629   */\n      tag_249\n      jump\t// in\n    tag_376:\n        /* \"#utility.yul\":13490:13629   */\n      swap1\n      pop\n        /* \"#utility.yul\":13217:13636   */\n      swap2\n      swap1\n      pop\n      jump\t// out\n        /* \"#utility.yul\":13642:13822   */\n    tag_250:\n        /* \"#utility.yul\":13690:13767   */\n      0x4e487b7100000000000000000000000000000000000000000000000000000000\n        /* \"#utility.yul\":13687:13688   */\n      0x00\n        /* \"#utility.yul\":13680:13768   */\n      mstore\n        /* \"#utility.yul\":13787:13791   */\n      0x12\n        /* \"#utility.yul\":13784:13785   */\n      0x04\n        /* \"#utility.yul\":13777:13792   */\n      mstore\n        /* \"#utility.yul\":13811:13815   */\n      0x24\n        /* \"#utility.yul\":13808:13809   */\n      0x00\n        /* \"#utility.yul\":13801:13816   */\n      revert\n        /* \"#utility.yul\":13828:14213   */\n    tag_150:\n        /* \"#utility.yul\":13867:13868   */\n      0x00\n        /* \"#utility.yul\":13884:13903   */\n      tag_379\n        /* \"#utility.yul\":13901:13902   */\n      dup3\n        /* \"#utility.yul\":13884:13903   */\n      tag_223\n      jump\t// in\n    tag_379:\n        /* \"#utility.yul\":13879:13903   */\n      swap2\n      pop\n        /* \"#utility.yul\":13917:13936   */\n      tag_380\n        /* \"#utility.yul\":13934:13935   */\n      dup4\n        /* \"#utility.yul\":13917:13936   */\n      tag_223\n      jump\t// in\n    tag_380:\n        /* \"#utility.yul\":13912:13936   */\n      swap3\n      pop\n        /* \"#utility.yul\":13955:13956   */\n      dup3\n        /* \"#utility.yul\":13945:13980   */\n      tag_381\n      jumpi\n        /* \"#utility.yul\":13960:13978   */\n      tag_382\n      tag_250\n      jump\t// in\n    tag_382:\n        /* \"#utility.yul\":13945:13980   */\n    tag_381:\n        /* \"#utility.yul\":14146:14147   */\n      0x01\n        /* \"#utility.yul\":14143:14144   */\n      0x00\n        /* \"#utility.yul\":14139:14148   */\n      sub\n        /* \"#utility.yul\":14136:14137   */\n      dup4\n        /* \"#utility.yul\":14133:14149   */\n      eq\n        /* \"#utility.yul\":14052:14118   */\n      0x8000000000000000000000000000000000000000000000000000000000000000\n        /* \"#utility.yul\":14049:14050   */\n      dup4\n        /* \"#utility.yul\":14046:14119   */\n      eq\n        /* \"#utility.yul\":14029:14159   */\n      and\n        /* \"#utility.yul\":14026:14182   */\n      iszero\n      tag_383\n      jumpi\n        /* \"#utility.yul\":14162:14180   */\n      tag_384\n      tag_242\n      jump\t// in\n    tag_384:\n        /* \"#utility.yul\":14026:14182   */\n    tag_383:\n        /* \"#utility.yul\":14205:14206   */\n      dup3\n        /* \"#utility.yul\":14202:14203   */\n      dup3\n        /* \"#utility.yul\":14197:14207   */\n      sdiv\n        /* \"#utility.yul\":14192:14207   */\n      swap1\n      pop\n        /* \"#utility.yul\":13828:14213   */\n      swap3\n      swap2\n      pop\n      pop\n      jump\t// out\n        /* \"#utility.yul\":14219:14775   */\n    tag_152:\n        /* \"#utility.yul\":14258:14265   */\n      0x00\n        /* \"#utility.yul\":14281:14300   */\n      tag_386\n        /* \"#utility.yul\":14298:14299   */\n      dup3\n        /* \"#utility.yul\":14281:14300   */\n      tag_223\n      jump\t// in\n    tag_386:\n        /* \"#utility.yul\":14276:14300   */\n      swap2\n      pop\n        /* \"#utility.yul\":14314:14333   */\n      tag_387\n        /* \"#utility.yul\":14331:14332   */\n      dup4\n        /* \"#utility.yul\":14314:14333   */\n      tag_223\n      jump\t// in\n    tag_387:\n        /* \"#utility.yul\":14309:14333   */\n      swap3\n      pop\n        /* \"#utility.yul\":14368:14369   */\n      dup3\n        /* \"#utility.yul\":14365:14366   */\n      dup3\n        /* \"#utility.yul\":14361:14370   */\n      mul\n        /* \"#utility.yul\":14390:14419   */\n      tag_388\n        /* \"#utility.yul\":14407:14418   */\n      dup2\n        /* \"#utility.yul\":14390:14419   */\n      tag_223\n      jump\t// in\n    tag_388:\n        /* \"#utility.yul\":14379:14419   */\n      swap2\n      pop\n        /* \"#utility.yul\":14477:14543   */\n      0x8000000000000000000000000000000000000000000000000000000000000000\n        /* \"#utility.yul\":14474:14475   */\n      dup5\n        /* \"#utility.yul\":14471:14544   */\n      eq\n        /* \"#utility.yul\":14467:14468   */\n      0x00\n        /* \"#utility.yul\":14464:14465   */\n      dup5\n        /* \"#utility.yul\":14460:14469   */\n      slt\n        /* \"#utility.yul\":14456:14545   */\n      and\n        /* \"#utility.yul\":14453:14568   */\n      iszero\n      tag_389\n      jumpi\n        /* \"#utility.yul\":14548:14566   */\n      tag_390\n      tag_242\n      jump\t// in\n    tag_390:\n        /* \"#utility.yul\":14453:14568   */\n    tag_389:\n        /* \"#utility.yul\":14718:14719   */\n      dup3\n        /* \"#utility.yul\":14709:14716   */\n      dup3\n        /* \"#utility.yul\":14704:14720   */\n      sdiv\n        /* \"#utility.yul\":14701:14702   */\n      dup5\n        /* \"#utility.yul\":14698:14721   */\n      eq\n        /* \"#utility.yul\":14678:14679   */\n      dup4\n        /* \"#utility.yul\":14671:14680   */\n      iszero\n        /* \"#utility.yul\":14651:14735   */\n      or\n        /* \"#utility.yul\":14628:14768   */\n      tag_391\n      jumpi\n        /* \"#utility.yul\":14748:14766   */\n      tag_392\n      tag_242\n      jump\t// in\n    tag_392:\n        /* \"#utility.yul\":14628:14768   */\n    tag_391:\n        /* \"#utility.yul\":14266:14775   */\n      pop\n        /* \"#utility.yul\":14219:14775   */\n      swap3\n      swap2\n      pop\n      pop\n      jump\t// out\n\n    auxdata: 0xa2646970667358221220dfac49546582c816494a2fef4454f3283c4bc6b4b1f54d7db346e825b5b9033664736f6c63430008190033\n}\n",
				"bytecode": {
					"linkReferences": {},
					"object": "6080604052348015600e575f80fd5b506116328061001c5f395ff3fe608060405234801561000f575f80fd5b506004361061007b575f3560e01c806383e6e9c81161005957806383e6e9c8146100fd5780638b99ee231461012f5780639e96d76d1461015f578063b892ca351461018f5761007b565b80633e463da21461007f57806343858f3f146100b157806361c1f355146100e1575b5f80fd5b61009960048036038101906100949190610e6b565b6101bf565b6040516100a893929190610eb8565b60405180910390f35b6100cb60048036038101906100c69190610eed565b610347565b6040516100d89190610fcf565b60405180910390f35b6100fb60048036038101906100f6919061113f565b6103b0565b005b610117600480360381019061011291906111f7565b610465565b6040516101269392919061123e565b60405180910390f35b61014960048036038101906101449190610eed565b6108c9565b6040516101569190611288565b60405180910390f35b61017960048036038101906101749190610eed565b610c7e565b6040516101869190610fcf565b60405180910390f35b6101a960048036038101906101a49190610eed565b610ce7565b6040516101b69190610fcf565b60405180910390f35b5f805f808590505b84811361033f576102355f808381526020019081526020015f205f0180548060200260200160405190810160405280929190818152602001828054801561022b57602002820191905f5260205f20905b815481526020019060010190808311610217575b5050505050610d4f565b8461024091906112ce565b93506102aa5f808381526020019081526020015f206001018054806020026020016040519081016040528092919081815260200182805480156102a057602002820191905f5260205f20905b81548152602001906001019080831161028c575b5050505050610d4f565b836102b591906112ce565b925061031f5f808381526020019081526020015f2060020180548060200260200160405190810160405280929190818152602001828054801561031557602002820191905f5260205f20905b815481526020019060010190808311610301575b5050505050610d4f565b8261032a91906112ce565b915080806103379061130f565b9150506101c7565b509250925092565b60605f808381526020019081526020015f206002018054806020026020016040519081016040528092919081815260200182805480156103a457602002820191905f5260205f20905b815481526020019060010190808311610390575b50505050509050919050565b815183511480156103c2575080518351145b610401576040517f08c379a00000000000000000000000000000000000000000000000000000000081526004016103f8906113d6565b60405180910390fd5b5f805f8681526020019081526020015f20905083815f01908051906020019061042b929190610dc1565b5082816001019080519060200190610444929190610dc1565b508181600201908051906020019061045d929190610dc1565b505050505050565b60608060605f8451116104ad576040517f08c379a00000000000000000000000000000000000000000000000000000000081526004016104a49061143e565b60405180910390fd5b5f805f865f815181106104c3576104c261145c565b5b602002602001015181526020019081526020015f205f018054905090505f5b855181101561064d57815f808884815181106105015761050061145c565b5b602002602001015181526020019081526020015f205f01805490501461055c576040517f08c379a0000000000000000000000000000000000000000000000000000000008152600401610553906114d3565b60405180910390fd5b815f808884815181106105725761057161145c565b5b602002602001015181526020019081526020015f2060010180549050146105ce576040517f08c379a00000000000000000000000000000000000000000000000000000000081526004016105c5906114d3565b60405180910390fd5b815f808884815181106105e4576105e361145c565b5b602002602001015181526020019081526020015f206002018054905014610640576040517f08c379a0000000000000000000000000000000000000000000000000000000008152600401610637906114d3565b60405180910390fd5b80806001019150506104e2565b508067ffffffffffffffff81111561066857610667611003565b5b6040519080825280602002602001820160405280156106965781602001602082028036833780820191505090505b5093508067ffffffffffffffff8111156106b3576106b2611003565b5b6040519080825280602002602001820160405280156106e15781602001602082028036833780820191505090505b5092508067ffffffffffffffff8111156106fe576106fd611003565b5b60405190808252806020026020018201604052801561072c5781602001602082028036833780820191505090505b5091505f5b818110156108c0575f5b86518110156108b2575f808883815181106107595761075861145c565b5b602002602001015181526020019081526020015f205f0182815481106107825761078161145c565b5b905f5260205f20015486838151811061079e5761079d61145c565b5b602002602001018181516107b291906112ce565b915081815250505f808883815181106107ce576107cd61145c565b5b602002602001015181526020019081526020015f2060010182815481106107f8576107f761145c565b5b905f5260205f2001548583815181106108145761081361145c565b5b6020026020010181815161082891906112ce565b915081815250505f808883815181106108445761084361145c565b5b602002602001015181526020019081526020015f20600201828154811061086e5761086d61145c565b5b905f5260205f20015484838151811061088a5761088961145c565b5b6020026020010181815161089e91906112ce565b91508181525050808060010191505061073b565b508080600101915050610731565b50509193909250565b5f805f90505f805f8581526020019081526020015f205f0180548060200260200160405190810160405280929190818152602001828054801561092957602002820191905f5260205f20905b815481526020019060010190808311610915575b505050505090505f5b8151811015610999575f68056bc75e2d631000008383815181106109595761095861145c565b5b602002602001015161096b919061151e565b90505f818261097a9190611586565b9050808561098891906112ce565b945050508080600101915050610932565b505f5b8151811015610a03575f68056bc75e2d631000008383815181106109c3576109c261145c565b5b60200260200101516109d5919061151e565b90505f81826109e49190611586565b905080856109f291906112ce565b94505050808060010191505061099c565b505f805f8681526020019081526020015f20600101805480602002602001604051908101604052809291908181526020018280548015610a6057602002820191905f5260205f20905b815481526020019060010190808311610a4c575b505050505090505f5b8151811015610ad0575f68056bc75e2d63100000838381518110610a9057610a8f61145c565b5b6020026020010151610aa2919061151e565b90505f8182610ab19190611586565b90508086610abf91906112ce565b955050508080600101915050610a69565b505f5b8151811015610b3a575f68056bc75e2d63100000838381518110610afa57610af961145c565b5b6020026020010151610b0c919061151e565b90505f8182610b1b9190611586565b90508086610b2991906112ce565b955050508080600101915050610ad3565b505f805f8781526020019081526020015f20600201805480602002602001604051908101604052809291908181526020018280548015610b9757602002820191905f5260205f20905b815481526020019060010190808311610b83575b505050505090505f5b8151811015610c07575f68056bc75e2d63100000838381518110610bc757610bc661145c565b5b6020026020010151610bd9919061151e565b90505f8182610be89190611586565b90508087610bf691906112ce565b965050508080600101915050610ba0565b505f5b8151811015610c71575f68056bc75e2d63100000838381518110610c3157610c3061145c565b5b6020026020010151610c43919061151e565b90505f8182610c529190611586565b90508087610c6091906112ce565b965050508080600101915050610c0a565b5083945050505050919050565b60605f808381526020019081526020015f20600101805480602002602001604051908101604052809291908181526020018280548015610cdb57602002820191905f5260205f20905b815481526020019060010190808311610cc7575b50505050509050919050565b60605f808381526020019081526020015f205f01805480602002602001604051908101604052809291908181526020018280548015610d4357602002820191905f5260205f20905b815481526020019060010190808311610d2f575b50505050509050919050565b5f805f90505f5b8351811015610db7575f678ac7230489e80000858381518110610d7c57610d7b61145c565b5b6020026020010151610d8e919061151e565b90508081610d9c9190611586565b83610da791906112ce565b9250508080600101915050610d56565b5080915050919050565b828054828255905f5260205f20908101928215610dfb579160200282015b82811115610dfa578251825591602001919060010190610ddf565b5b509050610e089190610e0c565b5090565b5b80821115610e23575f815f905550600101610e0d565b5090565b5f604051905090565b5f80fd5b5f80fd5b5f819050919050565b610e4a81610e38565b8114610e54575f80fd5b50565b5f81359050610e6581610e41565b92915050565b5f8060408385031215610e8157610e80610e30565b5b5f610e8e85828601610e57565b9250506020610e9f85828601610e57565b9150509250929050565b610eb281610e38565b82525050565b5f606082019050610ecb5f830186610ea9565b610ed86020830185610ea9565b610ee56040830184610ea9565b949350505050565b5f60208284031215610f0257610f01610e30565b5b5f610f0f84828501610e57565b91505092915050565b5f81519050919050565b5f82825260208201905092915050565b5f819050602082019050919050565b610f4a81610e38565b82525050565b5f610f5b8383610f41565b60208301905092915050565b5f602082019050919050565b5f610f7d82610f18565b610f878185610f22565b9350610f9283610f32565b805f5b83811015610fc2578151610fa98882610f50565b9750610fb483610f67565b925050600181019050610f95565b5085935050505092915050565b5f6020820190508181035f830152610fe78184610f73565b905092915050565b5f80fd5b5f601f19601f8301169050919050565b7f4e487b71000000000000000000000000000000000000000000000000000000005f52604160045260245ffd5b61103982610ff3565b810181811067ffffffffffffffff8211171561105857611057611003565b5b80604052505050565b5f61106a610e27565b90506110768282611030565b919050565b5f67ffffffffffffffff82111561109557611094611003565b5b602082029050602081019050919050565b5f80fd5b5f6110bc6110b78461107b565b611061565b905080838252602082019050602084028301858111156110df576110de6110a6565b5b835b8181101561110857806110f48882610e57565b8452602084019350506020810190506110e1565b5050509392505050565b5f82601f83011261112657611125610fef565b5b81356111368482602086016110aa565b91505092915050565b5f805f806080858703121561115757611156610e30565b5b5f61116487828801610e57565b945050602085013567ffffffffffffffff81111561118557611184610e34565b5b61119187828801611112565b935050604085013567ffffffffffffffff8111156111b2576111b1610e34565b5b6111be87828801611112565b925050606085013567ffffffffffffffff8111156111df576111de610e34565b5b6111eb87828801611112565b91505092959194509250565b5f6020828403121561120c5761120b610e30565b5b5f82013567ffffffffffffffff81111561122957611228610e34565b5b61123584828501611112565b91505092915050565b5f6060820190508181035f8301526112568186610f73565b9050818103602083015261126a8185610f73565b9050818103604083015261127e8184610f73565b9050949350505050565b5f60208201905061129b5f830184610ea9565b92915050565b7f4e487b71000000000000000000000000000000000000000000000000000000005f52601160045260245ffd5b5f6112d882610e38565b91506112e383610e38565b92508282019050828112155f8312168382125f841215161715611309576113086112a1565b5b92915050565b5f61131982610e38565b91507f7fffffffffffffffffffffffffffffffffffffffffffffffffffffffffffffff820361134b5761134a6112a1565b5b600182019050919050565b5f82825260208201905092915050565b7f416c6c20617272617973206d7573742068617665207468652073616d65206c655f8201527f6e67746800000000000000000000000000000000000000000000000000000000602082015250565b5f6113c0602483611356565b91506113cb82611366565b604082019050919050565b5f6020820190508181035f8301526113ed816113b4565b9050919050565b7f4174206c65617374206f6e65206b6579206973207265717569726564000000005f82015250565b5f611428601c83611356565b9150611433826113f4565b602082019050919050565b5f6020820190508181035f8301526114558161141c565b9050919050565b7f4e487b71000000000000000000000000000000000000000000000000000000005f52603260045260245ffd5b7f4172726179206c656e677468206d69736d6174636820616d6f6e67206b6579735f82015250565b5f6114bd602083611356565b91506114c882611489565b602082019050919050565b5f6020820190508181035f8301526114ea816114b1565b9050919050565b7f4e487b71000000000000000000000000000000000000000000000000000000005f52601260045260245ffd5b5f61152882610e38565b915061153383610e38565b925082611543576115426114f1565b5b60015f0383147f80000000000000000000000000000000000000000000000000000000000000008314161561157b5761157a6112a1565b5b828205905092915050565b5f61159082610e38565b915061159b83610e38565b92508282026115a981610e38565b91507f800000000000000000000000000000000000000000000000000000000000000084145f841216156115e0576115df6112a1565b5b82820584148315176115f5576115f46112a1565b5b509291505056fea2646970667358221220dfac49546582c816494a2fef4454f3283c4bc6b4b1f54d7db346e825b5b9033664736f6c63430008190033",
					"opcodes": "PUSH1 0x80 PUSH1 0x40 MSTORE CALLVALUE DUP1 ISZERO PUSH1 0xE JUMPI PUSH0 DUP1 REVERT JUMPDEST POP PUSH2 0x1632 DUP1 PUSH2 0x1C PUSH0 CODECOPY PUSH0 RETURN INVALID PUSH1 0x80 PUSH1 0x40 MSTORE CALLVALUE DUP1 ISZERO PUSH2 0xF JUMPI PUSH0 DUP1 REVERT JUMPDEST POP PUSH1 0x4 CALLDATASIZE LT PUSH2 0x7B JUMPI PUSH0 CALLDATALOAD PUSH1 0xE0 SHR DUP1 PUSH4 0x83E6E9C8 GT PUSH2 0x59 JUMPI DUP1 PUSH4 0x83E6E9C8 EQ PUSH2 0xFD JUMPI DUP1 PUSH4 0x8B99EE23 EQ PUSH2 0x12F JUMPI DUP1 PUSH4 0x9E96D76D EQ PUSH2 0x15F JUMPI DUP1 PUSH4 0xB892CA35 EQ PUSH2 0x18F JUMPI PUSH2 0x7B JUMP JUMPDEST DUP1 PUSH4 0x3E463DA2 EQ PUSH2 0x7F JUMPI DUP1 PUSH4 0x43858F3F EQ PUSH2 0xB1 JUMPI DUP1 PUSH4 0x61C1F355 EQ PUSH2 0xE1 JUMPI JUMPDEST PUSH0 DUP1 REVERT JUMPDEST PUSH2 0x99 PUSH1 0x4 DUP1 CALLDATASIZE SUB DUP2 ADD SWAP1 PUSH2 0x94 SWAP2 SWAP1 PUSH2 0xE6B JUMP JUMPDEST PUSH2 0x1BF JUMP JUMPDEST PUSH1 0x40 MLOAD PUSH2 0xA8 SWAP4 SWAP3 SWAP2 SWAP1 PUSH2 0xEB8 JUMP JUMPDEST PUSH1 0x40 MLOAD DUP1 SWAP2 SUB SWAP1 RETURN JUMPDEST PUSH2 0xCB PUSH1 0x4 DUP1 CALLDATASIZE SUB DUP2 ADD SWAP1 PUSH2 0xC6 SWAP2 SWAP1 PUSH2 0xEED JUMP JUMPDEST PUSH2 0x347 JUMP JUMPDEST PUSH1 0x40 MLOAD PUSH2 0xD8 SWAP2 SWAP1 PUSH2 0xFCF JUMP JUMPDEST PUSH1 0x40 MLOAD DUP1 SWAP2 SUB SWAP1 RETURN JUMPDEST PUSH2 0xFB PUSH1 0x4 DUP1 CALLDATASIZE SUB DUP2 ADD SWAP1 PUSH2 0xF6 SWAP2 SWAP1 PUSH2 0x113F JUMP JUMPDEST PUSH2 0x3B0 JUMP JUMPDEST STOP JUMPDEST PUSH2 0x117 PUSH1 0x4 DUP1 CALLDATASIZE SUB DUP2 ADD SWAP1 PUSH2 0x112 SWAP2 SWAP1 PUSH2 0x11F7 JUMP JUMPDEST PUSH2 0x465 JUMP JUMPDEST PUSH1 0x40 MLOAD PUSH2 0x126 SWAP4 SWAP3 SWAP2 SWAP1 PUSH2 0x123E JUMP JUMPDEST PUSH1 0x40 MLOAD DUP1 SWAP2 SUB SWAP1 RETURN JUMPDEST PUSH2 0x149 PUSH1 0x4 DUP1 CALLDATASIZE SUB DUP2 ADD SWAP1 PUSH2 0x144 SWAP2 SWAP1 PUSH2 0xEED JUMP JUMPDEST PUSH2 0x8C9 JUMP JUMPDEST PUSH1 0x40 MLOAD PUSH2 0x156 SWAP2 SWAP1 PUSH2 0x1288 JUMP JUMPDEST PUSH1 0x40 MLOAD DUP1 SWAP2 SUB SWAP1 RETURN JUMPDEST PUSH2 0x179 PUSH1 0x4 DUP1 CALLDATASIZE SUB DUP2 ADD SWAP1 PUSH2 0x174 SWAP2 SWAP1 PUSH2 0xEED JUMP JUMPDEST PUSH2 0xC7E JUMP JUMPDEST PUSH1 0x40 MLOAD PUSH2 0x186 SWAP2 SWAP1 PUSH2 0xFCF JUMP JUMPDEST PUSH1 0x40 MLOAD DUP1 SWAP2 SUB SWAP1 RETURN JUMPDEST PUSH2 0x1A9 PUSH1 0x4 DUP1 CALLDATASIZE SUB DUP2 ADD SWAP1 PUSH2 0x1A4 SWAP2 SWAP1 PUSH2 0xEED JUMP JUMPDEST PUSH2 0xCE7 JUMP JUMPDEST PUSH1 0x40 MLOAD PUSH2 0x1B6 SWAP2 SWAP1 PUSH2 0xFCF JUMP JUMPDEST PUSH1 0x40 MLOAD DUP1 SWAP2 SUB SWAP1 RETURN JUMPDEST PUSH0 DUP1 PUSH0 DUP1 DUP6 SWAP1 POP JUMPDEST DUP5 DUP2 SGT PUSH2 0x33F JUMPI PUSH2 0x235 PUSH0 DUP1 DUP4 DUP2 MSTORE PUSH1 0x20 ADD SWAP1 DUP2 MSTORE PUSH1 0x20 ADD PUSH0 KECCAK256 PUSH0 ADD DUP1 SLOAD DUP1 PUSH1 0x20 MUL PUSH1 0x20 ADD PUSH1 0x40 MLOAD SWAP1 DUP2 ADD PUSH1 0x40 MSTORE DUP1 SWAP3 SWAP2 SWAP1 DUP2 DUP2 MSTORE PUSH1 0x20 ADD DUP3 DUP1 SLOAD DUP1 ISZERO PUSH2 0x22B JUMPI PUSH1 0x20 MUL DUP3 ADD SWAP2 SWAP1 PUSH0 MSTORE PUSH1 0x20 PUSH0 KECCAK256 SWAP1 JUMPDEST DUP2 SLOAD DUP2 MSTORE PUSH1 0x20 ADD SWAP1 PUSH1 0x1 ADD SWAP1 DUP1 DUP4 GT PUSH2 0x217 JUMPI JUMPDEST POP POP POP POP POP PUSH2 0xD4F JUMP JUMPDEST DUP5 PUSH2 0x240 SWAP2 SWAP1 PUSH2 0x12CE JUMP JUMPDEST SWAP4 POP PUSH2 0x2AA PUSH0 DUP1 DUP4 DUP2 MSTORE PUSH1 0x20 ADD SWAP1 DUP2 MSTORE PUSH1 0x20 ADD PUSH0 KECCAK256 PUSH1 0x1 ADD DUP1 SLOAD DUP1 PUSH1 0x20 MUL PUSH1 0x20 ADD PUSH1 0x40 MLOAD SWAP1 DUP2 ADD PUSH1 0x40 MSTORE DUP1 SWAP3 SWAP2 SWAP1 DUP2 DUP2 MSTORE PUSH1 0x20 ADD DUP3 DUP1 SLOAD DUP1 ISZERO PUSH2 0x2A0 JUMPI PUSH1 0x20 MUL DUP3 ADD SWAP2 SWAP1 PUSH0 MSTORE PUSH1 0x20 PUSH0 KECCAK256 SWAP1 JUMPDEST DUP2 SLOAD DUP2 MSTORE PUSH1 0x20 ADD SWAP1 PUSH1 0x1 ADD SWAP1 DUP1 DUP4 GT PUSH2 0x28C JUMPI JUMPDEST POP POP POP POP POP PUSH2 0xD4F JUMP JUMPDEST DUP4 PUSH2 0x2B5 SWAP2 SWAP1 PUSH2 0x12CE JUMP JUMPDEST SWAP3 POP PUSH2 0x31F PUSH0 DUP1 DUP4 DUP2 MSTORE PUSH1 0x20 ADD SWAP1 DUP2 MSTORE PUSH1 0x20 ADD PUSH0 KECCAK256 PUSH1 0x2 ADD DUP1 SLOAD DUP1 PUSH1 0x20 MUL PUSH1 0x20 ADD PUSH1 0x40 MLOAD SWAP1 DUP2 ADD PUSH1 0x40 MSTORE DUP1 SWAP3 SWAP2 SWAP1 DUP2 DUP2 MSTORE PUSH1 0x20 ADD DUP3 DUP1 SLOAD DUP1 ISZERO PUSH2 0x315 JUMPI PUSH1 0x20 MUL DUP3 ADD SWAP2 SWAP1 PUSH0 MSTORE PUSH1 0x20 PUSH0 KECCAK256 SWAP1 JUMPDEST DUP2 SLOAD DUP2 MSTORE PUSH1 0x20 ADD SWAP1 PUSH1 0x1 ADD SWAP1 DUP1 DUP4 GT PUSH2 0x301 JUMPI JUMPDEST POP POP POP POP POP PUSH2 0xD4F JUMP JUMPDEST DUP3 PUSH2 0x32A SWAP2 SWAP1 PUSH2 0x12CE JUMP JUMPDEST SWAP2 POP DUP1 DUP1 PUSH2 0x337 SWAP1 PUSH2 0x130F JUMP JUMPDEST SWAP2 POP POP PUSH2 0x1C7 JUMP JUMPDEST POP SWAP3 POP SWAP3 POP SWAP3 JUMP JUMPDEST PUSH1 0x60 PUSH0 DUP1 DUP4 DUP2 MSTORE PUSH1 0x20 ADD SWAP1 DUP2 MSTORE PUSH1 0x20 ADD PUSH0 KECCAK256 PUSH1 0x2 ADD DUP1 SLOAD DUP1 PUSH1 0x20 MUL PUSH1 0x20 ADD PUSH1 0x40 MLOAD SWAP1 DUP2 ADD PUSH1 0x40 MSTORE DUP1 SWAP3 SWAP2 SWAP1 DUP2 DUP2 MSTORE PUSH1 0x20 ADD DUP3 DUP1 SLOAD DUP1 ISZERO PUSH2 0x3A4 JUMPI PUSH1 0x20 MUL DUP3 ADD SWAP2 SWAP1 PUSH0 MSTORE PUSH1 0x20 PUSH0 KECCAK256 SWAP1 JUMPDEST DUP2 SLOAD DUP2 MSTORE PUSH1 0x20 ADD SWAP1 PUSH1 0x1 ADD SWAP1 DUP1 DUP4 GT PUSH2 0x390 JUMPI JUMPDEST POP POP POP POP POP SWAP1 POP SWAP2 SWAP1 POP JUMP JUMPDEST DUP2 MLOAD DUP4 MLOAD EQ DUP1 ISZERO PUSH2 0x3C2 JUMPI POP DUP1 MLOAD DUP4 MLOAD EQ JUMPDEST PUSH2 0x401 JUMPI PUSH1 0x40 MLOAD PUSH32 0x8C379A000000000000000000000000000000000000000000000000000000000 DUP2 MSTORE PUSH1 0x4 ADD PUSH2 0x3F8 SWAP1 PUSH2 0x13D6 JUMP JUMPDEST PUSH1 0x40 MLOAD DUP1 SWAP2 SUB SWAP1 REVERT JUMPDEST PUSH0 DUP1 PUSH0 DUP7 DUP2 MSTORE PUSH1 0x20 ADD SWAP1 DUP2 MSTORE PUSH1 0x20 ADD PUSH0 KECCAK256 SWAP1 POP DUP4 DUP2 PUSH0 ADD SWAP1 DUP1 MLOAD SWAP1 PUSH1 0x20 ADD SWAP1 PUSH2 0x42B SWAP3 SWAP2 SWAP1 PUSH2 0xDC1 JUMP JUMPDEST POP DUP3 DUP2 PUSH1 0x1 ADD SWAP1 DUP1 MLOAD SWAP1 PUSH1 0x20 ADD SWAP1 PUSH2 0x444 SWAP3 SWAP2 SWAP1 PUSH2 0xDC1 JUMP JUMPDEST POP DUP2 DUP2 PUSH1 0x2 ADD SWAP1 DUP1 MLOAD SWAP1 PUSH1 0x20 ADD SWAP1 PUSH2 0x45D SWAP3 SWAP2 SWAP1 PUSH2 0xDC1 JUMP JUMPDEST POP POP POP POP POP POP JUMP JUMPDEST PUSH1 0x60 DUP1 PUSH1 0x60 PUSH0 DUP5 MLOAD GT PUSH2 0x4AD JUMPI PUSH1 0x40 MLOAD PUSH32 0x8C379A000000000000000000000000000000000000000000000000000000000 DUP2 MSTORE PUSH1 0x4 ADD PUSH2 0x4A4 SWAP1 PUSH2 0x143E JUMP JUMPDEST PUSH1 0x40 MLOAD DUP1 SWAP2 SUB SWAP1 REVERT JUMPDEST PUSH0 DUP1 PUSH0 DUP7 PUSH0 DUP2 MLOAD DUP2 LT PUSH2 0x4C3 JUMPI PUSH2 0x4C2 PUSH2 0x145C JUMP JUMPDEST JUMPDEST PUSH1 0x20 MUL PUSH1 0x20 ADD ADD MLOAD DUP2 MSTORE PUSH1 0x20 ADD SWAP1 DUP2 MSTORE PUSH1 0x20 ADD PUSH0 KECCAK256 PUSH0 ADD DUP1 SLOAD SWAP1 POP SWAP1 POP PUSH0 JUMPDEST DUP6 MLOAD DUP2 LT ISZERO PUSH2 0x64D JUMPI DUP2 PUSH0 DUP1 DUP9 DUP5 DUP2 MLOAD DUP2 LT PUSH2 0x501 JUMPI PUSH2 0x500 PUSH2 0x145C JUMP JUMPDEST JUMPDEST PUSH1 0x20 MUL PUSH1 0x20 ADD ADD MLOAD DUP2 MSTORE PUSH1 0x20 ADD SWAP1 DUP2 MSTORE PUSH1 0x20 ADD PUSH0 KECCAK256 PUSH0 ADD DUP1 SLOAD SWAP1 POP EQ PUSH2 0x55C JUMPI PUSH1 0x40 MLOAD PUSH32 0x8C379A000000000000000000000000000000000000000000000000000000000 DUP2 MSTORE PUSH1 0x4 ADD PUSH2 0x553 SWAP1 PUSH2 0x14D3 JUMP JUMPDEST PUSH1 0x40 MLOAD DUP1 SWAP2 SUB SWAP1 REVERT JUMPDEST DUP2 PUSH0 DUP1 DUP9 DUP5 DUP2 MLOAD DUP2 LT PUSH2 0x572 JUMPI PUSH2 0x571 PUSH2 0x145C JUMP JUMPDEST JUMPDEST PUSH1 0x20 MUL PUSH1 0x20 ADD ADD MLOAD DUP2 MSTORE PUSH1 0x20 ADD SWAP1 DUP2 MSTORE PUSH1 0x20 ADD PUSH0 KECCAK256 PUSH1 0x1 ADD DUP1 SLOAD SWAP1 POP EQ PUSH2 0x5CE JUMPI PUSH1 0x40 MLOAD PUSH32 0x8C379A000000000000000000000000000000000000000000000000000000000 DUP2 MSTORE PUSH1 0x4 ADD PUSH2 0x5C5 SWAP1 PUSH2 0x14D3 JUMP JUMPDEST PUSH1 0x40 MLOAD DUP1 SWAP2 SUB SWAP1 REVERT JUMPDEST DUP2 PUSH0 DUP1 DUP9 DUP5 DUP2 MLOAD DUP2 LT PUSH2 0x5E4 JUMPI PUSH2 0x5E3 PUSH2 0x145C JUMP JUMPDEST JUMPDEST PUSH1 0x20 MUL PUSH1 0x20 ADD ADD MLOAD DUP2 MSTORE PUSH1 0x20 ADD SWAP1 DUP2 MSTORE PUSH1 0x20 ADD PUSH0 KECCAK256 PUSH1 0x2 ADD DUP1 SLOAD SWAP1 POP EQ PUSH2 0x640 JUMPI PUSH1 0x40 MLOAD PUSH32 0x8C379A000000000000000000000000000000000000000000000000000000000 DUP2 MSTORE PUSH1 0x4 ADD PUSH2 0x637 SWAP1 PUSH2 0x14D3 JUMP JUMPDEST PUSH1 0x40 MLOAD DUP1 SWAP2 SUB SWAP1 REVERT JUMPDEST DUP1 DUP1 PUSH1 0x1 ADD SWAP2 POP POP PUSH2 0x4E2 JUMP JUMPDEST POP DUP1 PUSH8 0xFFFFFFFFFFFFFFFF DUP2 GT ISZERO PUSH2 0x668 JUMPI PUSH2 0x667 PUSH2 0x1003 JUMP JUMPDEST JUMPDEST PUSH1 0x40 MLOAD SWAP1 DUP1 DUP3 MSTORE DUP1 PUSH1 0x20 MUL PUSH1 0x20 ADD DUP3 ADD PUSH1 0x40 MSTORE DUP1 ISZERO PUSH2 0x696 JUMPI DUP2 PUSH1 0x20 ADD PUSH1 0x20 DUP3 MUL DUP1 CALLDATASIZE DUP4 CALLDATACOPY DUP1 DUP3 ADD SWAP2 POP POP SWAP1 POP JUMPDEST POP SWAP4 POP DUP1 PUSH8 0xFFFFFFFFFFFFFFFF DUP2 GT ISZERO PUSH2 0x6B3 JUMPI PUSH2 0x6B2 PUSH2 0x1003 JUMP JUMPDEST JUMPDEST PUSH1 0x40 MLOAD SWAP1 DUP1 DUP3 MSTORE DUP1 PUSH1 0x20 MUL PUSH1 0x20 ADD DUP3 ADD PUSH1 0x40 MSTORE DUP1 ISZERO PUSH2 0x6E1 JUMPI DUP2 PUSH1 0x20 ADD PUSH1 0x20 DUP3 MUL DUP1 CALLDATASIZE DUP4 CALLDATACOPY DUP1 DUP3 ADD SWAP2 POP POP SWAP1 POP JUMPDEST POP SWAP3 POP DUP1 PUSH8 0xFFFFFFFFFFFFFFFF DUP2 GT ISZERO PUSH2 0x6FE JUMPI PUSH2 0x6FD PUSH2 0x1003 JUMP JUMPDEST JUMPDEST PUSH1 0x40 MLOAD SWAP1 DUP1 DUP3 MSTORE DUP1 PUSH1 0x20 MUL PUSH1 0x20 ADD DUP3 ADD PUSH1 0x40 MSTORE DUP1 ISZERO PUSH2 0x72C JUMPI DUP2 PUSH1 0x20 ADD PUSH1 0x20 DUP3 MUL DUP1 CALLDATASIZE DUP4 CALLDATACOPY DUP1 DUP3 ADD SWAP2 POP POP SWAP1 POP JUMPDEST POP SWAP2 POP PUSH0 JUMPDEST DUP2 DUP2 LT ISZERO PUSH2 0x8C0 JUMPI PUSH0 JUMPDEST DUP7 MLOAD DUP2 LT ISZERO PUSH2 0x8B2 JUMPI PUSH0 DUP1 DUP9 DUP4 DUP2 MLOAD DUP2 LT PUSH2 0x759 JUMPI PUSH2 0x758 PUSH2 0x145C JUMP JUMPDEST JUMPDEST PUSH1 0x20 MUL PUSH1 0x20 ADD ADD MLOAD DUP2 MSTORE PUSH1 0x20 ADD SWAP1 DUP2 MSTORE PUSH1 0x20 ADD PUSH0 KECCAK256 PUSH0 ADD DUP3 DUP2 SLOAD DUP2 LT PUSH2 0x782 JUMPI PUSH2 0x781 PUSH2 0x145C JUMP JUMPDEST JUMPDEST SWAP1 PUSH0 MSTORE PUSH1 0x20 PUSH0 KECCAK256 ADD SLOAD DUP7 DUP4 DUP2 MLOAD DUP2 LT PUSH2 0x79E JUMPI PUSH2 0x79D PUSH2 0x145C JUMP JUMPDEST JUMPDEST PUSH1 0x20 MUL PUSH1 0x20 ADD ADD DUP2 DUP2 MLOAD PUSH2 0x7B2 SWAP2 SWAP1 PUSH2 0x12CE JUMP JUMPDEST SWAP2 POP DUP2 DUP2 MSTORE POP POP PUSH0 DUP1 DUP9 DUP4 DUP2 MLOAD DUP2 LT PUSH2 0x7CE JUMPI PUSH2 0x7CD PUSH2 0x145C JUMP JUMPDEST JUMPDEST PUSH1 0x20 MUL PUSH1 0x20 ADD ADD MLOAD DUP2 MSTORE PUSH1 0x20 ADD SWAP1 DUP2 MSTORE PUSH1 0x20 ADD PUSH0 KECCAK256 PUSH1 0x1 ADD DUP3 DUP2 SLOAD DUP2 LT PUSH2 0x7F8 JUMPI PUSH2 0x7F7 PUSH2 0x145C JUMP JUMPDEST JUMPDEST SWAP1 PUSH0 MSTORE PUSH1 0x20 PUSH0 KECCAK256 ADD SLOAD DUP6 DUP4 DUP2 MLOAD DUP2 LT PUSH2 0x814 JUMPI PUSH2 0x813 PUSH2 0x145C JUMP JUMPDEST JUMPDEST PUSH1 0x20 MUL PUSH1 0x20 ADD ADD DUP2 DUP2 MLOAD PUSH2 0x828 SWAP2 SWAP1 PUSH2 0x12CE JUMP JUMPDEST SWAP2 POP DUP2 DUP2 MSTORE POP POP PUSH0 DUP1 DUP9 DUP4 DUP2 MLOAD DUP2 LT PUSH2 0x844 JUMPI PUSH2 0x843 PUSH2 0x145C JUMP JUMPDEST JUMPDEST PUSH1 0x20 MUL PUSH1 0x20 ADD ADD MLOAD DUP2 MSTORE PUSH1 0x20 ADD SWAP1 DUP2 MSTORE PUSH1 0x20 ADD PUSH0 KECCAK256 PUSH1 0x2 ADD DUP3 DUP2 SLOAD DUP2 LT PUSH2 0x86E JUMPI PUSH2 0x86D PUSH2 0x145C JUMP JUMPDEST JUMPDEST SWAP1 PUSH0 MSTORE PUSH1 0x20 PUSH0 KECCAK256 ADD SLOAD DUP5 DUP4 DUP2 MLOAD DUP2 LT PUSH2 0x88A JUMPI PUSH2 0x889 PUSH2 0x145C JUMP JUMPDEST JUMPDEST PUSH1 0x20 MUL PUSH1 0x20 ADD ADD DUP2 DUP2 MLOAD PUSH2 0x89E SWAP2 SWAP1 PUSH2 0x12CE JUMP JUMPDEST SWAP2 POP DUP2 DUP2 MSTORE POP POP DUP1 DUP1 PUSH1 0x1 ADD SWAP2 POP POP PUSH2 0x73B JUMP JUMPDEST POP DUP1 DUP1 PUSH1 0x1 ADD SWAP2 POP POP PUSH2 0x731 JUMP JUMPDEST POP POP SWAP2 SWAP4 SWAP1 SWAP3 POP JUMP JUMPDEST PUSH0 DUP1 PUSH0 SWAP1 POP PUSH0 DUP1 PUSH0 DUP6 DUP2 MSTORE PUSH1 0x20 ADD SWAP1 DUP2 MSTORE PUSH1 0x20 ADD PUSH0 KECCAK256 PUSH0 ADD DUP1 SLOAD DUP1 PUSH1 0x20 MUL PUSH1 0x20 ADD PUSH1 0x40 MLOAD SWAP1 DUP2 ADD PUSH1 0x40 MSTORE DUP1 SWAP3 SWAP2 SWAP1 DUP2 DUP2 MSTORE PUSH1 0x20 ADD DUP3 DUP1 SLOAD DUP1 ISZERO PUSH2 0x929 JUMPI PUSH1 0x20 MUL DUP3 ADD SWAP2 SWAP1 PUSH0 MSTORE PUSH1 0x20 PUSH0 KECCAK256 SWAP1 JUMPDEST DUP2 SLOAD DUP2 MSTORE PUSH1 0x20 ADD SWAP1 PUSH1 0x1 ADD SWAP1 DUP1 DUP4 GT PUSH2 0x915 JUMPI JUMPDEST POP POP POP POP POP SWAP1 POP PUSH0 JUMPDEST DUP2 MLOAD DUP2 LT ISZERO PUSH2 0x999 JUMPI PUSH0 PUSH9 0x56BC75E2D63100000 DUP4 DUP4 DUP2 MLOAD DUP2 LT PUSH2 0x959 JUMPI PUSH2 0x958 PUSH2 0x145C JUMP JUMPDEST JUMPDEST PUSH1 0x20 MUL PUSH1 0x20 ADD ADD MLOAD PUSH2 0x96B SWAP2 SWAP1 PUSH2 0x151E JUMP JUMPDEST SWAP1 POP PUSH0 DUP2 DUP3 PUSH2 0x97A SWAP2 SWAP1 PUSH2 0x1586 JUMP JUMPDEST SWAP1 POP DUP1 DUP6 PUSH2 0x988 SWAP2 SWAP1 PUSH2 0x12CE JUMP JUMPDEST SWAP5 POP POP POP DUP1 DUP1 PUSH1 0x1 ADD SWAP2 POP POP PUSH2 0x932 JUMP JUMPDEST POP PUSH0 JUMPDEST DUP2 MLOAD DUP2 LT ISZERO PUSH2 0xA03 JUMPI PUSH0 PUSH9 0x56BC75E2D63100000 DUP4 DUP4 DUP2 MLOAD DUP2 LT PUSH2 0x9C3 JUMPI PUSH2 0x9C2 PUSH2 0x145C JUMP JUMPDEST JUMPDEST PUSH1 0x20 MUL PUSH1 0x20 ADD ADD MLOAD PUSH2 0x9D5 SWAP2 SWAP1 PUSH2 0x151E JUMP JUMPDEST SWAP1 POP PUSH0 DUP2 DUP3 PUSH2 0x9E4 SWAP2 SWAP1 PUSH2 0x1586 JUMP JUMPDEST SWAP1 POP DUP1 DUP6 PUSH2 0x9F2 SWAP2 SWAP1 PUSH2 0x12CE JUMP JUMPDEST SWAP5 POP POP POP DUP1 DUP1 PUSH1 0x1 ADD SWAP2 POP POP PUSH2 0x99C JUMP JUMPDEST POP PUSH0 DUP1 PUSH0 DUP7 DUP2 MSTORE PUSH1 0x20 ADD SWAP1 DUP2 MSTORE PUSH1 0x20 ADD PUSH0 KECCAK256 PUSH1 0x1 ADD DUP1 SLOAD DUP1 PUSH1 0x20 MUL PUSH1 0x20 ADD PUSH1 0x40 MLOAD SWAP1 DUP2 ADD PUSH1 0x40 MSTORE DUP1 SWAP3 SWAP2 SWAP1 DUP2 DUP2 MSTORE PUSH1 0x20 ADD DUP3 DUP1 SLOAD DUP1 ISZERO PUSH2 0xA60 JUMPI PUSH1 0x20 MUL DUP3 ADD SWAP2 SWAP1 PUSH0 MSTORE PUSH1 0x20 PUSH0 KECCAK256 SWAP1 JUMPDEST DUP2 SLOAD DUP2 MSTORE PUSH1 0x20 ADD SWAP1 PUSH1 0x1 ADD SWAP1 DUP1 DUP4 GT PUSH2 0xA4C JUMPI JUMPDEST POP POP POP POP POP SWAP1 POP PUSH0 JUMPDEST DUP2 MLOAD DUP2 LT ISZERO PUSH2 0xAD0 JUMPI PUSH0 PUSH9 0x56BC75E2D63100000 DUP4 DUP4 DUP2 MLOAD DUP2 LT PUSH2 0xA90 JUMPI PUSH2 0xA8F PUSH2 0x145C JUMP JUMPDEST JUMPDEST PUSH1 0x20 MUL PUSH1 0x20 ADD ADD MLOAD PUSH2 0xAA2 SWAP2 SWAP1 PUSH2 0x151E JUMP JUMPDEST SWAP1 POP PUSH0 DUP2 DUP3 PUSH2 0xAB1 SWAP2 SWAP1 PUSH2 0x1586 JUMP JUMPDEST SWAP1 POP DUP1 DUP7 PUSH2 0xABF SWAP2 SWAP1 PUSH2 0x12CE JUMP JUMPDEST SWAP6 POP POP POP DUP1 DUP1 PUSH1 0x1 ADD SWAP2 POP POP PUSH2 0xA69 JUMP JUMPDEST POP PUSH0 JUMPDEST DUP2 MLOAD DUP2 LT ISZERO PUSH2 0xB3A JUMPI PUSH0 PUSH9 0x56BC75E2D63100000 DUP4 DUP4 DUP2 MLOAD DUP2 LT PUSH2 0xAFA JUMPI PUSH2 0xAF9 PUSH2 0x145C JUMP JUMPDEST JUMPDEST PUSH1 0x20 MUL PUSH1 0x20 ADD ADD MLOAD PUSH2 0xB0C SWAP2 SWAP1 PUSH2 0x151E JUMP JUMPDEST SWAP1 POP PUSH0 DUP2 DUP3 PUSH2 0xB1B SWAP2 SWAP1 PUSH2 0x1586 JUMP JUMPDEST SWAP1 POP DUP1 DUP7 PUSH2 0xB29 SWAP2 SWAP1 PUSH2 0x12CE JUMP JUMPDEST SWAP6 POP POP POP DUP1 DUP1 PUSH1 0x1 ADD SWAP2 POP POP PUSH2 0xAD3 JUMP JUMPDEST POP PUSH0 DUP1 PUSH0 DUP8 DUP2 MSTORE PUSH1 0x20 ADD SWAP1 DUP2 MSTORE PUSH1 0x20 ADD PUSH0 KECCAK256 PUSH1 0x2 ADD DUP1 SLOAD DUP1 PUSH1 0x20 MUL PUSH1 0x20 ADD PUSH1 0x40 MLOAD SWAP1 DUP2 ADD PUSH1 0x40 MSTORE DUP1 SWAP3 SWAP2 SWAP1 DUP2 DUP2 MSTORE PUSH1 0x20 ADD DUP3 DUP1 SLOAD DUP1 ISZERO PUSH2 0xB97 JUMPI PUSH1 0x20 MUL DUP3 ADD SWAP2 SWAP1 PUSH0 MSTORE PUSH1 0x20 PUSH0 KECCAK256 SWAP1 JUMPDEST DUP2 SLOAD DUP2 MSTORE PUSH1 0x20 ADD SWAP1 PUSH1 0x1 ADD SWAP1 DUP1 DUP4 GT PUSH2 0xB83 JUMPI JUMPDEST POP POP POP POP POP SWAP1 POP PUSH0 JUMPDEST DUP2 MLOAD DUP2 LT ISZERO PUSH2 0xC07 JUMPI PUSH0 PUSH9 0x56BC75E2D63100000 DUP4 DUP4 DUP2 MLOAD DUP2 LT PUSH2 0xBC7 JUMPI PUSH2 0xBC6 PUSH2 0x145C JUMP JUMPDEST JUMPDEST PUSH1 0x20 MUL PUSH1 0x20 ADD ADD MLOAD PUSH2 0xBD9 SWAP2 SWAP1 PUSH2 0x151E JUMP JUMPDEST SWAP1 POP PUSH0 DUP2 DUP3 PUSH2 0xBE8 SWAP2 SWAP1 PUSH2 0x1586 JUMP JUMPDEST SWAP1 POP DUP1 DUP8 PUSH2 0xBF6 SWAP2 SWAP1 PUSH2 0x12CE JUMP JUMPDEST SWAP7 POP POP POP DUP1 DUP1 PUSH1 0x1 ADD SWAP2 POP POP PUSH2 0xBA0 JUMP JUMPDEST POP PUSH0 JUMPDEST DUP2 MLOAD DUP2 LT ISZERO PUSH2 0xC71 JUMPI PUSH0 PUSH9 0x56BC75E2D63100000 DUP4 DUP4 DUP2 MLOAD DUP2 LT PUSH2 0xC31 JUMPI PUSH2 0xC30 PUSH2 0x145C JUMP JUMPDEST JUMPDEST PUSH1 0x20 MUL PUSH1 0x20 ADD ADD MLOAD PUSH2 0xC43 SWAP2 SWAP1 PUSH2 0x151E JUMP JUMPDEST SWAP1 POP PUSH0 DUP2 DUP3 PUSH2 0xC52 SWAP2 SWAP1 PUSH2 0x1586 JUMP JUMPDEST SWAP1 POP DUP1 DUP8 PUSH2 0xC60 SWAP2 SWAP1 PUSH2 0x12CE JUMP JUMPDEST SWAP7 POP POP POP DUP1 DUP1 PUSH1 0x1 ADD SWAP2 POP POP PUSH2 0xC0A JUMP JUMPDEST POP DUP4 SWAP5 POP POP POP POP POP SWAP2 SWAP1 POP JUMP JUMPDEST PUSH1 0x60 PUSH0 DUP1 DUP4 DUP2 MSTORE PUSH1 0x20 ADD SWAP1 DUP2 MSTORE PUSH1 0x20 ADD PUSH0 KECCAK256 PUSH1 0x1 ADD DUP1 SLOAD DUP1 PUSH1 0x20 MUL PUSH1 0x20 ADD PUSH1 0x40 MLOAD SWAP1 DUP2 ADD PUSH1 0x40 MSTORE DUP1 SWAP3 SWAP2 SWAP1 DUP2 DUP2 MSTORE PUSH1 0x20 ADD DUP3 DUP1 SLOAD DUP1 ISZERO PUSH2 0xCDB JUMPI PUSH1 0x20 MUL DUP3 ADD SWAP2 SWAP1 PUSH0 MSTORE PUSH1 0x20 PUSH0 KECCAK256 SWAP1 JUMPDEST DUP2 SLOAD DUP2 MSTORE PUSH1 0x20 ADD SWAP1 PUSH1 0x1 ADD SWAP1 DUP1 DUP4 GT PUSH2 0xCC7 JUMPI JUMPDEST POP POP POP POP POP SWAP1 POP SWAP2 SWAP1 POP JUMP JUMPDEST PUSH1 0x60 PUSH0 DUP1 DUP4 DUP2 MSTORE PUSH1 0x20 ADD SWAP1 DUP2 MSTORE PUSH1 0x20 ADD PUSH0 KECCAK256 PUSH0 ADD DUP1 SLOAD DUP1 PUSH1 0x20 MUL PUSH1 0x20 ADD PUSH1 0x40 MLOAD SWAP1 DUP2 ADD PUSH1 0x40 MSTORE DUP1 SWAP3 SWAP2 SWAP1 DUP2 DUP2 MSTORE PUSH1 0x20 ADD DUP3 DUP1 SLOAD DUP1 ISZERO PUSH2 0xD43 JUMPI PUSH1 0x20 MUL DUP3 ADD SWAP2 SWAP1 PUSH0 MSTORE PUSH1 0x20 PUSH0 KECCAK256 SWAP1 JUMPDEST DUP2 SLOAD DUP2 MSTORE PUSH1 0x20 ADD SWAP1 PUSH1 0x1 ADD SWAP1 DUP1 DUP4 GT PUSH2 0xD2F JUMPI JUMPDEST POP POP POP POP POP SWAP1 POP SWAP2 SWAP1 POP JUMP JUMPDEST PUSH0 DUP1 PUSH0 SWAP1 POP PUSH0 JUMPDEST DUP4 MLOAD DUP2 LT ISZERO PUSH2 0xDB7 JUMPI PUSH0 PUSH8 0x8AC7230489E80000 DUP6 DUP4 DUP2 MLOAD DUP2 LT PUSH2 0xD7C JUMPI PUSH2 0xD7B PUSH2 0x145C JUMP JUMPDEST JUMPDEST PUSH1 0x20 MUL PUSH1 0x20 ADD ADD MLOAD PUSH2 0xD8E SWAP2 SWAP1 PUSH2 0x151E JUMP JUMPDEST SWAP1 POP DUP1 DUP2 PUSH2 0xD9C SWAP2 SWAP1 PUSH2 0x1586 JUMP JUMPDEST DUP4 PUSH2 0xDA7 SWAP2 SWAP1 PUSH2 0x12CE JUMP JUMPDEST SWAP3 POP POP DUP1 DUP1 PUSH1 0x1 ADD SWAP2 POP POP PUSH2 0xD56 JUMP JUMPDEST POP DUP1 SWAP2 POP POP SWAP2 SWAP1 POP JUMP JUMPDEST DUP3 DUP1 SLOAD DUP3 DUP3 SSTORE SWAP1 PUSH0 MSTORE PUSH1 0x20 PUSH0 KECCAK256 SWAP1 DUP2 ADD SWAP3 DUP3 ISZERO PUSH2 0xDFB JUMPI SWAP2 PUSH1 0x20 MUL DUP3 ADD JUMPDEST DUP3 DUP2 GT ISZERO PUSH2 0xDFA JUMPI DUP3 MLOAD DUP3 SSTORE SWAP2 PUSH1 0x20 ADD SWAP2 SWAP1 PUSH1 0x1 ADD SWAP1 PUSH2 0xDDF JUMP JUMPDEST JUMPDEST POP SWAP1 POP PUSH2 0xE08 SWAP2 SWAP1 PUSH2 0xE0C JUMP JUMPDEST POP SWAP1 JUMP JUMPDEST JUMPDEST DUP1 DUP3 GT ISZERO PUSH2 0xE23 JUMPI PUSH0 DUP2 PUSH0 SWAP1 SSTORE POP PUSH1 0x1 ADD PUSH2 0xE0D JUMP JUMPDEST POP SWAP1 JUMP JUMPDEST PUSH0 PUSH1 0x40 MLOAD SWAP1 POP SWAP1 JUMP JUMPDEST PUSH0 DUP1 REVERT JUMPDEST PUSH0 DUP1 REVERT JUMPDEST PUSH0 DUP2 SWAP1 POP SWAP2 SWAP1 POP JUMP JUMPDEST PUSH2 0xE4A DUP2 PUSH2 0xE38 JUMP JUMPDEST DUP2 EQ PUSH2 0xE54 JUMPI PUSH0 DUP1 REVERT JUMPDEST POP JUMP JUMPDEST PUSH0 DUP2 CALLDATALOAD SWAP1 POP PUSH2 0xE65 DUP2 PUSH2 0xE41 JUMP JUMPDEST SWAP3 SWAP2 POP POP JUMP JUMPDEST PUSH0 DUP1 PUSH1 0x40 DUP4 DUP6 SUB SLT ISZERO PUSH2 0xE81 JUMPI PUSH2 0xE80 PUSH2 0xE30 JUMP JUMPDEST JUMPDEST PUSH0 PUSH2 0xE8E DUP6 DUP3 DUP7 ADD PUSH2 0xE57 JUMP JUMPDEST SWAP3 POP POP PUSH1 0x20 PUSH2 0xE9F DUP6 DUP3 DUP7 ADD PUSH2 0xE57 JUMP JUMPDEST SWAP2 POP POP SWAP3 POP SWAP3 SWAP1 POP JUMP JUMPDEST PUSH2 0xEB2 DUP2 PUSH2 0xE38 JUMP JUMPDEST DUP3 MSTORE POP POP JUMP JUMPDEST PUSH0 PUSH1 0x60 DUP3 ADD SWAP1 POP PUSH2 0xECB PUSH0 DUP4 ADD DUP7 PUSH2 0xEA9 JUMP JUMPDEST PUSH2 0xED8 PUSH1 0x20 DUP4 ADD DUP6 PUSH2 0xEA9 JUMP JUMPDEST PUSH2 0xEE5 PUSH1 0x40 DUP4 ADD DUP5 PUSH2 0xEA9 JUMP JUMPDEST SWAP5 SWAP4 POP POP POP POP JUMP JUMPDEST PUSH0 PUSH1 0x20 DUP3 DUP5 SUB SLT ISZERO PUSH2 0xF02 JUMPI PUSH2 0xF01 PUSH2 0xE30 JUMP JUMPDEST JUMPDEST PUSH0 PUSH2 0xF0F DUP5 DUP3 DUP6 ADD PUSH2 0xE57 JUMP JUMPDEST SWAP2 POP POP SWAP3 SWAP2 POP POP JUMP JUMPDEST PUSH0 DUP2 MLOAD SWAP1 POP SWAP2 SWAP1 POP JUMP JUMPDEST PUSH0 DUP3 DUP3 MSTORE PUSH1 0x20 DUP3 ADD SWAP1 POP SWAP3 SWAP2 POP POP JUMP JUMPDEST PUSH0 DUP2 SWAP1 POP PUSH1 0x20 DUP3 ADD SWAP1 POP SWAP2 SWAP1 POP JUMP JUMPDEST PUSH2 0xF4A DUP2 PUSH2 0xE38 JUMP JUMPDEST DUP3 MSTORE POP POP JUMP JUMPDEST PUSH0 PUSH2 0xF5B DUP4 DUP4 PUSH2 0xF41 JUMP JUMPDEST PUSH1 0x20 DUP4 ADD SWAP1 POP SWAP3 SWAP2 POP POP JUMP JUMPDEST PUSH0 PUSH1 0x20 DUP3 ADD SWAP1 POP SWAP2 SWAP1 POP JUMP JUMPDEST PUSH0 PUSH2 0xF7D DUP3 PUSH2 0xF18 JUMP JUMPDEST PUSH2 0xF87 DUP2 DUP6 PUSH2 0xF22 JUMP JUMPDEST SWAP4 POP PUSH2 0xF92 DUP4 PUSH2 0xF32 JUMP JUMPDEST DUP1 PUSH0 JUMPDEST DUP4 DUP2 LT ISZERO PUSH2 0xFC2 JUMPI DUP2 MLOAD PUSH2 0xFA9 DUP9 DUP3 PUSH2 0xF50 JUMP JUMPDEST SWAP8 POP PUSH2 0xFB4 DUP4 PUSH2 0xF67 JUMP JUMPDEST SWAP3 POP POP PUSH1 0x1 DUP2 ADD SWAP1 POP PUSH2 0xF95 JUMP JUMPDEST POP DUP6 SWAP4 POP POP POP POP SWAP3 SWAP2 POP POP JUMP JUMPDEST PUSH0 PUSH1 0x20 DUP3 ADD SWAP1 POP DUP2 DUP2 SUB PUSH0 DUP4 ADD MSTORE PUSH2 0xFE7 DUP2 DUP5 PUSH2 0xF73 JUMP JUMPDEST SWAP1 POP SWAP3 SWAP2 POP POP JUMP JUMPDEST PUSH0 DUP1 REVERT JUMPDEST PUSH0 PUSH1 0x1F NOT PUSH1 0x1F DUP4 ADD AND SWAP1 POP SWAP2 SWAP1 POP JUMP JUMPDEST PUSH32 0x4E487B7100000000000000000000000000000000000000000000000000000000 PUSH0 MSTORE PUSH1 0x41 PUSH1 0x4 MSTORE PUSH1 0x24 PUSH0 REVERT JUMPDEST PUSH2 0x1039 DUP3 PUSH2 0xFF3 JUMP JUMPDEST DUP2 ADD DUP2 DUP2 LT PUSH8 0xFFFFFFFFFFFFFFFF DUP3 GT OR ISZERO PUSH2 0x1058 JUMPI PUSH2 0x1057 PUSH2 0x1003 JUMP JUMPDEST JUMPDEST DUP1 PUSH1 0x40 MSTORE POP POP POP JUMP JUMPDEST PUSH0 PUSH2 0x106A PUSH2 0xE27 JUMP JUMPDEST SWAP1 POP PUSH2 0x1076 DUP3 DUP3 PUSH2 0x1030 JUMP JUMPDEST SWAP2 SWAP1 POP JUMP JUMPDEST PUSH0 PUSH8 0xFFFFFFFFFFFFFFFF DUP3 GT ISZERO PUSH2 0x1095 JUMPI PUSH2 0x1094 PUSH2 0x1003 JUMP JUMPDEST JUMPDEST PUSH1 0x20 DUP3 MUL SWAP1 POP PUSH1 0x20 DUP2 ADD SWAP1 POP SWAP2 SWAP1 POP JUMP JUMPDEST PUSH0 DUP1 REVERT JUMPDEST PUSH0 PUSH2 0x10BC PUSH2 0x10B7 DUP5 PUSH2 0x107B JUMP JUMPDEST PUSH2 0x1061 JUMP JUMPDEST SWAP1 POP DUP1 DUP4 DUP3 MSTORE PUSH1 0x20 DUP3 ADD SWAP1 POP PUSH1 0x20 DUP5 MUL DUP4 ADD DUP6 DUP2 GT ISZERO PUSH2 0x10DF JUMPI PUSH2 0x10DE PUSH2 0x10A6 JUMP JUMPDEST JUMPDEST DUP4 JUMPDEST DUP2 DUP2 LT ISZERO PUSH2 0x1108 JUMPI DUP1 PUSH2 0x10F4 DUP9 DUP3 PUSH2 0xE57 JUMP JUMPDEST DUP5 MSTORE PUSH1 0x20 DUP5 ADD SWAP4 POP POP PUSH1 0x20 DUP2 ADD SWAP1 POP PUSH2 0x10E1 JUMP JUMPDEST POP POP POP SWAP4 SWAP3 POP POP POP JUMP JUMPDEST PUSH0 DUP3 PUSH1 0x1F DUP4 ADD SLT PUSH2 0x1126 JUMPI PUSH2 0x1125 PUSH2 0xFEF JUMP JUMPDEST JUMPDEST DUP2 CALLDATALOAD PUSH2 0x1136 DUP5 DUP3 PUSH1 0x20 DUP7 ADD PUSH2 0x10AA JUMP JUMPDEST SWAP2 POP POP SWAP3 SWAP2 POP POP JUMP JUMPDEST PUSH0 DUP1 PUSH0 DUP1 PUSH1 0x80 DUP6 DUP8 SUB SLT ISZERO PUSH2 0x1157 JUMPI PUSH2 0x1156 PUSH2 0xE30 JUMP JUMPDEST JUMPDEST PUSH0 PUSH2 0x1164 DUP8 DUP3 DUP9 ADD PUSH2 0xE57 JUMP JUMPDEST SWAP5 POP POP PUSH1 0x20 DUP6 ADD CALLDATALOAD PUSH8 0xFFFFFFFFFFFFFFFF DUP2 GT ISZERO PUSH2 0x1185 JUMPI PUSH2 0x1184 PUSH2 0xE34 JUMP JUMPDEST JUMPDEST PUSH2 0x1191 DUP8 DUP3 DUP9 ADD PUSH2 0x1112 JUMP JUMPDEST SWAP4 POP POP PUSH1 0x40 DUP6 ADD CALLDATALOAD PUSH8 0xFFFFFFFFFFFFFFFF DUP2 GT ISZERO PUSH2 0x11B2 JUMPI PUSH2 0x11B1 PUSH2 0xE34 JUMP JUMPDEST JUMPDEST PUSH2 0x11BE DUP8 DUP3 DUP9 ADD PUSH2 0x1112 JUMP JUMPDEST SWAP3 POP POP PUSH1 0x60 DUP6 ADD CALLDATALOAD PUSH8 0xFFFFFFFFFFFFFFFF DUP2 GT ISZERO PUSH2 0x11DF JUMPI PUSH2 0x11DE PUSH2 0xE34 JUMP JUMPDEST JUMPDEST PUSH2 0x11EB DUP8 DUP3 DUP9 ADD PUSH2 0x1112 JUMP JUMPDEST SWAP2 POP POP SWAP3 SWAP6 SWAP2 SWAP5 POP SWAP3 POP JUMP JUMPDEST PUSH0 PUSH1 0x20 DUP3 DUP5 SUB SLT ISZERO PUSH2 0x120C JUMPI PUSH2 0x120B PUSH2 0xE30 JUMP JUMPDEST JUMPDEST PUSH0 DUP3 ADD CALLDATALOAD PUSH8 0xFFFFFFFFFFFFFFFF DUP2 GT ISZERO PUSH2 0x1229 JUMPI PUSH2 0x1228 PUSH2 0xE34 JUMP JUMPDEST JUMPDEST PUSH2 0x1235 DUP5 DUP3 DUP6 ADD PUSH2 0x1112 JUMP JUMPDEST SWAP2 POP POP SWAP3 SWAP2 POP POP JUMP JUMPDEST PUSH0 PUSH1 0x60 DUP3 ADD SWAP1 POP DUP2 DUP2 SUB PUSH0 DUP4 ADD MSTORE PUSH2 0x1256 DUP2 DUP7 PUSH2 0xF73 JUMP JUMPDEST SWAP1 POP DUP2 DUP2 SUB PUSH1 0x20 DUP4 ADD MSTORE PUSH2 0x126A DUP2 DUP6 PUSH2 0xF73 JUMP JUMPDEST SWAP1 POP DUP2 DUP2 SUB PUSH1 0x40 DUP4 ADD MSTORE PUSH2 0x127E DUP2 DUP5 PUSH2 0xF73 JUMP JUMPDEST SWAP1 POP SWAP5 SWAP4 POP POP POP POP JUMP JUMPDEST PUSH0 PUSH1 0x20 DUP3 ADD SWAP1 POP PUSH2 0x129B PUSH0 DUP4 ADD DUP5 PUSH2 0xEA9 JUMP JUMPDEST SWAP3 SWAP2 POP POP JUMP JUMPDEST PUSH32 0x4E487B7100000000000000000000000000000000000000000000000000000000 PUSH0 MSTORE PUSH1 0x11 PUSH1 0x4 MSTORE PUSH1 0x24 PUSH0 REVERT JUMPDEST PUSH0 PUSH2 0x12D8 DUP3 PUSH2 0xE38 JUMP JUMPDEST SWAP2 POP PUSH2 0x12E3 DUP4 PUSH2 0xE38 JUMP JUMPDEST SWAP3 POP DUP3 DUP3 ADD SWAP1 POP DUP3 DUP2 SLT ISZERO PUSH0 DUP4 SLT AND DUP4 DUP3 SLT PUSH0 DUP5 SLT ISZERO AND OR ISZERO PUSH2 0x1309 JUMPI PUSH2 0x1308 PUSH2 0x12A1 JUMP JUMPDEST JUMPDEST SWAP3 SWAP2 POP POP JUMP JUMPDEST PUSH0 PUSH2 0x1319 DUP3 PUSH2 0xE38 JUMP JUMPDEST SWAP2 POP PUSH32 0x7FFFFFFFFFFFFFFFFFFFFFFFFFFFFFFFFFFFFFFFFFFFFFFFFFFFFFFFFFFFFFFF DUP3 SUB PUSH2 0x134B JUMPI PUSH2 0x134A PUSH2 0x12A1 JUMP JUMPDEST JUMPDEST PUSH1 0x1 DUP3 ADD SWAP1 POP SWAP2 SWAP1 POP JUMP JUMPDEST PUSH0 DUP3 DUP3 MSTORE PUSH1 0x20 DUP3 ADD SWAP1 POP SWAP3 SWAP2 POP POP JUMP JUMPDEST PUSH32 0x416C6C20617272617973206D7573742068617665207468652073616D65206C65 PUSH0 DUP3 ADD MSTORE PUSH32 0x6E67746800000000000000000000000000000000000000000000000000000000 PUSH1 0x20 DUP3 ADD MSTORE POP JUMP JUMPDEST PUSH0 PUSH2 0x13C0 PUSH1 0x24 DUP4 PUSH2 0x1356 JUMP JUMPDEST SWAP2 POP PUSH2 0x13CB DUP3 PUSH2 0x1366 JUMP JUMPDEST PUSH1 0x40 DUP3 ADD SWAP1 POP SWAP2 SWAP1 POP JUMP JUMPDEST PUSH0 PUSH1 0x20 DUP3 ADD SWAP1 POP DUP2 DUP2 SUB PUSH0 DUP4 ADD MSTORE PUSH2 0x13ED DUP2 PUSH2 0x13B4 JUMP JUMPDEST SWAP1 POP SWAP2 SWAP1 POP JUMP JUMPDEST PUSH32 0x4174206C65617374206F6E65206B657920697320726571756972656400000000 PUSH0 DUP3 ADD MSTORE POP JUMP JUMPDEST PUSH0 PUSH2 0x1428 PUSH1 0x1C DUP4 PUSH2 0x1356 JUMP JUMPDEST SWAP2 POP PUSH2 0x1433 DUP3 PUSH2 0x13F4 JUMP JUMPDEST PUSH1 0x20 DUP3 ADD SWAP1 POP SWAP2 SWAP1 POP JUMP JUMPDEST PUSH0 PUSH1 0x20 DUP3 ADD SWAP1 POP DUP2 DUP2 SUB PUSH0 DUP4 ADD MSTORE PUSH2 0x1455 DUP2 PUSH2 0x141C JUMP JUMPDEST SWAP1 POP SWAP2 SWAP1 POP JUMP JUMPDEST PUSH32 0x4E487B7100000000000000000000000000000000000000000000000000000000 PUSH0 MSTORE PUSH1 0x32 PUSH1 0x4 MSTORE PUSH1 0x24 PUSH0 REVERT JUMPDEST PUSH32 0x4172726179206C656E677468206D69736D6174636820616D6F6E67206B657973 PUSH0 DUP3 ADD MSTORE POP JUMP JUMPDEST PUSH0 PUSH2 0x14BD PUSH1 0x20 DUP4 PUSH2 0x1356 JUMP JUMPDEST SWAP2 POP PUSH2 0x14C8 DUP3 PUSH2 0x1489 JUMP JUMPDEST PUSH1 0x20 DUP3 ADD SWAP1 POP SWAP2 SWAP1 POP JUMP JUMPDEST PUSH0 PUSH1 0x20 DUP3 ADD SWAP1 POP DUP2 DUP2 SUB PUSH0 DUP4 ADD MSTORE PUSH2 0x14EA DUP2 PUSH2 0x14B1 JUMP JUMPDEST SWAP1 POP SWAP2 SWAP1 POP JUMP JUMPDEST PUSH32 0x4E487B7100000000000000000000000000000000000000000000000000000000 PUSH0 MSTORE PUSH1 0x12 PUSH1 0x4 MSTORE PUSH1 0x24 PUSH0 REVERT JUMPDEST PUSH0 PUSH2 0x1528 DUP3 PUSH2 0xE38 JUMP JUMPDEST SWAP2 POP PUSH2 0x1533 DUP4 PUSH2 0xE38 JUMP JUMPDEST SWAP3 POP DUP3 PUSH2 0x1543 JUMPI PUSH2 0x1542 PUSH2 0x14F1 JUMP JUMPDEST JUMPDEST PUSH1 0x1 PUSH0 SUB DUP4 EQ PUSH32 0x8000000000000000000000000000000000000000000000000000000000000000 DUP4 EQ AND ISZERO PUSH2 0x157B JUMPI PUSH2 0x157A PUSH2 0x12A1 JUMP JUMPDEST JUMPDEST DUP3 DUP3 SDIV SWAP1 POP SWAP3 SWAP2 POP POP JUMP JUMPDEST PUSH0 PUSH2 0x1590 DUP3 PUSH2 0xE38 JUMP JUMPDEST SWAP2 POP PUSH2 0x159B DUP4 PUSH2 0xE38 JUMP JUMPDEST SWAP3 POP DUP3 DUP3 MUL PUSH2 0x15A9 DUP2 PUSH2 0xE38 JUMP JUMPDEST SWAP2 POP PUSH32 0x8000000000000000000000000000000000000000000000000000000000000000 DUP5 EQ PUSH0 DUP5 SLT AND ISZERO PUSH2 0x15E0 JUMPI PUSH2 0x15DF PUSH2 0x12A1 JUMP JUMPDEST JUMPDEST DUP3 DUP3 SDIV DUP5 EQ DUP4 ISZERO OR PUSH2 0x15F5 JUMPI PUSH2 0x15F4 PUSH2 0x12A1 JUMP JUMPDEST JUMPDEST POP SWAP3 SWAP2 POP POP JUMP INVALID LOG2 PUSH5 0x6970667358 0x22 SLT KECCAK256 0xDF 0xAC BLOBHASH SLOAD PUSH6 0x82C816494A2F 0xEF PREVRANDAO SLOAD RETURN 0x28 EXTCODECOPY 0x4B 0xC6 0xB4 0xB1 CREATE2 0x4D PUSH30 0xB346E825B5B9033664736F6C634300081900330000000000000000000000 "
				},
				"gasEstimates": {
					"creation": {
						"codeDepositCost": "1136400",
						"executionCost": "1178",
						"totalCost": "1137578"
					},
					"external": {
						"addArrays(int256[])": "infinite",
						"calculateAndStoreSquareSum(int256)": "infinite",
						"computeSumOfSquaresInRange(int256,int256)": "infinite",
						"getBeta(int256)": "infinite",
						"getGrad(int256)": "infinite",
						"getSigma(int256)": "infinite",
						"storeData(int256,int256[],int256[],int256[])": "infinite"
					},
					"internal": {
						"processAndSumOfSquares(int256[] memory)": "infinite"
					}
				},
				"methodIdentifiers": {
					"addArrays(int256[])": "83e6e9c8",
					"calculateAndStoreSquareSum(int256)": "8b99ee23",
					"computeSumOfSquaresInRange(int256,int256)": "3e463da2",
					"getBeta(int256)": "9e96d76d",
					"getGrad(int256)": "b892ca35",
					"getSigma(int256)": "43858f3f",
					"storeData(int256,int256[],int256[],int256[])": "61c1f355"
				}
			},
			"storageLayout": {
				"storage": [
					{
						"astId": 16,
						"contract": "10.sol:DataStorage",
						"label": "dataStore",
						"offset": 0,
						"slot": "0",
						"type": "t_mapping(t_int256,t_struct(Data)11_storage)"
					}
				],
				"types": {
					"t_array(t_int256)dyn_storage": {
						"base": "t_int256",
						"encoding": "dynamic_array",
						"label": "int256[]",
						"numberOfBytes": "32"
					},
					"t_int256": {
						"encoding": "inplace",
						"label": "int256",
						"numberOfBytes": "32"
					},
					"t_mapping(t_int256,t_struct(Data)11_storage)": {
						"encoding": "mapping",
						"key": "t_int256",
						"label": "mapping(int256 => struct DataStorage.Data)",
						"numberOfBytes": "32",
						"value": "t_struct(Data)11_storage"
					},
					"t_struct(Data)11_storage": {
						"encoding": "inplace",
						"label": "struct DataStorage.Data",
						"members": [
							{
								"astId": 4,
								"contract": "10.sol:DataStorage",
								"label": "grad",
								"offset": 0,
								"slot": "0",
								"type": "t_array(t_int256)dyn_storage"
							},
							{
								"astId": 7,
								"contract": "10.sol:DataStorage",
								"label": "beta",
								"offset": 0,
								"slot": "1",
								"type": "t_array(t_int256)dyn_storage"
							},
							{
								"astId": 10,
								"contract": "10.sol:DataStorage",
								"label": "sigma",
								"offset": 0,
								"slot": "2",
								"type": "t_array(t_int256)dyn_storage"
							}
						],
						"numberOfBytes": "96"
					}
				}
			},
			"userdoc": {
				"kind": "user",
				"methods": {},
				"version": 1
			}
		}
	}
}